{"contracts/MrKrabz.sol":{"MrKrabz":{"abi":[{"inputs":[{"internalType":"address","name":"_gateway","type":"address"},{"internalType":"address","name":"_gasReceiver","type":"address"},{"internalType":"address payable","name":"_tellorAddress","type":"address"},{"internalType":"address","name":"_krabzTokenAddress","type":"address"}],"stateMutability":"nonpayable","type":"constructor"},{"inputs":[],"name":"InvalidAddress","type":"error"},{"inputs":[],"name":"NotApprovedByGateway","type":"error"},{"inputs":[],"name":"FILECOIN_CHAIN_ID","outputs":[{"internalType":"uint256","name":"","type":"uint256"}],"stateMutability":"view","type":"function"},{"inputs":[],"name":"MAX_TICKET_PER_ROUND","outputs":[{"internalType":"uint256","name":"","type":"uint256"}],"stateMutability":"view","type":"function"},{"inputs":[],"name":"POLYGON_CHAIN_ID","outputs":[{"internalType":"uint256","name":"","type":"uint256"}],"stateMutability":"view","type":"function"},{"inputs":[],"name":"PREDICTABLE_VALUE","outputs":[{"internalType":"uint256","name":"","type":"uint256"}],"stateMutability":"view","type":"function"},{"inputs":[{"internalType":"uint256[3]","name":"_selectedNumbers","type":"uint256[3]"},{"internalType":"bool","name":"_nativeAsset","type":"bool"},{"internalType":"uint256","name":"_estimateGasAmountOne","type":"uint256"}],"name":"buyTicket","outputs":[],"stateMutability":"nonpayable","type":"function"},{"inputs":[],"name":"buyTicketPath","outputs":[{"internalType":"uint256","name":"","type":"uint256"}],"stateMutability":"view","type":"function"},{"inputs":[{"internalType":"uint256","name":"_ticketId","type":"uint256"},{"internalType":"uint256","name":"_estimateGasAmountOne","type":"uint256"}],"name":"claimRefund","outputs":[],"stateMutability":"nonpayable","type":"function"},{"inputs":[{"internalType":"uint256","name":"_ticketId","type":"uint256"},{"internalType":"uint256","name":"_estimateGasAmountOne","type":"uint256"}],"name":"claimWinnings","outputs":[],"stateMutability":"nonpayable","type":"function"},{"inputs":[],"name":"claimWinningsPath","outputs":[{"internalType":"uint256","name":"","type":"uint256"}],"stateMutability":"view","type":"function"},{"inputs":[],"name":"currentRound","outputs":[{"internalType":"uint256","name":"","type":"uint256"}],"stateMutability":"view","type":"function"},{"inputs":[],"name":"deployer","outputs":[{"internalType":"address","name":"","type":"address"}],"stateMutability":"view","type":"function"},{"inputs":[{"internalType":"bytes32","name":"commandId","type":"bytes32"},{"internalType":"string","name":"sourceChain","type":"string"},{"internalType":"string","name":"sourceAddress","type":"string"},{"internalType":"bytes","name":"payload","type":"bytes"}],"name":"execute","outputs":[],"stateMutability":"nonpayable","type":"function"},{"inputs":[{"internalType":"bytes32","name":"commandId","type":"bytes32"},{"internalType":"string","name":"sourceChain","type":"string"},{"internalType":"string","name":"sourceAddress","type":"string"},{"internalType":"bytes","name":"payload","type":"bytes"},{"internalType":"string","name":"tokenSymbol","type":"string"},{"internalType":"uint256","name":"amount","type":"uint256"}],"name":"executeWithToken","outputs":[],"stateMutability":"nonpayable","type":"function"},{"inputs":[],"name":"filecoinChain","outputs":[{"internalType":"string","name":"","type":"string"}],"stateMutability":"view","type":"function"},{"inputs":[],"name":"filecoinDestinationAddr","outputs":[{"internalType":"string","name":"","type":"string"}],"stateMutability":"view","type":"function"},{"inputs":[],"name":"gasService","outputs":[{"internalType":"contract IAxelarGasService","name":"","type":"address"}],"stateMutability":"view","type":"function"},{"inputs":[],"name":"gateway","outputs":[{"internalType":"contract IAxelarGateway","name":"","type":"address"}],"stateMutability":"view","type":"function"},{"inputs":[{"internalType":"string","name":"_assetName","type":"string"}],"name":"getAssetPriceUsd","outputs":[{"internalType":"uint256","name":"","type":"uint256"}],"stateMutability":"view","type":"function"},{"inputs":[],"name":"getCurrentRoundDetails","outputs":[{"components":[{"internalType":"string","name":"roundName","type":"string"},{"internalType":"uint256","name":"roundId","type":"uint256"},{"internalType":"uint256","name":"ticketsPurchased","type":"uint256"},{"internalType":"uint256","name":"roundEndTime","type":"uint256"},{"internalType":"uint256","name":"ticketPrice","type":"uint256"},{"internalType":"uint256[3]","name":"roundWinningNumbers","type":"uint256[3]"},{"internalType":"bool","name":"roundState","type":"bool"},{"components":[{"internalType":"uint256","name":"fil","type":"uint256"},{"internalType":"uint256","name":"matic","type":"uint256"},{"internalType":"uint256","name":"krabz","type":"uint256"}],"internalType":"struct MrKrabz.CrossChainBalance","name":"balance","type":"tuple"}],"internalType":"struct MrKrabz.Round","name":"","type":"tuple"}],"stateMutability":"view","type":"function"},{"inputs":[],"name":"getCurrentTimeStamp","outputs":[{"internalType":"uint256","name":"","type":"uint256"}],"stateMutability":"view","type":"function"},{"inputs":[{"internalType":"bytes32","name":"_queryId","type":"bytes32"},{"internalType":"uint256","name":"_timestamp","type":"uint256"}],"name":"getDataAfter","outputs":[{"internalType":"bytes","name":"_value","type":"bytes"},{"internalType":"uint256","name":"_timestampRetrieved","type":"uint256"}],"stateMutability":"view","type":"function"},{"inputs":[{"internalType":"bytes32","name":"_queryId","type":"bytes32"},{"internalType":"uint256","name":"_timestamp","type":"uint256"}],"name":"getDataBefore","outputs":[{"internalType":"bytes","name":"_value","type":"bytes"},{"internalType":"uint256","name":"_timestampRetrieved","type":"uint256"}],"stateMutability":"view","type":"function"},{"inputs":[{"internalType":"bytes32","name":"_queryId","type":"bytes32"},{"internalType":"uint256","name":"_timestamp","type":"uint256"}],"name":"getIndexForDataAfter","outputs":[{"internalType":"bool","name":"_found","type":"bool"},{"internalType":"uint256","name":"_index","type":"uint256"}],"stateMutability":"view","type":"function"},{"inputs":[{"internalType":"bytes32","name":"_queryId","type":"bytes32"},{"internalType":"uint256","name":"_timestamp","type":"uint256"}],"name":"getIndexForDataBefore","outputs":[{"internalType":"bool","name":"_found","type":"bool"},{"internalType":"uint256","name":"_index","type":"uint256"}],"stateMutability":"view","type":"function"},{"inputs":[{"internalType":"bytes32","name":"_queryId","type":"bytes32"},{"internalType":"uint256","name":"_timestamp","type":"uint256"},{"internalType":"uint256","name":"_maxAge","type":"uint256"},{"internalType":"uint256","name":"_maxCount","type":"uint256"}],"name":"getMultipleValuesBefore","outputs":[{"internalType":"bytes[]","name":"_values","type":"bytes[]"},{"internalType":"uint256[]","name":"_timestamps","type":"uint256[]"}],"stateMutability":"view","type":"function"},{"inputs":[{"internalType":"bytes32","name":"_queryId","type":"bytes32"}],"name":"getNewValueCountbyQueryId","outputs":[{"internalType":"uint256","name":"","type":"uint256"}],"stateMutability":"view","type":"function"},{"inputs":[{"internalType":"bytes32","name":"_queryId","type":"bytes32"},{"internalType":"uint256","name":"_timestamp","type":"uint256"}],"name":"getReporterByTimestamp","outputs":[{"internalType":"address","name":"","type":"address"}],"stateMutability":"view","type":"function"},{"inputs":[],"name":"getRoundPoolBalanceUsd","outputs":[{"internalType":"uint256","name":"","type":"uint256"}],"stateMutability":"view","type":"function"},{"inputs":[{"internalType":"address","name":"_user","type":"address"}],"name":"getTicketsPurchasedPerRound","outputs":[{"internalType":"uint256","name":"","type":"uint256"}],"stateMutability":"view","type":"function"},{"inputs":[{"internalType":"bytes32","name":"_queryId","type":"bytes32"},{"internalType":"uint256","name":"_index","type":"uint256"}],"name":"getTimestampbyQueryIdandIndex","outputs":[{"internalType":"uint256","name":"","type":"uint256"}],"stateMutability":"view","type":"function"},{"inputs":[],"name":"getTotalRoundWinners","outputs":[{"internalType":"uint256","name":"","type":"uint256"}],"stateMutability":"view","type":"function"},{"inputs":[{"internalType":"address","name":"_user","type":"address"}],"name":"getUserDetails","outputs":[{"components":[{"internalType":"address","name":"user","type":"address"},{"internalType":"uint256","name":"totalTicketsPurchased","type":"uint256"},{"internalType":"uint256","name":"totalWinnings","type":"uint256"},{"components":[{"internalType":"uint256","name":"fil","type":"uint256"},{"internalType":"uint256","name":"matic","type":"uint256"},{"internalType":"uint256","name":"krabz","type":"uint256"}],"internalType":"struct MrKrabz.CrossChainBalance","name":"balance","type":"tuple"}],"internalType":"struct MrKrabz.User","name":"","type":"tuple"}],"stateMutability":"view","type":"function"},{"inputs":[{"internalType":"address","name":"_user","type":"address"}],"name":"getUserTicketsForCurrentRound","outputs":[{"components":[{"internalType":"address","name":"owner","type":"address"},{"internalType":"uint256","name":"ID","type":"uint256"},{"internalType":"uint256[3]","name":"selectedNumbers","type":"uint256[3]"},{"internalType":"bool","name":"withdrawn","type":"bool"},{"internalType":"uint256","name":"originChain","type":"uint256"}],"internalType":"struct MrKrabz.Ticket[]","name":"","type":"tuple[]"}],"stateMutability":"view","type":"function"},{"inputs":[],"name":"idMappingContract","outputs":[{"internalType":"contract IMappingContract","name":"","type":"address"}],"stateMutability":"view","type":"function"},{"inputs":[{"internalType":"bytes32","name":"_queryId","type":"bytes32"},{"internalType":"uint256","name":"_timestamp","type":"uint256"}],"name":"isInDispute","outputs":[{"internalType":"bool","name":"","type":"bool"}],"stateMutability":"view","type":"function"},{"inputs":[{"internalType":"uint256","name":"_ticketId","type":"uint256"}],"name":"isWinner","outputs":[{"internalType":"bool","name":"","type":"bool"}],"stateMutability":"view","type":"function"},{"inputs":[],"name":"krabzTokenAddress","outputs":[{"internalType":"address","name":"","type":"address"}],"stateMutability":"view","type":"function"},{"inputs":[],"name":"newRoundPath","outputs":[{"internalType":"uint256","name":"","type":"uint256"}],"stateMutability":"view","type":"function"},{"inputs":[],"name":"polygonChain","outputs":[{"internalType":"string","name":"","type":"string"}],"stateMutability":"view","type":"function"},{"inputs":[],"name":"polygonDestinationAddr","outputs":[{"internalType":"string","name":"","type":"string"}],"stateMutability":"view","type":"function"},{"inputs":[{"internalType":"bytes32","name":"_queryId","type":"bytes32"},{"internalType":"uint256","name":"_timestamp","type":"uint256"}],"name":"retrieveData","outputs":[{"internalType":"bytes","name":"","type":"bytes"}],"stateMutability":"view","type":"function"},{"inputs":[{"internalType":"uint256","name":"","type":"uint256"}],"name":"roundIdToRoundDetails_","outputs":[{"internalType":"string","name":"roundName","type":"string"},{"internalType":"uint256","name":"roundId","type":"uint256"},{"internalType":"uint256","name":"ticketsPurchased","type":"uint256"},{"internalType":"uint256","name":"roundEndTime","type":"uint256"},{"internalType":"uint256","name":"ticketPrice","type":"uint256"},{"internalType":"bool","name":"roundState","type":"bool"},{"components":[{"internalType":"uint256","name":"fil","type":"uint256"},{"internalType":"uint256","name":"matic","type":"uint256"},{"internalType":"uint256","name":"krabz","type":"uint256"}],"internalType":"struct MrKrabz.CrossChainBalance","name":"balance","type":"tuple"}],"stateMutability":"view","type":"function"},{"inputs":[{"internalType":"uint256","name":"","type":"uint256"},{"internalType":"uint256","name":"","type":"uint256"}],"name":"roundIdToTicketList_","outputs":[{"internalType":"address","name":"owner","type":"address"},{"internalType":"uint256","name":"ID","type":"uint256"},{"internalType":"bool","name":"withdrawn","type":"bool"},{"internalType":"uint256","name":"originChain","type":"uint256"}],"stateMutability":"view","type":"function"},{"inputs":[{"internalType":"uint256","name":"","type":"uint256"},{"internalType":"uint256","name":"","type":"uint256"}],"name":"roundToticketId_","outputs":[{"internalType":"address","name":"owner","type":"address"},{"internalType":"uint256","name":"ID","type":"uint256"},{"internalType":"bool","name":"withdrawn","type":"bool"},{"internalType":"uint256","name":"originChain","type":"uint256"}],"stateMutability":"view","type":"function"},{"inputs":[{"internalType":"address","name":"_addy","type":"address"}],"name":"setIdMappingContract","outputs":[],"stateMutability":"nonpayable","type":"function"},{"inputs":[],"name":"setRandomWinnersPath","outputs":[{"internalType":"uint256","name":"","type":"uint256"}],"stateMutability":"view","type":"function"},{"inputs":[{"internalType":"uint256","name":"_nonceOne","type":"uint256"},{"internalType":"uint256","name":"_nonceTwo","type":"uint256"},{"internalType":"uint256","name":"_nonceThree","type":"uint256"},{"internalType":"uint256","name":"_estimateGasAmountOne","type":"uint256"}],"name":"setRoundWinners","outputs":[],"stateMutability":"nonpayable","type":"function"},{"inputs":[{"internalType":"uint256","name":"_roundEndTime","type":"uint256"},{"internalType":"uint256","name":"_ticketPriceInUsd","type":"uint256"},{"internalType":"string","name":"_roundName","type":"string"},{"internalType":"uint256","name":"_estimateGasAmountOne","type":"uint256"}],"name":"startNewRound","outputs":[],"stateMutability":"nonpayable","type":"function"},{"inputs":[],"name":"tellor","outputs":[{"internalType":"contract ITellor","name":"","type":"address"}],"stateMutability":"view","type":"function"},{"inputs":[{"internalType":"uint256","name":"","type":"uint256"},{"internalType":"address","name":"","type":"address"}],"name":"ticketsPurchasedPerRound_","outputs":[{"internalType":"uint256","name":"","type":"uint256"}],"stateMutability":"view","type":"function"},{"inputs":[{"internalType":"uint256","name":"_amount","type":"uint256"},{"internalType":"bool","name":"_nativeAsset","type":"bool"},{"internalType":"uint256","name":"_estimateGasAmountOne","type":"uint256"}],"name":"topUpWalletBalance","outputs":[],"stateMutability":"payable","type":"function"},{"inputs":[],"name":"topUpWalletPath","outputs":[{"internalType":"uint256","name":"","type":"uint256"}],"stateMutability":"view","type":"function"},{"inputs":[{"internalType":"string","name":"_filDestinationAddress","type":"string"},{"internalType":"string","name":"_polygonDestinationAddress","type":"string"}],"name":"updateDestinationAddresses","outputs":[],"stateMutability":"nonpayable","type":"function"},{"inputs":[{"internalType":"address","name":"","type":"address"}],"name":"userDetails_","outputs":[{"internalType":"address","name":"user","type":"address"},{"internalType":"uint256","name":"totalTicketsPurchased","type":"uint256"},{"internalType":"uint256","name":"totalWinnings","type":"uint256"},{"components":[{"internalType":"uint256","name":"fil","type":"uint256"},{"internalType":"uint256","name":"matic","type":"uint256"},{"internalType":"uint256","name":"krabz","type":"uint256"}],"internalType":"struct MrKrabz.CrossChainBalance","name":"balance","type":"tuple"}],"stateMutability":"view","type":"function"},{"inputs":[{"internalType":"bytes32","name":"_id","type":"bytes32"}],"name":"valueFor","outputs":[{"internalType":"int256","name":"_value","type":"int256"},{"internalType":"uint256","name":"_timestamp","type":"uint256"},{"internalType":"uint256","name":"_statusCode","type":"uint256"}],"stateMutability":"view","type":"function"},{"inputs":[{"internalType":"uint256","name":"_assetType","type":"uint256"},{"internalType":"uint256","name":"_amount","type":"uint256"},{"internalType":"uint256","name":"_estimateGasAmount","type":"uint256"}],"name":"withdrawFromWallet","outputs":[],"stateMutability":"nonpayable","type":"function"},{"inputs":[],"name":"withdrawFromWalletPath","outputs":[{"internalType":"uint256","name":"","type":"uint256"}],"stateMutability":"view","type":"function"},{"inputs":[],"name":"withdrawNativeAsset","outputs":[],"stateMutability":"nonpayable","type":"function"},{"stateMutability":"payable","type":"receive"}],"devdoc":{"kind":"dev","methods":{"getDataAfter(bytes32,uint256)":{"details":"Retrieves the next value for the queryId after the specified timestamp","params":{"_queryId":"is the queryId to look up the value for","_timestamp":"after which to search for next value"},"returns":{"_timestampRetrieved":"the value's timestamp","_value":"the value retrieved"}},"getDataBefore(bytes32,uint256)":{"details":"Retrieves the latest value for the queryId before the specified timestamp","params":{"_queryId":"is the queryId to look up the value for","_timestamp":"before which to search for latest value"},"returns":{"_timestampRetrieved":"the value's timestamp","_value":"the value retrieved"}},"getIndexForDataAfter(bytes32,uint256)":{"details":"Retrieves latest array index of data before the specified timestamp for the queryId","params":{"_queryId":"is the queryId to look up the index for","_timestamp":"is the timestamp before which to search for the latest index"},"returns":{"_found":"whether the index was found","_index":"the latest index found before the specified timestamp"}},"getIndexForDataBefore(bytes32,uint256)":{"details":"Retrieves latest array index of data before the specified timestamp for the queryId","params":{"_queryId":"is the queryId to look up the index for","_timestamp":"is the timestamp before which to search for the latest index"},"returns":{"_found":"whether the index was found","_index":"the latest index found before the specified timestamp"}},"getMultipleValuesBefore(bytes32,uint256,uint256,uint256)":{"details":"Retrieves multiple uint256 values before the specified timestamp","params":{"_maxAge":"the maximum number of seconds before the _timestamp to search for values","_maxCount":"the maximum number of values to return","_queryId":"the unique id of the data query","_timestamp":"the timestamp before which to search for values"},"returns":{"_timestamps":"the timestamps of the values retrieved","_values":"the values retrieved, ordered from oldest to newest"}},"getNewValueCountbyQueryId(bytes32)":{"details":"Counts the number of values that have been submitted for the queryId","params":{"_queryId":"the id to look up"},"returns":{"_0":"uint256 count of the number of values received for the queryId"}},"getReporterByTimestamp(bytes32,uint256)":{"details":"Returns the address of the reporter who submitted a value for a data ID at a specific time","params":{"_queryId":"is ID of the specific data feed","_timestamp":"is the timestamp to find a corresponding reporter for"},"returns":{"_0":"address of the reporter who reported the value for the data ID at the given timestamp"}},"getTimestampbyQueryIdandIndex(bytes32,uint256)":{"details":"Gets the timestamp for the value based on their index","params":{"_index":"is the value index to look up","_queryId":"is the id to look up"},"returns":{"_0":"uint256 timestamp"}},"isInDispute(bytes32,uint256)":{"details":"Determines whether a value with a given queryId and timestamp has been disputed","params":{"_queryId":"is the value id to look up","_timestamp":"is the timestamp of the value to look up"},"returns":{"_0":"bool true if queryId/timestamp is under dispute"}},"retrieveData(bytes32,uint256)":{"details":"Retrieve value from oracle based on queryId/timestamp","params":{"_queryId":"being requested","_timestamp":"to retrieve data/value from"},"returns":{"_0":"bytes value for query/timestamp submitted"}},"setIdMappingContract(address)":{"details":"allows dev to set mapping contract for valueFor (EIP2362)","params":{"_addy":"address of mapping contract"}},"valueFor(bytes32)":{"details":"Retrieve most recent int256 value from oracle based on queryId","params":{"_id":"being requested"},"returns":{"_statusCode":"200 if value found, 404 if not found","_timestamp":"timestamp of most recent value","_value":"most recent value submitted"}}},"version":1},"evm":{"bytecode":{"linkReferences":{},"object":"610c45600490815562013881600590815560016006908155600260075560036008818155600994909455600a92909255600b55600d5562c61dea600e5561010060405260c0908152673334b632b1b7b4b760c11b60e052600f906200006590826200025e565b506040805180820190915260078152662837b63cb3b7b760c91b60208201526010906200009390826200025e565b50348015620000a157600080fd5b506040516200636638038062006366833981016040819052620000c49162000367565b600080546001600160a01b0319166001600160a01b038481169190911790915584908116620001065760405163e6c4247b60e01b815260040160405180910390fd5b6001600160a01b0390811660805292831660a05260028054919093166001600160a01b03199182161790925550600380549091163317905550620003d5565b634e487b7160e01b600052604160045260246000fd5b634e487b7160e01b600052602260045260246000fd5b6002810460018216806200018657607f821691505b6020821081036200019b576200019b6200015b565b50919050565b6000620001b2620001af8381565b90565b92915050565b620001c383620001a1565b81546008840282811b60001990911b908116901990911617825550505050565b6000620001f2818484620001b8565b505050565b8181101562000216576200020d600082620001e3565b600101620001f7565b5050565b601f821115620001f2576000818152602090206020601f85010481016020851015620002435750805b620002576020601f860104830182620001f7565b5050505050565b81516001600160401b038111156200027a576200027a62000145565b62000286825462000171565b620002938282856200021a565b6020601f831160018114620002ca5760008415620002b15750858201515b600019600886021c198116600286021786555062000326565b600085815260208120601f198616915b82811015620002fc5788850151825560209485019460019092019101620002da565b86831015620003195784890151600019601f89166008021c191682555b6001600288020188555050505b505050505050565b60006001600160a01b038216620001b2565b6200034b816200032e565b81146200035757600080fd5b50565b8051620001b28162000340565b60008060008060808587031215620003825762000382600080fd5b60006200039087876200035a565b9450506020620003a3878288016200035a565b9350506040620003b6878288016200035a565b9250506060620003c9878288016200035a565b91505092959194509250565b60805160a051615f4162000425600039600081816106aa015281816136ea01526137fc0152600081816103d901528181610d99015281816119620152818161377101526138830152615f416000f3fe6080604052600436106103855760003560e01c8063795688ca116101d1578063c5958af911610102578063de7c756e116100a0578063f78eea831161006f578063f78eea8314610b2e578063fa45cfdd14610b5d578063fcd4a54614610b7d578063ff5c04ce14610bab57600080fd5b8063de7c756e14610ac4578063e07c548614610ad9578063e59fef7c14610af9578063f66f49c314610b0e57600080fd5b8063ce5e11bf116100dc578063ce5e11bf14610a44578063d1813b3314610a64578063d5f3948814610a84578063d98c3c6514610aa457600080fd5b8063c5958af9146109c4578063cb288e8e146109e4578063cc3d967b14610a1757600080fd5b8063a0876f491161016f578063acb8b0c711610149578063acb8b0c71461093e578063ad898f5b14610982578063aebd823a14610998578063b5f597f3146109ae57600080fd5b8063a0876f49146108b9578063a792765f146108f1578063a8c44b231461091157600080fd5b80638527d58f116101ab5780638527d58f1461084b5780638a19c8bc1461086b57806392093527146108815780639bb6eb701461089757600080fd5b8063795688ca146107f65780637e5e219c1461082357806380c1442b1461083657600080fd5b806344e4e0f9116102b65780636a22d8cc1161025457806370ef05db1161022357806370ef05db1461072257806374cdb7111461074457806377b03e0d1461075757806377f372831461077757600080fd5b80636a22d8cc146106985780636a8054c1146106cc5780636abc4367146106ec5780636bfee4ea1461070c57600080fd5b8063491606581161029057806349160658146105c7578063491f3437146105e75780634c21b3691461065457806364ee3c6d1461066a57600080fd5b806344e4e0f91461057157806344e87f9114610591578063469a397b146105b157600080fd5b80631a98b2e011610323578063286db5c2116102fd578063286db5c2146104ee578063294490851461050e5780632af8aae01461053c57806342f5ac521461055c57600080fd5b80631a98b2e0146104a357806320eb5632146104c3578063276f4872146104d957600080fd5b806316f961b71161035f57806316f961b71461042b5780631840920114610441578063193b505b146104615780631959ad5b1461048357600080fd5b80630e39228814610391578063116191b6146103c757806315397a571461040857600080fd5b3661038c57005b600080fd5b34801561039d57600080fd5b506103b16103ac3660046140f1565b610bc0565b6040516103be9190614124565b60405180910390f35b3480156103d357600080fd5b506103fb7f000000000000000000000000000000000000000000000000000000000000000081565b6040516103be9190614174565b34801561041457600080fd5b5061041e600d5481565b6040516103be9190614188565b34801561043757600080fd5b5061041e60085481565b34801561044d57600080fd5b5061041e61045c366004614291565b610c6a565b34801561046d57600080fd5b5061048161047c3660046142f1565b610d17565b005b34801561048f57600080fd5b506000546103fb906001600160a01b031681565b3480156104af57600080fd5b506104816104be36600461435d565b610d4f565b3480156104cf57600080fd5b5061041e60055481565b3480156104e557600080fd5b5061041e610e4b565b3480156104fa57600080fd5b50610481610509366004614466565b610f49565b34801561051a57600080fd5b5061052e610529366004614466565b61116f565b6040516103be9291906144a3565b34801561054857600080fd5b506001546103fb906001600160a01b031681565b34801561056857600080fd5b5061041e611207565b34801561057d57600080fd5b5061048161058c36600461456f565b611292565b34801561059d57600080fd5b506103b16105ac366004614466565b611882565b3480156105bd57600080fd5b5061041e600b5481565b3480156105d357600080fd5b506104816105e23660046145bf565b611918565b3480156105f357600080fd5b50610644610602366004614466565b601460209081526000928352604080842090915290825290208054600182015460058301546006909301546001600160a01b0390921692909160ff9091169084565b6040516103be949392919061468b565b34801561066057600080fd5b5061041e600e5481565b34801561067657600080fd5b5061068a610685366004614466565b611a19565b6040516103be929190614718565b3480156106a457600080fd5b506103fb7f000000000000000000000000000000000000000000000000000000000000000081565b3480156106d857600080fd5b506104816106e7366004614738565b611a72565b3480156106f857600080fd5b50610644610707366004614466565b611d94565b34801561071857600080fd5b5061041e60095481565b34801561072e57600080fd5b50610737611dea565b6040516103be919061477e565b61048161075236600461478f565b611e78565b34801561076357600080fd5b5061041e6107723660046140f1565b611f2c565b34801561078357600080fd5b506107e66107923660046142f1565b601360209081526000918252604091829020805460018201546002830154855160608101875260038501548152600485015495810195909552600590930154948401949094526001600160a01b0316929184565b6040516103be94939291906147fb565b34801561080257600080fd5b50600254610816906001600160a01b031681565b6040516103be9190614830565b34801561082f57600080fd5b504261041e565b34801561084257600080fd5b50610737611fb7565b34801561085757600080fd5b50610481610866366004614466565b611fc4565b34801561087757600080fd5b5061041e600c5481565b34801561088d57600080fd5b5061041e600a5481565b3480156108a357600080fd5b506108ac6121d4565b6040516103be9190614920565b3480156108c557600080fd5b5061041e6108d4366004614931565b601660209081526000928352604080842090915290825290205481565b3480156108fd57600080fd5b5061068a61090c366004614466565b612338565b34801561091d57600080fd5b5061093161092c3660046142f1565b6123d7565b6040516103be9190614a1e565b34801561094a57600080fd5b5061041e6109593660046142f1565b600c5460009081526016602090815260408083206001600160a01b039094168352929052205490565b34801561098e57600080fd5b5061041e60045481565b3480156109a457600080fd5b5061041e60075481565b3480156109ba57600080fd5b5061041e60065481565b3480156109d057600080fd5b506107376109df366004614466565b61261d565b3480156109f057600080fd5b50610a046109ff3660046140f1565b6126ae565b6040516103be9796959493929190614a2f565b348015610a2357600080fd5b50610a37610a323660046142f1565b612796565b6040516103be9190614ae7565b348015610a5057600080fd5b5061041e610a5f366004614466565b61280c565b348015610a7057600080fd5b50610481610a7f366004614af5565b612899565b348015610a9057600080fd5b50600354610816906001600160a01b031681565b348015610ab057600080fd5b50610481610abf366004614b59565b612a88565b348015610ad057600080fd5b50610481612aa6565b348015610ae557600080fd5b50610816610af4366004614466565b612b4c565b348015610b0557600080fd5b50610737612bd9565b348015610b1a57600080fd5b5061052e610b29366004614466565b612be6565b348015610b3a57600080fd5b50610b4e610b493660046140f1565b612da3565b6040516103be93929190614bc1565b348015610b6957600080fd5b50610481610b78366004614be9565b612e85565b348015610b8957600080fd5b50610b9d610b98366004614af5565b612f67565b6040516103be929190614cfb565b348015610bb757600080fd5b50610737613256565b600c54600090815260146020908152604080832084845290915280822081516060810192839052839290916002019060039082845b815481526020019060010190808311610bf5575050600c546000908152601560205260408082208151606081019283905296975091959450600590910192506003915082845b815481526020019060010190808311610c3b57505050505090506000610c618383613263565b95945050505050565b60008082604051602001610c7e9190614d57565b6040516020818303038152906040529050600081604051602001610ca29190614daf565b60408051601f1981840301815291905280516020820120909150600080610ccf8361090c6104b042614de9565b9150915080600003610ce8575060009695505050505050565b6402540be40082806020019051810190610d029190614e07565b610d0c9190614e3e565b979650505050505050565b6001546001600160a01b031615610d2d57600080fd5b600180546001600160a01b0319166001600160a01b0392909216919091179055565b60008585604051610d61929190614e65565b6040519081900381207f1876eed900000000000000000000000000000000000000000000000000000000825291506001600160a01b037f00000000000000000000000000000000000000000000000000000000000000001690631876eed990610dde908e908e908e908e908e9089908d908d908d90600401614e95565b6020604051808303816000875af1158015610dfd573d6000803e3d6000fd5b505050506040513d601f19601f82011682018060405250810190610e219190614f15565b610e3e57604051631403112d60e21b815260040160405180910390fd5b5050505050505050505050565b60008060156000600c5481526020019081526020016000206009016000015490506000670de0b6b3a764000082610e9c60405180604001604052806003815260200162199a5b60ea1b815250610c6a565b610ea69190614f36565b610eb09190614e3e565b9050600060156000600c5481526020019081526020016000206009016001015490506000670de0b6b3a764000082610f04604051806040016040528060058152602001646d6174696360d81b815250610c6a565b610f0e9190614f36565b610f189190614e3e565b90506000610f268285614f55565b90506064610f35826046614f36565b610f3f9190614e3e565b9550505050505090565b600c5460009081526015602052604090206008015460ff16610f865760405162461bcd60e51b8152600401610f7d90614f9c565b60405180910390fd5b600c5460009081526014602090815260408083208584529091529020600601544614610fc45760405162461bcd60e51b8152600401610f7d90614fe0565b600c5460009081526014602090815260408083208584529091529020546001600160a01b031633146110085760405162461bcd60e51b8152600401610f7d90615024565b600c54600090815260146020908152604080832085845290915290206005015460ff16156110485760405162461bcd60e51b8152600401610f7d90615068565b600061105383610bc0565b9050806110725760405162461bcd60e51b8152600401610f7d906150ac565b600061107c611207565b90506000611088610e4b565b905060006110968383614e3e565b905060006110c1604051806040016040528060068152602001653130b233b2b960d11b815250610c6a565b6110d383670de0b6b3a7640000614f36565b6110dd9190614e3e565b33600090815260136020526040812060050180549293508392909190611104908490614f55565b909155505033600090815260136020526040812060020180546001929061112c908490614f55565b9091555050600c5460009081526014602090815260408083208a84529091529020600501805460ff191660011790556111668133886132c9565b50505050505050565b600080546040517f2944908500000000000000000000000000000000000000000000000000000000815282916001600160a01b0316906329449085906111bb90879087906004016150bc565b6040805180830381865afa1580156111d7573d6000803e3d6000fd5b505050506040513d601f19601f820116820180604052508101906111fb91906150ca565b915091505b9250929050565b60008060005b600c5460009081526017602052604090205481101561128c57600c546000908152601760205260408120805483908110611249576112496150fd565b906000526020600020906007020160010154905061126681610bc0565b1561127957611276600184614f55565b92505b508061128481615113565b91505061120d565b50919050565b600c54600090815260156020526040902060030154428110156112c75760405162461bcd60e51b8152600401610f7d90615161565b600c5460009081526015602052604090206008015460ff16156112fc5760405162461bcd60e51b8152600401610f7d906151a5565b60005b600381101561135157601e85826003811061131c5761131c6150fd565b6020020151111561133f5760405162461bcd60e51b8152600401610f7d906151e9565b8061134981615113565b9150506112ff565b50600c54600090815260156020526040812060040154841561151257600454460361143c5761139a60405180604001604052806003815260200162199a5b60ea1b815250610c6a565b6113ac82670de0b6b3a7640000614f36565b6113b69190614e3e565b336000908152601360205260409020600301549092508211156113eb5760405162461bcd60e51b8152600401610f7d9061522d565b336000908152601360205260408120600301805484929061140d908490614de9565b9091555050600c5460009081526015602052604081206009018054849290611436908490614f55565b90915550505b600554460361150d5761146b604051806040016040528060058152602001646d6174696360d81b815250610c6a565b61147d82670de0b6b3a7640000614f36565b6114879190614e3e565b336000908152601360205260409020600401549092508211156114bc5760405162461bcd60e51b8152600401610f7d90615271565b33600090815260136020526040812060040180548492906114de908490614de9565b9091555050600c546000908152601560205260408120600a018054849290611507908490614f55565b90915550505b6115db565b611539604051806040016040528060068152602001653130b233b2b960d11b815250610c6a565b61154b82670de0b6b3a7640000614f36565b6115559190614e3e565b3360009081526013602052604090206005015490925082111561158a5760405162461bcd60e51b8152600401610f7d90615271565b33600090815260136020526040812060050180548492906115ac908490614de9565b9091555050600c546000908152601560205260408120600b0180548492906115d5908490614f55565b90915550505b600d54600c546000908152601660209081526040808320338452909152902054106116185760405162461bcd60e51b8152600401610f7d906152b5565b600c546000908152601560205260408120600201805460019190839061163f908490614f55565b91829055506040805160a08101825233815260208082018481528284018d8152600060608501819052466080860152600c5481526014845285812087825290935293909120825181546001600160a01b0319166001600160a01b039091161781559051600182015591519294509250906116bf9060028301906003613f4c565b50606082015160058201805460ff19169115159190911790556080909101516006909101553360009081526013602052604081206001908101805491929091611709908490614f55565b9091555050600c54600090815260176020908152604080832060148352818420858552835290832081546001818101845592855292909320835460079093020180546001600160a01b0319166001600160a01b03909316929092178255808301549082015561178060028083019084016003613f8a565b50600582810154908201805460ff191660ff9092161515919091179055600691820154910155600c54600090815260166020908152604080832033845290915281208054600192906117d3908490614f55565b9091555050600c546000818152601460209081526040808320858452825291829020825160a08101845281546001600160a01b03168152600182015492810192909252825160608101845261116694869433948e9446948f948d9490939291908301906002830160038282826020028201915b815481526020019060010190808311611846575050509183525050600582015460ff16151560208201526006909101546040909101528d61338e565b600080546040517f44e87f910000000000000000000000000000000000000000000000000000000081526001600160a01b03909116906344e87f91906118ce90869086906004016150bc565b602060405180830381865afa1580156118eb573d6000803e3d6000fd5b505050506040513d601f19601f8201168201806040525081019061190f9190614f15565b90505b92915050565b6000828260405161192a929190614e65565b6040519081900381207f5f6970c300000000000000000000000000000000000000000000000000000000825291506001600160a01b037f00000000000000000000000000000000000000000000000000000000000000001690635f6970c3906119a1908b908b908b908b908b9089906004016152c5565b6020604051808303816000875af11580156119c0573d6000803e3d6000fd5b505050506040513d601f19601f820116820180604052508101906119e49190614f15565b611a0157604051631403112d60e21b815260040160405180910390fd5b611a0f87878787878761340e565b5050505050505050565b60606000806000611a2a8686612be6565b9150915081611a515760006040518060200160405280600081525090935093505050611200565b611a5b868261280c565b9250611a67868461261d565b935050509250929050565b6004548303611b4c5733600090815260136020526040902060030154821115611aad5760405162461bcd60e51b8152600401610f7d9061533e565b3360009081526013602052604081206003018054849290611acf908490614de9565b909155505060405160009033908490611ae79061534e565b60006040518083038185875af1925050503d8060008114611b24576040519150601f19603f3d011682016040523d82523d6000602084013e611b29565b606091505b5050905080611b4a5760405162461bcd60e51b8152600401610f7d9061538d565b505b6005548303611c265733600090815260136020526040902060040154821115611b875760405162461bcd60e51b8152600401610f7d9061533e565b3360009081526013602052604081206004018054849290611ba9908490614de9565b909155505060405160009033908490611bc19061534e565b60006040518083038185875af1925050503d8060008114611bfe576040519150601f19603f3d011682016040523d82523d6000602084013e611c03565b606091505b5050905080611c245760405162461bcd60e51b8152600401610f7d9061538d565b505b82600303611d175733600090815260136020526040902060050154821115611c605760405162461bcd60e51b8152600401610f7d9061533e565b3360009081526013602052604081206005018054849290611c82908490614de9565b90915550506002546040517fa9059cbb0000000000000000000000000000000000000000000000000000000081526001600160a01b039091169063a9059cbb90611cd2903390869060040161539d565b6020604051808303816000875af1158015611cf1573d6000803e3d6000fd5b505050506040513d601f19601f82011682018060405250810190611d159190614f15565b505b6000838333604051602001611d2e939291906153ab565b60405160208183030381529060405290506000600b5482604051602001611d569291906153d3565b60405160208183030381529060405290506004544603611d7a57611d7a81846136d3565b6005544603611d8d57611d8d81846137e5565b5050505050565b60176020528160005260406000208181548110611db057600080fd5b600091825260209091206007909102018054600182015460058301546006909301546001600160a01b039092169450925060ff9091169084565b60118054611df790615409565b80601f0160208091040260200160405190810160405280929190818152602001828054611e2390615409565b8015611e705780601f10611e4557610100808354040283529160200191611e70565b820191906000526020600020905b815481529060010190602001808311611e5357829003601f168201915b505050505081565b60008215611e87575034611f1a565b506002546040517f23b872dd00000000000000000000000000000000000000000000000000000000815284916001600160a01b0316906323b872dd90611ed59033903090869060040161542f565b6020604051808303816000875af1158015611ef4573d6000803e3d6000fd5b505050506040513d601f19601f82011682018060405250810190611f189190614f15565b505b611f26818433856138c1565b50505050565b600080546040517f77b03e0d0000000000000000000000000000000000000000000000000000000081526001600160a01b03909116906377b03e0d90611f76908590600401614188565b602060405180830381865afa158015611f93573d6000803e3d6000fd5b505050506040513d601f19601f820116820180604052508101906119129190614e07565b60128054611df790615409565b600c5460009081526015602052604090206008015460ff16611ff85760405162461bcd60e51b8152600401610f7d90614f9c565b600c54600090815260146020908152604080832085845290915290206006015446146120365760405162461bcd60e51b8152600401610f7d90614fe0565b600c5460009081526014602090815260408083208584529091529020546001600160a01b0316331461207a5760405162461bcd60e51b8152600401610f7d90615024565b600c54600090815260146020908152604080832085845290915290206005015460ff16156120ba5760405162461bcd60e51b8152600401610f7d9061547e565b60006120c583610bc0565b905080156120e55760405162461bcd60e51b8152600401610f7d906154c2565b600060156000600c548152602001908152602001600020600401549050600061212b604051806040016040528060068152602001653130b233b2b960d11b815250610c6a565b61213d83670de0b6b3a7640000614f36565b6121479190614e3e565b9050606461215682601e614f36565b6121609190614e3e565b3360009081526013602052604081206005018054909190612182908490614f55565b9091555050600c5460009081526014602090815260408083208884529091529020600501805460ff19166001179055611d8d60646121c183601e614f36565b6121cb9190614e3e565b600033876138c1565b6121dc613fb5565b600c54600090815260156020526040908190208151610100810190925280548290829061220890615409565b80601f016020809104026020016040519081016040528092919081815260200182805461223490615409565b80156122815780601f1061225657610100808354040283529160200191612281565b820191906000526020600020905b81548152906001019060200180831161226457829003601f168201915b5050505050815260200160018201548152602001600282015481526020016003820154815260200160048201548152602001600582016003806020026040519081016040528092919082600380156122ee576020028201915b8154815260200190600101908083116122da575b5050509183525050600882015460ff1615156020808301919091526040805160608101825260098501548152600a85015492810192909252600b9093015481840152910152919050565b600080546040517fa792765f000000000000000000000000000000000000000000000000000000008152606092916001600160a01b03169063a792765f9061238690879087906004016150bc565b600060405180830381865afa1580156123a3573d6000803e3d6000fd5b505050506040513d6000823e601f3d908101601f191682016040526123cb919081019061552a565b90969095509350505050565b60606000805b600c5460009081526017602052604090205481101561246557836001600160a01b031660176000600c5481526020019081526020016000208281548110612426576124266150fd565b60009182526020909120600790910201546001600160a01b031603612453578161244f81615113565b9250505b8061245d81615113565b9150506123dd565b5060008167ffffffffffffffff81111561248157612481614196565b6040519080825280602002602001820160405280156124ba57816020015b6124a7614023565b81526020019060019003908161249f5790505b5090506000805b600c5460009081526017602052604090205481101561261357856001600160a01b031660176000600c548152602001908152602001600020828154811061250a5761250a6150fd565b60009182526020909120600790910201546001600160a01b0316036125f457600c54600090815260176020526040902080548290811061254c5761254c6150fd565b60009182526020918290206040805160a08101825260079390930290910180546001600160a01b0316835260018101549383019390935280516060810180835292939291840191600284019060039082845b81548152602001906001019080831161259e575050509183525050600582015460ff161515602082015260069091015460409091015283518490849081106125e8576125e86150fd565b60200260200101819052505b6125ff600183614f55565b91508061260b81615113565b9150506124c1565b5090949350505050565b6000546040517fc5958af90000000000000000000000000000000000000000000000000000000081526060916001600160a01b03169063c5958af99061266990869086906004016150bc565b600060405180830381865afa158015612686573d6000803e3d6000fd5b505050506040513d6000823e601f3d908101601f1916820160405261190f919081019061558b565b6015602052600090815260409020805481906126c990615409565b80601f01602080910402602001604051908101604052809291908181526020018280546126f590615409565b80156127425780601f1061271757610100808354040283529160200191612742565b820191906000526020600020905b81548152906001019060200180831161272557829003601f168201915b50505050600183015460028401546003850154600486015460088701546040805160608101825260098a01548152600a8a01546020820152600b9099015490890152959693959294509092909160ff169087565b61279e614056565b506001600160a01b03908116600090815260136020908152604091829020825160808101845281549094168452600181015484830152600281015484840152825160608181018552600383015482526004830154938201939093526005909101549281019290925282015290565b600080546040517fce5e11bf0000000000000000000000000000000000000000000000000000000081526001600160a01b039091169063ce5e11bf9061285890869086906004016150bc565b602060405180830381865afa158015612875573d6000803e3d6000fd5b505050506040513d601f19601f8201168201806040525081019061190f9190614e07565b6003546001600160a01b031633146128c35760405162461bcd60e51b8152600401610f7d906155fa565b600c5460009081526015602052604090206008015460ff16156128f85760405162461bcd60e51b8152600401610f7d9061563e565b600c5460009081526015602052604090206003015442101561292c5760405162461bcd60e51b8152600401610f7d90614f9c565b600454461461294d5760405162461bcd60e51b8152600401610f7d90615682565b6000601e600e543387604051602001612968939291906156ba565b6040516020818303038152906040528051906020012060001c61298b91906156f1565b90506000601e600e5433876040516020016129a8939291906156ba565b6040516020818303038152906040528051906020012060001c6129cb91906156f1565b90506000601e600e5433876040516020016129e8939291906156ba565b6040516020818303038152906040528051906020012060001c612a0b91906156f1565b600c80546000908152601560208181526040808420600801805460ff191660011790558051606081018252898152808301899052808201879052945484529190529020919250612a6091600501906003613f4c565b50611166600c5460405180606001604052808681526020018581526020018481525086613a6c565b6011612a94838261579b565b506012612aa1828261579b565b505050565b6003546001600160a01b03163314612ad05760405162461bcd60e51b8152600401610f7d90615892565b604051479060009033908390612ae59061534e565b60006040518083038185875af1925050503d8060008114612b22576040519150601f19603f3d011682016040523d82523d6000602084013e612b27565b606091505b5050905080612b485760405162461bcd60e51b8152600401610f7d906158d6565b5050565b600080546040517fe07c54860000000000000000000000000000000000000000000000000000000081526001600160a01b039091169063e07c548690612b9890869086906004016150bc565b602060405180830381865afa158015612bb5573d6000803e3d6000fd5b505050506040513d601f19601f8201168201806040525081019061190f91906158f1565b60108054611df790615409565b6000806000612bf485611f2c565b905080600003612c0b576000809250925050611200565b80612c1581615912565b9150600190506000808381612c2a8a8361280c565b9050888111612c455760008097509750505050505050611200565b612c4f8a8461280c565b905088811115612c5e57600094505b8415612d0e576002612c708484614f55565b612c7a9190614e3e565b9350612c868a8561280c565b905088811115612cc7576000612ca18b610a5f600188614de9565b9050898111612cb35760009550612cc1565b612cbe600186614de9565b92505b50612c5e565b6000612cd88b610a5f876001614f55565b905089811115612cfb576000955084612cf081615113565b955050809150612cc1565b612d06856001614f55565b935050612c5e565b612d188a82611882565b612d2e5760018497509750505050505050611200565b612d388a82611882565b8015612d4357508584105b15612d665783612d5281615113565b945050612d5f8a8561280c565b9050612d2e565b8584148015612d7a5750612d7a8a82611882565b15612d915760008097509750505050505050611200565b60018497509750505050505050611200565b6001546040517f87a475fd0000000000000000000000000000000000000000000000000000000081526000918291829182916001600160a01b03909116906387a475fd90612df5908890600401614188565b602060405180830381865afa158015612e12573d6000803e3d6000fd5b505050506040513d601f19601f82011682018060405250810190612e369190614e07565b90506060612e498261090c426001614f55565b945090506000849003612e69576000806101949450945094505050612e7e565b6000612e7482613aa9565b955060c893505050505b9193909250565b6003546001600160a01b03163314612eaf5760405162461bcd60e51b8152600401610f7d9061595d565b600c54600090815260156020526040902060030154421015612ee35760405162461bcd60e51b8152600401610f7d90614f9c565b6001600c6000828254612ef69190614f55565b9091555050600c5460008181526015602052604090206001810191909155600401839055612f248442614f55565b600c8054600090815260156020526040808220600301939093559054815220612f4d838261579b565b50600c54611f2690612f5f4287614f55565b858585613afa565b606080600080612f7b88610b29888a614de9565b9150915081612fcc576040805160008082526020820190925290612faf565b6060815260200190600190039081612f9a5790505b50604080516000815260208101909152909450925061324d915050565b6000612fd8898961116f565b90935090508261302b57604080516000808252602082019092529061300d565b6060815260200190600190039081612ff85790505b50604080516000815260208101909152909550935061324d92505050565b60008060008867ffffffffffffffff81111561304957613049614196565b604051908082528060200260200182016040528015613072578160200160208202803683370190505b5090505b88831080156130995750848261308d866001614f55565b6130979190614de9565b115b156130fd5760006130ae8d610a5f8588614de9565b90506130ba8d82611882565b6130ea57808285815181106130d1576130d16150fd565b6020908102919091010152836130e681615113565b9450505b826130f481615113565b93505050613076565b60008367ffffffffffffffff81111561311857613118614196565b60405190808252806020026020018201604052801561314b57816020015b60608152602001906001900390816131365790505b50905060008467ffffffffffffffff81111561316957613169614196565b604051908082528060200260200182016040528015613192578160200160208202803683370190505b50905060005b858110156132405783816131ad600189614de9565b6131b79190614de9565b815181106131c7576131c76150fd565b60200260200101518282815181106131e1576131e16150fd565b6020026020010181815250506132108f838381518110613203576132036150fd565b602002602001015161261d565b838281518110613222576132226150fd565b6020026020010181905250808061323890615113565b915050613198565b5090985096505050505050505b94509492505050565b600f8054611df790615409565b6000805b60038110156132bf57828160038110613282576132826150fd565b6020020151848260038110613299576132996150fd565b6020020151146132ad576000915050611912565b806132b781615113565b915050613267565b5060019392505050565b600454460361332d57600083836040516020016132e792919061596d565b60405160208183030381529060405290506000600a548260405160200161330f9291906153d3565b604051602081830303815290604052905061332a81846136d3565b50505b6005544603612aa1576000838360405160200161334b92919061596d565b60405160208183030381529060405290506000600a54826040516020016133739291906153d3565b6040516020818303038152906040529050611d8d81846137e5565b600089898989898989896040516020016133af9897969594939291906159b4565b60405160208183030381529060405290506000600754826040516020016133d79291906153d3565b604051602081830303815290604052905060045446036133fb576133fb81846136d3565b6005544603610e3e57610e3e81846137e5565b60008061341d83850185615a2d565b91509150600654820361345d57600080600080848060200190518101906134449190615a4f565b935093509350935061345884848484613b72565b505050505b60075482036134af57600080600080600080600080888060200190518101906134869190615b99565b975097509750975097509750975097506134a68888888888888888613c63565b50505050505050505b600854820361351457600080600080848060200190518101906134d29190615c4e565b600c84905560008481526015602052604090206001810185905560048101839055600381018490559397509195509350915061350e828261579b565b50505050505b600954820361356957600080828060200190518101906135349190615cc1565b600082815260156020526040902060088101805460ff19166001179055919350915061356590600501826003613f4c565b5050505b600a5482036135f257600080828060200190518101906135899190615cf4565b6001600160a01b0381166000908152601360205260408120600501805493955091935084926135b9908490614f55565b90915550506001600160a01b03811660009081526013602052604081206002018054600192906135ea908490614f55565b909155505050505b600b548203611a0f576000806000838060200190518101906136149190615d27565b9250925092506004548303613654576001600160a01b0381166000908152601360205260408120600301805484929061364e908490614de9565b90915550505b600554830361368e576001600160a01b03811660009081526013602052604081206004018054849290613688908490614de9565b90915550505b82600303610e3e576001600160a01b038116600090815260136020526040812060050180548492906136c1908490614de9565b90915550505050505050505050505050565b604051630c93e3bb60e01b81526001600160a01b037f00000000000000000000000000000000000000000000000000000000000000001690630c93e3bb90839061372b90309060109060129089908490600401615de7565b6000604051808303818588803b15801561374457600080fd5b505af1158015613758573d6000803e3d6000fd5b5050604051631c92115f60e01b81526001600160a01b037f0000000000000000000000000000000000000000000000000000000000000000169350631c92115f92506137af91506010906012908790600401615e48565b600060405180830381600087803b1580156137c957600080fd5b505af11580156137dd573d6000803e3d6000fd5b505050505050565b604051630c93e3bb60e01b81526001600160a01b037f00000000000000000000000000000000000000000000000000000000000000001690630c93e3bb90839061383d903090600f9060119089908490600401615de7565b6000604051808303818588803b15801561385657600080fd5b505af115801561386a573d6000803e3d6000fd5b5050604051631c92115f60e01b81526001600160a01b037f0000000000000000000000000000000000000000000000000000000000000000169350631c92115f92506137af9150600f906011908790600401615e48565b6004544603613998578215613906576001600160a01b038216600090815260136020526040812060030180548692906138fb908490614f55565b909155506139379050565b6001600160a01b03821660009081526013602052604081206005018054869290613931908490614f55565b90915550505b60006004548486856040516020016139529493929190615e81565b604051602081830303815290604052905060006006548260405160200161397a9291906153d3565b604051602081830303815290604052905061399581846136d3565b50505b6005544603611f265782156139dd576001600160a01b038216600090815260136020526040812060040180548692906139d2908490614f55565b90915550613a0e9050565b6001600160a01b03821660009081526013602052604081206005018054869290613a08908490614f55565b90915550505b6000600454848685604051602001613a299493929190615e81565b6040516020818303038152906040529050600060065482604051602001613a519291906153d3565b60405160208183030381529060405290506137dd81846137e5565b60008383604051602001613a81929190615eb6565b6040516020818303038152906040529050600060095482604051602001611d569291906153d3565b6000805b825181101561128c57828181518110613ac857613ac86150fd565b016020015160f81c613adc83610100614f36565b613ae69190614f55565b915080613af281615113565b915050613aad565b600085858585604051602001613b139493929190615ed1565b6040516020818303038152906040529050600060085482604051602001613b3b9291906153d3565b60405160208183030381529060405290506004544603613b5f57613b5f81846136d3565b60055446036111665761116681846137e5565b6004548403613be8578215613bb7576001600160a01b03811660009081526013602052604081206003018054849290613bac908490614f55565b90915550613be89050565b6001600160a01b03811660009081526013602052604081206005018054849290613be2908490614f55565b90915550505b6005548403611f26578215613c2d576001600160a01b03811660009081526013602052604081206004018054849290613c22908490614f55565b90915550611f269050565b6001600160a01b03811660009081526013602052604081206005018054849290613c58908490614f55565b909155505050505050565b8315613d2e576004548503613cc9576001600160a01b03871660009081526013602052604081206003018054859290613c9d908490614de9565b909155505060008281526015602052604081206009018054859290613cc3908490614f55565b90915550505b6005548503613d29576001600160a01b03871660009081526013602052604081206004018054859290613cfd908490614de9565b90915550506000828152601560205260408120600a018054859290613d23908490614f55565b90915550505b613d85565b6001600160a01b03871660009081526013602052604081206005018054859290613d59908490614de9565b90915550506000828152601560205260408120600b018054859290613d7f908490614f55565b90915550505b6000828152601560205260408120600201805460019290613da7908490614f55565b90915550506040805160a0810182526001600160a01b03898116825260208083018c81528385018b8152600060608601819052608086018c9052888152601484528681208f825290935294909120835181546001600160a01b03191693169290921782555160018201559151909190613e269060028301906003613f4c565b50606082015160058201805460ff19169115159190911790556080909101516006909101556001600160a01b03871660009081526013602052604081206001908101805491929091613e79908490614f55565b9091555050600082815260176020908152604080832080546001808201835591855293839020855160079095020180546001600160a01b0319166001600160a01b039095169490941784559184015191830191909155820151829190613ee59060028301906003613f4c565b50606082015160058201805460ff191691151591909117905560809091015160069091015560008281526016602090815260408083206001600160a01b038b1684529091528120805460019290613f3d908490614f55565b90915550505050505050505050565b8260038101928215613f7a579160200282015b82811115613f7a578251825591602001919060010190613f5f565b50613f869291506140a3565b5090565b8260038101928215613f7a579182015b82811115613f7a578254825591600101919060010190613f9a565b6040518061010001604052806060815260200160008152602001600081526020016000815260200160008152602001613fec6140b8565b815260200160001515815260200161401e60405180606001604052806000815260200160008152602001600081525090565b905290565b6040805160a081018252600080825260208201529081016140426140b8565b815260006020820181905260409091015290565b604051806080016040528060006001600160a01b03168152602001600081526020016000815260200161401e60405180606001604052806000815260200160008152602001600081525090565b5b80821115613f8657600081556001016140a4565b60405180606001604052806003906020820280368337509192915050565b805b81146140e357600080fd5b50565b8035611912816140d6565b60006020828403121561410657614106600080fd5b600061411284846140e6565b949350505050565b8015155b82525050565b60208101611912828461411a565b60006119126001600160a01b038316614149565b90565b6001600160a01b031690565b600061191282614132565b600061191282614155565b61411e81614160565b60208101611912828461416b565b8061411e565b602081016119128284614182565b634e487b7160e01b600052604160045260246000fd5b601f19601f830116810181811067ffffffffffffffff821117156141d2576141d2614196565b6040525050565b60006141e460405190565b90506141f082826141ac565b919050565b600067ffffffffffffffff82111561420f5761420f614196565b601f19601f83011660200192915050565b82818337506000910152565b600061423f61423a846141f5565b6141d9565b90508281526020810184848401111561425a5761425a600080fd5b614265848285614220565b509392505050565b600082601f83011261428157614281600080fd5b813561411284826020860161422c565b6000602082840312156142a6576142a6600080fd5b813567ffffffffffffffff8111156142c0576142c0600080fd5b6141128482850161426d565b60006001600160a01b038216611912565b6140d8816142cc565b8035611912816142dd565b60006020828403121561430657614306600080fd5b600061411284846142e6565b60008083601f84011261432757614327600080fd5b50813567ffffffffffffffff81111561434257614342600080fd5b60208301915083600182028301111561120057611200600080fd5b60008060008060008060008060008060c08b8d03121561437f5761437f600080fd5b600061438b8d8d6140e6565b9a505060208b013567ffffffffffffffff8111156143ab576143ab600080fd5b6143b78d828e01614312565b995099505060408b013567ffffffffffffffff8111156143d9576143d9600080fd5b6143e58d828e01614312565b975097505060608b013567ffffffffffffffff81111561440757614407600080fd5b6144138d828e01614312565b955095505060808b013567ffffffffffffffff81111561443557614435600080fd5b6144418d828e01614312565b935093505060a06144548d828e016140e6565b9150509295989b9194979a5092959850565b6000806040838503121561447c5761447c600080fd5b600061448885856140e6565b9250506020614499858286016140e6565b9150509250929050565b604081016144b1828561411a565b6144be6020830184614182565b9392505050565b600067ffffffffffffffff8211156144df576144df614196565b5060200290565b60006144f461423a846144c5565b9050806020840283018581111561450d5761450d600080fd5b835b81811015614531578061452288826140e6565b8452506020928301920161450f565b5050509392505050565b600082601f83011261454f5761454f600080fd5b60036141128482856144e6565b8015156140d8565b80356119128161455c565b600080600060a0848603121561458757614587600080fd5b6000614593868661453b565b93505060606145a486828701614564565b92505060806145b5868287016140e6565b9150509250925092565b60008060008060008060006080888a0312156145dd576145dd600080fd5b60006145e98a8a6140e6565b975050602088013567ffffffffffffffff81111561460957614609600080fd5b6146158a828b01614312565b9650965050604088013567ffffffffffffffff81111561463757614637600080fd5b6146438a828b01614312565b9450945050606088013567ffffffffffffffff81111561466557614665600080fd5b6146718a828b01614312565b925092505092959891949750929550565b61411e816142cc565b608081016146998287614682565b6146a66020830186614182565b6146b3604083018561411a565b610c616060830184614182565b60005b838110156146db5781810151838201526020016146c3565b50506000910152565b60006146ee825190565b8084526020840193506147058185602086016146c0565b601f19601f8201165b9093019392505050565b6040808252810161472981856146e4565b90506144be6020830184614182565b60008060006060848603121561475057614750600080fd5b600061475c86866140e6565b935050602061476d868287016140e6565b92505060406145b5868287016140e6565b6020808252810161190f81846146e4565b6000806000606084860312156147a7576147a7600080fd5b60006147b386866140e6565b935050602061476d86828701614564565b805160608301906147d58482614182565b5060208201516147e86020850182614182565b506040820151611f266040850182614182565b60c081016148098287614682565b6148166020830186614182565b6148236040830185614182565b610c6160608301846147c4565b602081016119128284614682565b600061484a8383614182565b505060200190565b6003818060005b838110156137dd57815161486d878261483e565b965060208301925050600101614859565b80516101808084526000919084019061489782826146e4565b91505060208301516148ac6020860182614182565b5060408301516148bf6040860182614182565b5060608301516148d26060860182614182565b5060808301516148e56080860182614182565b5060a08301516148f860a0860182614852565b5060c083015161490c61010086018261411a565b5060e08301516142656101208601826147c4565b6020808252810161190f818461487e565b6000806040838503121561494757614947600080fd5b600061495385856140e6565b9250506020614499858286016142e6565b805160e08301906149758482614682565b5060208201516149886020850182614182565b50604082015161499b6040850182614852565b5060608201516149ae60a085018261411a565b506080820151611f2660c0850182614182565b60006149cd8383614964565b505060e00190565b60006149df825190565b80845260209384019383018060005b83811015614a13578151614a0288826149c1565b9750602083019250506001016149ee565b509495945050505050565b6020808252810161190f81846149d5565b6101208082528101614a41818a6146e4565b9050614a506020830189614182565b614a5d6040830188614182565b614a6a6060830187614182565b614a776080830186614182565b614a8460a083018561411a565b614a9160c08301846147c4565b98975050505050505050565b805160c0830190614aae8482614682565b506020820151614ac16020850182614182565b506040820151614ad46040850182614182565b506060820151611f2660608501826147c4565b60c081016119128284614a9d565b60008060008060808587031215614b0e57614b0e600080fd5b6000614b1a87876140e6565b9450506020614b2b878288016140e6565b9350506040614b3c878288016140e6565b9250506060614b4d878288016140e6565b91505092959194509250565b60008060408385031215614b6f57614b6f600080fd5b823567ffffffffffffffff811115614b8957614b89600080fd5b614b958582860161426d565b925050602083013567ffffffffffffffff811115614bb557614bb5600080fd5b6144998582860161426d565b60608101614bcf8286614182565b614bdc6020830185614182565b6141126040830184614182565b60008060008060808587031215614c0257614c02600080fd5b6000614c0e87876140e6565b9450506020614c1f878288016140e6565b935050604085013567ffffffffffffffff811115614c3f57614c3f600080fd5b614b3c8782880161426d565b600061190f83836146e4565b6000614c61825190565b80845260208401935083602082028501614c7b8560200190565b8060005b85811015614cb05784840389528151614c988582614c4b565b94506020830160209a909a0199925050600101614c7f565b5091979650505050505050565b6000614cc7825190565b80845260209384019383018060005b83811015614a13578151614cea888261483e565b975060208301925050600101614cd6565b60408082528101614d0c8185614c57565b905081810360208301526141128184614cbd565b600381526000602082017f7573640000000000000000000000000000000000000000000000000000000000815291505b5060200190565b60408082528101614d6881846146e4565b9050818103602083015261190f81614d20565b600981526000602082017f53706f745072696365000000000000000000000000000000000000000000000081529150614d50565b60408082528101614dbf81614d7b565b9050818103602083015261190f81846146e4565b634e487b7160e01b600052601160045260246000fd5b8181038181111561191257611912614dd3565b8051611912816140d6565b600060208284031215614e1c57614e1c600080fd5b60006141128484614dfc565b634e487b7160e01b600052601260045260246000fd5b600082614e4d57614e4d614e28565b500490565b6000614e5f838584614220565b50500190565b6000614112828486614e52565b8183526000602084019350614e88838584614220565b601f19601f84011661470e565b60c08101614ea3828c614182565b8181036020830152614eb6818a8c614e72565b90508181036040830152614ecb81888a614e72565b9050614eda6060830187614182565b8181036080830152614eed818587614e72565b9050614efc60a0830184614182565b9a9950505050505050505050565b80516119128161455c565b600060208284031215614f2a57614f2a600080fd5b60006141128484614f0a565b818102808215838204851417614f4e57614f4e614dd3565b5092915050565b8082018082111561191257611912614dd3565b600881526000602082017f526f756e64204f6e00000000000000000000000000000000000000000000000081529150614d50565b6020808252810161191281614f68565b600e81526000602082017f21204f726967696e20436861696e00000000000000000000000000000000000081529150614d50565b6020808252810161191281614fac565b600e81526000602082017f21205469636b6574204f776e657200000000000000000000000000000000000081529150614d50565b6020808252810161191281614ff0565b600781526000602082017f436c61696d65640000000000000000000000000000000000000000000000000081529150614d50565b6020808252810161191281615034565b600881526000602082017f212057696e6e657200000000000000000000000000000000000000000000000081529150614d50565b6020808252810161191281615078565b604081016144b18285614182565b600080604083850312156150e0576150e0600080fd5b60006150ec8585614f0a565b925050602061449985828601614dfc565b634e487b7160e01b600052603260045260246000fd5b6000600019820361512657615126614dd3565b5060010190565b600d81526000602082017f526f756e6420506173736564210000000000000000000000000000000000000081529150614d50565b602080825281016119128161512d565b600c81526000602082017f456e74727920436c6f736564000000000000000000000000000000000000000081529150614d50565b6020808252810161191281615171565b600881526000602082017f4e756d203e20333000000000000000000000000000000000000000000000000081529150614d50565b60208082528101611912816151b5565b600781526000602082017f4c6f772042616c0000000000000000000000000000000000000000000000000081529150614d50565b60208082528101611912816151f9565b601b81526000602082017f496e73756666696369656e742057616c6c65742042616c616e6365000000000081529150614d50565b602080825281016119128161523d565b600b81526000602082017f4d6178205469636b65747300000000000000000000000000000000000000000081529150614d50565b6020808252810161191281615281565b608081016152d38289614182565b81810360208301526152e6818789614e72565b905081810360408301526152fb818587614e72565b9050610d0c6060830184614182565b601481526000602082017f696e73756666696369656e742062616c616e636500000000000000000000000081529150614d50565b602080825281016119128161530a565b600061191282614146565b600381526000602082017f216f6b000000000000000000000000000000000000000000000000000000000081529150614d50565b6020808252810161191281615359565b604081016144b18285614682565b606081016153b98286614182565b6153c66020830185614182565b6141126040830184614682565b604081016153e18285614182565b818103602083015261411281846146e4565b634e487b7160e01b600052602260045260246000fd5b60028104600182168061541d57607f821691505b60208210810361128c5761128c6153f3565b6060810161543d8286614682565b614bdc6020830185614682565b600e81526000602082017f5469636b657420436c61696d656400000000000000000000000000000000000081529150614d50565b602080825281016119128161544a565b600681526000602082017f57696e6e6572000000000000000000000000000000000000000000000000000081529150614d50565b602080825281016119128161548e565b60006154e061423a846141f5565b9050828152602081018484840111156154fb576154fb600080fd5b6142658482856146c0565b600082601f83011261551a5761551a600080fd5b81516141128482602086016154d2565b60008060006060848603121561554257615542600080fd5b600061554e8686614f0a565b935050602084015167ffffffffffffffff81111561556e5761556e600080fd5b61557a86828701615506565b92505060406145b586828701614dfc565b6000602082840312156155a0576155a0600080fd5b815167ffffffffffffffff8111156155ba576155ba600080fd5b61411284828501615506565b600681526000602082017f2141646d696e000000000000000000000000000000000000000000000000000081529150614d50565b60208082528101611912816155c6565b600981526000602082017f416e6e6f756e636564000000000000000000000000000000000000000000000081529150614d50565b602080825281016119128161560a565b600481526000602082017f2146564d0000000000000000000000000000000000000000000000000000000081529150614d50565b602080825281016119128161564e565b60006119128260601b90565b600061191282615692565b61411e6156b5826142cc565b61569e565b60006156c68286614182565b6020820191506156d682856156a9565b6014820191506156e68284614182565b506020019392505050565b60008261570057615700614e28565b500690565b60006119126141468381565b61571a83615705565b81546008840282811b60001990911b908116901990911617825550505050565b6000612aa1818484615711565b81811015612b485761575a60008261573a565b600101615747565b601f821115612aa1576000818152602090206020601f850104810160208510156157895750805b611d8d6020601f860104830182615747565b815167ffffffffffffffff8111156157b5576157b5614196565b6157bf8254615409565b6157ca828285615762565b6020601f8311600181146157fe57600084156157e65750858201515b600019600886021c19811660028602178655506137dd565b600085815260208120601f198616915b8281101561582e578885015182556020948501946001909201910161580e565b8683101561584a5784890151600019601f89166008021c191682555b600160028802018855505050505050505050565b600981526000602082017f216465706c6f796572000000000000000000000000000000000000000000000081529150614d50565b602080825281016119128161585e565b600b81526000602082017f217375636365737366756c00000000000000000000000000000000000000000081529150614d50565b60208082528101611912816158a2565b8051611912816142dd565b60006020828403121561590657615906600080fd5b600061411284846158e6565b60008161592157615921614dd3565b506000190190565b600f81526000602082017f215370656369616c2043616c6c6572000000000000000000000000000000000081529150614d50565b6020808252810161191281615929565b6040810161597b8285614182565b6144be6020830184614682565b6003818060005b838110156137dd5781516159a3878261483e565b96506020830192505060010161598f565b61020081016159c3828b614182565b6159d0602083018a614682565b6159dd6040830189615988565b6159ea60a0830188614182565b6159f760c083018761411a565b615a0460e0830186614182565b615a12610100830185614182565b615a20610120830184614964565b9998505050505050505050565b60008060408385031215615a4357615a43600080fd5b6000614b9585856140e6565b60008060008060808587031215615a6857615a68600080fd5b6000615a748787614dfc565b9450506020615a8587828801614f0a565b9350506040615a9687828801614dfc565b9250506060614b4d878288016158e6565b6000615ab561423a846144c5565b90508060208402830185811115615ace57615ace600080fd5b835b818110156145315780615ae38882614dfc565b84525060209283019201615ad0565b600082601f830112615b0657615b06600080fd5b6003614112848285615aa7565b600060e08284031215615b2857615b28600080fd5b615b3260a06141d9565b90506000615b4084846158e6565b8252506020615b5184848301614dfc565b6020830152506040615b6584828501615af2565b60408301525060a0615b7984828501614f0a565b60608301525060c0615b8d84828501614dfc565b60808301525092915050565b600080600080600080600080610200898b031215615bb957615bb9600080fd5b6000615bc58b8b614dfc565b9850506020615bd68b828c016158e6565b9750506040615be78b828c01615af2565b96505060a0615bf88b828c01614dfc565b95505060c0615c098b828c01614f0a565b94505060e0615c1a8b828c01614dfc565b935050610100615c2c8b828c01614dfc565b925050610120615c3e8b828c01615b13565b9150509295985092959890939650565b60008060008060808587031215615c6757615c67600080fd5b6000615c738787614dfc565b9450506020615c8487828801614dfc565b9350506040615c9587828801614dfc565b925050606085015167ffffffffffffffff811115615cb557615cb5600080fd5b614b4d87828801615506565b60008060808385031215615cd757615cd7600080fd5b6000615ce38585614dfc565b925050602061449985828601615af2565b60008060408385031215615d0a57615d0a600080fd5b6000615d168585614dfc565b9250506020614499858286016158e6565b600080600060608486031215615d3f57615d3f600080fd5b6000615d4b8686614dfc565b9350506020615d5c86828701614dfc565b92505060406145b5868287016158e6565b60008154615d7a81615409565b808552602085019450600182168015615d9a5760018114615db057615dde565b60ff198316865260208215150286019350615dde565b60008581526020902060005b83811015615dd857815488820152600190910190602001615dbc565b87019450505b50505092915050565b60a08101615df58288614682565b8181036020830152615e078187615d6d565b90508181036040830152615e1b8186615d6d565b90508181036060830152615e2f81856146e4565b9050615e3e6080830184614682565b9695505050505050565b60608082528101615e598186615d6d565b90508181036020830152615e6d8185615d6d565b90508181036040830152610c6181846146e4565b60808101615e8f8287614182565b615e9c602083018661411a565b615ea96040830185614182565b610c616060830184614682565b60808101615ec48285614182565b6144be6020830184615988565b60808101615edf8287614182565b615eec6020830186614182565b615ef96040830185614182565b8181036060830152615e3e81846146e456fea26469706673582212203f6ce006a48842b035420cc2fadcf8d0a0407cd60155984db33cb86a26b56b9064736f6c63430008110033","opcodes":"PUSH2 0xC45 PUSH1 0x4 SWAP1 DUP2 SSTORE PUSH3 0x13881 PUSH1 0x5 SWAP1 DUP2 SSTORE PUSH1 0x1 PUSH1 0x6 SWAP1 DUP2 SSTORE PUSH1 0x2 PUSH1 0x7 SSTORE PUSH1 0x3 PUSH1 0x8 DUP2 DUP2 SSTORE PUSH1 0x9 SWAP5 SWAP1 SWAP5 SSTORE PUSH1 0xA SWAP3 SWAP1 SWAP3 SSTORE PUSH1 0xB SSTORE PUSH1 0xD SSTORE PUSH3 0xC61DEA PUSH1 0xE SSTORE PUSH2 0x100 PUSH1 0x40 MSTORE PUSH1 0xC0 SWAP1 DUP2 MSTORE PUSH8 0x3334B632B1B7B4B7 PUSH1 0xC1 SHL PUSH1 0xE0 MSTORE PUSH1 0xF SWAP1 PUSH3 0x65 SWAP1 DUP3 PUSH3 0x25E JUMP JUMPDEST POP PUSH1 0x40 DUP1 MLOAD DUP1 DUP3 ADD SWAP1 SWAP2 MSTORE PUSH1 0x7 DUP2 MSTORE PUSH7 0x2837B63CB3B7B7 PUSH1 0xC9 SHL PUSH1 0x20 DUP3 ADD MSTORE PUSH1 0x10 SWAP1 PUSH3 0x93 SWAP1 DUP3 PUSH3 0x25E JUMP JUMPDEST POP CALLVALUE DUP1 ISZERO PUSH3 0xA1 JUMPI PUSH1 0x0 DUP1 REVERT JUMPDEST POP PUSH1 0x40 MLOAD PUSH3 0x6366 CODESIZE SUB DUP1 PUSH3 0x6366 DUP4 CODECOPY DUP2 ADD PUSH1 0x40 DUP2 SWAP1 MSTORE PUSH3 0xC4 SWAP2 PUSH3 0x367 JUMP JUMPDEST PUSH1 0x0 DUP1 SLOAD PUSH1 0x1 PUSH1 0x1 PUSH1 0xA0 SHL SUB NOT AND PUSH1 0x1 PUSH1 0x1 PUSH1 0xA0 SHL SUB DUP5 DUP2 AND SWAP2 SWAP1 SWAP2 OR SWAP1 SWAP2 SSTORE DUP5 SWAP1 DUP2 AND PUSH3 0x106 JUMPI PUSH1 0x40 MLOAD PUSH4 0xE6C4247B PUSH1 0xE0 SHL DUP2 MSTORE PUSH1 0x4 ADD PUSH1 0x40 MLOAD DUP1 SWAP2 SUB SWAP1 REVERT JUMPDEST PUSH1 0x1 PUSH1 0x1 PUSH1 0xA0 SHL SUB SWAP1 DUP2 AND PUSH1 0x80 MSTORE SWAP3 DUP4 AND PUSH1 0xA0 MSTORE PUSH1 0x2 DUP1 SLOAD SWAP2 SWAP1 SWAP4 AND PUSH1 0x1 PUSH1 0x1 PUSH1 0xA0 SHL SUB NOT SWAP2 DUP3 AND OR SWAP1 SWAP3 SSTORE POP PUSH1 0x3 DUP1 SLOAD SWAP1 SWAP2 AND CALLER OR SWAP1 SSTORE POP PUSH3 0x3D5 JUMP JUMPDEST PUSH4 0x4E487B71 PUSH1 0xE0 SHL PUSH1 0x0 MSTORE PUSH1 0x41 PUSH1 0x4 MSTORE PUSH1 0x24 PUSH1 0x0 REVERT JUMPDEST PUSH4 0x4E487B71 PUSH1 0xE0 SHL PUSH1 0x0 MSTORE PUSH1 0x22 PUSH1 0x4 MSTORE PUSH1 0x24 PUSH1 0x0 REVERT JUMPDEST PUSH1 0x2 DUP2 DIV PUSH1 0x1 DUP3 AND DUP1 PUSH3 0x186 JUMPI PUSH1 0x7F DUP3 AND SWAP2 POP JUMPDEST PUSH1 0x20 DUP3 LT DUP2 SUB PUSH3 0x19B JUMPI PUSH3 0x19B PUSH3 0x15B JUMP JUMPDEST POP SWAP2 SWAP1 POP JUMP JUMPDEST PUSH1 0x0 PUSH3 0x1B2 PUSH3 0x1AF DUP4 DUP2 JUMP JUMPDEST SWAP1 JUMP JUMPDEST SWAP3 SWAP2 POP POP JUMP JUMPDEST PUSH3 0x1C3 DUP4 PUSH3 0x1A1 JUMP JUMPDEST DUP2 SLOAD PUSH1 0x8 DUP5 MUL DUP3 DUP2 SHL PUSH1 0x0 NOT SWAP1 SWAP2 SHL SWAP1 DUP2 AND SWAP1 NOT SWAP1 SWAP2 AND OR DUP3 SSTORE POP POP POP POP JUMP JUMPDEST PUSH1 0x0 PUSH3 0x1F2 DUP2 DUP5 DUP5 PUSH3 0x1B8 JUMP JUMPDEST POP POP POP JUMP JUMPDEST DUP2 DUP2 LT ISZERO PUSH3 0x216 JUMPI PUSH3 0x20D PUSH1 0x0 DUP3 PUSH3 0x1E3 JUMP JUMPDEST PUSH1 0x1 ADD PUSH3 0x1F7 JUMP JUMPDEST POP POP JUMP JUMPDEST PUSH1 0x1F DUP3 GT ISZERO PUSH3 0x1F2 JUMPI PUSH1 0x0 DUP2 DUP2 MSTORE PUSH1 0x20 SWAP1 KECCAK256 PUSH1 0x20 PUSH1 0x1F DUP6 ADD DIV DUP2 ADD PUSH1 0x20 DUP6 LT ISZERO PUSH3 0x243 JUMPI POP DUP1 JUMPDEST PUSH3 0x257 PUSH1 0x20 PUSH1 0x1F DUP7 ADD DIV DUP4 ADD DUP3 PUSH3 0x1F7 JUMP JUMPDEST POP POP POP POP POP JUMP JUMPDEST DUP2 MLOAD PUSH1 0x1 PUSH1 0x1 PUSH1 0x40 SHL SUB DUP2 GT ISZERO PUSH3 0x27A JUMPI PUSH3 0x27A PUSH3 0x145 JUMP JUMPDEST PUSH3 0x286 DUP3 SLOAD PUSH3 0x171 JUMP JUMPDEST PUSH3 0x293 DUP3 DUP3 DUP6 PUSH3 0x21A JUMP JUMPDEST PUSH1 0x20 PUSH1 0x1F DUP4 GT PUSH1 0x1 DUP2 EQ PUSH3 0x2CA JUMPI PUSH1 0x0 DUP5 ISZERO PUSH3 0x2B1 JUMPI POP DUP6 DUP3 ADD MLOAD JUMPDEST PUSH1 0x0 NOT PUSH1 0x8 DUP7 MUL SHR NOT DUP2 AND PUSH1 0x2 DUP7 MUL OR DUP7 SSTORE POP PUSH3 0x326 JUMP JUMPDEST PUSH1 0x0 DUP6 DUP2 MSTORE PUSH1 0x20 DUP2 KECCAK256 PUSH1 0x1F NOT DUP7 AND SWAP2 JUMPDEST DUP3 DUP2 LT ISZERO PUSH3 0x2FC JUMPI DUP9 DUP6 ADD MLOAD DUP3 SSTORE PUSH1 0x20 SWAP5 DUP6 ADD SWAP5 PUSH1 0x1 SWAP1 SWAP3 ADD SWAP2 ADD PUSH3 0x2DA JUMP JUMPDEST DUP7 DUP4 LT ISZERO PUSH3 0x319 JUMPI DUP5 DUP10 ADD MLOAD PUSH1 0x0 NOT PUSH1 0x1F DUP10 AND PUSH1 0x8 MUL SHR NOT AND DUP3 SSTORE JUMPDEST PUSH1 0x1 PUSH1 0x2 DUP9 MUL ADD DUP9 SSTORE POP POP POP JUMPDEST POP POP POP POP POP POP JUMP JUMPDEST PUSH1 0x0 PUSH1 0x1 PUSH1 0x1 PUSH1 0xA0 SHL SUB DUP3 AND PUSH3 0x1B2 JUMP JUMPDEST PUSH3 0x34B DUP2 PUSH3 0x32E JUMP JUMPDEST DUP2 EQ PUSH3 0x357 JUMPI PUSH1 0x0 DUP1 REVERT JUMPDEST POP JUMP JUMPDEST DUP1 MLOAD PUSH3 0x1B2 DUP2 PUSH3 0x340 JUMP JUMPDEST PUSH1 0x0 DUP1 PUSH1 0x0 DUP1 PUSH1 0x80 DUP6 DUP8 SUB SLT ISZERO PUSH3 0x382 JUMPI PUSH3 0x382 PUSH1 0x0 DUP1 REVERT JUMPDEST PUSH1 0x0 PUSH3 0x390 DUP8 DUP8 PUSH3 0x35A JUMP JUMPDEST SWAP5 POP POP PUSH1 0x20 PUSH3 0x3A3 DUP8 DUP3 DUP9 ADD PUSH3 0x35A JUMP JUMPDEST SWAP4 POP POP PUSH1 0x40 PUSH3 0x3B6 DUP8 DUP3 DUP9 ADD PUSH3 0x35A JUMP JUMPDEST SWAP3 POP POP PUSH1 0x60 PUSH3 0x3C9 DUP8 DUP3 DUP9 ADD PUSH3 0x35A JUMP JUMPDEST SWAP2 POP POP SWAP3 SWAP6 SWAP2 SWAP5 POP SWAP3 POP JUMP JUMPDEST PUSH1 0x80 MLOAD PUSH1 0xA0 MLOAD PUSH2 0x5F41 PUSH3 0x425 PUSH1 0x0 CODECOPY PUSH1 0x0 DUP2 DUP2 PUSH2 0x6AA ADD MSTORE DUP2 DUP2 PUSH2 0x36EA ADD MSTORE PUSH2 0x37FC ADD MSTORE PUSH1 0x0 DUP2 DUP2 PUSH2 0x3D9 ADD MSTORE DUP2 DUP2 PUSH2 0xD99 ADD MSTORE DUP2 DUP2 PUSH2 0x1962 ADD MSTORE DUP2 DUP2 PUSH2 0x3771 ADD MSTORE PUSH2 0x3883 ADD MSTORE PUSH2 0x5F41 PUSH1 0x0 RETURN INVALID PUSH1 0x80 PUSH1 0x40 MSTORE PUSH1 0x4 CALLDATASIZE LT PUSH2 0x385 JUMPI PUSH1 0x0 CALLDATALOAD PUSH1 0xE0 SHR DUP1 PUSH4 0x795688CA GT PUSH2 0x1D1 JUMPI DUP1 PUSH4 0xC5958AF9 GT PUSH2 0x102 JUMPI DUP1 PUSH4 0xDE7C756E GT PUSH2 0xA0 JUMPI DUP1 PUSH4 0xF78EEA83 GT PUSH2 0x6F JUMPI DUP1 PUSH4 0xF78EEA83 EQ PUSH2 0xB2E JUMPI DUP1 PUSH4 0xFA45CFDD EQ PUSH2 0xB5D JUMPI DUP1 PUSH4 0xFCD4A546 EQ PUSH2 0xB7D JUMPI DUP1 PUSH4 0xFF5C04CE EQ PUSH2 0xBAB JUMPI PUSH1 0x0 DUP1 REVERT JUMPDEST DUP1 PUSH4 0xDE7C756E EQ PUSH2 0xAC4 JUMPI DUP1 PUSH4 0xE07C5486 EQ PUSH2 0xAD9 JUMPI DUP1 PUSH4 0xE59FEF7C EQ PUSH2 0xAF9 JUMPI DUP1 PUSH4 0xF66F49C3 EQ PUSH2 0xB0E JUMPI PUSH1 0x0 DUP1 REVERT JUMPDEST DUP1 PUSH4 0xCE5E11BF GT PUSH2 0xDC JUMPI DUP1 PUSH4 0xCE5E11BF EQ PUSH2 0xA44 JUMPI DUP1 PUSH4 0xD1813B33 EQ PUSH2 0xA64 JUMPI DUP1 PUSH4 0xD5F39488 EQ PUSH2 0xA84 JUMPI DUP1 PUSH4 0xD98C3C65 EQ PUSH2 0xAA4 JUMPI PUSH1 0x0 DUP1 REVERT JUMPDEST DUP1 PUSH4 0xC5958AF9 EQ PUSH2 0x9C4 JUMPI DUP1 PUSH4 0xCB288E8E EQ PUSH2 0x9E4 JUMPI DUP1 PUSH4 0xCC3D967B EQ PUSH2 0xA17 JUMPI PUSH1 0x0 DUP1 REVERT JUMPDEST DUP1 PUSH4 0xA0876F49 GT PUSH2 0x16F JUMPI DUP1 PUSH4 0xACB8B0C7 GT PUSH2 0x149 JUMPI DUP1 PUSH4 0xACB8B0C7 EQ PUSH2 0x93E JUMPI DUP1 PUSH4 0xAD898F5B EQ PUSH2 0x982 JUMPI DUP1 PUSH4 0xAEBD823A EQ PUSH2 0x998 JUMPI DUP1 PUSH4 0xB5F597F3 EQ PUSH2 0x9AE JUMPI PUSH1 0x0 DUP1 REVERT JUMPDEST DUP1 PUSH4 0xA0876F49 EQ PUSH2 0x8B9 JUMPI DUP1 PUSH4 0xA792765F EQ PUSH2 0x8F1 JUMPI DUP1 PUSH4 0xA8C44B23 EQ PUSH2 0x911 JUMPI PUSH1 0x0 DUP1 REVERT JUMPDEST DUP1 PUSH4 0x8527D58F GT PUSH2 0x1AB JUMPI DUP1 PUSH4 0x8527D58F EQ PUSH2 0x84B JUMPI DUP1 PUSH4 0x8A19C8BC EQ PUSH2 0x86B JUMPI DUP1 PUSH4 0x92093527 EQ PUSH2 0x881 JUMPI DUP1 PUSH4 0x9BB6EB70 EQ PUSH2 0x897 JUMPI PUSH1 0x0 DUP1 REVERT JUMPDEST DUP1 PUSH4 0x795688CA EQ PUSH2 0x7F6 JUMPI DUP1 PUSH4 0x7E5E219C EQ PUSH2 0x823 JUMPI DUP1 PUSH4 0x80C1442B EQ PUSH2 0x836 JUMPI PUSH1 0x0 DUP1 REVERT JUMPDEST DUP1 PUSH4 0x44E4E0F9 GT PUSH2 0x2B6 JUMPI DUP1 PUSH4 0x6A22D8CC GT PUSH2 0x254 JUMPI DUP1 PUSH4 0x70EF05DB GT PUSH2 0x223 JUMPI DUP1 PUSH4 0x70EF05DB EQ PUSH2 0x722 JUMPI DUP1 PUSH4 0x74CDB711 EQ PUSH2 0x744 JUMPI DUP1 PUSH4 0x77B03E0D EQ PUSH2 0x757 JUMPI DUP1 PUSH4 0x77F37283 EQ PUSH2 0x777 JUMPI PUSH1 0x0 DUP1 REVERT JUMPDEST DUP1 PUSH4 0x6A22D8CC EQ PUSH2 0x698 JUMPI DUP1 PUSH4 0x6A8054C1 EQ PUSH2 0x6CC JUMPI DUP1 PUSH4 0x6ABC4367 EQ PUSH2 0x6EC JUMPI DUP1 PUSH4 0x6BFEE4EA EQ PUSH2 0x70C JUMPI PUSH1 0x0 DUP1 REVERT JUMPDEST DUP1 PUSH4 0x49160658 GT PUSH2 0x290 JUMPI DUP1 PUSH4 0x49160658 EQ PUSH2 0x5C7 JUMPI DUP1 PUSH4 0x491F3437 EQ PUSH2 0x5E7 JUMPI DUP1 PUSH4 0x4C21B369 EQ PUSH2 0x654 JUMPI DUP1 PUSH4 0x64EE3C6D EQ PUSH2 0x66A JUMPI PUSH1 0x0 DUP1 REVERT JUMPDEST DUP1 PUSH4 0x44E4E0F9 EQ PUSH2 0x571 JUMPI DUP1 PUSH4 0x44E87F91 EQ PUSH2 0x591 JUMPI DUP1 PUSH4 0x469A397B EQ PUSH2 0x5B1 JUMPI PUSH1 0x0 DUP1 REVERT JUMPDEST DUP1 PUSH4 0x1A98B2E0 GT PUSH2 0x323 JUMPI DUP1 PUSH4 0x286DB5C2 GT PUSH2 0x2FD JUMPI DUP1 PUSH4 0x286DB5C2 EQ PUSH2 0x4EE JUMPI DUP1 PUSH4 0x29449085 EQ PUSH2 0x50E JUMPI DUP1 PUSH4 0x2AF8AAE0 EQ PUSH2 0x53C JUMPI DUP1 PUSH4 0x42F5AC52 EQ PUSH2 0x55C JUMPI PUSH1 0x0 DUP1 REVERT JUMPDEST DUP1 PUSH4 0x1A98B2E0 EQ PUSH2 0x4A3 JUMPI DUP1 PUSH4 0x20EB5632 EQ PUSH2 0x4C3 JUMPI DUP1 PUSH4 0x276F4872 EQ PUSH2 0x4D9 JUMPI PUSH1 0x0 DUP1 REVERT JUMPDEST DUP1 PUSH4 0x16F961B7 GT PUSH2 0x35F JUMPI DUP1 PUSH4 0x16F961B7 EQ PUSH2 0x42B JUMPI DUP1 PUSH4 0x18409201 EQ PUSH2 0x441 JUMPI DUP1 PUSH4 0x193B505B EQ PUSH2 0x461 JUMPI DUP1 PUSH4 0x1959AD5B EQ PUSH2 0x483 JUMPI PUSH1 0x0 DUP1 REVERT JUMPDEST DUP1 PUSH4 0xE392288 EQ PUSH2 0x391 JUMPI DUP1 PUSH4 0x116191B6 EQ PUSH2 0x3C7 JUMPI DUP1 PUSH4 0x15397A57 EQ PUSH2 0x408 JUMPI PUSH1 0x0 DUP1 REVERT JUMPDEST CALLDATASIZE PUSH2 0x38C JUMPI STOP JUMPDEST PUSH1 0x0 DUP1 REVERT JUMPDEST CALLVALUE DUP1 ISZERO PUSH2 0x39D JUMPI PUSH1 0x0 DUP1 REVERT JUMPDEST POP PUSH2 0x3B1 PUSH2 0x3AC CALLDATASIZE PUSH1 0x4 PUSH2 0x40F1 JUMP JUMPDEST PUSH2 0xBC0 JUMP JUMPDEST PUSH1 0x40 MLOAD PUSH2 0x3BE SWAP2 SWAP1 PUSH2 0x4124 JUMP JUMPDEST PUSH1 0x40 MLOAD DUP1 SWAP2 SUB SWAP1 RETURN JUMPDEST CALLVALUE DUP1 ISZERO PUSH2 0x3D3 JUMPI PUSH1 0x0 DUP1 REVERT JUMPDEST POP PUSH2 0x3FB PUSH32 0x0 DUP2 JUMP JUMPDEST PUSH1 0x40 MLOAD PUSH2 0x3BE SWAP2 SWAP1 PUSH2 0x4174 JUMP JUMPDEST CALLVALUE DUP1 ISZERO PUSH2 0x414 JUMPI PUSH1 0x0 DUP1 REVERT JUMPDEST POP PUSH2 0x41E PUSH1 0xD SLOAD DUP2 JUMP JUMPDEST PUSH1 0x40 MLOAD PUSH2 0x3BE SWAP2 SWAP1 PUSH2 0x4188 JUMP JUMPDEST CALLVALUE DUP1 ISZERO PUSH2 0x437 JUMPI PUSH1 0x0 DUP1 REVERT JUMPDEST POP PUSH2 0x41E PUSH1 0x8 SLOAD DUP2 JUMP JUMPDEST CALLVALUE DUP1 ISZERO PUSH2 0x44D JUMPI PUSH1 0x0 DUP1 REVERT JUMPDEST POP PUSH2 0x41E PUSH2 0x45C CALLDATASIZE PUSH1 0x4 PUSH2 0x4291 JUMP JUMPDEST PUSH2 0xC6A JUMP JUMPDEST CALLVALUE DUP1 ISZERO PUSH2 0x46D JUMPI PUSH1 0x0 DUP1 REVERT JUMPDEST POP PUSH2 0x481 PUSH2 0x47C CALLDATASIZE PUSH1 0x4 PUSH2 0x42F1 JUMP JUMPDEST PUSH2 0xD17 JUMP JUMPDEST STOP JUMPDEST CALLVALUE DUP1 ISZERO PUSH2 0x48F JUMPI PUSH1 0x0 DUP1 REVERT JUMPDEST POP PUSH1 0x0 SLOAD PUSH2 0x3FB SWAP1 PUSH1 0x1 PUSH1 0x1 PUSH1 0xA0 SHL SUB AND DUP2 JUMP JUMPDEST CALLVALUE DUP1 ISZERO PUSH2 0x4AF JUMPI PUSH1 0x0 DUP1 REVERT JUMPDEST POP PUSH2 0x481 PUSH2 0x4BE CALLDATASIZE PUSH1 0x4 PUSH2 0x435D JUMP JUMPDEST PUSH2 0xD4F JUMP JUMPDEST CALLVALUE DUP1 ISZERO PUSH2 0x4CF JUMPI PUSH1 0x0 DUP1 REVERT JUMPDEST POP PUSH2 0x41E PUSH1 0x5 SLOAD DUP2 JUMP JUMPDEST CALLVALUE DUP1 ISZERO PUSH2 0x4E5 JUMPI PUSH1 0x0 DUP1 REVERT JUMPDEST POP PUSH2 0x41E PUSH2 0xE4B JUMP JUMPDEST CALLVALUE DUP1 ISZERO PUSH2 0x4FA JUMPI PUSH1 0x0 DUP1 REVERT JUMPDEST POP PUSH2 0x481 PUSH2 0x509 CALLDATASIZE PUSH1 0x4 PUSH2 0x4466 JUMP JUMPDEST PUSH2 0xF49 JUMP JUMPDEST CALLVALUE DUP1 ISZERO PUSH2 0x51A JUMPI PUSH1 0x0 DUP1 REVERT JUMPDEST POP PUSH2 0x52E PUSH2 0x529 CALLDATASIZE PUSH1 0x4 PUSH2 0x4466 JUMP JUMPDEST PUSH2 0x116F JUMP JUMPDEST PUSH1 0x40 MLOAD PUSH2 0x3BE SWAP3 SWAP2 SWAP1 PUSH2 0x44A3 JUMP JUMPDEST CALLVALUE DUP1 ISZERO PUSH2 0x548 JUMPI PUSH1 0x0 DUP1 REVERT JUMPDEST POP PUSH1 0x1 SLOAD PUSH2 0x3FB SWAP1 PUSH1 0x1 PUSH1 0x1 PUSH1 0xA0 SHL SUB AND DUP2 JUMP JUMPDEST CALLVALUE DUP1 ISZERO PUSH2 0x568 JUMPI PUSH1 0x0 DUP1 REVERT JUMPDEST POP PUSH2 0x41E PUSH2 0x1207 JUMP JUMPDEST CALLVALUE DUP1 ISZERO PUSH2 0x57D JUMPI PUSH1 0x0 DUP1 REVERT JUMPDEST POP PUSH2 0x481 PUSH2 0x58C CALLDATASIZE PUSH1 0x4 PUSH2 0x456F JUMP JUMPDEST PUSH2 0x1292 JUMP JUMPDEST CALLVALUE DUP1 ISZERO PUSH2 0x59D JUMPI PUSH1 0x0 DUP1 REVERT JUMPDEST POP PUSH2 0x3B1 PUSH2 0x5AC CALLDATASIZE PUSH1 0x4 PUSH2 0x4466 JUMP JUMPDEST PUSH2 0x1882 JUMP JUMPDEST CALLVALUE DUP1 ISZERO PUSH2 0x5BD JUMPI PUSH1 0x0 DUP1 REVERT JUMPDEST POP PUSH2 0x41E PUSH1 0xB SLOAD DUP2 JUMP JUMPDEST CALLVALUE DUP1 ISZERO PUSH2 0x5D3 JUMPI PUSH1 0x0 DUP1 REVERT JUMPDEST POP PUSH2 0x481 PUSH2 0x5E2 CALLDATASIZE PUSH1 0x4 PUSH2 0x45BF JUMP JUMPDEST PUSH2 0x1918 JUMP JUMPDEST CALLVALUE DUP1 ISZERO PUSH2 0x5F3 JUMPI PUSH1 0x0 DUP1 REVERT JUMPDEST POP PUSH2 0x644 PUSH2 0x602 CALLDATASIZE PUSH1 0x4 PUSH2 0x4466 JUMP JUMPDEST PUSH1 0x14 PUSH1 0x20 SWAP1 DUP2 MSTORE PUSH1 0x0 SWAP3 DUP4 MSTORE PUSH1 0x40 DUP1 DUP5 KECCAK256 SWAP1 SWAP2 MSTORE SWAP1 DUP3 MSTORE SWAP1 KECCAK256 DUP1 SLOAD PUSH1 0x1 DUP3 ADD SLOAD PUSH1 0x5 DUP4 ADD SLOAD PUSH1 0x6 SWAP1 SWAP4 ADD SLOAD PUSH1 0x1 PUSH1 0x1 PUSH1 0xA0 SHL SUB SWAP1 SWAP3 AND SWAP3 SWAP1 SWAP2 PUSH1 0xFF SWAP1 SWAP2 AND SWAP1 DUP5 JUMP JUMPDEST PUSH1 0x40 MLOAD PUSH2 0x3BE SWAP5 SWAP4 SWAP3 SWAP2 SWAP1 PUSH2 0x468B JUMP JUMPDEST CALLVALUE DUP1 ISZERO PUSH2 0x660 JUMPI PUSH1 0x0 DUP1 REVERT JUMPDEST POP PUSH2 0x41E PUSH1 0xE SLOAD DUP2 JUMP JUMPDEST CALLVALUE DUP1 ISZERO PUSH2 0x676 JUMPI PUSH1 0x0 DUP1 REVERT JUMPDEST POP PUSH2 0x68A PUSH2 0x685 CALLDATASIZE PUSH1 0x4 PUSH2 0x4466 JUMP JUMPDEST PUSH2 0x1A19 JUMP JUMPDEST PUSH1 0x40 MLOAD PUSH2 0x3BE SWAP3 SWAP2 SWAP1 PUSH2 0x4718 JUMP JUMPDEST CALLVALUE DUP1 ISZERO PUSH2 0x6A4 JUMPI PUSH1 0x0 DUP1 REVERT JUMPDEST POP PUSH2 0x3FB PUSH32 0x0 DUP2 JUMP JUMPDEST CALLVALUE DUP1 ISZERO PUSH2 0x6D8 JUMPI PUSH1 0x0 DUP1 REVERT JUMPDEST POP PUSH2 0x481 PUSH2 0x6E7 CALLDATASIZE PUSH1 0x4 PUSH2 0x4738 JUMP JUMPDEST PUSH2 0x1A72 JUMP JUMPDEST CALLVALUE DUP1 ISZERO PUSH2 0x6F8 JUMPI PUSH1 0x0 DUP1 REVERT JUMPDEST POP PUSH2 0x644 PUSH2 0x707 CALLDATASIZE PUSH1 0x4 PUSH2 0x4466 JUMP JUMPDEST PUSH2 0x1D94 JUMP JUMPDEST CALLVALUE DUP1 ISZERO PUSH2 0x718 JUMPI PUSH1 0x0 DUP1 REVERT JUMPDEST POP PUSH2 0x41E PUSH1 0x9 SLOAD DUP2 JUMP JUMPDEST CALLVALUE DUP1 ISZERO PUSH2 0x72E JUMPI PUSH1 0x0 DUP1 REVERT JUMPDEST POP PUSH2 0x737 PUSH2 0x1DEA JUMP JUMPDEST PUSH1 0x40 MLOAD PUSH2 0x3BE SWAP2 SWAP1 PUSH2 0x477E JUMP JUMPDEST PUSH2 0x481 PUSH2 0x752 CALLDATASIZE PUSH1 0x4 PUSH2 0x478F JUMP JUMPDEST PUSH2 0x1E78 JUMP JUMPDEST CALLVALUE DUP1 ISZERO PUSH2 0x763 JUMPI PUSH1 0x0 DUP1 REVERT JUMPDEST POP PUSH2 0x41E PUSH2 0x772 CALLDATASIZE PUSH1 0x4 PUSH2 0x40F1 JUMP JUMPDEST PUSH2 0x1F2C JUMP JUMPDEST CALLVALUE DUP1 ISZERO PUSH2 0x783 JUMPI PUSH1 0x0 DUP1 REVERT JUMPDEST POP PUSH2 0x7E6 PUSH2 0x792 CALLDATASIZE PUSH1 0x4 PUSH2 0x42F1 JUMP JUMPDEST PUSH1 0x13 PUSH1 0x20 SWAP1 DUP2 MSTORE PUSH1 0x0 SWAP2 DUP3 MSTORE PUSH1 0x40 SWAP2 DUP3 SWAP1 KECCAK256 DUP1 SLOAD PUSH1 0x1 DUP3 ADD SLOAD PUSH1 0x2 DUP4 ADD SLOAD DUP6 MLOAD PUSH1 0x60 DUP2 ADD DUP8 MSTORE PUSH1 0x3 DUP6 ADD SLOAD DUP2 MSTORE PUSH1 0x4 DUP6 ADD SLOAD SWAP6 DUP2 ADD SWAP6 SWAP1 SWAP6 MSTORE PUSH1 0x5 SWAP1 SWAP4 ADD SLOAD SWAP5 DUP5 ADD SWAP5 SWAP1 SWAP5 MSTORE PUSH1 0x1 PUSH1 0x1 PUSH1 0xA0 SHL SUB AND SWAP3 SWAP2 DUP5 JUMP JUMPDEST PUSH1 0x40 MLOAD PUSH2 0x3BE SWAP5 SWAP4 SWAP3 SWAP2 SWAP1 PUSH2 0x47FB JUMP JUMPDEST CALLVALUE DUP1 ISZERO PUSH2 0x802 JUMPI PUSH1 0x0 DUP1 REVERT JUMPDEST POP PUSH1 0x2 SLOAD PUSH2 0x816 SWAP1 PUSH1 0x1 PUSH1 0x1 PUSH1 0xA0 SHL SUB AND DUP2 JUMP JUMPDEST PUSH1 0x40 MLOAD PUSH2 0x3BE SWAP2 SWAP1 PUSH2 0x4830 JUMP JUMPDEST CALLVALUE DUP1 ISZERO PUSH2 0x82F JUMPI PUSH1 0x0 DUP1 REVERT JUMPDEST POP TIMESTAMP PUSH2 0x41E JUMP JUMPDEST CALLVALUE DUP1 ISZERO PUSH2 0x842 JUMPI PUSH1 0x0 DUP1 REVERT JUMPDEST POP PUSH2 0x737 PUSH2 0x1FB7 JUMP JUMPDEST CALLVALUE DUP1 ISZERO PUSH2 0x857 JUMPI PUSH1 0x0 DUP1 REVERT JUMPDEST POP PUSH2 0x481 PUSH2 0x866 CALLDATASIZE PUSH1 0x4 PUSH2 0x4466 JUMP JUMPDEST PUSH2 0x1FC4 JUMP JUMPDEST CALLVALUE DUP1 ISZERO PUSH2 0x877 JUMPI PUSH1 0x0 DUP1 REVERT JUMPDEST POP PUSH2 0x41E PUSH1 0xC SLOAD DUP2 JUMP JUMPDEST CALLVALUE DUP1 ISZERO PUSH2 0x88D JUMPI PUSH1 0x0 DUP1 REVERT JUMPDEST POP PUSH2 0x41E PUSH1 0xA SLOAD DUP2 JUMP JUMPDEST CALLVALUE DUP1 ISZERO PUSH2 0x8A3 JUMPI PUSH1 0x0 DUP1 REVERT JUMPDEST POP PUSH2 0x8AC PUSH2 0x21D4 JUMP JUMPDEST PUSH1 0x40 MLOAD PUSH2 0x3BE SWAP2 SWAP1 PUSH2 0x4920 JUMP JUMPDEST CALLVALUE DUP1 ISZERO PUSH2 0x8C5 JUMPI PUSH1 0x0 DUP1 REVERT JUMPDEST POP PUSH2 0x41E PUSH2 0x8D4 CALLDATASIZE PUSH1 0x4 PUSH2 0x4931 JUMP JUMPDEST PUSH1 0x16 PUSH1 0x20 SWAP1 DUP2 MSTORE PUSH1 0x0 SWAP3 DUP4 MSTORE PUSH1 0x40 DUP1 DUP5 KECCAK256 SWAP1 SWAP2 MSTORE SWAP1 DUP3 MSTORE SWAP1 KECCAK256 SLOAD DUP2 JUMP JUMPDEST CALLVALUE DUP1 ISZERO PUSH2 0x8FD JUMPI PUSH1 0x0 DUP1 REVERT JUMPDEST POP PUSH2 0x68A PUSH2 0x90C CALLDATASIZE PUSH1 0x4 PUSH2 0x4466 JUMP JUMPDEST PUSH2 0x2338 JUMP JUMPDEST CALLVALUE DUP1 ISZERO PUSH2 0x91D JUMPI PUSH1 0x0 DUP1 REVERT JUMPDEST POP PUSH2 0x931 PUSH2 0x92C CALLDATASIZE PUSH1 0x4 PUSH2 0x42F1 JUMP JUMPDEST PUSH2 0x23D7 JUMP JUMPDEST PUSH1 0x40 MLOAD PUSH2 0x3BE SWAP2 SWAP1 PUSH2 0x4A1E JUMP JUMPDEST CALLVALUE DUP1 ISZERO PUSH2 0x94A JUMPI PUSH1 0x0 DUP1 REVERT JUMPDEST POP PUSH2 0x41E PUSH2 0x959 CALLDATASIZE PUSH1 0x4 PUSH2 0x42F1 JUMP JUMPDEST PUSH1 0xC SLOAD PUSH1 0x0 SWAP1 DUP2 MSTORE PUSH1 0x16 PUSH1 0x20 SWAP1 DUP2 MSTORE PUSH1 0x40 DUP1 DUP4 KECCAK256 PUSH1 0x1 PUSH1 0x1 PUSH1 0xA0 SHL SUB SWAP1 SWAP5 AND DUP4 MSTORE SWAP3 SWAP1 MSTORE KECCAK256 SLOAD SWAP1 JUMP JUMPDEST CALLVALUE DUP1 ISZERO PUSH2 0x98E JUMPI PUSH1 0x0 DUP1 REVERT JUMPDEST POP PUSH2 0x41E PUSH1 0x4 SLOAD DUP2 JUMP JUMPDEST CALLVALUE DUP1 ISZERO PUSH2 0x9A4 JUMPI PUSH1 0x0 DUP1 REVERT JUMPDEST POP PUSH2 0x41E PUSH1 0x7 SLOAD DUP2 JUMP JUMPDEST CALLVALUE DUP1 ISZERO PUSH2 0x9BA JUMPI PUSH1 0x0 DUP1 REVERT JUMPDEST POP PUSH2 0x41E PUSH1 0x6 SLOAD DUP2 JUMP JUMPDEST CALLVALUE DUP1 ISZERO PUSH2 0x9D0 JUMPI PUSH1 0x0 DUP1 REVERT JUMPDEST POP PUSH2 0x737 PUSH2 0x9DF CALLDATASIZE PUSH1 0x4 PUSH2 0x4466 JUMP JUMPDEST PUSH2 0x261D JUMP JUMPDEST CALLVALUE DUP1 ISZERO PUSH2 0x9F0 JUMPI PUSH1 0x0 DUP1 REVERT JUMPDEST POP PUSH2 0xA04 PUSH2 0x9FF CALLDATASIZE PUSH1 0x4 PUSH2 0x40F1 JUMP JUMPDEST PUSH2 0x26AE JUMP JUMPDEST PUSH1 0x40 MLOAD PUSH2 0x3BE SWAP8 SWAP7 SWAP6 SWAP5 SWAP4 SWAP3 SWAP2 SWAP1 PUSH2 0x4A2F JUMP JUMPDEST CALLVALUE DUP1 ISZERO PUSH2 0xA23 JUMPI PUSH1 0x0 DUP1 REVERT JUMPDEST POP PUSH2 0xA37 PUSH2 0xA32 CALLDATASIZE PUSH1 0x4 PUSH2 0x42F1 JUMP JUMPDEST PUSH2 0x2796 JUMP JUMPDEST PUSH1 0x40 MLOAD PUSH2 0x3BE SWAP2 SWAP1 PUSH2 0x4AE7 JUMP JUMPDEST CALLVALUE DUP1 ISZERO PUSH2 0xA50 JUMPI PUSH1 0x0 DUP1 REVERT JUMPDEST POP PUSH2 0x41E PUSH2 0xA5F CALLDATASIZE PUSH1 0x4 PUSH2 0x4466 JUMP JUMPDEST PUSH2 0x280C JUMP JUMPDEST CALLVALUE DUP1 ISZERO PUSH2 0xA70 JUMPI PUSH1 0x0 DUP1 REVERT JUMPDEST POP PUSH2 0x481 PUSH2 0xA7F CALLDATASIZE PUSH1 0x4 PUSH2 0x4AF5 JUMP JUMPDEST PUSH2 0x2899 JUMP JUMPDEST CALLVALUE DUP1 ISZERO PUSH2 0xA90 JUMPI PUSH1 0x0 DUP1 REVERT JUMPDEST POP PUSH1 0x3 SLOAD PUSH2 0x816 SWAP1 PUSH1 0x1 PUSH1 0x1 PUSH1 0xA0 SHL SUB AND DUP2 JUMP JUMPDEST CALLVALUE DUP1 ISZERO PUSH2 0xAB0 JUMPI PUSH1 0x0 DUP1 REVERT JUMPDEST POP PUSH2 0x481 PUSH2 0xABF CALLDATASIZE PUSH1 0x4 PUSH2 0x4B59 JUMP JUMPDEST PUSH2 0x2A88 JUMP JUMPDEST CALLVALUE DUP1 ISZERO PUSH2 0xAD0 JUMPI PUSH1 0x0 DUP1 REVERT JUMPDEST POP PUSH2 0x481 PUSH2 0x2AA6 JUMP JUMPDEST CALLVALUE DUP1 ISZERO PUSH2 0xAE5 JUMPI PUSH1 0x0 DUP1 REVERT JUMPDEST POP PUSH2 0x816 PUSH2 0xAF4 CALLDATASIZE PUSH1 0x4 PUSH2 0x4466 JUMP JUMPDEST PUSH2 0x2B4C JUMP JUMPDEST CALLVALUE DUP1 ISZERO PUSH2 0xB05 JUMPI PUSH1 0x0 DUP1 REVERT JUMPDEST POP PUSH2 0x737 PUSH2 0x2BD9 JUMP JUMPDEST CALLVALUE DUP1 ISZERO PUSH2 0xB1A JUMPI PUSH1 0x0 DUP1 REVERT JUMPDEST POP PUSH2 0x52E PUSH2 0xB29 CALLDATASIZE PUSH1 0x4 PUSH2 0x4466 JUMP JUMPDEST PUSH2 0x2BE6 JUMP JUMPDEST CALLVALUE DUP1 ISZERO PUSH2 0xB3A JUMPI PUSH1 0x0 DUP1 REVERT JUMPDEST POP PUSH2 0xB4E PUSH2 0xB49 CALLDATASIZE PUSH1 0x4 PUSH2 0x40F1 JUMP JUMPDEST PUSH2 0x2DA3 JUMP JUMPDEST PUSH1 0x40 MLOAD PUSH2 0x3BE SWAP4 SWAP3 SWAP2 SWAP1 PUSH2 0x4BC1 JUMP JUMPDEST CALLVALUE DUP1 ISZERO PUSH2 0xB69 JUMPI PUSH1 0x0 DUP1 REVERT JUMPDEST POP PUSH2 0x481 PUSH2 0xB78 CALLDATASIZE PUSH1 0x4 PUSH2 0x4BE9 JUMP JUMPDEST PUSH2 0x2E85 JUMP JUMPDEST CALLVALUE DUP1 ISZERO PUSH2 0xB89 JUMPI PUSH1 0x0 DUP1 REVERT JUMPDEST POP PUSH2 0xB9D PUSH2 0xB98 CALLDATASIZE PUSH1 0x4 PUSH2 0x4AF5 JUMP JUMPDEST PUSH2 0x2F67 JUMP JUMPDEST PUSH1 0x40 MLOAD PUSH2 0x3BE SWAP3 SWAP2 SWAP1 PUSH2 0x4CFB JUMP JUMPDEST CALLVALUE DUP1 ISZERO PUSH2 0xBB7 JUMPI PUSH1 0x0 DUP1 REVERT JUMPDEST POP PUSH2 0x737 PUSH2 0x3256 JUMP JUMPDEST PUSH1 0xC SLOAD PUSH1 0x0 SWAP1 DUP2 MSTORE PUSH1 0x14 PUSH1 0x20 SWAP1 DUP2 MSTORE PUSH1 0x40 DUP1 DUP4 KECCAK256 DUP5 DUP5 MSTORE SWAP1 SWAP2 MSTORE DUP1 DUP3 KECCAK256 DUP2 MLOAD PUSH1 0x60 DUP2 ADD SWAP3 DUP4 SWAP1 MSTORE DUP4 SWAP3 SWAP1 SWAP2 PUSH1 0x2 ADD SWAP1 PUSH1 0x3 SWAP1 DUP3 DUP5 JUMPDEST DUP2 SLOAD DUP2 MSTORE PUSH1 0x20 ADD SWAP1 PUSH1 0x1 ADD SWAP1 DUP1 DUP4 GT PUSH2 0xBF5 JUMPI POP POP PUSH1 0xC SLOAD PUSH1 0x0 SWAP1 DUP2 MSTORE PUSH1 0x15 PUSH1 0x20 MSTORE PUSH1 0x40 DUP1 DUP3 KECCAK256 DUP2 MLOAD PUSH1 0x60 DUP2 ADD SWAP3 DUP4 SWAP1 MSTORE SWAP7 SWAP8 POP SWAP2 SWAP6 SWAP5 POP PUSH1 0x5 SWAP1 SWAP2 ADD SWAP3 POP PUSH1 0x3 SWAP2 POP DUP3 DUP5 JUMPDEST DUP2 SLOAD DUP2 MSTORE PUSH1 0x20 ADD SWAP1 PUSH1 0x1 ADD SWAP1 DUP1 DUP4 GT PUSH2 0xC3B JUMPI POP POP POP POP POP SWAP1 POP PUSH1 0x0 PUSH2 0xC61 DUP4 DUP4 PUSH2 0x3263 JUMP JUMPDEST SWAP6 SWAP5 POP POP POP POP POP JUMP JUMPDEST PUSH1 0x0 DUP1 DUP3 PUSH1 0x40 MLOAD PUSH1 0x20 ADD PUSH2 0xC7E SWAP2 SWAP1 PUSH2 0x4D57 JUMP JUMPDEST PUSH1 0x40 MLOAD PUSH1 0x20 DUP2 DUP4 SUB SUB DUP2 MSTORE SWAP1 PUSH1 0x40 MSTORE SWAP1 POP PUSH1 0x0 DUP2 PUSH1 0x40 MLOAD PUSH1 0x20 ADD PUSH2 0xCA2 SWAP2 SWAP1 PUSH2 0x4DAF JUMP JUMPDEST PUSH1 0x40 DUP1 MLOAD PUSH1 0x1F NOT DUP2 DUP5 SUB ADD DUP2 MSTORE SWAP2 SWAP1 MSTORE DUP1 MLOAD PUSH1 0x20 DUP3 ADD KECCAK256 SWAP1 SWAP2 POP PUSH1 0x0 DUP1 PUSH2 0xCCF DUP4 PUSH2 0x90C PUSH2 0x4B0 TIMESTAMP PUSH2 0x4DE9 JUMP JUMPDEST SWAP2 POP SWAP2 POP DUP1 PUSH1 0x0 SUB PUSH2 0xCE8 JUMPI POP PUSH1 0x0 SWAP7 SWAP6 POP POP POP POP POP POP JUMP JUMPDEST PUSH5 0x2540BE400 DUP3 DUP1 PUSH1 0x20 ADD SWAP1 MLOAD DUP2 ADD SWAP1 PUSH2 0xD02 SWAP2 SWAP1 PUSH2 0x4E07 JUMP JUMPDEST PUSH2 0xD0C SWAP2 SWAP1 PUSH2 0x4E3E JUMP JUMPDEST SWAP8 SWAP7 POP POP POP POP POP POP POP JUMP JUMPDEST PUSH1 0x1 SLOAD PUSH1 0x1 PUSH1 0x1 PUSH1 0xA0 SHL SUB AND ISZERO PUSH2 0xD2D JUMPI PUSH1 0x0 DUP1 REVERT JUMPDEST PUSH1 0x1 DUP1 SLOAD PUSH1 0x1 PUSH1 0x1 PUSH1 0xA0 SHL SUB NOT AND PUSH1 0x1 PUSH1 0x1 PUSH1 0xA0 SHL SUB SWAP3 SWAP1 SWAP3 AND SWAP2 SWAP1 SWAP2 OR SWAP1 SSTORE JUMP JUMPDEST PUSH1 0x0 DUP6 DUP6 PUSH1 0x40 MLOAD PUSH2 0xD61 SWAP3 SWAP2 SWAP1 PUSH2 0x4E65 JUMP JUMPDEST PUSH1 0x40 MLOAD SWAP1 DUP2 SWAP1 SUB DUP2 KECCAK256 PUSH32 0x1876EED900000000000000000000000000000000000000000000000000000000 DUP3 MSTORE SWAP2 POP PUSH1 0x1 PUSH1 0x1 PUSH1 0xA0 SHL SUB PUSH32 0x0 AND SWAP1 PUSH4 0x1876EED9 SWAP1 PUSH2 0xDDE SWAP1 DUP15 SWAP1 DUP15 SWAP1 DUP15 SWAP1 DUP15 SWAP1 DUP15 SWAP1 DUP10 SWAP1 DUP14 SWAP1 DUP14 SWAP1 DUP14 SWAP1 PUSH1 0x4 ADD PUSH2 0x4E95 JUMP JUMPDEST PUSH1 0x20 PUSH1 0x40 MLOAD DUP1 DUP4 SUB DUP2 PUSH1 0x0 DUP8 GAS CALL ISZERO DUP1 ISZERO PUSH2 0xDFD JUMPI RETURNDATASIZE PUSH1 0x0 DUP1 RETURNDATACOPY RETURNDATASIZE PUSH1 0x0 REVERT JUMPDEST POP POP POP POP PUSH1 0x40 MLOAD RETURNDATASIZE PUSH1 0x1F NOT PUSH1 0x1F DUP3 ADD AND DUP3 ADD DUP1 PUSH1 0x40 MSTORE POP DUP2 ADD SWAP1 PUSH2 0xE21 SWAP2 SWAP1 PUSH2 0x4F15 JUMP JUMPDEST PUSH2 0xE3E JUMPI PUSH1 0x40 MLOAD PUSH4 0x1403112D PUSH1 0xE2 SHL DUP2 MSTORE PUSH1 0x4 ADD PUSH1 0x40 MLOAD DUP1 SWAP2 SUB SWAP1 REVERT JUMPDEST POP POP POP POP POP POP POP POP POP POP POP JUMP JUMPDEST PUSH1 0x0 DUP1 PUSH1 0x15 PUSH1 0x0 PUSH1 0xC SLOAD DUP2 MSTORE PUSH1 0x20 ADD SWAP1 DUP2 MSTORE PUSH1 0x20 ADD PUSH1 0x0 KECCAK256 PUSH1 0x9 ADD PUSH1 0x0 ADD SLOAD SWAP1 POP PUSH1 0x0 PUSH8 0xDE0B6B3A7640000 DUP3 PUSH2 0xE9C PUSH1 0x40 MLOAD DUP1 PUSH1 0x40 ADD PUSH1 0x40 MSTORE DUP1 PUSH1 0x3 DUP2 MSTORE PUSH1 0x20 ADD PUSH3 0x199A5B PUSH1 0xEA SHL DUP2 MSTORE POP PUSH2 0xC6A JUMP JUMPDEST PUSH2 0xEA6 SWAP2 SWAP1 PUSH2 0x4F36 JUMP JUMPDEST PUSH2 0xEB0 SWAP2 SWAP1 PUSH2 0x4E3E JUMP JUMPDEST SWAP1 POP PUSH1 0x0 PUSH1 0x15 PUSH1 0x0 PUSH1 0xC SLOAD DUP2 MSTORE PUSH1 0x20 ADD SWAP1 DUP2 MSTORE PUSH1 0x20 ADD PUSH1 0x0 KECCAK256 PUSH1 0x9 ADD PUSH1 0x1 ADD SLOAD SWAP1 POP PUSH1 0x0 PUSH8 0xDE0B6B3A7640000 DUP3 PUSH2 0xF04 PUSH1 0x40 MLOAD DUP1 PUSH1 0x40 ADD PUSH1 0x40 MSTORE DUP1 PUSH1 0x5 DUP2 MSTORE PUSH1 0x20 ADD PUSH5 0x6D61746963 PUSH1 0xD8 SHL DUP2 MSTORE POP PUSH2 0xC6A JUMP JUMPDEST PUSH2 0xF0E SWAP2 SWAP1 PUSH2 0x4F36 JUMP JUMPDEST PUSH2 0xF18 SWAP2 SWAP1 PUSH2 0x4E3E JUMP JUMPDEST SWAP1 POP PUSH1 0x0 PUSH2 0xF26 DUP3 DUP6 PUSH2 0x4F55 JUMP JUMPDEST SWAP1 POP PUSH1 0x64 PUSH2 0xF35 DUP3 PUSH1 0x46 PUSH2 0x4F36 JUMP JUMPDEST PUSH2 0xF3F SWAP2 SWAP1 PUSH2 0x4E3E JUMP JUMPDEST SWAP6 POP POP POP POP POP POP SWAP1 JUMP JUMPDEST PUSH1 0xC SLOAD PUSH1 0x0 SWAP1 DUP2 MSTORE PUSH1 0x15 PUSH1 0x20 MSTORE PUSH1 0x40 SWAP1 KECCAK256 PUSH1 0x8 ADD SLOAD PUSH1 0xFF AND PUSH2 0xF86 JUMPI PUSH1 0x40 MLOAD PUSH3 0x461BCD PUSH1 0xE5 SHL DUP2 MSTORE PUSH1 0x4 ADD PUSH2 0xF7D SWAP1 PUSH2 0x4F9C JUMP JUMPDEST PUSH1 0x40 MLOAD DUP1 SWAP2 SUB SWAP1 REVERT JUMPDEST PUSH1 0xC SLOAD PUSH1 0x0 SWAP1 DUP2 MSTORE PUSH1 0x14 PUSH1 0x20 SWAP1 DUP2 MSTORE PUSH1 0x40 DUP1 DUP4 KECCAK256 DUP6 DUP5 MSTORE SWAP1 SWAP2 MSTORE SWAP1 KECCAK256 PUSH1 0x6 ADD SLOAD CHAINID EQ PUSH2 0xFC4 JUMPI PUSH1 0x40 MLOAD PUSH3 0x461BCD PUSH1 0xE5 SHL DUP2 MSTORE PUSH1 0x4 ADD PUSH2 0xF7D SWAP1 PUSH2 0x4FE0 JUMP JUMPDEST PUSH1 0xC SLOAD PUSH1 0x0 SWAP1 DUP2 MSTORE PUSH1 0x14 PUSH1 0x20 SWAP1 DUP2 MSTORE PUSH1 0x40 DUP1 DUP4 KECCAK256 DUP6 DUP5 MSTORE SWAP1 SWAP2 MSTORE SWAP1 KECCAK256 SLOAD PUSH1 0x1 PUSH1 0x1 PUSH1 0xA0 SHL SUB AND CALLER EQ PUSH2 0x1008 JUMPI PUSH1 0x40 MLOAD PUSH3 0x461BCD PUSH1 0xE5 SHL DUP2 MSTORE PUSH1 0x4 ADD PUSH2 0xF7D SWAP1 PUSH2 0x5024 JUMP JUMPDEST PUSH1 0xC SLOAD PUSH1 0x0 SWAP1 DUP2 MSTORE PUSH1 0x14 PUSH1 0x20 SWAP1 DUP2 MSTORE PUSH1 0x40 DUP1 DUP4 KECCAK256 DUP6 DUP5 MSTORE SWAP1 SWAP2 MSTORE SWAP1 KECCAK256 PUSH1 0x5 ADD SLOAD PUSH1 0xFF AND ISZERO PUSH2 0x1048 JUMPI PUSH1 0x40 MLOAD PUSH3 0x461BCD PUSH1 0xE5 SHL DUP2 MSTORE PUSH1 0x4 ADD PUSH2 0xF7D SWAP1 PUSH2 0x5068 JUMP JUMPDEST PUSH1 0x0 PUSH2 0x1053 DUP4 PUSH2 0xBC0 JUMP JUMPDEST SWAP1 POP DUP1 PUSH2 0x1072 JUMPI PUSH1 0x40 MLOAD PUSH3 0x461BCD PUSH1 0xE5 SHL DUP2 MSTORE PUSH1 0x4 ADD PUSH2 0xF7D SWAP1 PUSH2 0x50AC JUMP JUMPDEST PUSH1 0x0 PUSH2 0x107C PUSH2 0x1207 JUMP JUMPDEST SWAP1 POP PUSH1 0x0 PUSH2 0x1088 PUSH2 0xE4B JUMP JUMPDEST SWAP1 POP PUSH1 0x0 PUSH2 0x1096 DUP4 DUP4 PUSH2 0x4E3E JUMP JUMPDEST SWAP1 POP PUSH1 0x0 PUSH2 0x10C1 PUSH1 0x40 MLOAD DUP1 PUSH1 0x40 ADD PUSH1 0x40 MSTORE DUP1 PUSH1 0x6 DUP2 MSTORE PUSH1 0x20 ADD PUSH6 0x3130B233B2B9 PUSH1 0xD1 SHL DUP2 MSTORE POP PUSH2 0xC6A JUMP JUMPDEST PUSH2 0x10D3 DUP4 PUSH8 0xDE0B6B3A7640000 PUSH2 0x4F36 JUMP JUMPDEST PUSH2 0x10DD SWAP2 SWAP1 PUSH2 0x4E3E JUMP JUMPDEST CALLER PUSH1 0x0 SWAP1 DUP2 MSTORE PUSH1 0x13 PUSH1 0x20 MSTORE PUSH1 0x40 DUP2 KECCAK256 PUSH1 0x5 ADD DUP1 SLOAD SWAP3 SWAP4 POP DUP4 SWAP3 SWAP1 SWAP2 SWAP1 PUSH2 0x1104 SWAP1 DUP5 SWAP1 PUSH2 0x4F55 JUMP JUMPDEST SWAP1 SWAP2 SSTORE POP POP CALLER PUSH1 0x0 SWAP1 DUP2 MSTORE PUSH1 0x13 PUSH1 0x20 MSTORE PUSH1 0x40 DUP2 KECCAK256 PUSH1 0x2 ADD DUP1 SLOAD PUSH1 0x1 SWAP3 SWAP1 PUSH2 0x112C SWAP1 DUP5 SWAP1 PUSH2 0x4F55 JUMP JUMPDEST SWAP1 SWAP2 SSTORE POP POP PUSH1 0xC SLOAD PUSH1 0x0 SWAP1 DUP2 MSTORE PUSH1 0x14 PUSH1 0x20 SWAP1 DUP2 MSTORE PUSH1 0x40 DUP1 DUP4 KECCAK256 DUP11 DUP5 MSTORE SWAP1 SWAP2 MSTORE SWAP1 KECCAK256 PUSH1 0x5 ADD DUP1 SLOAD PUSH1 0xFF NOT AND PUSH1 0x1 OR SWAP1 SSTORE PUSH2 0x1166 DUP2 CALLER DUP9 PUSH2 0x32C9 JUMP JUMPDEST POP POP POP POP POP POP POP JUMP JUMPDEST PUSH1 0x0 DUP1 SLOAD PUSH1 0x40 MLOAD PUSH32 0x2944908500000000000000000000000000000000000000000000000000000000 DUP2 MSTORE DUP3 SWAP2 PUSH1 0x1 PUSH1 0x1 PUSH1 0xA0 SHL SUB AND SWAP1 PUSH4 0x29449085 SWAP1 PUSH2 0x11BB SWAP1 DUP8 SWAP1 DUP8 SWAP1 PUSH1 0x4 ADD PUSH2 0x50BC JUMP JUMPDEST PUSH1 0x40 DUP1 MLOAD DUP1 DUP4 SUB DUP2 DUP7 GAS STATICCALL ISZERO DUP1 ISZERO PUSH2 0x11D7 JUMPI RETURNDATASIZE PUSH1 0x0 DUP1 RETURNDATACOPY RETURNDATASIZE PUSH1 0x0 REVERT JUMPDEST POP POP POP POP PUSH1 0x40 MLOAD RETURNDATASIZE PUSH1 0x1F NOT PUSH1 0x1F DUP3 ADD AND DUP3 ADD DUP1 PUSH1 0x40 MSTORE POP DUP2 ADD SWAP1 PUSH2 0x11FB SWAP2 SWAP1 PUSH2 0x50CA JUMP JUMPDEST SWAP2 POP SWAP2 POP JUMPDEST SWAP3 POP SWAP3 SWAP1 POP JUMP JUMPDEST PUSH1 0x0 DUP1 PUSH1 0x0 JUMPDEST PUSH1 0xC SLOAD PUSH1 0x0 SWAP1 DUP2 MSTORE PUSH1 0x17 PUSH1 0x20 MSTORE PUSH1 0x40 SWAP1 KECCAK256 SLOAD DUP2 LT ISZERO PUSH2 0x128C JUMPI PUSH1 0xC SLOAD PUSH1 0x0 SWAP1 DUP2 MSTORE PUSH1 0x17 PUSH1 0x20 MSTORE PUSH1 0x40 DUP2 KECCAK256 DUP1 SLOAD DUP4 SWAP1 DUP2 LT PUSH2 0x1249 JUMPI PUSH2 0x1249 PUSH2 0x50FD JUMP JUMPDEST SWAP1 PUSH1 0x0 MSTORE PUSH1 0x20 PUSH1 0x0 KECCAK256 SWAP1 PUSH1 0x7 MUL ADD PUSH1 0x1 ADD SLOAD SWAP1 POP PUSH2 0x1266 DUP2 PUSH2 0xBC0 JUMP JUMPDEST ISZERO PUSH2 0x1279 JUMPI PUSH2 0x1276 PUSH1 0x1 DUP5 PUSH2 0x4F55 JUMP JUMPDEST SWAP3 POP JUMPDEST POP DUP1 PUSH2 0x1284 DUP2 PUSH2 0x5113 JUMP JUMPDEST SWAP2 POP POP PUSH2 0x120D JUMP JUMPDEST POP SWAP2 SWAP1 POP JUMP JUMPDEST PUSH1 0xC SLOAD PUSH1 0x0 SWAP1 DUP2 MSTORE PUSH1 0x15 PUSH1 0x20 MSTORE PUSH1 0x40 SWAP1 KECCAK256 PUSH1 0x3 ADD SLOAD TIMESTAMP DUP2 LT ISZERO PUSH2 0x12C7 JUMPI PUSH1 0x40 MLOAD PUSH3 0x461BCD PUSH1 0xE5 SHL DUP2 MSTORE PUSH1 0x4 ADD PUSH2 0xF7D SWAP1 PUSH2 0x5161 JUMP JUMPDEST PUSH1 0xC SLOAD PUSH1 0x0 SWAP1 DUP2 MSTORE PUSH1 0x15 PUSH1 0x20 MSTORE PUSH1 0x40 SWAP1 KECCAK256 PUSH1 0x8 ADD SLOAD PUSH1 0xFF AND ISZERO PUSH2 0x12FC JUMPI PUSH1 0x40 MLOAD PUSH3 0x461BCD PUSH1 0xE5 SHL DUP2 MSTORE PUSH1 0x4 ADD PUSH2 0xF7D SWAP1 PUSH2 0x51A5 JUMP JUMPDEST PUSH1 0x0 JUMPDEST PUSH1 0x3 DUP2 LT ISZERO PUSH2 0x1351 JUMPI PUSH1 0x1E DUP6 DUP3 PUSH1 0x3 DUP2 LT PUSH2 0x131C JUMPI PUSH2 0x131C PUSH2 0x50FD JUMP JUMPDEST PUSH1 0x20 MUL ADD MLOAD GT ISZERO PUSH2 0x133F JUMPI PUSH1 0x40 MLOAD PUSH3 0x461BCD PUSH1 0xE5 SHL DUP2 MSTORE PUSH1 0x4 ADD PUSH2 0xF7D SWAP1 PUSH2 0x51E9 JUMP JUMPDEST DUP1 PUSH2 0x1349 DUP2 PUSH2 0x5113 JUMP JUMPDEST SWAP2 POP POP PUSH2 0x12FF JUMP JUMPDEST POP PUSH1 0xC SLOAD PUSH1 0x0 SWAP1 DUP2 MSTORE PUSH1 0x15 PUSH1 0x20 MSTORE PUSH1 0x40 DUP2 KECCAK256 PUSH1 0x4 ADD SLOAD DUP5 ISZERO PUSH2 0x1512 JUMPI PUSH1 0x4 SLOAD CHAINID SUB PUSH2 0x143C JUMPI PUSH2 0x139A PUSH1 0x40 MLOAD DUP1 PUSH1 0x40 ADD PUSH1 0x40 MSTORE DUP1 PUSH1 0x3 DUP2 MSTORE PUSH1 0x20 ADD PUSH3 0x199A5B PUSH1 0xEA SHL DUP2 MSTORE POP PUSH2 0xC6A JUMP JUMPDEST PUSH2 0x13AC DUP3 PUSH8 0xDE0B6B3A7640000 PUSH2 0x4F36 JUMP JUMPDEST PUSH2 0x13B6 SWAP2 SWAP1 PUSH2 0x4E3E JUMP JUMPDEST CALLER PUSH1 0x0 SWAP1 DUP2 MSTORE PUSH1 0x13 PUSH1 0x20 MSTORE PUSH1 0x40 SWAP1 KECCAK256 PUSH1 0x3 ADD SLOAD SWAP1 SWAP3 POP DUP3 GT ISZERO PUSH2 0x13EB JUMPI PUSH1 0x40 MLOAD PUSH3 0x461BCD PUSH1 0xE5 SHL DUP2 MSTORE PUSH1 0x4 ADD PUSH2 0xF7D SWAP1 PUSH2 0x522D JUMP JUMPDEST CALLER PUSH1 0x0 SWAP1 DUP2 MSTORE PUSH1 0x13 PUSH1 0x20 MSTORE PUSH1 0x40 DUP2 KECCAK256 PUSH1 0x3 ADD DUP1 SLOAD DUP5 SWAP3 SWAP1 PUSH2 0x140D SWAP1 DUP5 SWAP1 PUSH2 0x4DE9 JUMP JUMPDEST SWAP1 SWAP2 SSTORE POP POP PUSH1 0xC SLOAD PUSH1 0x0 SWAP1 DUP2 MSTORE PUSH1 0x15 PUSH1 0x20 MSTORE PUSH1 0x40 DUP2 KECCAK256 PUSH1 0x9 ADD DUP1 SLOAD DUP5 SWAP3 SWAP1 PUSH2 0x1436 SWAP1 DUP5 SWAP1 PUSH2 0x4F55 JUMP JUMPDEST SWAP1 SWAP2 SSTORE POP POP JUMPDEST PUSH1 0x5 SLOAD CHAINID SUB PUSH2 0x150D JUMPI PUSH2 0x146B PUSH1 0x40 MLOAD DUP1 PUSH1 0x40 ADD PUSH1 0x40 MSTORE DUP1 PUSH1 0x5 DUP2 MSTORE PUSH1 0x20 ADD PUSH5 0x6D61746963 PUSH1 0xD8 SHL DUP2 MSTORE POP PUSH2 0xC6A JUMP JUMPDEST PUSH2 0x147D DUP3 PUSH8 0xDE0B6B3A7640000 PUSH2 0x4F36 JUMP JUMPDEST PUSH2 0x1487 SWAP2 SWAP1 PUSH2 0x4E3E JUMP JUMPDEST CALLER PUSH1 0x0 SWAP1 DUP2 MSTORE PUSH1 0x13 PUSH1 0x20 MSTORE PUSH1 0x40 SWAP1 KECCAK256 PUSH1 0x4 ADD SLOAD SWAP1 SWAP3 POP DUP3 GT ISZERO PUSH2 0x14BC JUMPI PUSH1 0x40 MLOAD PUSH3 0x461BCD PUSH1 0xE5 SHL DUP2 MSTORE PUSH1 0x4 ADD PUSH2 0xF7D SWAP1 PUSH2 0x5271 JUMP JUMPDEST CALLER PUSH1 0x0 SWAP1 DUP2 MSTORE PUSH1 0x13 PUSH1 0x20 MSTORE PUSH1 0x40 DUP2 KECCAK256 PUSH1 0x4 ADD DUP1 SLOAD DUP5 SWAP3 SWAP1 PUSH2 0x14DE SWAP1 DUP5 SWAP1 PUSH2 0x4DE9 JUMP JUMPDEST SWAP1 SWAP2 SSTORE POP POP PUSH1 0xC SLOAD PUSH1 0x0 SWAP1 DUP2 MSTORE PUSH1 0x15 PUSH1 0x20 MSTORE PUSH1 0x40 DUP2 KECCAK256 PUSH1 0xA ADD DUP1 SLOAD DUP5 SWAP3 SWAP1 PUSH2 0x1507 SWAP1 DUP5 SWAP1 PUSH2 0x4F55 JUMP JUMPDEST SWAP1 SWAP2 SSTORE POP POP JUMPDEST PUSH2 0x15DB JUMP JUMPDEST PUSH2 0x1539 PUSH1 0x40 MLOAD DUP1 PUSH1 0x40 ADD PUSH1 0x40 MSTORE DUP1 PUSH1 0x6 DUP2 MSTORE PUSH1 0x20 ADD PUSH6 0x3130B233B2B9 PUSH1 0xD1 SHL DUP2 MSTORE POP PUSH2 0xC6A JUMP JUMPDEST PUSH2 0x154B DUP3 PUSH8 0xDE0B6B3A7640000 PUSH2 0x4F36 JUMP JUMPDEST PUSH2 0x1555 SWAP2 SWAP1 PUSH2 0x4E3E JUMP JUMPDEST CALLER PUSH1 0x0 SWAP1 DUP2 MSTORE PUSH1 0x13 PUSH1 0x20 MSTORE PUSH1 0x40 SWAP1 KECCAK256 PUSH1 0x5 ADD SLOAD SWAP1 SWAP3 POP DUP3 GT ISZERO PUSH2 0x158A JUMPI PUSH1 0x40 MLOAD PUSH3 0x461BCD PUSH1 0xE5 SHL DUP2 MSTORE PUSH1 0x4 ADD PUSH2 0xF7D SWAP1 PUSH2 0x5271 JUMP JUMPDEST CALLER PUSH1 0x0 SWAP1 DUP2 MSTORE PUSH1 0x13 PUSH1 0x20 MSTORE PUSH1 0x40 DUP2 KECCAK256 PUSH1 0x5 ADD DUP1 SLOAD DUP5 SWAP3 SWAP1 PUSH2 0x15AC SWAP1 DUP5 SWAP1 PUSH2 0x4DE9 JUMP JUMPDEST SWAP1 SWAP2 SSTORE POP POP PUSH1 0xC SLOAD PUSH1 0x0 SWAP1 DUP2 MSTORE PUSH1 0x15 PUSH1 0x20 MSTORE PUSH1 0x40 DUP2 KECCAK256 PUSH1 0xB ADD DUP1 SLOAD DUP5 SWAP3 SWAP1 PUSH2 0x15D5 SWAP1 DUP5 SWAP1 PUSH2 0x4F55 JUMP JUMPDEST SWAP1 SWAP2 SSTORE POP POP JUMPDEST PUSH1 0xD SLOAD PUSH1 0xC SLOAD PUSH1 0x0 SWAP1 DUP2 MSTORE PUSH1 0x16 PUSH1 0x20 SWAP1 DUP2 MSTORE PUSH1 0x40 DUP1 DUP4 KECCAK256 CALLER DUP5 MSTORE SWAP1 SWAP2 MSTORE SWAP1 KECCAK256 SLOAD LT PUSH2 0x1618 JUMPI PUSH1 0x40 MLOAD PUSH3 0x461BCD PUSH1 0xE5 SHL DUP2 MSTORE PUSH1 0x4 ADD PUSH2 0xF7D SWAP1 PUSH2 0x52B5 JUMP JUMPDEST PUSH1 0xC SLOAD PUSH1 0x0 SWAP1 DUP2 MSTORE PUSH1 0x15 PUSH1 0x20 MSTORE PUSH1 0x40 DUP2 KECCAK256 PUSH1 0x2 ADD DUP1 SLOAD PUSH1 0x1 SWAP2 SWAP1 DUP4 SWAP1 PUSH2 0x163F SWAP1 DUP5 SWAP1 PUSH2 0x4F55 JUMP JUMPDEST SWAP2 DUP3 SWAP1 SSTORE POP PUSH1 0x40 DUP1 MLOAD PUSH1 0xA0 DUP2 ADD DUP3 MSTORE CALLER DUP2 MSTORE PUSH1 0x20 DUP1 DUP3 ADD DUP5 DUP2 MSTORE DUP3 DUP5 ADD DUP14 DUP2 MSTORE PUSH1 0x0 PUSH1 0x60 DUP6 ADD DUP2 SWAP1 MSTORE CHAINID PUSH1 0x80 DUP7 ADD MSTORE PUSH1 0xC SLOAD DUP2 MSTORE PUSH1 0x14 DUP5 MSTORE DUP6 DUP2 KECCAK256 DUP8 DUP3 MSTORE SWAP1 SWAP4 MSTORE SWAP4 SWAP1 SWAP2 KECCAK256 DUP3 MLOAD DUP2 SLOAD PUSH1 0x1 PUSH1 0x1 PUSH1 0xA0 SHL SUB NOT AND PUSH1 0x1 PUSH1 0x1 PUSH1 0xA0 SHL SUB SWAP1 SWAP2 AND OR DUP2 SSTORE SWAP1 MLOAD PUSH1 0x1 DUP3 ADD SSTORE SWAP2 MLOAD SWAP3 SWAP5 POP SWAP3 POP SWAP1 PUSH2 0x16BF SWAP1 PUSH1 0x2 DUP4 ADD SWAP1 PUSH1 0x3 PUSH2 0x3F4C JUMP JUMPDEST POP PUSH1 0x60 DUP3 ADD MLOAD PUSH1 0x5 DUP3 ADD DUP1 SLOAD PUSH1 0xFF NOT AND SWAP2 ISZERO ISZERO SWAP2 SWAP1 SWAP2 OR SWAP1 SSTORE PUSH1 0x80 SWAP1 SWAP2 ADD MLOAD PUSH1 0x6 SWAP1 SWAP2 ADD SSTORE CALLER PUSH1 0x0 SWAP1 DUP2 MSTORE PUSH1 0x13 PUSH1 0x20 MSTORE PUSH1 0x40 DUP2 KECCAK256 PUSH1 0x1 SWAP1 DUP2 ADD DUP1 SLOAD SWAP2 SWAP3 SWAP1 SWAP2 PUSH2 0x1709 SWAP1 DUP5 SWAP1 PUSH2 0x4F55 JUMP JUMPDEST SWAP1 SWAP2 SSTORE POP POP PUSH1 0xC SLOAD PUSH1 0x0 SWAP1 DUP2 MSTORE PUSH1 0x17 PUSH1 0x20 SWAP1 DUP2 MSTORE PUSH1 0x40 DUP1 DUP4 KECCAK256 PUSH1 0x14 DUP4 MSTORE DUP2 DUP5 KECCAK256 DUP6 DUP6 MSTORE DUP4 MSTORE SWAP1 DUP4 KECCAK256 DUP2 SLOAD PUSH1 0x1 DUP2 DUP2 ADD DUP5 SSTORE SWAP3 DUP6 MSTORE SWAP3 SWAP1 SWAP4 KECCAK256 DUP4 SLOAD PUSH1 0x7 SWAP1 SWAP4 MUL ADD DUP1 SLOAD PUSH1 0x1 PUSH1 0x1 PUSH1 0xA0 SHL SUB NOT AND PUSH1 0x1 PUSH1 0x1 PUSH1 0xA0 SHL SUB SWAP1 SWAP4 AND SWAP3 SWAP1 SWAP3 OR DUP3 SSTORE DUP1 DUP4 ADD SLOAD SWAP1 DUP3 ADD SSTORE PUSH2 0x1780 PUSH1 0x2 DUP1 DUP4 ADD SWAP1 DUP5 ADD PUSH1 0x3 PUSH2 0x3F8A JUMP JUMPDEST POP PUSH1 0x5 DUP3 DUP2 ADD SLOAD SWAP1 DUP3 ADD DUP1 SLOAD PUSH1 0xFF NOT AND PUSH1 0xFF SWAP1 SWAP3 AND ISZERO ISZERO SWAP2 SWAP1 SWAP2 OR SWAP1 SSTORE PUSH1 0x6 SWAP2 DUP3 ADD SLOAD SWAP2 ADD SSTORE PUSH1 0xC SLOAD PUSH1 0x0 SWAP1 DUP2 MSTORE PUSH1 0x16 PUSH1 0x20 SWAP1 DUP2 MSTORE PUSH1 0x40 DUP1 DUP4 KECCAK256 CALLER DUP5 MSTORE SWAP1 SWAP2 MSTORE DUP2 KECCAK256 DUP1 SLOAD PUSH1 0x1 SWAP3 SWAP1 PUSH2 0x17D3 SWAP1 DUP5 SWAP1 PUSH2 0x4F55 JUMP JUMPDEST SWAP1 SWAP2 SSTORE POP POP PUSH1 0xC SLOAD PUSH1 0x0 DUP2 DUP2 MSTORE PUSH1 0x14 PUSH1 0x20 SWAP1 DUP2 MSTORE PUSH1 0x40 DUP1 DUP4 KECCAK256 DUP6 DUP5 MSTORE DUP3 MSTORE SWAP2 DUP3 SWAP1 KECCAK256 DUP3 MLOAD PUSH1 0xA0 DUP2 ADD DUP5 MSTORE DUP2 SLOAD PUSH1 0x1 PUSH1 0x1 PUSH1 0xA0 SHL SUB AND DUP2 MSTORE PUSH1 0x1 DUP3 ADD SLOAD SWAP3 DUP2 ADD SWAP3 SWAP1 SWAP3 MSTORE DUP3 MLOAD PUSH1 0x60 DUP2 ADD DUP5 MSTORE PUSH2 0x1166 SWAP5 DUP7 SWAP5 CALLER SWAP5 DUP15 SWAP5 CHAINID SWAP5 DUP16 SWAP5 DUP14 SWAP5 SWAP1 SWAP4 SWAP3 SWAP2 SWAP1 DUP4 ADD SWAP1 PUSH1 0x2 DUP4 ADD PUSH1 0x3 DUP3 DUP3 DUP3 PUSH1 0x20 MUL DUP3 ADD SWAP2 JUMPDEST DUP2 SLOAD DUP2 MSTORE PUSH1 0x20 ADD SWAP1 PUSH1 0x1 ADD SWAP1 DUP1 DUP4 GT PUSH2 0x1846 JUMPI POP POP POP SWAP2 DUP4 MSTORE POP POP PUSH1 0x5 DUP3 ADD SLOAD PUSH1 0xFF AND ISZERO ISZERO PUSH1 0x20 DUP3 ADD MSTORE PUSH1 0x6 SWAP1 SWAP2 ADD SLOAD PUSH1 0x40 SWAP1 SWAP2 ADD MSTORE DUP14 PUSH2 0x338E JUMP JUMPDEST PUSH1 0x0 DUP1 SLOAD PUSH1 0x40 MLOAD PUSH32 0x44E87F9100000000000000000000000000000000000000000000000000000000 DUP2 MSTORE PUSH1 0x1 PUSH1 0x1 PUSH1 0xA0 SHL SUB SWAP1 SWAP2 AND SWAP1 PUSH4 0x44E87F91 SWAP1 PUSH2 0x18CE SWAP1 DUP7 SWAP1 DUP7 SWAP1 PUSH1 0x4 ADD PUSH2 0x50BC JUMP JUMPDEST PUSH1 0x20 PUSH1 0x40 MLOAD DUP1 DUP4 SUB DUP2 DUP7 GAS STATICCALL ISZERO DUP1 ISZERO PUSH2 0x18EB JUMPI RETURNDATASIZE PUSH1 0x0 DUP1 RETURNDATACOPY RETURNDATASIZE PUSH1 0x0 REVERT JUMPDEST POP POP POP POP PUSH1 0x40 MLOAD RETURNDATASIZE PUSH1 0x1F NOT PUSH1 0x1F DUP3 ADD AND DUP3 ADD DUP1 PUSH1 0x40 MSTORE POP DUP2 ADD SWAP1 PUSH2 0x190F SWAP2 SWAP1 PUSH2 0x4F15 JUMP JUMPDEST SWAP1 POP JUMPDEST SWAP3 SWAP2 POP POP JUMP JUMPDEST PUSH1 0x0 DUP3 DUP3 PUSH1 0x40 MLOAD PUSH2 0x192A SWAP3 SWAP2 SWAP1 PUSH2 0x4E65 JUMP JUMPDEST PUSH1 0x40 MLOAD SWAP1 DUP2 SWAP1 SUB DUP2 KECCAK256 PUSH32 0x5F6970C300000000000000000000000000000000000000000000000000000000 DUP3 MSTORE SWAP2 POP PUSH1 0x1 PUSH1 0x1 PUSH1 0xA0 SHL SUB PUSH32 0x0 AND SWAP1 PUSH4 0x5F6970C3 SWAP1 PUSH2 0x19A1 SWAP1 DUP12 SWAP1 DUP12 SWAP1 DUP12 SWAP1 DUP12 SWAP1 DUP12 SWAP1 DUP10 SWAP1 PUSH1 0x4 ADD PUSH2 0x52C5 JUMP JUMPDEST PUSH1 0x20 PUSH1 0x40 MLOAD DUP1 DUP4 SUB DUP2 PUSH1 0x0 DUP8 GAS CALL ISZERO DUP1 ISZERO PUSH2 0x19C0 JUMPI RETURNDATASIZE PUSH1 0x0 DUP1 RETURNDATACOPY RETURNDATASIZE PUSH1 0x0 REVERT JUMPDEST POP POP POP POP PUSH1 0x40 MLOAD RETURNDATASIZE PUSH1 0x1F NOT PUSH1 0x1F DUP3 ADD AND DUP3 ADD DUP1 PUSH1 0x40 MSTORE POP DUP2 ADD SWAP1 PUSH2 0x19E4 SWAP2 SWAP1 PUSH2 0x4F15 JUMP JUMPDEST PUSH2 0x1A01 JUMPI PUSH1 0x40 MLOAD PUSH4 0x1403112D PUSH1 0xE2 SHL DUP2 MSTORE PUSH1 0x4 ADD PUSH1 0x40 MLOAD DUP1 SWAP2 SUB SWAP1 REVERT JUMPDEST PUSH2 0x1A0F DUP8 DUP8 DUP8 DUP8 DUP8 DUP8 PUSH2 0x340E JUMP JUMPDEST POP POP POP POP POP POP POP POP JUMP JUMPDEST PUSH1 0x60 PUSH1 0x0 DUP1 PUSH1 0x0 PUSH2 0x1A2A DUP7 DUP7 PUSH2 0x2BE6 JUMP JUMPDEST SWAP2 POP SWAP2 POP DUP2 PUSH2 0x1A51 JUMPI PUSH1 0x0 PUSH1 0x40 MLOAD DUP1 PUSH1 0x20 ADD PUSH1 0x40 MSTORE DUP1 PUSH1 0x0 DUP2 MSTORE POP SWAP1 SWAP4 POP SWAP4 POP POP POP PUSH2 0x1200 JUMP JUMPDEST PUSH2 0x1A5B DUP7 DUP3 PUSH2 0x280C JUMP JUMPDEST SWAP3 POP PUSH2 0x1A67 DUP7 DUP5 PUSH2 0x261D JUMP JUMPDEST SWAP4 POP POP POP SWAP3 POP SWAP3 SWAP1 POP JUMP JUMPDEST PUSH1 0x4 SLOAD DUP4 SUB PUSH2 0x1B4C JUMPI CALLER PUSH1 0x0 SWAP1 DUP2 MSTORE PUSH1 0x13 PUSH1 0x20 MSTORE PUSH1 0x40 SWAP1 KECCAK256 PUSH1 0x3 ADD SLOAD DUP3 GT ISZERO PUSH2 0x1AAD JUMPI PUSH1 0x40 MLOAD PUSH3 0x461BCD PUSH1 0xE5 SHL DUP2 MSTORE PUSH1 0x4 ADD PUSH2 0xF7D SWAP1 PUSH2 0x533E JUMP JUMPDEST CALLER PUSH1 0x0 SWAP1 DUP2 MSTORE PUSH1 0x13 PUSH1 0x20 MSTORE PUSH1 0x40 DUP2 KECCAK256 PUSH1 0x3 ADD DUP1 SLOAD DUP5 SWAP3 SWAP1 PUSH2 0x1ACF SWAP1 DUP5 SWAP1 PUSH2 0x4DE9 JUMP JUMPDEST SWAP1 SWAP2 SSTORE POP POP PUSH1 0x40 MLOAD PUSH1 0x0 SWAP1 CALLER SWAP1 DUP5 SWAP1 PUSH2 0x1AE7 SWAP1 PUSH2 0x534E JUMP JUMPDEST PUSH1 0x0 PUSH1 0x40 MLOAD DUP1 DUP4 SUB DUP2 DUP6 DUP8 GAS CALL SWAP3 POP POP POP RETURNDATASIZE DUP1 PUSH1 0x0 DUP2 EQ PUSH2 0x1B24 JUMPI PUSH1 0x40 MLOAD SWAP2 POP PUSH1 0x1F NOT PUSH1 0x3F RETURNDATASIZE ADD AND DUP3 ADD PUSH1 0x40 MSTORE RETURNDATASIZE DUP3 MSTORE RETURNDATASIZE PUSH1 0x0 PUSH1 0x20 DUP5 ADD RETURNDATACOPY PUSH2 0x1B29 JUMP JUMPDEST PUSH1 0x60 SWAP2 POP JUMPDEST POP POP SWAP1 POP DUP1 PUSH2 0x1B4A JUMPI PUSH1 0x40 MLOAD PUSH3 0x461BCD PUSH1 0xE5 SHL DUP2 MSTORE PUSH1 0x4 ADD PUSH2 0xF7D SWAP1 PUSH2 0x538D JUMP JUMPDEST POP JUMPDEST PUSH1 0x5 SLOAD DUP4 SUB PUSH2 0x1C26 JUMPI CALLER PUSH1 0x0 SWAP1 DUP2 MSTORE PUSH1 0x13 PUSH1 0x20 MSTORE PUSH1 0x40 SWAP1 KECCAK256 PUSH1 0x4 ADD SLOAD DUP3 GT ISZERO PUSH2 0x1B87 JUMPI PUSH1 0x40 MLOAD PUSH3 0x461BCD PUSH1 0xE5 SHL DUP2 MSTORE PUSH1 0x4 ADD PUSH2 0xF7D SWAP1 PUSH2 0x533E JUMP JUMPDEST CALLER PUSH1 0x0 SWAP1 DUP2 MSTORE PUSH1 0x13 PUSH1 0x20 MSTORE PUSH1 0x40 DUP2 KECCAK256 PUSH1 0x4 ADD DUP1 SLOAD DUP5 SWAP3 SWAP1 PUSH2 0x1BA9 SWAP1 DUP5 SWAP1 PUSH2 0x4DE9 JUMP JUMPDEST SWAP1 SWAP2 SSTORE POP POP PUSH1 0x40 MLOAD PUSH1 0x0 SWAP1 CALLER SWAP1 DUP5 SWAP1 PUSH2 0x1BC1 SWAP1 PUSH2 0x534E JUMP JUMPDEST PUSH1 0x0 PUSH1 0x40 MLOAD DUP1 DUP4 SUB DUP2 DUP6 DUP8 GAS CALL SWAP3 POP POP POP RETURNDATASIZE DUP1 PUSH1 0x0 DUP2 EQ PUSH2 0x1BFE JUMPI PUSH1 0x40 MLOAD SWAP2 POP PUSH1 0x1F NOT PUSH1 0x3F RETURNDATASIZE ADD AND DUP3 ADD PUSH1 0x40 MSTORE RETURNDATASIZE DUP3 MSTORE RETURNDATASIZE PUSH1 0x0 PUSH1 0x20 DUP5 ADD RETURNDATACOPY PUSH2 0x1C03 JUMP JUMPDEST PUSH1 0x60 SWAP2 POP JUMPDEST POP POP SWAP1 POP DUP1 PUSH2 0x1C24 JUMPI PUSH1 0x40 MLOAD PUSH3 0x461BCD PUSH1 0xE5 SHL DUP2 MSTORE PUSH1 0x4 ADD PUSH2 0xF7D SWAP1 PUSH2 0x538D JUMP JUMPDEST POP JUMPDEST DUP3 PUSH1 0x3 SUB PUSH2 0x1D17 JUMPI CALLER PUSH1 0x0 SWAP1 DUP2 MSTORE PUSH1 0x13 PUSH1 0x20 MSTORE PUSH1 0x40 SWAP1 KECCAK256 PUSH1 0x5 ADD SLOAD DUP3 GT ISZERO PUSH2 0x1C60 JUMPI PUSH1 0x40 MLOAD PUSH3 0x461BCD PUSH1 0xE5 SHL DUP2 MSTORE PUSH1 0x4 ADD PUSH2 0xF7D SWAP1 PUSH2 0x533E JUMP JUMPDEST CALLER PUSH1 0x0 SWAP1 DUP2 MSTORE PUSH1 0x13 PUSH1 0x20 MSTORE PUSH1 0x40 DUP2 KECCAK256 PUSH1 0x5 ADD DUP1 SLOAD DUP5 SWAP3 SWAP1 PUSH2 0x1C82 SWAP1 DUP5 SWAP1 PUSH2 0x4DE9 JUMP JUMPDEST SWAP1 SWAP2 SSTORE POP POP PUSH1 0x2 SLOAD PUSH1 0x40 MLOAD PUSH32 0xA9059CBB00000000000000000000000000000000000000000000000000000000 DUP2 MSTORE PUSH1 0x1 PUSH1 0x1 PUSH1 0xA0 SHL SUB SWAP1 SWAP2 AND SWAP1 PUSH4 0xA9059CBB SWAP1 PUSH2 0x1CD2 SWAP1 CALLER SWAP1 DUP7 SWAP1 PUSH1 0x4 ADD PUSH2 0x539D JUMP JUMPDEST PUSH1 0x20 PUSH1 0x40 MLOAD DUP1 DUP4 SUB DUP2 PUSH1 0x0 DUP8 GAS CALL ISZERO DUP1 ISZERO PUSH2 0x1CF1 JUMPI RETURNDATASIZE PUSH1 0x0 DUP1 RETURNDATACOPY RETURNDATASIZE PUSH1 0x0 REVERT JUMPDEST POP POP POP POP PUSH1 0x40 MLOAD RETURNDATASIZE PUSH1 0x1F NOT PUSH1 0x1F DUP3 ADD AND DUP3 ADD DUP1 PUSH1 0x40 MSTORE POP DUP2 ADD SWAP1 PUSH2 0x1D15 SWAP2 SWAP1 PUSH2 0x4F15 JUMP JUMPDEST POP JUMPDEST PUSH1 0x0 DUP4 DUP4 CALLER PUSH1 0x40 MLOAD PUSH1 0x20 ADD PUSH2 0x1D2E SWAP4 SWAP3 SWAP2 SWAP1 PUSH2 0x53AB JUMP JUMPDEST PUSH1 0x40 MLOAD PUSH1 0x20 DUP2 DUP4 SUB SUB DUP2 MSTORE SWAP1 PUSH1 0x40 MSTORE SWAP1 POP PUSH1 0x0 PUSH1 0xB SLOAD DUP3 PUSH1 0x40 MLOAD PUSH1 0x20 ADD PUSH2 0x1D56 SWAP3 SWAP2 SWAP1 PUSH2 0x53D3 JUMP JUMPDEST PUSH1 0x40 MLOAD PUSH1 0x20 DUP2 DUP4 SUB SUB DUP2 MSTORE SWAP1 PUSH1 0x40 MSTORE SWAP1 POP PUSH1 0x4 SLOAD CHAINID SUB PUSH2 0x1D7A JUMPI PUSH2 0x1D7A DUP2 DUP5 PUSH2 0x36D3 JUMP JUMPDEST PUSH1 0x5 SLOAD CHAINID SUB PUSH2 0x1D8D JUMPI PUSH2 0x1D8D DUP2 DUP5 PUSH2 0x37E5 JUMP JUMPDEST POP POP POP POP POP JUMP JUMPDEST PUSH1 0x17 PUSH1 0x20 MSTORE DUP2 PUSH1 0x0 MSTORE PUSH1 0x40 PUSH1 0x0 KECCAK256 DUP2 DUP2 SLOAD DUP2 LT PUSH2 0x1DB0 JUMPI PUSH1 0x0 DUP1 REVERT JUMPDEST PUSH1 0x0 SWAP2 DUP3 MSTORE PUSH1 0x20 SWAP1 SWAP2 KECCAK256 PUSH1 0x7 SWAP1 SWAP2 MUL ADD DUP1 SLOAD PUSH1 0x1 DUP3 ADD SLOAD PUSH1 0x5 DUP4 ADD SLOAD PUSH1 0x6 SWAP1 SWAP4 ADD SLOAD PUSH1 0x1 PUSH1 0x1 PUSH1 0xA0 SHL SUB SWAP1 SWAP3 AND SWAP5 POP SWAP3 POP PUSH1 0xFF SWAP1 SWAP2 AND SWAP1 DUP5 JUMP JUMPDEST PUSH1 0x11 DUP1 SLOAD PUSH2 0x1DF7 SWAP1 PUSH2 0x5409 JUMP JUMPDEST DUP1 PUSH1 0x1F ADD PUSH1 0x20 DUP1 SWAP2 DIV MUL PUSH1 0x20 ADD PUSH1 0x40 MLOAD SWAP1 DUP2 ADD PUSH1 0x40 MSTORE DUP1 SWAP3 SWAP2 SWAP1 DUP2 DUP2 MSTORE PUSH1 0x20 ADD DUP3 DUP1 SLOAD PUSH2 0x1E23 SWAP1 PUSH2 0x5409 JUMP JUMPDEST DUP1 ISZERO PUSH2 0x1E70 JUMPI DUP1 PUSH1 0x1F LT PUSH2 0x1E45 JUMPI PUSH2 0x100 DUP1 DUP4 SLOAD DIV MUL DUP4 MSTORE SWAP2 PUSH1 0x20 ADD SWAP2 PUSH2 0x1E70 JUMP JUMPDEST DUP3 ADD SWAP2 SWAP1 PUSH1 0x0 MSTORE PUSH1 0x20 PUSH1 0x0 KECCAK256 SWAP1 JUMPDEST DUP2 SLOAD DUP2 MSTORE SWAP1 PUSH1 0x1 ADD SWAP1 PUSH1 0x20 ADD DUP1 DUP4 GT PUSH2 0x1E53 JUMPI DUP3 SWAP1 SUB PUSH1 0x1F AND DUP3 ADD SWAP2 JUMPDEST POP POP POP POP POP DUP2 JUMP JUMPDEST PUSH1 0x0 DUP3 ISZERO PUSH2 0x1E87 JUMPI POP CALLVALUE PUSH2 0x1F1A JUMP JUMPDEST POP PUSH1 0x2 SLOAD PUSH1 0x40 MLOAD PUSH32 0x23B872DD00000000000000000000000000000000000000000000000000000000 DUP2 MSTORE DUP5 SWAP2 PUSH1 0x1 PUSH1 0x1 PUSH1 0xA0 SHL SUB AND SWAP1 PUSH4 0x23B872DD SWAP1 PUSH2 0x1ED5 SWAP1 CALLER SWAP1 ADDRESS SWAP1 DUP7 SWAP1 PUSH1 0x4 ADD PUSH2 0x542F JUMP JUMPDEST PUSH1 0x20 PUSH1 0x40 MLOAD DUP1 DUP4 SUB DUP2 PUSH1 0x0 DUP8 GAS CALL ISZERO DUP1 ISZERO PUSH2 0x1EF4 JUMPI RETURNDATASIZE PUSH1 0x0 DUP1 RETURNDATACOPY RETURNDATASIZE PUSH1 0x0 REVERT JUMPDEST POP POP POP POP PUSH1 0x40 MLOAD RETURNDATASIZE PUSH1 0x1F NOT PUSH1 0x1F DUP3 ADD AND DUP3 ADD DUP1 PUSH1 0x40 MSTORE POP DUP2 ADD SWAP1 PUSH2 0x1F18 SWAP2 SWAP1 PUSH2 0x4F15 JUMP JUMPDEST POP JUMPDEST PUSH2 0x1F26 DUP2 DUP5 CALLER DUP6 PUSH2 0x38C1 JUMP JUMPDEST POP POP POP POP JUMP JUMPDEST PUSH1 0x0 DUP1 SLOAD PUSH1 0x40 MLOAD PUSH32 0x77B03E0D00000000000000000000000000000000000000000000000000000000 DUP2 MSTORE PUSH1 0x1 PUSH1 0x1 PUSH1 0xA0 SHL SUB SWAP1 SWAP2 AND SWAP1 PUSH4 0x77B03E0D SWAP1 PUSH2 0x1F76 SWAP1 DUP6 SWAP1 PUSH1 0x4 ADD PUSH2 0x4188 JUMP JUMPDEST PUSH1 0x20 PUSH1 0x40 MLOAD DUP1 DUP4 SUB DUP2 DUP7 GAS STATICCALL ISZERO DUP1 ISZERO PUSH2 0x1F93 JUMPI RETURNDATASIZE PUSH1 0x0 DUP1 RETURNDATACOPY RETURNDATASIZE PUSH1 0x0 REVERT JUMPDEST POP POP POP POP PUSH1 0x40 MLOAD RETURNDATASIZE PUSH1 0x1F NOT PUSH1 0x1F DUP3 ADD AND DUP3 ADD DUP1 PUSH1 0x40 MSTORE POP DUP2 ADD SWAP1 PUSH2 0x1912 SWAP2 SWAP1 PUSH2 0x4E07 JUMP JUMPDEST PUSH1 0x12 DUP1 SLOAD PUSH2 0x1DF7 SWAP1 PUSH2 0x5409 JUMP JUMPDEST PUSH1 0xC SLOAD PUSH1 0x0 SWAP1 DUP2 MSTORE PUSH1 0x15 PUSH1 0x20 MSTORE PUSH1 0x40 SWAP1 KECCAK256 PUSH1 0x8 ADD SLOAD PUSH1 0xFF AND PUSH2 0x1FF8 JUMPI PUSH1 0x40 MLOAD PUSH3 0x461BCD PUSH1 0xE5 SHL DUP2 MSTORE PUSH1 0x4 ADD PUSH2 0xF7D SWAP1 PUSH2 0x4F9C JUMP JUMPDEST PUSH1 0xC SLOAD PUSH1 0x0 SWAP1 DUP2 MSTORE PUSH1 0x14 PUSH1 0x20 SWAP1 DUP2 MSTORE PUSH1 0x40 DUP1 DUP4 KECCAK256 DUP6 DUP5 MSTORE SWAP1 SWAP2 MSTORE SWAP1 KECCAK256 PUSH1 0x6 ADD SLOAD CHAINID EQ PUSH2 0x2036 JUMPI PUSH1 0x40 MLOAD PUSH3 0x461BCD PUSH1 0xE5 SHL DUP2 MSTORE PUSH1 0x4 ADD PUSH2 0xF7D SWAP1 PUSH2 0x4FE0 JUMP JUMPDEST PUSH1 0xC SLOAD PUSH1 0x0 SWAP1 DUP2 MSTORE PUSH1 0x14 PUSH1 0x20 SWAP1 DUP2 MSTORE PUSH1 0x40 DUP1 DUP4 KECCAK256 DUP6 DUP5 MSTORE SWAP1 SWAP2 MSTORE SWAP1 KECCAK256 SLOAD PUSH1 0x1 PUSH1 0x1 PUSH1 0xA0 SHL SUB AND CALLER EQ PUSH2 0x207A JUMPI PUSH1 0x40 MLOAD PUSH3 0x461BCD PUSH1 0xE5 SHL DUP2 MSTORE PUSH1 0x4 ADD PUSH2 0xF7D SWAP1 PUSH2 0x5024 JUMP JUMPDEST PUSH1 0xC SLOAD PUSH1 0x0 SWAP1 DUP2 MSTORE PUSH1 0x14 PUSH1 0x20 SWAP1 DUP2 MSTORE PUSH1 0x40 DUP1 DUP4 KECCAK256 DUP6 DUP5 MSTORE SWAP1 SWAP2 MSTORE SWAP1 KECCAK256 PUSH1 0x5 ADD SLOAD PUSH1 0xFF AND ISZERO PUSH2 0x20BA JUMPI PUSH1 0x40 MLOAD PUSH3 0x461BCD PUSH1 0xE5 SHL DUP2 MSTORE PUSH1 0x4 ADD PUSH2 0xF7D SWAP1 PUSH2 0x547E JUMP JUMPDEST PUSH1 0x0 PUSH2 0x20C5 DUP4 PUSH2 0xBC0 JUMP JUMPDEST SWAP1 POP DUP1 ISZERO PUSH2 0x20E5 JUMPI PUSH1 0x40 MLOAD PUSH3 0x461BCD PUSH1 0xE5 SHL DUP2 MSTORE PUSH1 0x4 ADD PUSH2 0xF7D SWAP1 PUSH2 0x54C2 JUMP JUMPDEST PUSH1 0x0 PUSH1 0x15 PUSH1 0x0 PUSH1 0xC SLOAD DUP2 MSTORE PUSH1 0x20 ADD SWAP1 DUP2 MSTORE PUSH1 0x20 ADD PUSH1 0x0 KECCAK256 PUSH1 0x4 ADD SLOAD SWAP1 POP PUSH1 0x0 PUSH2 0x212B PUSH1 0x40 MLOAD DUP1 PUSH1 0x40 ADD PUSH1 0x40 MSTORE DUP1 PUSH1 0x6 DUP2 MSTORE PUSH1 0x20 ADD PUSH6 0x3130B233B2B9 PUSH1 0xD1 SHL DUP2 MSTORE POP PUSH2 0xC6A JUMP JUMPDEST PUSH2 0x213D DUP4 PUSH8 0xDE0B6B3A7640000 PUSH2 0x4F36 JUMP JUMPDEST PUSH2 0x2147 SWAP2 SWAP1 PUSH2 0x4E3E JUMP JUMPDEST SWAP1 POP PUSH1 0x64 PUSH2 0x2156 DUP3 PUSH1 0x1E PUSH2 0x4F36 JUMP JUMPDEST PUSH2 0x2160 SWAP2 SWAP1 PUSH2 0x4E3E JUMP JUMPDEST CALLER PUSH1 0x0 SWAP1 DUP2 MSTORE PUSH1 0x13 PUSH1 0x20 MSTORE PUSH1 0x40 DUP2 KECCAK256 PUSH1 0x5 ADD DUP1 SLOAD SWAP1 SWAP2 SWAP1 PUSH2 0x2182 SWAP1 DUP5 SWAP1 PUSH2 0x4F55 JUMP JUMPDEST SWAP1 SWAP2 SSTORE POP POP PUSH1 0xC SLOAD PUSH1 0x0 SWAP1 DUP2 MSTORE PUSH1 0x14 PUSH1 0x20 SWAP1 DUP2 MSTORE PUSH1 0x40 DUP1 DUP4 KECCAK256 DUP9 DUP5 MSTORE SWAP1 SWAP2 MSTORE SWAP1 KECCAK256 PUSH1 0x5 ADD DUP1 SLOAD PUSH1 0xFF NOT AND PUSH1 0x1 OR SWAP1 SSTORE PUSH2 0x1D8D PUSH1 0x64 PUSH2 0x21C1 DUP4 PUSH1 0x1E PUSH2 0x4F36 JUMP JUMPDEST PUSH2 0x21CB SWAP2 SWAP1 PUSH2 0x4E3E JUMP JUMPDEST PUSH1 0x0 CALLER DUP8 PUSH2 0x38C1 JUMP JUMPDEST PUSH2 0x21DC PUSH2 0x3FB5 JUMP JUMPDEST PUSH1 0xC SLOAD PUSH1 0x0 SWAP1 DUP2 MSTORE PUSH1 0x15 PUSH1 0x20 MSTORE PUSH1 0x40 SWAP1 DUP2 SWAP1 KECCAK256 DUP2 MLOAD PUSH2 0x100 DUP2 ADD SWAP1 SWAP3 MSTORE DUP1 SLOAD DUP3 SWAP1 DUP3 SWAP1 PUSH2 0x2208 SWAP1 PUSH2 0x5409 JUMP JUMPDEST DUP1 PUSH1 0x1F ADD PUSH1 0x20 DUP1 SWAP2 DIV MUL PUSH1 0x20 ADD PUSH1 0x40 MLOAD SWAP1 DUP2 ADD PUSH1 0x40 MSTORE DUP1 SWAP3 SWAP2 SWAP1 DUP2 DUP2 MSTORE PUSH1 0x20 ADD DUP3 DUP1 SLOAD PUSH2 0x2234 SWAP1 PUSH2 0x5409 JUMP JUMPDEST DUP1 ISZERO PUSH2 0x2281 JUMPI DUP1 PUSH1 0x1F LT PUSH2 0x2256 JUMPI PUSH2 0x100 DUP1 DUP4 SLOAD DIV MUL DUP4 MSTORE SWAP2 PUSH1 0x20 ADD SWAP2 PUSH2 0x2281 JUMP JUMPDEST DUP3 ADD SWAP2 SWAP1 PUSH1 0x0 MSTORE PUSH1 0x20 PUSH1 0x0 KECCAK256 SWAP1 JUMPDEST DUP2 SLOAD DUP2 MSTORE SWAP1 PUSH1 0x1 ADD SWAP1 PUSH1 0x20 ADD DUP1 DUP4 GT PUSH2 0x2264 JUMPI DUP3 SWAP1 SUB PUSH1 0x1F AND DUP3 ADD SWAP2 JUMPDEST POP POP POP POP POP DUP2 MSTORE PUSH1 0x20 ADD PUSH1 0x1 DUP3 ADD SLOAD DUP2 MSTORE PUSH1 0x20 ADD PUSH1 0x2 DUP3 ADD SLOAD DUP2 MSTORE PUSH1 0x20 ADD PUSH1 0x3 DUP3 ADD SLOAD DUP2 MSTORE PUSH1 0x20 ADD PUSH1 0x4 DUP3 ADD SLOAD DUP2 MSTORE PUSH1 0x20 ADD PUSH1 0x5 DUP3 ADD PUSH1 0x3 DUP1 PUSH1 0x20 MUL PUSH1 0x40 MLOAD SWAP1 DUP2 ADD PUSH1 0x40 MSTORE DUP1 SWAP3 SWAP2 SWAP1 DUP3 PUSH1 0x3 DUP1 ISZERO PUSH2 0x22EE JUMPI PUSH1 0x20 MUL DUP3 ADD SWAP2 JUMPDEST DUP2 SLOAD DUP2 MSTORE PUSH1 0x20 ADD SWAP1 PUSH1 0x1 ADD SWAP1 DUP1 DUP4 GT PUSH2 0x22DA JUMPI JUMPDEST POP POP POP SWAP2 DUP4 MSTORE POP POP PUSH1 0x8 DUP3 ADD SLOAD PUSH1 0xFF AND ISZERO ISZERO PUSH1 0x20 DUP1 DUP4 ADD SWAP2 SWAP1 SWAP2 MSTORE PUSH1 0x40 DUP1 MLOAD PUSH1 0x60 DUP2 ADD DUP3 MSTORE PUSH1 0x9 DUP6 ADD SLOAD DUP2 MSTORE PUSH1 0xA DUP6 ADD SLOAD SWAP3 DUP2 ADD SWAP3 SWAP1 SWAP3 MSTORE PUSH1 0xB SWAP1 SWAP4 ADD SLOAD DUP2 DUP5 ADD MSTORE SWAP2 ADD MSTORE SWAP2 SWAP1 POP JUMP JUMPDEST PUSH1 0x0 DUP1 SLOAD PUSH1 0x40 MLOAD PUSH32 0xA792765F00000000000000000000000000000000000000000000000000000000 DUP2 MSTORE PUSH1 0x60 SWAP3 SWAP2 PUSH1 0x1 PUSH1 0x1 PUSH1 0xA0 SHL SUB AND SWAP1 PUSH4 0xA792765F SWAP1 PUSH2 0x2386 SWAP1 DUP8 SWAP1 DUP8 SWAP1 PUSH1 0x4 ADD PUSH2 0x50BC JUMP JUMPDEST PUSH1 0x0 PUSH1 0x40 MLOAD DUP1 DUP4 SUB DUP2 DUP7 GAS STATICCALL ISZERO DUP1 ISZERO PUSH2 0x23A3 JUMPI RETURNDATASIZE PUSH1 0x0 DUP1 RETURNDATACOPY RETURNDATASIZE PUSH1 0x0 REVERT JUMPDEST POP POP POP POP PUSH1 0x40 MLOAD RETURNDATASIZE PUSH1 0x0 DUP3 RETURNDATACOPY PUSH1 0x1F RETURNDATASIZE SWAP1 DUP2 ADD PUSH1 0x1F NOT AND DUP3 ADD PUSH1 0x40 MSTORE PUSH2 0x23CB SWAP2 SWAP1 DUP2 ADD SWAP1 PUSH2 0x552A JUMP JUMPDEST SWAP1 SWAP7 SWAP1 SWAP6 POP SWAP4 POP POP POP POP JUMP JUMPDEST PUSH1 0x60 PUSH1 0x0 DUP1 JUMPDEST PUSH1 0xC SLOAD PUSH1 0x0 SWAP1 DUP2 MSTORE PUSH1 0x17 PUSH1 0x20 MSTORE PUSH1 0x40 SWAP1 KECCAK256 SLOAD DUP2 LT ISZERO PUSH2 0x2465 JUMPI DUP4 PUSH1 0x1 PUSH1 0x1 PUSH1 0xA0 SHL SUB AND PUSH1 0x17 PUSH1 0x0 PUSH1 0xC SLOAD DUP2 MSTORE PUSH1 0x20 ADD SWAP1 DUP2 MSTORE PUSH1 0x20 ADD PUSH1 0x0 KECCAK256 DUP3 DUP2 SLOAD DUP2 LT PUSH2 0x2426 JUMPI PUSH2 0x2426 PUSH2 0x50FD JUMP JUMPDEST PUSH1 0x0 SWAP2 DUP3 MSTORE PUSH1 0x20 SWAP1 SWAP2 KECCAK256 PUSH1 0x7 SWAP1 SWAP2 MUL ADD SLOAD PUSH1 0x1 PUSH1 0x1 PUSH1 0xA0 SHL SUB AND SUB PUSH2 0x2453 JUMPI DUP2 PUSH2 0x244F DUP2 PUSH2 0x5113 JUMP JUMPDEST SWAP3 POP POP JUMPDEST DUP1 PUSH2 0x245D DUP2 PUSH2 0x5113 JUMP JUMPDEST SWAP2 POP POP PUSH2 0x23DD JUMP JUMPDEST POP PUSH1 0x0 DUP2 PUSH8 0xFFFFFFFFFFFFFFFF DUP2 GT ISZERO PUSH2 0x2481 JUMPI PUSH2 0x2481 PUSH2 0x4196 JUMP JUMPDEST PUSH1 0x40 MLOAD SWAP1 DUP1 DUP3 MSTORE DUP1 PUSH1 0x20 MUL PUSH1 0x20 ADD DUP3 ADD PUSH1 0x40 MSTORE DUP1 ISZERO PUSH2 0x24BA JUMPI DUP2 PUSH1 0x20 ADD JUMPDEST PUSH2 0x24A7 PUSH2 0x4023 JUMP JUMPDEST DUP2 MSTORE PUSH1 0x20 ADD SWAP1 PUSH1 0x1 SWAP1 SUB SWAP1 DUP2 PUSH2 0x249F JUMPI SWAP1 POP JUMPDEST POP SWAP1 POP PUSH1 0x0 DUP1 JUMPDEST PUSH1 0xC SLOAD PUSH1 0x0 SWAP1 DUP2 MSTORE PUSH1 0x17 PUSH1 0x20 MSTORE PUSH1 0x40 SWAP1 KECCAK256 SLOAD DUP2 LT ISZERO PUSH2 0x2613 JUMPI DUP6 PUSH1 0x1 PUSH1 0x1 PUSH1 0xA0 SHL SUB AND PUSH1 0x17 PUSH1 0x0 PUSH1 0xC SLOAD DUP2 MSTORE PUSH1 0x20 ADD SWAP1 DUP2 MSTORE PUSH1 0x20 ADD PUSH1 0x0 KECCAK256 DUP3 DUP2 SLOAD DUP2 LT PUSH2 0x250A JUMPI PUSH2 0x250A PUSH2 0x50FD JUMP JUMPDEST PUSH1 0x0 SWAP2 DUP3 MSTORE PUSH1 0x20 SWAP1 SWAP2 KECCAK256 PUSH1 0x7 SWAP1 SWAP2 MUL ADD SLOAD PUSH1 0x1 PUSH1 0x1 PUSH1 0xA0 SHL SUB AND SUB PUSH2 0x25F4 JUMPI PUSH1 0xC SLOAD PUSH1 0x0 SWAP1 DUP2 MSTORE PUSH1 0x17 PUSH1 0x20 MSTORE PUSH1 0x40 SWAP1 KECCAK256 DUP1 SLOAD DUP3 SWAP1 DUP2 LT PUSH2 0x254C JUMPI PUSH2 0x254C PUSH2 0x50FD JUMP JUMPDEST PUSH1 0x0 SWAP2 DUP3 MSTORE PUSH1 0x20 SWAP2 DUP3 SWAP1 KECCAK256 PUSH1 0x40 DUP1 MLOAD PUSH1 0xA0 DUP2 ADD DUP3 MSTORE PUSH1 0x7 SWAP4 SWAP1 SWAP4 MUL SWAP1 SWAP2 ADD DUP1 SLOAD PUSH1 0x1 PUSH1 0x1 PUSH1 0xA0 SHL SUB AND DUP4 MSTORE PUSH1 0x1 DUP2 ADD SLOAD SWAP4 DUP4 ADD SWAP4 SWAP1 SWAP4 MSTORE DUP1 MLOAD PUSH1 0x60 DUP2 ADD DUP1 DUP4 MSTORE SWAP3 SWAP4 SWAP3 SWAP2 DUP5 ADD SWAP2 PUSH1 0x2 DUP5 ADD SWAP1 PUSH1 0x3 SWAP1 DUP3 DUP5 JUMPDEST DUP2 SLOAD DUP2 MSTORE PUSH1 0x20 ADD SWAP1 PUSH1 0x1 ADD SWAP1 DUP1 DUP4 GT PUSH2 0x259E JUMPI POP POP POP SWAP2 DUP4 MSTORE POP POP PUSH1 0x5 DUP3 ADD SLOAD PUSH1 0xFF AND ISZERO ISZERO PUSH1 0x20 DUP3 ADD MSTORE PUSH1 0x6 SWAP1 SWAP2 ADD SLOAD PUSH1 0x40 SWAP1 SWAP2 ADD MSTORE DUP4 MLOAD DUP5 SWAP1 DUP5 SWAP1 DUP2 LT PUSH2 0x25E8 JUMPI PUSH2 0x25E8 PUSH2 0x50FD JUMP JUMPDEST PUSH1 0x20 MUL PUSH1 0x20 ADD ADD DUP2 SWAP1 MSTORE POP JUMPDEST PUSH2 0x25FF PUSH1 0x1 DUP4 PUSH2 0x4F55 JUMP JUMPDEST SWAP2 POP DUP1 PUSH2 0x260B DUP2 PUSH2 0x5113 JUMP JUMPDEST SWAP2 POP POP PUSH2 0x24C1 JUMP JUMPDEST POP SWAP1 SWAP5 SWAP4 POP POP POP POP JUMP JUMPDEST PUSH1 0x0 SLOAD PUSH1 0x40 MLOAD PUSH32 0xC5958AF900000000000000000000000000000000000000000000000000000000 DUP2 MSTORE PUSH1 0x60 SWAP2 PUSH1 0x1 PUSH1 0x1 PUSH1 0xA0 SHL SUB AND SWAP1 PUSH4 0xC5958AF9 SWAP1 PUSH2 0x2669 SWAP1 DUP7 SWAP1 DUP7 SWAP1 PUSH1 0x4 ADD PUSH2 0x50BC JUMP JUMPDEST PUSH1 0x0 PUSH1 0x40 MLOAD DUP1 DUP4 SUB DUP2 DUP7 GAS STATICCALL ISZERO DUP1 ISZERO PUSH2 0x2686 JUMPI RETURNDATASIZE PUSH1 0x0 DUP1 RETURNDATACOPY RETURNDATASIZE PUSH1 0x0 REVERT JUMPDEST POP POP POP POP PUSH1 0x40 MLOAD RETURNDATASIZE PUSH1 0x0 DUP3 RETURNDATACOPY PUSH1 0x1F RETURNDATASIZE SWAP1 DUP2 ADD PUSH1 0x1F NOT AND DUP3 ADD PUSH1 0x40 MSTORE PUSH2 0x190F SWAP2 SWAP1 DUP2 ADD SWAP1 PUSH2 0x558B JUMP JUMPDEST PUSH1 0x15 PUSH1 0x20 MSTORE PUSH1 0x0 SWAP1 DUP2 MSTORE PUSH1 0x40 SWAP1 KECCAK256 DUP1 SLOAD DUP2 SWAP1 PUSH2 0x26C9 SWAP1 PUSH2 0x5409 JUMP JUMPDEST DUP1 PUSH1 0x1F ADD PUSH1 0x20 DUP1 SWAP2 DIV MUL PUSH1 0x20 ADD PUSH1 0x40 MLOAD SWAP1 DUP2 ADD PUSH1 0x40 MSTORE DUP1 SWAP3 SWAP2 SWAP1 DUP2 DUP2 MSTORE PUSH1 0x20 ADD DUP3 DUP1 SLOAD PUSH2 0x26F5 SWAP1 PUSH2 0x5409 JUMP JUMPDEST DUP1 ISZERO PUSH2 0x2742 JUMPI DUP1 PUSH1 0x1F LT PUSH2 0x2717 JUMPI PUSH2 0x100 DUP1 DUP4 SLOAD DIV MUL DUP4 MSTORE SWAP2 PUSH1 0x20 ADD SWAP2 PUSH2 0x2742 JUMP JUMPDEST DUP3 ADD SWAP2 SWAP1 PUSH1 0x0 MSTORE PUSH1 0x20 PUSH1 0x0 KECCAK256 SWAP1 JUMPDEST DUP2 SLOAD DUP2 MSTORE SWAP1 PUSH1 0x1 ADD SWAP1 PUSH1 0x20 ADD DUP1 DUP4 GT PUSH2 0x2725 JUMPI DUP3 SWAP1 SUB PUSH1 0x1F AND DUP3 ADD SWAP2 JUMPDEST POP POP POP POP PUSH1 0x1 DUP4 ADD SLOAD PUSH1 0x2 DUP5 ADD SLOAD PUSH1 0x3 DUP6 ADD SLOAD PUSH1 0x4 DUP7 ADD SLOAD PUSH1 0x8 DUP8 ADD SLOAD PUSH1 0x40 DUP1 MLOAD PUSH1 0x60 DUP2 ADD DUP3 MSTORE PUSH1 0x9 DUP11 ADD SLOAD DUP2 MSTORE PUSH1 0xA DUP11 ADD SLOAD PUSH1 0x20 DUP3 ADD MSTORE PUSH1 0xB SWAP1 SWAP10 ADD SLOAD SWAP1 DUP10 ADD MSTORE SWAP6 SWAP7 SWAP4 SWAP6 SWAP3 SWAP5 POP SWAP1 SWAP3 SWAP1 SWAP2 PUSH1 0xFF AND SWAP1 DUP8 JUMP JUMPDEST PUSH2 0x279E PUSH2 0x4056 JUMP JUMPDEST POP PUSH1 0x1 PUSH1 0x1 PUSH1 0xA0 SHL SUB SWAP1 DUP2 AND PUSH1 0x0 SWAP1 DUP2 MSTORE PUSH1 0x13 PUSH1 0x20 SWAP1 DUP2 MSTORE PUSH1 0x40 SWAP2 DUP3 SWAP1 KECCAK256 DUP3 MLOAD PUSH1 0x80 DUP2 ADD DUP5 MSTORE DUP2 SLOAD SWAP1 SWAP5 AND DUP5 MSTORE PUSH1 0x1 DUP2 ADD SLOAD DUP5 DUP4 ADD MSTORE PUSH1 0x2 DUP2 ADD SLOAD DUP5 DUP5 ADD MSTORE DUP3 MLOAD PUSH1 0x60 DUP2 DUP2 ADD DUP6 MSTORE PUSH1 0x3 DUP4 ADD SLOAD DUP3 MSTORE PUSH1 0x4 DUP4 ADD SLOAD SWAP4 DUP3 ADD SWAP4 SWAP1 SWAP4 MSTORE PUSH1 0x5 SWAP1 SWAP2 ADD SLOAD SWAP3 DUP2 ADD SWAP3 SWAP1 SWAP3 MSTORE DUP3 ADD MSTORE SWAP1 JUMP JUMPDEST PUSH1 0x0 DUP1 SLOAD PUSH1 0x40 MLOAD PUSH32 0xCE5E11BF00000000000000000000000000000000000000000000000000000000 DUP2 MSTORE PUSH1 0x1 PUSH1 0x1 PUSH1 0xA0 SHL SUB SWAP1 SWAP2 AND SWAP1 PUSH4 0xCE5E11BF SWAP1 PUSH2 0x2858 SWAP1 DUP7 SWAP1 DUP7 SWAP1 PUSH1 0x4 ADD PUSH2 0x50BC JUMP JUMPDEST PUSH1 0x20 PUSH1 0x40 MLOAD DUP1 DUP4 SUB DUP2 DUP7 GAS STATICCALL ISZERO DUP1 ISZERO PUSH2 0x2875 JUMPI RETURNDATASIZE PUSH1 0x0 DUP1 RETURNDATACOPY RETURNDATASIZE PUSH1 0x0 REVERT JUMPDEST POP POP POP POP PUSH1 0x40 MLOAD RETURNDATASIZE PUSH1 0x1F NOT PUSH1 0x1F DUP3 ADD AND DUP3 ADD DUP1 PUSH1 0x40 MSTORE POP DUP2 ADD SWAP1 PUSH2 0x190F SWAP2 SWAP1 PUSH2 0x4E07 JUMP JUMPDEST PUSH1 0x3 SLOAD PUSH1 0x1 PUSH1 0x1 PUSH1 0xA0 SHL SUB AND CALLER EQ PUSH2 0x28C3 JUMPI PUSH1 0x40 MLOAD PUSH3 0x461BCD PUSH1 0xE5 SHL DUP2 MSTORE PUSH1 0x4 ADD PUSH2 0xF7D SWAP1 PUSH2 0x55FA JUMP JUMPDEST PUSH1 0xC SLOAD PUSH1 0x0 SWAP1 DUP2 MSTORE PUSH1 0x15 PUSH1 0x20 MSTORE PUSH1 0x40 SWAP1 KECCAK256 PUSH1 0x8 ADD SLOAD PUSH1 0xFF AND ISZERO PUSH2 0x28F8 JUMPI PUSH1 0x40 MLOAD PUSH3 0x461BCD PUSH1 0xE5 SHL DUP2 MSTORE PUSH1 0x4 ADD PUSH2 0xF7D SWAP1 PUSH2 0x563E JUMP JUMPDEST PUSH1 0xC SLOAD PUSH1 0x0 SWAP1 DUP2 MSTORE PUSH1 0x15 PUSH1 0x20 MSTORE PUSH1 0x40 SWAP1 KECCAK256 PUSH1 0x3 ADD SLOAD TIMESTAMP LT ISZERO PUSH2 0x292C JUMPI PUSH1 0x40 MLOAD PUSH3 0x461BCD PUSH1 0xE5 SHL DUP2 MSTORE PUSH1 0x4 ADD PUSH2 0xF7D SWAP1 PUSH2 0x4F9C JUMP JUMPDEST PUSH1 0x4 SLOAD CHAINID EQ PUSH2 0x294D JUMPI PUSH1 0x40 MLOAD PUSH3 0x461BCD PUSH1 0xE5 SHL DUP2 MSTORE PUSH1 0x4 ADD PUSH2 0xF7D SWAP1 PUSH2 0x5682 JUMP JUMPDEST PUSH1 0x0 PUSH1 0x1E PUSH1 0xE SLOAD CALLER DUP8 PUSH1 0x40 MLOAD PUSH1 0x20 ADD PUSH2 0x2968 SWAP4 SWAP3 SWAP2 SWAP1 PUSH2 0x56BA JUMP JUMPDEST PUSH1 0x40 MLOAD PUSH1 0x20 DUP2 DUP4 SUB SUB DUP2 MSTORE SWAP1 PUSH1 0x40 MSTORE DUP1 MLOAD SWAP1 PUSH1 0x20 ADD KECCAK256 PUSH1 0x0 SHR PUSH2 0x298B SWAP2 SWAP1 PUSH2 0x56F1 JUMP JUMPDEST SWAP1 POP PUSH1 0x0 PUSH1 0x1E PUSH1 0xE SLOAD CALLER DUP8 PUSH1 0x40 MLOAD PUSH1 0x20 ADD PUSH2 0x29A8 SWAP4 SWAP3 SWAP2 SWAP1 PUSH2 0x56BA JUMP JUMPDEST PUSH1 0x40 MLOAD PUSH1 0x20 DUP2 DUP4 SUB SUB DUP2 MSTORE SWAP1 PUSH1 0x40 MSTORE DUP1 MLOAD SWAP1 PUSH1 0x20 ADD KECCAK256 PUSH1 0x0 SHR PUSH2 0x29CB SWAP2 SWAP1 PUSH2 0x56F1 JUMP JUMPDEST SWAP1 POP PUSH1 0x0 PUSH1 0x1E PUSH1 0xE SLOAD CALLER DUP8 PUSH1 0x40 MLOAD PUSH1 0x20 ADD PUSH2 0x29E8 SWAP4 SWAP3 SWAP2 SWAP1 PUSH2 0x56BA JUMP JUMPDEST PUSH1 0x40 MLOAD PUSH1 0x20 DUP2 DUP4 SUB SUB DUP2 MSTORE SWAP1 PUSH1 0x40 MSTORE DUP1 MLOAD SWAP1 PUSH1 0x20 ADD KECCAK256 PUSH1 0x0 SHR PUSH2 0x2A0B SWAP2 SWAP1 PUSH2 0x56F1 JUMP JUMPDEST PUSH1 0xC DUP1 SLOAD PUSH1 0x0 SWAP1 DUP2 MSTORE PUSH1 0x15 PUSH1 0x20 DUP2 DUP2 MSTORE PUSH1 0x40 DUP1 DUP5 KECCAK256 PUSH1 0x8 ADD DUP1 SLOAD PUSH1 0xFF NOT AND PUSH1 0x1 OR SWAP1 SSTORE DUP1 MLOAD PUSH1 0x60 DUP2 ADD DUP3 MSTORE DUP10 DUP2 MSTORE DUP1 DUP4 ADD DUP10 SWAP1 MSTORE DUP1 DUP3 ADD DUP8 SWAP1 MSTORE SWAP5 SLOAD DUP5 MSTORE SWAP2 SWAP1 MSTORE SWAP1 KECCAK256 SWAP2 SWAP3 POP PUSH2 0x2A60 SWAP2 PUSH1 0x5 ADD SWAP1 PUSH1 0x3 PUSH2 0x3F4C JUMP JUMPDEST POP PUSH2 0x1166 PUSH1 0xC SLOAD PUSH1 0x40 MLOAD DUP1 PUSH1 0x60 ADD PUSH1 0x40 MSTORE DUP1 DUP7 DUP2 MSTORE PUSH1 0x20 ADD DUP6 DUP2 MSTORE PUSH1 0x20 ADD DUP5 DUP2 MSTORE POP DUP7 PUSH2 0x3A6C JUMP JUMPDEST PUSH1 0x11 PUSH2 0x2A94 DUP4 DUP3 PUSH2 0x579B JUMP JUMPDEST POP PUSH1 0x12 PUSH2 0x2AA1 DUP3 DUP3 PUSH2 0x579B JUMP JUMPDEST POP POP POP JUMP JUMPDEST PUSH1 0x3 SLOAD PUSH1 0x1 PUSH1 0x1 PUSH1 0xA0 SHL SUB AND CALLER EQ PUSH2 0x2AD0 JUMPI PUSH1 0x40 MLOAD PUSH3 0x461BCD PUSH1 0xE5 SHL DUP2 MSTORE PUSH1 0x4 ADD PUSH2 0xF7D SWAP1 PUSH2 0x5892 JUMP JUMPDEST PUSH1 0x40 MLOAD SELFBALANCE SWAP1 PUSH1 0x0 SWAP1 CALLER SWAP1 DUP4 SWAP1 PUSH2 0x2AE5 SWAP1 PUSH2 0x534E JUMP JUMPDEST PUSH1 0x0 PUSH1 0x40 MLOAD DUP1 DUP4 SUB DUP2 DUP6 DUP8 GAS CALL SWAP3 POP POP POP RETURNDATASIZE DUP1 PUSH1 0x0 DUP2 EQ PUSH2 0x2B22 JUMPI PUSH1 0x40 MLOAD SWAP2 POP PUSH1 0x1F NOT PUSH1 0x3F RETURNDATASIZE ADD AND DUP3 ADD PUSH1 0x40 MSTORE RETURNDATASIZE DUP3 MSTORE RETURNDATASIZE PUSH1 0x0 PUSH1 0x20 DUP5 ADD RETURNDATACOPY PUSH2 0x2B27 JUMP JUMPDEST PUSH1 0x60 SWAP2 POP JUMPDEST POP POP SWAP1 POP DUP1 PUSH2 0x2B48 JUMPI PUSH1 0x40 MLOAD PUSH3 0x461BCD PUSH1 0xE5 SHL DUP2 MSTORE PUSH1 0x4 ADD PUSH2 0xF7D SWAP1 PUSH2 0x58D6 JUMP JUMPDEST POP POP JUMP JUMPDEST PUSH1 0x0 DUP1 SLOAD PUSH1 0x40 MLOAD PUSH32 0xE07C548600000000000000000000000000000000000000000000000000000000 DUP2 MSTORE PUSH1 0x1 PUSH1 0x1 PUSH1 0xA0 SHL SUB SWAP1 SWAP2 AND SWAP1 PUSH4 0xE07C5486 SWAP1 PUSH2 0x2B98 SWAP1 DUP7 SWAP1 DUP7 SWAP1 PUSH1 0x4 ADD PUSH2 0x50BC JUMP JUMPDEST PUSH1 0x20 PUSH1 0x40 MLOAD DUP1 DUP4 SUB DUP2 DUP7 GAS STATICCALL ISZERO DUP1 ISZERO PUSH2 0x2BB5 JUMPI RETURNDATASIZE PUSH1 0x0 DUP1 RETURNDATACOPY RETURNDATASIZE PUSH1 0x0 REVERT JUMPDEST POP POP POP POP PUSH1 0x40 MLOAD RETURNDATASIZE PUSH1 0x1F NOT PUSH1 0x1F DUP3 ADD AND DUP3 ADD DUP1 PUSH1 0x40 MSTORE POP DUP2 ADD SWAP1 PUSH2 0x190F SWAP2 SWAP1 PUSH2 0x58F1 JUMP JUMPDEST PUSH1 0x10 DUP1 SLOAD PUSH2 0x1DF7 SWAP1 PUSH2 0x5409 JUMP JUMPDEST PUSH1 0x0 DUP1 PUSH1 0x0 PUSH2 0x2BF4 DUP6 PUSH2 0x1F2C JUMP JUMPDEST SWAP1 POP DUP1 PUSH1 0x0 SUB PUSH2 0x2C0B JUMPI PUSH1 0x0 DUP1 SWAP3 POP SWAP3 POP POP PUSH2 0x1200 JUMP JUMPDEST DUP1 PUSH2 0x2C15 DUP2 PUSH2 0x5912 JUMP JUMPDEST SWAP2 POP PUSH1 0x1 SWAP1 POP PUSH1 0x0 DUP1 DUP4 DUP2 PUSH2 0x2C2A DUP11 DUP4 PUSH2 0x280C JUMP JUMPDEST SWAP1 POP DUP9 DUP2 GT PUSH2 0x2C45 JUMPI PUSH1 0x0 DUP1 SWAP8 POP SWAP8 POP POP POP POP POP POP POP PUSH2 0x1200 JUMP JUMPDEST PUSH2 0x2C4F DUP11 DUP5 PUSH2 0x280C JUMP JUMPDEST SWAP1 POP DUP9 DUP2 GT ISZERO PUSH2 0x2C5E JUMPI PUSH1 0x0 SWAP5 POP JUMPDEST DUP5 ISZERO PUSH2 0x2D0E JUMPI PUSH1 0x2 PUSH2 0x2C70 DUP5 DUP5 PUSH2 0x4F55 JUMP JUMPDEST PUSH2 0x2C7A SWAP2 SWAP1 PUSH2 0x4E3E JUMP JUMPDEST SWAP4 POP PUSH2 0x2C86 DUP11 DUP6 PUSH2 0x280C JUMP JUMPDEST SWAP1 POP DUP9 DUP2 GT ISZERO PUSH2 0x2CC7 JUMPI PUSH1 0x0 PUSH2 0x2CA1 DUP12 PUSH2 0xA5F PUSH1 0x1 DUP9 PUSH2 0x4DE9 JUMP JUMPDEST SWAP1 POP DUP10 DUP2 GT PUSH2 0x2CB3 JUMPI PUSH1 0x0 SWAP6 POP PUSH2 0x2CC1 JUMP JUMPDEST PUSH2 0x2CBE PUSH1 0x1 DUP7 PUSH2 0x4DE9 JUMP JUMPDEST SWAP3 POP JUMPDEST POP PUSH2 0x2C5E JUMP JUMPDEST PUSH1 0x0 PUSH2 0x2CD8 DUP12 PUSH2 0xA5F DUP8 PUSH1 0x1 PUSH2 0x4F55 JUMP JUMPDEST SWAP1 POP DUP10 DUP2 GT ISZERO PUSH2 0x2CFB JUMPI PUSH1 0x0 SWAP6 POP DUP5 PUSH2 0x2CF0 DUP2 PUSH2 0x5113 JUMP JUMPDEST SWAP6 POP POP DUP1 SWAP2 POP PUSH2 0x2CC1 JUMP JUMPDEST PUSH2 0x2D06 DUP6 PUSH1 0x1 PUSH2 0x4F55 JUMP JUMPDEST SWAP4 POP POP PUSH2 0x2C5E JUMP JUMPDEST PUSH2 0x2D18 DUP11 DUP3 PUSH2 0x1882 JUMP JUMPDEST PUSH2 0x2D2E JUMPI PUSH1 0x1 DUP5 SWAP8 POP SWAP8 POP POP POP POP POP POP POP PUSH2 0x1200 JUMP JUMPDEST PUSH2 0x2D38 DUP11 DUP3 PUSH2 0x1882 JUMP JUMPDEST DUP1 ISZERO PUSH2 0x2D43 JUMPI POP DUP6 DUP5 LT JUMPDEST ISZERO PUSH2 0x2D66 JUMPI DUP4 PUSH2 0x2D52 DUP2 PUSH2 0x5113 JUMP JUMPDEST SWAP5 POP POP PUSH2 0x2D5F DUP11 DUP6 PUSH2 0x280C JUMP JUMPDEST SWAP1 POP PUSH2 0x2D2E JUMP JUMPDEST DUP6 DUP5 EQ DUP1 ISZERO PUSH2 0x2D7A JUMPI POP PUSH2 0x2D7A DUP11 DUP3 PUSH2 0x1882 JUMP JUMPDEST ISZERO PUSH2 0x2D91 JUMPI PUSH1 0x0 DUP1 SWAP8 POP SWAP8 POP POP POP POP POP POP POP PUSH2 0x1200 JUMP JUMPDEST PUSH1 0x1 DUP5 SWAP8 POP SWAP8 POP POP POP POP POP POP POP PUSH2 0x1200 JUMP JUMPDEST PUSH1 0x1 SLOAD PUSH1 0x40 MLOAD PUSH32 0x87A475FD00000000000000000000000000000000000000000000000000000000 DUP2 MSTORE PUSH1 0x0 SWAP2 DUP3 SWAP2 DUP3 SWAP2 DUP3 SWAP2 PUSH1 0x1 PUSH1 0x1 PUSH1 0xA0 SHL SUB SWAP1 SWAP2 AND SWAP1 PUSH4 0x87A475FD SWAP1 PUSH2 0x2DF5 SWAP1 DUP9 SWAP1 PUSH1 0x4 ADD PUSH2 0x4188 JUMP JUMPDEST PUSH1 0x20 PUSH1 0x40 MLOAD DUP1 DUP4 SUB DUP2 DUP7 GAS STATICCALL ISZERO DUP1 ISZERO PUSH2 0x2E12 JUMPI RETURNDATASIZE PUSH1 0x0 DUP1 RETURNDATACOPY RETURNDATASIZE PUSH1 0x0 REVERT JUMPDEST POP POP POP POP PUSH1 0x40 MLOAD RETURNDATASIZE PUSH1 0x1F NOT PUSH1 0x1F DUP3 ADD AND DUP3 ADD DUP1 PUSH1 0x40 MSTORE POP DUP2 ADD SWAP1 PUSH2 0x2E36 SWAP2 SWAP1 PUSH2 0x4E07 JUMP JUMPDEST SWAP1 POP PUSH1 0x60 PUSH2 0x2E49 DUP3 PUSH2 0x90C TIMESTAMP PUSH1 0x1 PUSH2 0x4F55 JUMP JUMPDEST SWAP5 POP SWAP1 POP PUSH1 0x0 DUP5 SWAP1 SUB PUSH2 0x2E69 JUMPI PUSH1 0x0 DUP1 PUSH2 0x194 SWAP5 POP SWAP5 POP SWAP5 POP POP POP PUSH2 0x2E7E JUMP JUMPDEST PUSH1 0x0 PUSH2 0x2E74 DUP3 PUSH2 0x3AA9 JUMP JUMPDEST SWAP6 POP PUSH1 0xC8 SWAP4 POP POP POP POP JUMPDEST SWAP2 SWAP4 SWAP1 SWAP3 POP JUMP JUMPDEST PUSH1 0x3 SLOAD PUSH1 0x1 PUSH1 0x1 PUSH1 0xA0 SHL SUB AND CALLER EQ PUSH2 0x2EAF JUMPI PUSH1 0x40 MLOAD PUSH3 0x461BCD PUSH1 0xE5 SHL DUP2 MSTORE PUSH1 0x4 ADD PUSH2 0xF7D SWAP1 PUSH2 0x595D JUMP JUMPDEST PUSH1 0xC SLOAD PUSH1 0x0 SWAP1 DUP2 MSTORE PUSH1 0x15 PUSH1 0x20 MSTORE PUSH1 0x40 SWAP1 KECCAK256 PUSH1 0x3 ADD SLOAD TIMESTAMP LT ISZERO PUSH2 0x2EE3 JUMPI PUSH1 0x40 MLOAD PUSH3 0x461BCD PUSH1 0xE5 SHL DUP2 MSTORE PUSH1 0x4 ADD PUSH2 0xF7D SWAP1 PUSH2 0x4F9C JUMP JUMPDEST PUSH1 0x1 PUSH1 0xC PUSH1 0x0 DUP3 DUP3 SLOAD PUSH2 0x2EF6 SWAP2 SWAP1 PUSH2 0x4F55 JUMP JUMPDEST SWAP1 SWAP2 SSTORE POP POP PUSH1 0xC SLOAD PUSH1 0x0 DUP2 DUP2 MSTORE PUSH1 0x15 PUSH1 0x20 MSTORE PUSH1 0x40 SWAP1 KECCAK256 PUSH1 0x1 DUP2 ADD SWAP2 SWAP1 SWAP2 SSTORE PUSH1 0x4 ADD DUP4 SWAP1 SSTORE PUSH2 0x2F24 DUP5 TIMESTAMP PUSH2 0x4F55 JUMP JUMPDEST PUSH1 0xC DUP1 SLOAD PUSH1 0x0 SWAP1 DUP2 MSTORE PUSH1 0x15 PUSH1 0x20 MSTORE PUSH1 0x40 DUP1 DUP3 KECCAK256 PUSH1 0x3 ADD SWAP4 SWAP1 SWAP4 SSTORE SWAP1 SLOAD DUP2 MSTORE KECCAK256 PUSH2 0x2F4D DUP4 DUP3 PUSH2 0x579B JUMP JUMPDEST POP PUSH1 0xC SLOAD PUSH2 0x1F26 SWAP1 PUSH2 0x2F5F TIMESTAMP DUP8 PUSH2 0x4F55 JUMP JUMPDEST DUP6 DUP6 DUP6 PUSH2 0x3AFA JUMP JUMPDEST PUSH1 0x60 DUP1 PUSH1 0x0 DUP1 PUSH2 0x2F7B DUP9 PUSH2 0xB29 DUP9 DUP11 PUSH2 0x4DE9 JUMP JUMPDEST SWAP2 POP SWAP2 POP DUP2 PUSH2 0x2FCC JUMPI PUSH1 0x40 DUP1 MLOAD PUSH1 0x0 DUP1 DUP3 MSTORE PUSH1 0x20 DUP3 ADD SWAP1 SWAP3 MSTORE SWAP1 PUSH2 0x2FAF JUMP JUMPDEST PUSH1 0x60 DUP2 MSTORE PUSH1 0x20 ADD SWAP1 PUSH1 0x1 SWAP1 SUB SWAP1 DUP2 PUSH2 0x2F9A JUMPI SWAP1 POP JUMPDEST POP PUSH1 0x40 DUP1 MLOAD PUSH1 0x0 DUP2 MSTORE PUSH1 0x20 DUP2 ADD SWAP1 SWAP2 MSTORE SWAP1 SWAP5 POP SWAP3 POP PUSH2 0x324D SWAP2 POP POP JUMP JUMPDEST PUSH1 0x0 PUSH2 0x2FD8 DUP10 DUP10 PUSH2 0x116F JUMP JUMPDEST SWAP1 SWAP4 POP SWAP1 POP DUP3 PUSH2 0x302B JUMPI PUSH1 0x40 DUP1 MLOAD PUSH1 0x0 DUP1 DUP3 MSTORE PUSH1 0x20 DUP3 ADD SWAP1 SWAP3 MSTORE SWAP1 PUSH2 0x300D JUMP JUMPDEST PUSH1 0x60 DUP2 MSTORE PUSH1 0x20 ADD SWAP1 PUSH1 0x1 SWAP1 SUB SWAP1 DUP2 PUSH2 0x2FF8 JUMPI SWAP1 POP JUMPDEST POP PUSH1 0x40 DUP1 MLOAD PUSH1 0x0 DUP2 MSTORE PUSH1 0x20 DUP2 ADD SWAP1 SWAP2 MSTORE SWAP1 SWAP6 POP SWAP4 POP PUSH2 0x324D SWAP3 POP POP POP JUMP JUMPDEST PUSH1 0x0 DUP1 PUSH1 0x0 DUP9 PUSH8 0xFFFFFFFFFFFFFFFF DUP2 GT ISZERO PUSH2 0x3049 JUMPI PUSH2 0x3049 PUSH2 0x4196 JUMP JUMPDEST PUSH1 0x40 MLOAD SWAP1 DUP1 DUP3 MSTORE DUP1 PUSH1 0x20 MUL PUSH1 0x20 ADD DUP3 ADD PUSH1 0x40 MSTORE DUP1 ISZERO PUSH2 0x3072 JUMPI DUP2 PUSH1 0x20 ADD PUSH1 0x20 DUP3 MUL DUP1 CALLDATASIZE DUP4 CALLDATACOPY ADD SWAP1 POP JUMPDEST POP SWAP1 POP JUMPDEST DUP9 DUP4 LT DUP1 ISZERO PUSH2 0x3099 JUMPI POP DUP5 DUP3 PUSH2 0x308D DUP7 PUSH1 0x1 PUSH2 0x4F55 JUMP JUMPDEST PUSH2 0x3097 SWAP2 SWAP1 PUSH2 0x4DE9 JUMP JUMPDEST GT JUMPDEST ISZERO PUSH2 0x30FD JUMPI PUSH1 0x0 PUSH2 0x30AE DUP14 PUSH2 0xA5F DUP6 DUP9 PUSH2 0x4DE9 JUMP JUMPDEST SWAP1 POP PUSH2 0x30BA DUP14 DUP3 PUSH2 0x1882 JUMP JUMPDEST PUSH2 0x30EA JUMPI DUP1 DUP3 DUP6 DUP2 MLOAD DUP2 LT PUSH2 0x30D1 JUMPI PUSH2 0x30D1 PUSH2 0x50FD JUMP JUMPDEST PUSH1 0x20 SWAP1 DUP2 MUL SWAP2 SWAP1 SWAP2 ADD ADD MSTORE DUP4 PUSH2 0x30E6 DUP2 PUSH2 0x5113 JUMP JUMPDEST SWAP5 POP POP JUMPDEST DUP3 PUSH2 0x30F4 DUP2 PUSH2 0x5113 JUMP JUMPDEST SWAP4 POP POP POP PUSH2 0x3076 JUMP JUMPDEST PUSH1 0x0 DUP4 PUSH8 0xFFFFFFFFFFFFFFFF DUP2 GT ISZERO PUSH2 0x3118 JUMPI PUSH2 0x3118 PUSH2 0x4196 JUMP JUMPDEST PUSH1 0x40 MLOAD SWAP1 DUP1 DUP3 MSTORE DUP1 PUSH1 0x20 MUL PUSH1 0x20 ADD DUP3 ADD PUSH1 0x40 MSTORE DUP1 ISZERO PUSH2 0x314B JUMPI DUP2 PUSH1 0x20 ADD JUMPDEST PUSH1 0x60 DUP2 MSTORE PUSH1 0x20 ADD SWAP1 PUSH1 0x1 SWAP1 SUB SWAP1 DUP2 PUSH2 0x3136 JUMPI SWAP1 POP JUMPDEST POP SWAP1 POP PUSH1 0x0 DUP5 PUSH8 0xFFFFFFFFFFFFFFFF DUP2 GT ISZERO PUSH2 0x3169 JUMPI PUSH2 0x3169 PUSH2 0x4196 JUMP JUMPDEST PUSH1 0x40 MLOAD SWAP1 DUP1 DUP3 MSTORE DUP1 PUSH1 0x20 MUL PUSH1 0x20 ADD DUP3 ADD PUSH1 0x40 MSTORE DUP1 ISZERO PUSH2 0x3192 JUMPI DUP2 PUSH1 0x20 ADD PUSH1 0x20 DUP3 MUL DUP1 CALLDATASIZE DUP4 CALLDATACOPY ADD SWAP1 POP JUMPDEST POP SWAP1 POP PUSH1 0x0 JUMPDEST DUP6 DUP2 LT ISZERO PUSH2 0x3240 JUMPI DUP4 DUP2 PUSH2 0x31AD PUSH1 0x1 DUP10 PUSH2 0x4DE9 JUMP JUMPDEST PUSH2 0x31B7 SWAP2 SWAP1 PUSH2 0x4DE9 JUMP JUMPDEST DUP2 MLOAD DUP2 LT PUSH2 0x31C7 JUMPI PUSH2 0x31C7 PUSH2 0x50FD JUMP JUMPDEST PUSH1 0x20 MUL PUSH1 0x20 ADD ADD MLOAD DUP3 DUP3 DUP2 MLOAD DUP2 LT PUSH2 0x31E1 JUMPI PUSH2 0x31E1 PUSH2 0x50FD JUMP JUMPDEST PUSH1 0x20 MUL PUSH1 0x20 ADD ADD DUP2 DUP2 MSTORE POP POP PUSH2 0x3210 DUP16 DUP4 DUP4 DUP2 MLOAD DUP2 LT PUSH2 0x3203 JUMPI PUSH2 0x3203 PUSH2 0x50FD JUMP JUMPDEST PUSH1 0x20 MUL PUSH1 0x20 ADD ADD MLOAD PUSH2 0x261D JUMP JUMPDEST DUP4 DUP3 DUP2 MLOAD DUP2 LT PUSH2 0x3222 JUMPI PUSH2 0x3222 PUSH2 0x50FD JUMP JUMPDEST PUSH1 0x20 MUL PUSH1 0x20 ADD ADD DUP2 SWAP1 MSTORE POP DUP1 DUP1 PUSH2 0x3238 SWAP1 PUSH2 0x5113 JUMP JUMPDEST SWAP2 POP POP PUSH2 0x3198 JUMP JUMPDEST POP SWAP1 SWAP9 POP SWAP7 POP POP POP POP POP POP POP JUMPDEST SWAP5 POP SWAP5 SWAP3 POP POP POP JUMP JUMPDEST PUSH1 0xF DUP1 SLOAD PUSH2 0x1DF7 SWAP1 PUSH2 0x5409 JUMP JUMPDEST PUSH1 0x0 DUP1 JUMPDEST PUSH1 0x3 DUP2 LT ISZERO PUSH2 0x32BF JUMPI DUP3 DUP2 PUSH1 0x3 DUP2 LT PUSH2 0x3282 JUMPI PUSH2 0x3282 PUSH2 0x50FD JUMP JUMPDEST PUSH1 0x20 MUL ADD MLOAD DUP5 DUP3 PUSH1 0x3 DUP2 LT PUSH2 0x3299 JUMPI PUSH2 0x3299 PUSH2 0x50FD JUMP JUMPDEST PUSH1 0x20 MUL ADD MLOAD EQ PUSH2 0x32AD JUMPI PUSH1 0x0 SWAP2 POP POP PUSH2 0x1912 JUMP JUMPDEST DUP1 PUSH2 0x32B7 DUP2 PUSH2 0x5113 JUMP JUMPDEST SWAP2 POP POP PUSH2 0x3267 JUMP JUMPDEST POP PUSH1 0x1 SWAP4 SWAP3 POP POP POP JUMP JUMPDEST PUSH1 0x4 SLOAD CHAINID SUB PUSH2 0x332D JUMPI PUSH1 0x0 DUP4 DUP4 PUSH1 0x40 MLOAD PUSH1 0x20 ADD PUSH2 0x32E7 SWAP3 SWAP2 SWAP1 PUSH2 0x596D JUMP JUMPDEST PUSH1 0x40 MLOAD PUSH1 0x20 DUP2 DUP4 SUB SUB DUP2 MSTORE SWAP1 PUSH1 0x40 MSTORE SWAP1 POP PUSH1 0x0 PUSH1 0xA SLOAD DUP3 PUSH1 0x40 MLOAD PUSH1 0x20 ADD PUSH2 0x330F SWAP3 SWAP2 SWAP1 PUSH2 0x53D3 JUMP JUMPDEST PUSH1 0x40 MLOAD PUSH1 0x20 DUP2 DUP4 SUB SUB DUP2 MSTORE SWAP1 PUSH1 0x40 MSTORE SWAP1 POP PUSH2 0x332A DUP2 DUP5 PUSH2 0x36D3 JUMP JUMPDEST POP POP JUMPDEST PUSH1 0x5 SLOAD CHAINID SUB PUSH2 0x2AA1 JUMPI PUSH1 0x0 DUP4 DUP4 PUSH1 0x40 MLOAD PUSH1 0x20 ADD PUSH2 0x334B SWAP3 SWAP2 SWAP1 PUSH2 0x596D JUMP JUMPDEST PUSH1 0x40 MLOAD PUSH1 0x20 DUP2 DUP4 SUB SUB DUP2 MSTORE SWAP1 PUSH1 0x40 MSTORE SWAP1 POP PUSH1 0x0 PUSH1 0xA SLOAD DUP3 PUSH1 0x40 MLOAD PUSH1 0x20 ADD PUSH2 0x3373 SWAP3 SWAP2 SWAP1 PUSH2 0x53D3 JUMP JUMPDEST PUSH1 0x40 MLOAD PUSH1 0x20 DUP2 DUP4 SUB SUB DUP2 MSTORE SWAP1 PUSH1 0x40 MSTORE SWAP1 POP PUSH2 0x1D8D DUP2 DUP5 PUSH2 0x37E5 JUMP JUMPDEST PUSH1 0x0 DUP10 DUP10 DUP10 DUP10 DUP10 DUP10 DUP10 DUP10 PUSH1 0x40 MLOAD PUSH1 0x20 ADD PUSH2 0x33AF SWAP9 SWAP8 SWAP7 SWAP6 SWAP5 SWAP4 SWAP3 SWAP2 SWAP1 PUSH2 0x59B4 JUMP JUMPDEST PUSH1 0x40 MLOAD PUSH1 0x20 DUP2 DUP4 SUB SUB DUP2 MSTORE SWAP1 PUSH1 0x40 MSTORE SWAP1 POP PUSH1 0x0 PUSH1 0x7 SLOAD DUP3 PUSH1 0x40 MLOAD PUSH1 0x20 ADD PUSH2 0x33D7 SWAP3 SWAP2 SWAP1 PUSH2 0x53D3 JUMP JUMPDEST PUSH1 0x40 MLOAD PUSH1 0x20 DUP2 DUP4 SUB SUB DUP2 MSTORE SWAP1 PUSH1 0x40 MSTORE SWAP1 POP PUSH1 0x4 SLOAD CHAINID SUB PUSH2 0x33FB JUMPI PUSH2 0x33FB DUP2 DUP5 PUSH2 0x36D3 JUMP JUMPDEST PUSH1 0x5 SLOAD CHAINID SUB PUSH2 0xE3E JUMPI PUSH2 0xE3E DUP2 DUP5 PUSH2 0x37E5 JUMP JUMPDEST PUSH1 0x0 DUP1 PUSH2 0x341D DUP4 DUP6 ADD DUP6 PUSH2 0x5A2D JUMP JUMPDEST SWAP2 POP SWAP2 POP PUSH1 0x6 SLOAD DUP3 SUB PUSH2 0x345D JUMPI PUSH1 0x0 DUP1 PUSH1 0x0 DUP1 DUP5 DUP1 PUSH1 0x20 ADD SWAP1 MLOAD DUP2 ADD SWAP1 PUSH2 0x3444 SWAP2 SWAP1 PUSH2 0x5A4F JUMP JUMPDEST SWAP4 POP SWAP4 POP SWAP4 POP SWAP4 POP PUSH2 0x3458 DUP5 DUP5 DUP5 DUP5 PUSH2 0x3B72 JUMP JUMPDEST POP POP POP POP JUMPDEST PUSH1 0x7 SLOAD DUP3 SUB PUSH2 0x34AF JUMPI PUSH1 0x0 DUP1 PUSH1 0x0 DUP1 PUSH1 0x0 DUP1 PUSH1 0x0 DUP1 DUP9 DUP1 PUSH1 0x20 ADD SWAP1 MLOAD DUP2 ADD SWAP1 PUSH2 0x3486 SWAP2 SWAP1 PUSH2 0x5B99 JUMP JUMPDEST SWAP8 POP SWAP8 POP SWAP8 POP SWAP8 POP SWAP8 POP SWAP8 POP SWAP8 POP SWAP8 POP PUSH2 0x34A6 DUP9 DUP9 DUP9 DUP9 DUP9 DUP9 DUP9 DUP9 PUSH2 0x3C63 JUMP JUMPDEST POP POP POP POP POP POP POP POP JUMPDEST PUSH1 0x8 SLOAD DUP3 SUB PUSH2 0x3514 JUMPI PUSH1 0x0 DUP1 PUSH1 0x0 DUP1 DUP5 DUP1 PUSH1 0x20 ADD SWAP1 MLOAD DUP2 ADD SWAP1 PUSH2 0x34D2 SWAP2 SWAP1 PUSH2 0x5C4E JUMP JUMPDEST PUSH1 0xC DUP5 SWAP1 SSTORE PUSH1 0x0 DUP5 DUP2 MSTORE PUSH1 0x15 PUSH1 0x20 MSTORE PUSH1 0x40 SWAP1 KECCAK256 PUSH1 0x1 DUP2 ADD DUP6 SWAP1 SSTORE PUSH1 0x4 DUP2 ADD DUP4 SWAP1 SSTORE PUSH1 0x3 DUP2 ADD DUP5 SWAP1 SSTORE SWAP4 SWAP8 POP SWAP2 SWAP6 POP SWAP4 POP SWAP2 POP PUSH2 0x350E DUP3 DUP3 PUSH2 0x579B JUMP JUMPDEST POP POP POP POP POP JUMPDEST PUSH1 0x9 SLOAD DUP3 SUB PUSH2 0x3569 JUMPI PUSH1 0x0 DUP1 DUP3 DUP1 PUSH1 0x20 ADD SWAP1 MLOAD DUP2 ADD SWAP1 PUSH2 0x3534 SWAP2 SWAP1 PUSH2 0x5CC1 JUMP JUMPDEST PUSH1 0x0 DUP3 DUP2 MSTORE PUSH1 0x15 PUSH1 0x20 MSTORE PUSH1 0x40 SWAP1 KECCAK256 PUSH1 0x8 DUP2 ADD DUP1 SLOAD PUSH1 0xFF NOT AND PUSH1 0x1 OR SWAP1 SSTORE SWAP2 SWAP4 POP SWAP2 POP PUSH2 0x3565 SWAP1 PUSH1 0x5 ADD DUP3 PUSH1 0x3 PUSH2 0x3F4C JUMP JUMPDEST POP POP POP JUMPDEST PUSH1 0xA SLOAD DUP3 SUB PUSH2 0x35F2 JUMPI PUSH1 0x0 DUP1 DUP3 DUP1 PUSH1 0x20 ADD SWAP1 MLOAD DUP2 ADD SWAP1 PUSH2 0x3589 SWAP2 SWAP1 PUSH2 0x5CF4 JUMP JUMPDEST PUSH1 0x1 PUSH1 0x1 PUSH1 0xA0 SHL SUB DUP2 AND PUSH1 0x0 SWAP1 DUP2 MSTORE PUSH1 0x13 PUSH1 0x20 MSTORE PUSH1 0x40 DUP2 KECCAK256 PUSH1 0x5 ADD DUP1 SLOAD SWAP4 SWAP6 POP SWAP2 SWAP4 POP DUP5 SWAP3 PUSH2 0x35B9 SWAP1 DUP5 SWAP1 PUSH2 0x4F55 JUMP JUMPDEST SWAP1 SWAP2 SSTORE POP POP PUSH1 0x1 PUSH1 0x1 PUSH1 0xA0 SHL SUB DUP2 AND PUSH1 0x0 SWAP1 DUP2 MSTORE PUSH1 0x13 PUSH1 0x20 MSTORE PUSH1 0x40 DUP2 KECCAK256 PUSH1 0x2 ADD DUP1 SLOAD PUSH1 0x1 SWAP3 SWAP1 PUSH2 0x35EA SWAP1 DUP5 SWAP1 PUSH2 0x4F55 JUMP JUMPDEST SWAP1 SWAP2 SSTORE POP POP POP POP JUMPDEST PUSH1 0xB SLOAD DUP3 SUB PUSH2 0x1A0F JUMPI PUSH1 0x0 DUP1 PUSH1 0x0 DUP4 DUP1 PUSH1 0x20 ADD SWAP1 MLOAD DUP2 ADD SWAP1 PUSH2 0x3614 SWAP2 SWAP1 PUSH2 0x5D27 JUMP JUMPDEST SWAP3 POP SWAP3 POP SWAP3 POP PUSH1 0x4 SLOAD DUP4 SUB PUSH2 0x3654 JUMPI PUSH1 0x1 PUSH1 0x1 PUSH1 0xA0 SHL SUB DUP2 AND PUSH1 0x0 SWAP1 DUP2 MSTORE PUSH1 0x13 PUSH1 0x20 MSTORE PUSH1 0x40 DUP2 KECCAK256 PUSH1 0x3 ADD DUP1 SLOAD DUP5 SWAP3 SWAP1 PUSH2 0x364E SWAP1 DUP5 SWAP1 PUSH2 0x4DE9 JUMP JUMPDEST SWAP1 SWAP2 SSTORE POP POP JUMPDEST PUSH1 0x5 SLOAD DUP4 SUB PUSH2 0x368E JUMPI PUSH1 0x1 PUSH1 0x1 PUSH1 0xA0 SHL SUB DUP2 AND PUSH1 0x0 SWAP1 DUP2 MSTORE PUSH1 0x13 PUSH1 0x20 MSTORE PUSH1 0x40 DUP2 KECCAK256 PUSH1 0x4 ADD DUP1 SLOAD DUP5 SWAP3 SWAP1 PUSH2 0x3688 SWAP1 DUP5 SWAP1 PUSH2 0x4DE9 JUMP JUMPDEST SWAP1 SWAP2 SSTORE POP POP JUMPDEST DUP3 PUSH1 0x3 SUB PUSH2 0xE3E JUMPI PUSH1 0x1 PUSH1 0x1 PUSH1 0xA0 SHL SUB DUP2 AND PUSH1 0x0 SWAP1 DUP2 MSTORE PUSH1 0x13 PUSH1 0x20 MSTORE PUSH1 0x40 DUP2 KECCAK256 PUSH1 0x5 ADD DUP1 SLOAD DUP5 SWAP3 SWAP1 PUSH2 0x36C1 SWAP1 DUP5 SWAP1 PUSH2 0x4DE9 JUMP JUMPDEST SWAP1 SWAP2 SSTORE POP POP POP POP POP POP POP POP POP POP POP POP POP JUMP JUMPDEST PUSH1 0x40 MLOAD PUSH4 0xC93E3BB PUSH1 0xE0 SHL DUP2 MSTORE PUSH1 0x1 PUSH1 0x1 PUSH1 0xA0 SHL SUB PUSH32 0x0 AND SWAP1 PUSH4 0xC93E3BB SWAP1 DUP4 SWAP1 PUSH2 0x372B SWAP1 ADDRESS SWAP1 PUSH1 0x10 SWAP1 PUSH1 0x12 SWAP1 DUP10 SWAP1 DUP5 SWAP1 PUSH1 0x4 ADD PUSH2 0x5DE7 JUMP JUMPDEST PUSH1 0x0 PUSH1 0x40 MLOAD DUP1 DUP4 SUB DUP2 DUP6 DUP9 DUP1 EXTCODESIZE ISZERO DUP1 ISZERO PUSH2 0x3744 JUMPI PUSH1 0x0 DUP1 REVERT JUMPDEST POP GAS CALL ISZERO DUP1 ISZERO PUSH2 0x3758 JUMPI RETURNDATASIZE PUSH1 0x0 DUP1 RETURNDATACOPY RETURNDATASIZE PUSH1 0x0 REVERT JUMPDEST POP POP PUSH1 0x40 MLOAD PUSH4 0x1C92115F PUSH1 0xE0 SHL DUP2 MSTORE PUSH1 0x1 PUSH1 0x1 PUSH1 0xA0 SHL SUB PUSH32 0x0 AND SWAP4 POP PUSH4 0x1C92115F SWAP3 POP PUSH2 0x37AF SWAP2 POP PUSH1 0x10 SWAP1 PUSH1 0x12 SWAP1 DUP8 SWAP1 PUSH1 0x4 ADD PUSH2 0x5E48 JUMP JUMPDEST PUSH1 0x0 PUSH1 0x40 MLOAD DUP1 DUP4 SUB DUP2 PUSH1 0x0 DUP8 DUP1 EXTCODESIZE ISZERO DUP1 ISZERO PUSH2 0x37C9 JUMPI PUSH1 0x0 DUP1 REVERT JUMPDEST POP GAS CALL ISZERO DUP1 ISZERO PUSH2 0x37DD JUMPI RETURNDATASIZE PUSH1 0x0 DUP1 RETURNDATACOPY RETURNDATASIZE PUSH1 0x0 REVERT JUMPDEST POP POP POP POP POP POP JUMP JUMPDEST PUSH1 0x40 MLOAD PUSH4 0xC93E3BB PUSH1 0xE0 SHL DUP2 MSTORE PUSH1 0x1 PUSH1 0x1 PUSH1 0xA0 SHL SUB PUSH32 0x0 AND SWAP1 PUSH4 0xC93E3BB SWAP1 DUP4 SWAP1 PUSH2 0x383D SWAP1 ADDRESS SWAP1 PUSH1 0xF SWAP1 PUSH1 0x11 SWAP1 DUP10 SWAP1 DUP5 SWAP1 PUSH1 0x4 ADD PUSH2 0x5DE7 JUMP JUMPDEST PUSH1 0x0 PUSH1 0x40 MLOAD DUP1 DUP4 SUB DUP2 DUP6 DUP9 DUP1 EXTCODESIZE ISZERO DUP1 ISZERO PUSH2 0x3856 JUMPI PUSH1 0x0 DUP1 REVERT JUMPDEST POP GAS CALL ISZERO DUP1 ISZERO PUSH2 0x386A JUMPI RETURNDATASIZE PUSH1 0x0 DUP1 RETURNDATACOPY RETURNDATASIZE PUSH1 0x0 REVERT JUMPDEST POP POP PUSH1 0x40 MLOAD PUSH4 0x1C92115F PUSH1 0xE0 SHL DUP2 MSTORE PUSH1 0x1 PUSH1 0x1 PUSH1 0xA0 SHL SUB PUSH32 0x0 AND SWAP4 POP PUSH4 0x1C92115F SWAP3 POP PUSH2 0x37AF SWAP2 POP PUSH1 0xF SWAP1 PUSH1 0x11 SWAP1 DUP8 SWAP1 PUSH1 0x4 ADD PUSH2 0x5E48 JUMP JUMPDEST PUSH1 0x4 SLOAD CHAINID SUB PUSH2 0x3998 JUMPI DUP3 ISZERO PUSH2 0x3906 JUMPI PUSH1 0x1 PUSH1 0x1 PUSH1 0xA0 SHL SUB DUP3 AND PUSH1 0x0 SWAP1 DUP2 MSTORE PUSH1 0x13 PUSH1 0x20 MSTORE PUSH1 0x40 DUP2 KECCAK256 PUSH1 0x3 ADD DUP1 SLOAD DUP7 SWAP3 SWAP1 PUSH2 0x38FB SWAP1 DUP5 SWAP1 PUSH2 0x4F55 JUMP JUMPDEST SWAP1 SWAP2 SSTORE POP PUSH2 0x3937 SWAP1 POP JUMP JUMPDEST PUSH1 0x1 PUSH1 0x1 PUSH1 0xA0 SHL SUB DUP3 AND PUSH1 0x0 SWAP1 DUP2 MSTORE PUSH1 0x13 PUSH1 0x20 MSTORE PUSH1 0x40 DUP2 KECCAK256 PUSH1 0x5 ADD DUP1 SLOAD DUP7 SWAP3 SWAP1 PUSH2 0x3931 SWAP1 DUP5 SWAP1 PUSH2 0x4F55 JUMP JUMPDEST SWAP1 SWAP2 SSTORE POP POP JUMPDEST PUSH1 0x0 PUSH1 0x4 SLOAD DUP5 DUP7 DUP6 PUSH1 0x40 MLOAD PUSH1 0x20 ADD PUSH2 0x3952 SWAP5 SWAP4 SWAP3 SWAP2 SWAP1 PUSH2 0x5E81 JUMP JUMPDEST PUSH1 0x40 MLOAD PUSH1 0x20 DUP2 DUP4 SUB SUB DUP2 MSTORE SWAP1 PUSH1 0x40 MSTORE SWAP1 POP PUSH1 0x0 PUSH1 0x6 SLOAD DUP3 PUSH1 0x40 MLOAD PUSH1 0x20 ADD PUSH2 0x397A SWAP3 SWAP2 SWAP1 PUSH2 0x53D3 JUMP JUMPDEST PUSH1 0x40 MLOAD PUSH1 0x20 DUP2 DUP4 SUB SUB DUP2 MSTORE SWAP1 PUSH1 0x40 MSTORE SWAP1 POP PUSH2 0x3995 DUP2 DUP5 PUSH2 0x36D3 JUMP JUMPDEST POP POP JUMPDEST PUSH1 0x5 SLOAD CHAINID SUB PUSH2 0x1F26 JUMPI DUP3 ISZERO PUSH2 0x39DD JUMPI PUSH1 0x1 PUSH1 0x1 PUSH1 0xA0 SHL SUB DUP3 AND PUSH1 0x0 SWAP1 DUP2 MSTORE PUSH1 0x13 PUSH1 0x20 MSTORE PUSH1 0x40 DUP2 KECCAK256 PUSH1 0x4 ADD DUP1 SLOAD DUP7 SWAP3 SWAP1 PUSH2 0x39D2 SWAP1 DUP5 SWAP1 PUSH2 0x4F55 JUMP JUMPDEST SWAP1 SWAP2 SSTORE POP PUSH2 0x3A0E SWAP1 POP JUMP JUMPDEST PUSH1 0x1 PUSH1 0x1 PUSH1 0xA0 SHL SUB DUP3 AND PUSH1 0x0 SWAP1 DUP2 MSTORE PUSH1 0x13 PUSH1 0x20 MSTORE PUSH1 0x40 DUP2 KECCAK256 PUSH1 0x5 ADD DUP1 SLOAD DUP7 SWAP3 SWAP1 PUSH2 0x3A08 SWAP1 DUP5 SWAP1 PUSH2 0x4F55 JUMP JUMPDEST SWAP1 SWAP2 SSTORE POP POP JUMPDEST PUSH1 0x0 PUSH1 0x4 SLOAD DUP5 DUP7 DUP6 PUSH1 0x40 MLOAD PUSH1 0x20 ADD PUSH2 0x3A29 SWAP5 SWAP4 SWAP3 SWAP2 SWAP1 PUSH2 0x5E81 JUMP JUMPDEST PUSH1 0x40 MLOAD PUSH1 0x20 DUP2 DUP4 SUB SUB DUP2 MSTORE SWAP1 PUSH1 0x40 MSTORE SWAP1 POP PUSH1 0x0 PUSH1 0x6 SLOAD DUP3 PUSH1 0x40 MLOAD PUSH1 0x20 ADD PUSH2 0x3A51 SWAP3 SWAP2 SWAP1 PUSH2 0x53D3 JUMP JUMPDEST PUSH1 0x40 MLOAD PUSH1 0x20 DUP2 DUP4 SUB SUB DUP2 MSTORE SWAP1 PUSH1 0x40 MSTORE SWAP1 POP PUSH2 0x37DD DUP2 DUP5 PUSH2 0x37E5 JUMP JUMPDEST PUSH1 0x0 DUP4 DUP4 PUSH1 0x40 MLOAD PUSH1 0x20 ADD PUSH2 0x3A81 SWAP3 SWAP2 SWAP1 PUSH2 0x5EB6 JUMP JUMPDEST PUSH1 0x40 MLOAD PUSH1 0x20 DUP2 DUP4 SUB SUB DUP2 MSTORE SWAP1 PUSH1 0x40 MSTORE SWAP1 POP PUSH1 0x0 PUSH1 0x9 SLOAD DUP3 PUSH1 0x40 MLOAD PUSH1 0x20 ADD PUSH2 0x1D56 SWAP3 SWAP2 SWAP1 PUSH2 0x53D3 JUMP JUMPDEST PUSH1 0x0 DUP1 JUMPDEST DUP3 MLOAD DUP2 LT ISZERO PUSH2 0x128C JUMPI DUP3 DUP2 DUP2 MLOAD DUP2 LT PUSH2 0x3AC8 JUMPI PUSH2 0x3AC8 PUSH2 0x50FD JUMP JUMPDEST ADD PUSH1 0x20 ADD MLOAD PUSH1 0xF8 SHR PUSH2 0x3ADC DUP4 PUSH2 0x100 PUSH2 0x4F36 JUMP JUMPDEST PUSH2 0x3AE6 SWAP2 SWAP1 PUSH2 0x4F55 JUMP JUMPDEST SWAP2 POP DUP1 PUSH2 0x3AF2 DUP2 PUSH2 0x5113 JUMP JUMPDEST SWAP2 POP POP PUSH2 0x3AAD JUMP JUMPDEST PUSH1 0x0 DUP6 DUP6 DUP6 DUP6 PUSH1 0x40 MLOAD PUSH1 0x20 ADD PUSH2 0x3B13 SWAP5 SWAP4 SWAP3 SWAP2 SWAP1 PUSH2 0x5ED1 JUMP JUMPDEST PUSH1 0x40 MLOAD PUSH1 0x20 DUP2 DUP4 SUB SUB DUP2 MSTORE SWAP1 PUSH1 0x40 MSTORE SWAP1 POP PUSH1 0x0 PUSH1 0x8 SLOAD DUP3 PUSH1 0x40 MLOAD PUSH1 0x20 ADD PUSH2 0x3B3B SWAP3 SWAP2 SWAP1 PUSH2 0x53D3 JUMP JUMPDEST PUSH1 0x40 MLOAD PUSH1 0x20 DUP2 DUP4 SUB SUB DUP2 MSTORE SWAP1 PUSH1 0x40 MSTORE SWAP1 POP PUSH1 0x4 SLOAD CHAINID SUB PUSH2 0x3B5F JUMPI PUSH2 0x3B5F DUP2 DUP5 PUSH2 0x36D3 JUMP JUMPDEST PUSH1 0x5 SLOAD CHAINID SUB PUSH2 0x1166 JUMPI PUSH2 0x1166 DUP2 DUP5 PUSH2 0x37E5 JUMP JUMPDEST PUSH1 0x4 SLOAD DUP5 SUB PUSH2 0x3BE8 JUMPI DUP3 ISZERO PUSH2 0x3BB7 JUMPI PUSH1 0x1 PUSH1 0x1 PUSH1 0xA0 SHL SUB DUP2 AND PUSH1 0x0 SWAP1 DUP2 MSTORE PUSH1 0x13 PUSH1 0x20 MSTORE PUSH1 0x40 DUP2 KECCAK256 PUSH1 0x3 ADD DUP1 SLOAD DUP5 SWAP3 SWAP1 PUSH2 0x3BAC SWAP1 DUP5 SWAP1 PUSH2 0x4F55 JUMP JUMPDEST SWAP1 SWAP2 SSTORE POP PUSH2 0x3BE8 SWAP1 POP JUMP JUMPDEST PUSH1 0x1 PUSH1 0x1 PUSH1 0xA0 SHL SUB DUP2 AND PUSH1 0x0 SWAP1 DUP2 MSTORE PUSH1 0x13 PUSH1 0x20 MSTORE PUSH1 0x40 DUP2 KECCAK256 PUSH1 0x5 ADD DUP1 SLOAD DUP5 SWAP3 SWAP1 PUSH2 0x3BE2 SWAP1 DUP5 SWAP1 PUSH2 0x4F55 JUMP JUMPDEST SWAP1 SWAP2 SSTORE POP POP JUMPDEST PUSH1 0x5 SLOAD DUP5 SUB PUSH2 0x1F26 JUMPI DUP3 ISZERO PUSH2 0x3C2D JUMPI PUSH1 0x1 PUSH1 0x1 PUSH1 0xA0 SHL SUB DUP2 AND PUSH1 0x0 SWAP1 DUP2 MSTORE PUSH1 0x13 PUSH1 0x20 MSTORE PUSH1 0x40 DUP2 KECCAK256 PUSH1 0x4 ADD DUP1 SLOAD DUP5 SWAP3 SWAP1 PUSH2 0x3C22 SWAP1 DUP5 SWAP1 PUSH2 0x4F55 JUMP JUMPDEST SWAP1 SWAP2 SSTORE POP PUSH2 0x1F26 SWAP1 POP JUMP JUMPDEST PUSH1 0x1 PUSH1 0x1 PUSH1 0xA0 SHL SUB DUP2 AND PUSH1 0x0 SWAP1 DUP2 MSTORE PUSH1 0x13 PUSH1 0x20 MSTORE PUSH1 0x40 DUP2 KECCAK256 PUSH1 0x5 ADD DUP1 SLOAD DUP5 SWAP3 SWAP1 PUSH2 0x3C58 SWAP1 DUP5 SWAP1 PUSH2 0x4F55 JUMP JUMPDEST SWAP1 SWAP2 SSTORE POP POP POP POP POP POP JUMP JUMPDEST DUP4 ISZERO PUSH2 0x3D2E JUMPI PUSH1 0x4 SLOAD DUP6 SUB PUSH2 0x3CC9 JUMPI PUSH1 0x1 PUSH1 0x1 PUSH1 0xA0 SHL SUB DUP8 AND PUSH1 0x0 SWAP1 DUP2 MSTORE PUSH1 0x13 PUSH1 0x20 MSTORE PUSH1 0x40 DUP2 KECCAK256 PUSH1 0x3 ADD DUP1 SLOAD DUP6 SWAP3 SWAP1 PUSH2 0x3C9D SWAP1 DUP5 SWAP1 PUSH2 0x4DE9 JUMP JUMPDEST SWAP1 SWAP2 SSTORE POP POP PUSH1 0x0 DUP3 DUP2 MSTORE PUSH1 0x15 PUSH1 0x20 MSTORE PUSH1 0x40 DUP2 KECCAK256 PUSH1 0x9 ADD DUP1 SLOAD DUP6 SWAP3 SWAP1 PUSH2 0x3CC3 SWAP1 DUP5 SWAP1 PUSH2 0x4F55 JUMP JUMPDEST SWAP1 SWAP2 SSTORE POP POP JUMPDEST PUSH1 0x5 SLOAD DUP6 SUB PUSH2 0x3D29 JUMPI PUSH1 0x1 PUSH1 0x1 PUSH1 0xA0 SHL SUB DUP8 AND PUSH1 0x0 SWAP1 DUP2 MSTORE PUSH1 0x13 PUSH1 0x20 MSTORE PUSH1 0x40 DUP2 KECCAK256 PUSH1 0x4 ADD DUP1 SLOAD DUP6 SWAP3 SWAP1 PUSH2 0x3CFD SWAP1 DUP5 SWAP1 PUSH2 0x4DE9 JUMP JUMPDEST SWAP1 SWAP2 SSTORE POP POP PUSH1 0x0 DUP3 DUP2 MSTORE PUSH1 0x15 PUSH1 0x20 MSTORE PUSH1 0x40 DUP2 KECCAK256 PUSH1 0xA ADD DUP1 SLOAD DUP6 SWAP3 SWAP1 PUSH2 0x3D23 SWAP1 DUP5 SWAP1 PUSH2 0x4F55 JUMP JUMPDEST SWAP1 SWAP2 SSTORE POP POP JUMPDEST PUSH2 0x3D85 JUMP JUMPDEST PUSH1 0x1 PUSH1 0x1 PUSH1 0xA0 SHL SUB DUP8 AND PUSH1 0x0 SWAP1 DUP2 MSTORE PUSH1 0x13 PUSH1 0x20 MSTORE PUSH1 0x40 DUP2 KECCAK256 PUSH1 0x5 ADD DUP1 SLOAD DUP6 SWAP3 SWAP1 PUSH2 0x3D59 SWAP1 DUP5 SWAP1 PUSH2 0x4DE9 JUMP JUMPDEST SWAP1 SWAP2 SSTORE POP POP PUSH1 0x0 DUP3 DUP2 MSTORE PUSH1 0x15 PUSH1 0x20 MSTORE PUSH1 0x40 DUP2 KECCAK256 PUSH1 0xB ADD DUP1 SLOAD DUP6 SWAP3 SWAP1 PUSH2 0x3D7F SWAP1 DUP5 SWAP1 PUSH2 0x4F55 JUMP JUMPDEST SWAP1 SWAP2 SSTORE POP POP JUMPDEST PUSH1 0x0 DUP3 DUP2 MSTORE PUSH1 0x15 PUSH1 0x20 MSTORE PUSH1 0x40 DUP2 KECCAK256 PUSH1 0x2 ADD DUP1 SLOAD PUSH1 0x1 SWAP3 SWAP1 PUSH2 0x3DA7 SWAP1 DUP5 SWAP1 PUSH2 0x4F55 JUMP JUMPDEST SWAP1 SWAP2 SSTORE POP POP PUSH1 0x40 DUP1 MLOAD PUSH1 0xA0 DUP2 ADD DUP3 MSTORE PUSH1 0x1 PUSH1 0x1 PUSH1 0xA0 SHL SUB DUP10 DUP2 AND DUP3 MSTORE PUSH1 0x20 DUP1 DUP4 ADD DUP13 DUP2 MSTORE DUP4 DUP6 ADD DUP12 DUP2 MSTORE PUSH1 0x0 PUSH1 0x60 DUP7 ADD DUP2 SWAP1 MSTORE PUSH1 0x80 DUP7 ADD DUP13 SWAP1 MSTORE DUP9 DUP2 MSTORE PUSH1 0x14 DUP5 MSTORE DUP7 DUP2 KECCAK256 DUP16 DUP3 MSTORE SWAP1 SWAP4 MSTORE SWAP5 SWAP1 SWAP2 KECCAK256 DUP4 MLOAD DUP2 SLOAD PUSH1 0x1 PUSH1 0x1 PUSH1 0xA0 SHL SUB NOT AND SWAP4 AND SWAP3 SWAP1 SWAP3 OR DUP3 SSTORE MLOAD PUSH1 0x1 DUP3 ADD SSTORE SWAP2 MLOAD SWAP1 SWAP2 SWAP1 PUSH2 0x3E26 SWAP1 PUSH1 0x2 DUP4 ADD SWAP1 PUSH1 0x3 PUSH2 0x3F4C JUMP JUMPDEST POP PUSH1 0x60 DUP3 ADD MLOAD PUSH1 0x5 DUP3 ADD DUP1 SLOAD PUSH1 0xFF NOT AND SWAP2 ISZERO ISZERO SWAP2 SWAP1 SWAP2 OR SWAP1 SSTORE PUSH1 0x80 SWAP1 SWAP2 ADD MLOAD PUSH1 0x6 SWAP1 SWAP2 ADD SSTORE PUSH1 0x1 PUSH1 0x1 PUSH1 0xA0 SHL SUB DUP8 AND PUSH1 0x0 SWAP1 DUP2 MSTORE PUSH1 0x13 PUSH1 0x20 MSTORE PUSH1 0x40 DUP2 KECCAK256 PUSH1 0x1 SWAP1 DUP2 ADD DUP1 SLOAD SWAP2 SWAP3 SWAP1 SWAP2 PUSH2 0x3E79 SWAP1 DUP5 SWAP1 PUSH2 0x4F55 JUMP JUMPDEST SWAP1 SWAP2 SSTORE POP POP PUSH1 0x0 DUP3 DUP2 MSTORE PUSH1 0x17 PUSH1 0x20 SWAP1 DUP2 MSTORE PUSH1 0x40 DUP1 DUP4 KECCAK256 DUP1 SLOAD PUSH1 0x1 DUP1 DUP3 ADD DUP4 SSTORE SWAP2 DUP6 MSTORE SWAP4 DUP4 SWAP1 KECCAK256 DUP6 MLOAD PUSH1 0x7 SWAP1 SWAP6 MUL ADD DUP1 SLOAD PUSH1 0x1 PUSH1 0x1 PUSH1 0xA0 SHL SUB NOT AND PUSH1 0x1 PUSH1 0x1 PUSH1 0xA0 SHL SUB SWAP1 SWAP6 AND SWAP5 SWAP1 SWAP5 OR DUP5 SSTORE SWAP2 DUP5 ADD MLOAD SWAP2 DUP4 ADD SWAP2 SWAP1 SWAP2 SSTORE DUP3 ADD MLOAD DUP3 SWAP2 SWAP1 PUSH2 0x3EE5 SWAP1 PUSH1 0x2 DUP4 ADD SWAP1 PUSH1 0x3 PUSH2 0x3F4C JUMP JUMPDEST POP PUSH1 0x60 DUP3 ADD MLOAD PUSH1 0x5 DUP3 ADD DUP1 SLOAD PUSH1 0xFF NOT AND SWAP2 ISZERO ISZERO SWAP2 SWAP1 SWAP2 OR SWAP1 SSTORE PUSH1 0x80 SWAP1 SWAP2 ADD MLOAD PUSH1 0x6 SWAP1 SWAP2 ADD SSTORE PUSH1 0x0 DUP3 DUP2 MSTORE PUSH1 0x16 PUSH1 0x20 SWAP1 DUP2 MSTORE PUSH1 0x40 DUP1 DUP4 KECCAK256 PUSH1 0x1 PUSH1 0x1 PUSH1 0xA0 SHL SUB DUP12 AND DUP5 MSTORE SWAP1 SWAP2 MSTORE DUP2 KECCAK256 DUP1 SLOAD PUSH1 0x1 SWAP3 SWAP1 PUSH2 0x3F3D SWAP1 DUP5 SWAP1 PUSH2 0x4F55 JUMP JUMPDEST SWAP1 SWAP2 SSTORE POP POP POP POP POP POP POP POP POP POP JUMP JUMPDEST DUP3 PUSH1 0x3 DUP2 ADD SWAP3 DUP3 ISZERO PUSH2 0x3F7A JUMPI SWAP2 PUSH1 0x20 MUL DUP3 ADD JUMPDEST DUP3 DUP2 GT ISZERO PUSH2 0x3F7A JUMPI DUP3 MLOAD DUP3 SSTORE SWAP2 PUSH1 0x20 ADD SWAP2 SWAP1 PUSH1 0x1 ADD SWAP1 PUSH2 0x3F5F JUMP JUMPDEST POP PUSH2 0x3F86 SWAP3 SWAP2 POP PUSH2 0x40A3 JUMP JUMPDEST POP SWAP1 JUMP JUMPDEST DUP3 PUSH1 0x3 DUP2 ADD SWAP3 DUP3 ISZERO PUSH2 0x3F7A JUMPI SWAP2 DUP3 ADD JUMPDEST DUP3 DUP2 GT ISZERO PUSH2 0x3F7A JUMPI DUP3 SLOAD DUP3 SSTORE SWAP2 PUSH1 0x1 ADD SWAP2 SWAP1 PUSH1 0x1 ADD SWAP1 PUSH2 0x3F9A JUMP JUMPDEST PUSH1 0x40 MLOAD DUP1 PUSH2 0x100 ADD PUSH1 0x40 MSTORE DUP1 PUSH1 0x60 DUP2 MSTORE PUSH1 0x20 ADD PUSH1 0x0 DUP2 MSTORE PUSH1 0x20 ADD PUSH1 0x0 DUP2 MSTORE PUSH1 0x20 ADD PUSH1 0x0 DUP2 MSTORE PUSH1 0x20 ADD PUSH1 0x0 DUP2 MSTORE PUSH1 0x20 ADD PUSH2 0x3FEC PUSH2 0x40B8 JUMP JUMPDEST DUP2 MSTORE PUSH1 0x20 ADD PUSH1 0x0 ISZERO ISZERO DUP2 MSTORE PUSH1 0x20 ADD PUSH2 0x401E PUSH1 0x40 MLOAD DUP1 PUSH1 0x60 ADD PUSH1 0x40 MSTORE DUP1 PUSH1 0x0 DUP2 MSTORE PUSH1 0x20 ADD PUSH1 0x0 DUP2 MSTORE PUSH1 0x20 ADD PUSH1 0x0 DUP2 MSTORE POP SWAP1 JUMP JUMPDEST SWAP1 MSTORE SWAP1 JUMP JUMPDEST PUSH1 0x40 DUP1 MLOAD PUSH1 0xA0 DUP2 ADD DUP3 MSTORE PUSH1 0x0 DUP1 DUP3 MSTORE PUSH1 0x20 DUP3 ADD MSTORE SWAP1 DUP2 ADD PUSH2 0x4042 PUSH2 0x40B8 JUMP JUMPDEST DUP2 MSTORE PUSH1 0x0 PUSH1 0x20 DUP3 ADD DUP2 SWAP1 MSTORE PUSH1 0x40 SWAP1 SWAP2 ADD MSTORE SWAP1 JUMP JUMPDEST PUSH1 0x40 MLOAD DUP1 PUSH1 0x80 ADD PUSH1 0x40 MSTORE DUP1 PUSH1 0x0 PUSH1 0x1 PUSH1 0x1 PUSH1 0xA0 SHL SUB AND DUP2 MSTORE PUSH1 0x20 ADD PUSH1 0x0 DUP2 MSTORE PUSH1 0x20 ADD PUSH1 0x0 DUP2 MSTORE PUSH1 0x20 ADD PUSH2 0x401E PUSH1 0x40 MLOAD DUP1 PUSH1 0x60 ADD PUSH1 0x40 MSTORE DUP1 PUSH1 0x0 DUP2 MSTORE PUSH1 0x20 ADD PUSH1 0x0 DUP2 MSTORE PUSH1 0x20 ADD PUSH1 0x0 DUP2 MSTORE POP SWAP1 JUMP JUMPDEST JUMPDEST DUP1 DUP3 GT ISZERO PUSH2 0x3F86 JUMPI PUSH1 0x0 DUP2 SSTORE PUSH1 0x1 ADD PUSH2 0x40A4 JUMP JUMPDEST PUSH1 0x40 MLOAD DUP1 PUSH1 0x60 ADD PUSH1 0x40 MSTORE DUP1 PUSH1 0x3 SWAP1 PUSH1 0x20 DUP3 MUL DUP1 CALLDATASIZE DUP4 CALLDATACOPY POP SWAP2 SWAP3 SWAP2 POP POP JUMP JUMPDEST DUP1 JUMPDEST DUP2 EQ PUSH2 0x40E3 JUMPI PUSH1 0x0 DUP1 REVERT JUMPDEST POP JUMP JUMPDEST DUP1 CALLDATALOAD PUSH2 0x1912 DUP2 PUSH2 0x40D6 JUMP JUMPDEST PUSH1 0x0 PUSH1 0x20 DUP3 DUP5 SUB SLT ISZERO PUSH2 0x4106 JUMPI PUSH2 0x4106 PUSH1 0x0 DUP1 REVERT JUMPDEST PUSH1 0x0 PUSH2 0x4112 DUP5 DUP5 PUSH2 0x40E6 JUMP JUMPDEST SWAP5 SWAP4 POP POP POP POP JUMP JUMPDEST DUP1 ISZERO ISZERO JUMPDEST DUP3 MSTORE POP POP JUMP JUMPDEST PUSH1 0x20 DUP2 ADD PUSH2 0x1912 DUP3 DUP5 PUSH2 0x411A JUMP JUMPDEST PUSH1 0x0 PUSH2 0x1912 PUSH1 0x1 PUSH1 0x1 PUSH1 0xA0 SHL SUB DUP4 AND PUSH2 0x4149 JUMP JUMPDEST SWAP1 JUMP JUMPDEST PUSH1 0x1 PUSH1 0x1 PUSH1 0xA0 SHL SUB AND SWAP1 JUMP JUMPDEST PUSH1 0x0 PUSH2 0x1912 DUP3 PUSH2 0x4132 JUMP JUMPDEST PUSH1 0x0 PUSH2 0x1912 DUP3 PUSH2 0x4155 JUMP JUMPDEST PUSH2 0x411E DUP2 PUSH2 0x4160 JUMP JUMPDEST PUSH1 0x20 DUP2 ADD PUSH2 0x1912 DUP3 DUP5 PUSH2 0x416B JUMP JUMPDEST DUP1 PUSH2 0x411E JUMP JUMPDEST PUSH1 0x20 DUP2 ADD PUSH2 0x1912 DUP3 DUP5 PUSH2 0x4182 JUMP JUMPDEST PUSH4 0x4E487B71 PUSH1 0xE0 SHL PUSH1 0x0 MSTORE PUSH1 0x41 PUSH1 0x4 MSTORE PUSH1 0x24 PUSH1 0x0 REVERT JUMPDEST PUSH1 0x1F NOT PUSH1 0x1F DUP4 ADD AND DUP2 ADD DUP2 DUP2 LT PUSH8 0xFFFFFFFFFFFFFFFF DUP3 GT OR ISZERO PUSH2 0x41D2 JUMPI PUSH2 0x41D2 PUSH2 0x4196 JUMP JUMPDEST PUSH1 0x40 MSTORE POP POP JUMP JUMPDEST PUSH1 0x0 PUSH2 0x41E4 PUSH1 0x40 MLOAD SWAP1 JUMP JUMPDEST SWAP1 POP PUSH2 0x41F0 DUP3 DUP3 PUSH2 0x41AC JUMP JUMPDEST SWAP2 SWAP1 POP JUMP JUMPDEST PUSH1 0x0 PUSH8 0xFFFFFFFFFFFFFFFF DUP3 GT ISZERO PUSH2 0x420F JUMPI PUSH2 0x420F PUSH2 0x4196 JUMP JUMPDEST PUSH1 0x1F NOT PUSH1 0x1F DUP4 ADD AND PUSH1 0x20 ADD SWAP3 SWAP2 POP POP JUMP JUMPDEST DUP3 DUP2 DUP4 CALLDATACOPY POP PUSH1 0x0 SWAP2 ADD MSTORE JUMP JUMPDEST PUSH1 0x0 PUSH2 0x423F PUSH2 0x423A DUP5 PUSH2 0x41F5 JUMP JUMPDEST PUSH2 0x41D9 JUMP JUMPDEST SWAP1 POP DUP3 DUP2 MSTORE PUSH1 0x20 DUP2 ADD DUP5 DUP5 DUP5 ADD GT ISZERO PUSH2 0x425A JUMPI PUSH2 0x425A PUSH1 0x0 DUP1 REVERT JUMPDEST PUSH2 0x4265 DUP5 DUP3 DUP6 PUSH2 0x4220 JUMP JUMPDEST POP SWAP4 SWAP3 POP POP POP JUMP JUMPDEST PUSH1 0x0 DUP3 PUSH1 0x1F DUP4 ADD SLT PUSH2 0x4281 JUMPI PUSH2 0x4281 PUSH1 0x0 DUP1 REVERT JUMPDEST DUP2 CALLDATALOAD PUSH2 0x4112 DUP5 DUP3 PUSH1 0x20 DUP7 ADD PUSH2 0x422C JUMP JUMPDEST PUSH1 0x0 PUSH1 0x20 DUP3 DUP5 SUB SLT ISZERO PUSH2 0x42A6 JUMPI PUSH2 0x42A6 PUSH1 0x0 DUP1 REVERT JUMPDEST DUP2 CALLDATALOAD PUSH8 0xFFFFFFFFFFFFFFFF DUP2 GT ISZERO PUSH2 0x42C0 JUMPI PUSH2 0x42C0 PUSH1 0x0 DUP1 REVERT JUMPDEST PUSH2 0x4112 DUP5 DUP3 DUP6 ADD PUSH2 0x426D JUMP JUMPDEST PUSH1 0x0 PUSH1 0x1 PUSH1 0x1 PUSH1 0xA0 SHL SUB DUP3 AND PUSH2 0x1912 JUMP JUMPDEST PUSH2 0x40D8 DUP2 PUSH2 0x42CC JUMP JUMPDEST DUP1 CALLDATALOAD PUSH2 0x1912 DUP2 PUSH2 0x42DD JUMP JUMPDEST PUSH1 0x0 PUSH1 0x20 DUP3 DUP5 SUB SLT ISZERO PUSH2 0x4306 JUMPI PUSH2 0x4306 PUSH1 0x0 DUP1 REVERT JUMPDEST PUSH1 0x0 PUSH2 0x4112 DUP5 DUP5 PUSH2 0x42E6 JUMP JUMPDEST PUSH1 0x0 DUP1 DUP4 PUSH1 0x1F DUP5 ADD SLT PUSH2 0x4327 JUMPI PUSH2 0x4327 PUSH1 0x0 DUP1 REVERT JUMPDEST POP DUP2 CALLDATALOAD PUSH8 0xFFFFFFFFFFFFFFFF DUP2 GT ISZERO PUSH2 0x4342 JUMPI PUSH2 0x4342 PUSH1 0x0 DUP1 REVERT JUMPDEST PUSH1 0x20 DUP4 ADD SWAP2 POP DUP4 PUSH1 0x1 DUP3 MUL DUP4 ADD GT ISZERO PUSH2 0x1200 JUMPI PUSH2 0x1200 PUSH1 0x0 DUP1 REVERT JUMPDEST PUSH1 0x0 DUP1 PUSH1 0x0 DUP1 PUSH1 0x0 DUP1 PUSH1 0x0 DUP1 PUSH1 0x0 DUP1 PUSH1 0xC0 DUP12 DUP14 SUB SLT ISZERO PUSH2 0x437F JUMPI PUSH2 0x437F PUSH1 0x0 DUP1 REVERT JUMPDEST PUSH1 0x0 PUSH2 0x438B DUP14 DUP14 PUSH2 0x40E6 JUMP JUMPDEST SWAP11 POP POP PUSH1 0x20 DUP12 ADD CALLDATALOAD PUSH8 0xFFFFFFFFFFFFFFFF DUP2 GT ISZERO PUSH2 0x43AB JUMPI PUSH2 0x43AB PUSH1 0x0 DUP1 REVERT JUMPDEST PUSH2 0x43B7 DUP14 DUP3 DUP15 ADD PUSH2 0x4312 JUMP JUMPDEST SWAP10 POP SWAP10 POP POP PUSH1 0x40 DUP12 ADD CALLDATALOAD PUSH8 0xFFFFFFFFFFFFFFFF DUP2 GT ISZERO PUSH2 0x43D9 JUMPI PUSH2 0x43D9 PUSH1 0x0 DUP1 REVERT JUMPDEST PUSH2 0x43E5 DUP14 DUP3 DUP15 ADD PUSH2 0x4312 JUMP JUMPDEST SWAP8 POP SWAP8 POP POP PUSH1 0x60 DUP12 ADD CALLDATALOAD PUSH8 0xFFFFFFFFFFFFFFFF DUP2 GT ISZERO PUSH2 0x4407 JUMPI PUSH2 0x4407 PUSH1 0x0 DUP1 REVERT JUMPDEST PUSH2 0x4413 DUP14 DUP3 DUP15 ADD PUSH2 0x4312 JUMP JUMPDEST SWAP6 POP SWAP6 POP POP PUSH1 0x80 DUP12 ADD CALLDATALOAD PUSH8 0xFFFFFFFFFFFFFFFF DUP2 GT ISZERO PUSH2 0x4435 JUMPI PUSH2 0x4435 PUSH1 0x0 DUP1 REVERT JUMPDEST PUSH2 0x4441 DUP14 DUP3 DUP15 ADD PUSH2 0x4312 JUMP JUMPDEST SWAP4 POP SWAP4 POP POP PUSH1 0xA0 PUSH2 0x4454 DUP14 DUP3 DUP15 ADD PUSH2 0x40E6 JUMP JUMPDEST SWAP2 POP POP SWAP3 SWAP6 SWAP9 SWAP12 SWAP2 SWAP5 SWAP8 SWAP11 POP SWAP3 SWAP6 SWAP9 POP JUMP JUMPDEST PUSH1 0x0 DUP1 PUSH1 0x40 DUP4 DUP6 SUB SLT ISZERO PUSH2 0x447C JUMPI PUSH2 0x447C PUSH1 0x0 DUP1 REVERT JUMPDEST PUSH1 0x0 PUSH2 0x4488 DUP6 DUP6 PUSH2 0x40E6 JUMP JUMPDEST SWAP3 POP POP PUSH1 0x20 PUSH2 0x4499 DUP6 DUP3 DUP7 ADD PUSH2 0x40E6 JUMP JUMPDEST SWAP2 POP POP SWAP3 POP SWAP3 SWAP1 POP JUMP JUMPDEST PUSH1 0x40 DUP2 ADD PUSH2 0x44B1 DUP3 DUP6 PUSH2 0x411A JUMP JUMPDEST PUSH2 0x44BE PUSH1 0x20 DUP4 ADD DUP5 PUSH2 0x4182 JUMP JUMPDEST SWAP4 SWAP3 POP POP POP JUMP JUMPDEST PUSH1 0x0 PUSH8 0xFFFFFFFFFFFFFFFF DUP3 GT ISZERO PUSH2 0x44DF JUMPI PUSH2 0x44DF PUSH2 0x4196 JUMP JUMPDEST POP PUSH1 0x20 MUL SWAP1 JUMP JUMPDEST PUSH1 0x0 PUSH2 0x44F4 PUSH2 0x423A DUP5 PUSH2 0x44C5 JUMP JUMPDEST SWAP1 POP DUP1 PUSH1 0x20 DUP5 MUL DUP4 ADD DUP6 DUP2 GT ISZERO PUSH2 0x450D JUMPI PUSH2 0x450D PUSH1 0x0 DUP1 REVERT JUMPDEST DUP4 JUMPDEST DUP2 DUP2 LT ISZERO PUSH2 0x4531 JUMPI DUP1 PUSH2 0x4522 DUP9 DUP3 PUSH2 0x40E6 JUMP JUMPDEST DUP5 MSTORE POP PUSH1 0x20 SWAP3 DUP4 ADD SWAP3 ADD PUSH2 0x450F JUMP JUMPDEST POP POP POP SWAP4 SWAP3 POP POP POP JUMP JUMPDEST PUSH1 0x0 DUP3 PUSH1 0x1F DUP4 ADD SLT PUSH2 0x454F JUMPI PUSH2 0x454F PUSH1 0x0 DUP1 REVERT JUMPDEST PUSH1 0x3 PUSH2 0x4112 DUP5 DUP3 DUP6 PUSH2 0x44E6 JUMP JUMPDEST DUP1 ISZERO ISZERO PUSH2 0x40D8 JUMP JUMPDEST DUP1 CALLDATALOAD PUSH2 0x1912 DUP2 PUSH2 0x455C JUMP JUMPDEST PUSH1 0x0 DUP1 PUSH1 0x0 PUSH1 0xA0 DUP5 DUP7 SUB SLT ISZERO PUSH2 0x4587 JUMPI PUSH2 0x4587 PUSH1 0x0 DUP1 REVERT JUMPDEST PUSH1 0x0 PUSH2 0x4593 DUP7 DUP7 PUSH2 0x453B JUMP JUMPDEST SWAP4 POP POP PUSH1 0x60 PUSH2 0x45A4 DUP7 DUP3 DUP8 ADD PUSH2 0x4564 JUMP JUMPDEST SWAP3 POP POP PUSH1 0x80 PUSH2 0x45B5 DUP7 DUP3 DUP8 ADD PUSH2 0x40E6 JUMP JUMPDEST SWAP2 POP POP SWAP3 POP SWAP3 POP SWAP3 JUMP JUMPDEST PUSH1 0x0 DUP1 PUSH1 0x0 DUP1 PUSH1 0x0 DUP1 PUSH1 0x0 PUSH1 0x80 DUP9 DUP11 SUB SLT ISZERO PUSH2 0x45DD JUMPI PUSH2 0x45DD PUSH1 0x0 DUP1 REVERT JUMPDEST PUSH1 0x0 PUSH2 0x45E9 DUP11 DUP11 PUSH2 0x40E6 JUMP JUMPDEST SWAP8 POP POP PUSH1 0x20 DUP9 ADD CALLDATALOAD PUSH8 0xFFFFFFFFFFFFFFFF DUP2 GT ISZERO PUSH2 0x4609 JUMPI PUSH2 0x4609 PUSH1 0x0 DUP1 REVERT JUMPDEST PUSH2 0x4615 DUP11 DUP3 DUP12 ADD PUSH2 0x4312 JUMP JUMPDEST SWAP7 POP SWAP7 POP POP PUSH1 0x40 DUP9 ADD CALLDATALOAD PUSH8 0xFFFFFFFFFFFFFFFF DUP2 GT ISZERO PUSH2 0x4637 JUMPI PUSH2 0x4637 PUSH1 0x0 DUP1 REVERT JUMPDEST PUSH2 0x4643 DUP11 DUP3 DUP12 ADD PUSH2 0x4312 JUMP JUMPDEST SWAP5 POP SWAP5 POP POP PUSH1 0x60 DUP9 ADD CALLDATALOAD PUSH8 0xFFFFFFFFFFFFFFFF DUP2 GT ISZERO PUSH2 0x4665 JUMPI PUSH2 0x4665 PUSH1 0x0 DUP1 REVERT JUMPDEST PUSH2 0x4671 DUP11 DUP3 DUP12 ADD PUSH2 0x4312 JUMP JUMPDEST SWAP3 POP SWAP3 POP POP SWAP3 SWAP6 SWAP9 SWAP2 SWAP5 SWAP8 POP SWAP3 SWAP6 POP JUMP JUMPDEST PUSH2 0x411E DUP2 PUSH2 0x42CC JUMP JUMPDEST PUSH1 0x80 DUP2 ADD PUSH2 0x4699 DUP3 DUP8 PUSH2 0x4682 JUMP JUMPDEST PUSH2 0x46A6 PUSH1 0x20 DUP4 ADD DUP7 PUSH2 0x4182 JUMP JUMPDEST PUSH2 0x46B3 PUSH1 0x40 DUP4 ADD DUP6 PUSH2 0x411A JUMP JUMPDEST PUSH2 0xC61 PUSH1 0x60 DUP4 ADD DUP5 PUSH2 0x4182 JUMP JUMPDEST PUSH1 0x0 JUMPDEST DUP4 DUP2 LT ISZERO PUSH2 0x46DB JUMPI DUP2 DUP2 ADD MLOAD DUP4 DUP3 ADD MSTORE PUSH1 0x20 ADD PUSH2 0x46C3 JUMP JUMPDEST POP POP PUSH1 0x0 SWAP2 ADD MSTORE JUMP JUMPDEST PUSH1 0x0 PUSH2 0x46EE DUP3 MLOAD SWAP1 JUMP JUMPDEST DUP1 DUP5 MSTORE PUSH1 0x20 DUP5 ADD SWAP4 POP PUSH2 0x4705 DUP2 DUP6 PUSH1 0x20 DUP7 ADD PUSH2 0x46C0 JUMP JUMPDEST PUSH1 0x1F NOT PUSH1 0x1F DUP3 ADD AND JUMPDEST SWAP1 SWAP4 ADD SWAP4 SWAP3 POP POP POP JUMP JUMPDEST PUSH1 0x40 DUP1 DUP3 MSTORE DUP2 ADD PUSH2 0x4729 DUP2 DUP6 PUSH2 0x46E4 JUMP JUMPDEST SWAP1 POP PUSH2 0x44BE PUSH1 0x20 DUP4 ADD DUP5 PUSH2 0x4182 JUMP JUMPDEST PUSH1 0x0 DUP1 PUSH1 0x0 PUSH1 0x60 DUP5 DUP7 SUB SLT ISZERO PUSH2 0x4750 JUMPI PUSH2 0x4750 PUSH1 0x0 DUP1 REVERT JUMPDEST PUSH1 0x0 PUSH2 0x475C DUP7 DUP7 PUSH2 0x40E6 JUMP JUMPDEST SWAP4 POP POP PUSH1 0x20 PUSH2 0x476D DUP7 DUP3 DUP8 ADD PUSH2 0x40E6 JUMP JUMPDEST SWAP3 POP POP PUSH1 0x40 PUSH2 0x45B5 DUP7 DUP3 DUP8 ADD PUSH2 0x40E6 JUMP JUMPDEST PUSH1 0x20 DUP1 DUP3 MSTORE DUP2 ADD PUSH2 0x190F DUP2 DUP5 PUSH2 0x46E4 JUMP JUMPDEST PUSH1 0x0 DUP1 PUSH1 0x0 PUSH1 0x60 DUP5 DUP7 SUB SLT ISZERO PUSH2 0x47A7 JUMPI PUSH2 0x47A7 PUSH1 0x0 DUP1 REVERT JUMPDEST PUSH1 0x0 PUSH2 0x47B3 DUP7 DUP7 PUSH2 0x40E6 JUMP JUMPDEST SWAP4 POP POP PUSH1 0x20 PUSH2 0x476D DUP7 DUP3 DUP8 ADD PUSH2 0x4564 JUMP JUMPDEST DUP1 MLOAD PUSH1 0x60 DUP4 ADD SWAP1 PUSH2 0x47D5 DUP5 DUP3 PUSH2 0x4182 JUMP JUMPDEST POP PUSH1 0x20 DUP3 ADD MLOAD PUSH2 0x47E8 PUSH1 0x20 DUP6 ADD DUP3 PUSH2 0x4182 JUMP JUMPDEST POP PUSH1 0x40 DUP3 ADD MLOAD PUSH2 0x1F26 PUSH1 0x40 DUP6 ADD DUP3 PUSH2 0x4182 JUMP JUMPDEST PUSH1 0xC0 DUP2 ADD PUSH2 0x4809 DUP3 DUP8 PUSH2 0x4682 JUMP JUMPDEST PUSH2 0x4816 PUSH1 0x20 DUP4 ADD DUP7 PUSH2 0x4182 JUMP JUMPDEST PUSH2 0x4823 PUSH1 0x40 DUP4 ADD DUP6 PUSH2 0x4182 JUMP JUMPDEST PUSH2 0xC61 PUSH1 0x60 DUP4 ADD DUP5 PUSH2 0x47C4 JUMP JUMPDEST PUSH1 0x20 DUP2 ADD PUSH2 0x1912 DUP3 DUP5 PUSH2 0x4682 JUMP JUMPDEST PUSH1 0x0 PUSH2 0x484A DUP4 DUP4 PUSH2 0x4182 JUMP JUMPDEST POP POP PUSH1 0x20 ADD SWAP1 JUMP JUMPDEST PUSH1 0x3 DUP2 DUP1 PUSH1 0x0 JUMPDEST DUP4 DUP2 LT ISZERO PUSH2 0x37DD JUMPI DUP2 MLOAD PUSH2 0x486D DUP8 DUP3 PUSH2 0x483E JUMP JUMPDEST SWAP7 POP PUSH1 0x20 DUP4 ADD SWAP3 POP POP PUSH1 0x1 ADD PUSH2 0x4859 JUMP JUMPDEST DUP1 MLOAD PUSH2 0x180 DUP1 DUP5 MSTORE PUSH1 0x0 SWAP2 SWAP1 DUP5 ADD SWAP1 PUSH2 0x4897 DUP3 DUP3 PUSH2 0x46E4 JUMP JUMPDEST SWAP2 POP POP PUSH1 0x20 DUP4 ADD MLOAD PUSH2 0x48AC PUSH1 0x20 DUP7 ADD DUP3 PUSH2 0x4182 JUMP JUMPDEST POP PUSH1 0x40 DUP4 ADD MLOAD PUSH2 0x48BF PUSH1 0x40 DUP7 ADD DUP3 PUSH2 0x4182 JUMP JUMPDEST POP PUSH1 0x60 DUP4 ADD MLOAD PUSH2 0x48D2 PUSH1 0x60 DUP7 ADD DUP3 PUSH2 0x4182 JUMP JUMPDEST POP PUSH1 0x80 DUP4 ADD MLOAD PUSH2 0x48E5 PUSH1 0x80 DUP7 ADD DUP3 PUSH2 0x4182 JUMP JUMPDEST POP PUSH1 0xA0 DUP4 ADD MLOAD PUSH2 0x48F8 PUSH1 0xA0 DUP7 ADD DUP3 PUSH2 0x4852 JUMP JUMPDEST POP PUSH1 0xC0 DUP4 ADD MLOAD PUSH2 0x490C PUSH2 0x100 DUP7 ADD DUP3 PUSH2 0x411A JUMP JUMPDEST POP PUSH1 0xE0 DUP4 ADD MLOAD PUSH2 0x4265 PUSH2 0x120 DUP7 ADD DUP3 PUSH2 0x47C4 JUMP JUMPDEST PUSH1 0x20 DUP1 DUP3 MSTORE DUP2 ADD PUSH2 0x190F DUP2 DUP5 PUSH2 0x487E JUMP JUMPDEST PUSH1 0x0 DUP1 PUSH1 0x40 DUP4 DUP6 SUB SLT ISZERO PUSH2 0x4947 JUMPI PUSH2 0x4947 PUSH1 0x0 DUP1 REVERT JUMPDEST PUSH1 0x0 PUSH2 0x4953 DUP6 DUP6 PUSH2 0x40E6 JUMP JUMPDEST SWAP3 POP POP PUSH1 0x20 PUSH2 0x4499 DUP6 DUP3 DUP7 ADD PUSH2 0x42E6 JUMP JUMPDEST DUP1 MLOAD PUSH1 0xE0 DUP4 ADD SWAP1 PUSH2 0x4975 DUP5 DUP3 PUSH2 0x4682 JUMP JUMPDEST POP PUSH1 0x20 DUP3 ADD MLOAD PUSH2 0x4988 PUSH1 0x20 DUP6 ADD DUP3 PUSH2 0x4182 JUMP JUMPDEST POP PUSH1 0x40 DUP3 ADD MLOAD PUSH2 0x499B PUSH1 0x40 DUP6 ADD DUP3 PUSH2 0x4852 JUMP JUMPDEST POP PUSH1 0x60 DUP3 ADD MLOAD PUSH2 0x49AE PUSH1 0xA0 DUP6 ADD DUP3 PUSH2 0x411A JUMP JUMPDEST POP PUSH1 0x80 DUP3 ADD MLOAD PUSH2 0x1F26 PUSH1 0xC0 DUP6 ADD DUP3 PUSH2 0x4182 JUMP JUMPDEST PUSH1 0x0 PUSH2 0x49CD DUP4 DUP4 PUSH2 0x4964 JUMP JUMPDEST POP POP PUSH1 0xE0 ADD SWAP1 JUMP JUMPDEST PUSH1 0x0 PUSH2 0x49DF DUP3 MLOAD SWAP1 JUMP JUMPDEST DUP1 DUP5 MSTORE PUSH1 0x20 SWAP4 DUP5 ADD SWAP4 DUP4 ADD DUP1 PUSH1 0x0 JUMPDEST DUP4 DUP2 LT ISZERO PUSH2 0x4A13 JUMPI DUP2 MLOAD PUSH2 0x4A02 DUP9 DUP3 PUSH2 0x49C1 JUMP JUMPDEST SWAP8 POP PUSH1 0x20 DUP4 ADD SWAP3 POP POP PUSH1 0x1 ADD PUSH2 0x49EE JUMP JUMPDEST POP SWAP5 SWAP6 SWAP5 POP POP POP POP POP JUMP JUMPDEST PUSH1 0x20 DUP1 DUP3 MSTORE DUP2 ADD PUSH2 0x190F DUP2 DUP5 PUSH2 0x49D5 JUMP JUMPDEST PUSH2 0x120 DUP1 DUP3 MSTORE DUP2 ADD PUSH2 0x4A41 DUP2 DUP11 PUSH2 0x46E4 JUMP JUMPDEST SWAP1 POP PUSH2 0x4A50 PUSH1 0x20 DUP4 ADD DUP10 PUSH2 0x4182 JUMP JUMPDEST PUSH2 0x4A5D PUSH1 0x40 DUP4 ADD DUP9 PUSH2 0x4182 JUMP JUMPDEST PUSH2 0x4A6A PUSH1 0x60 DUP4 ADD DUP8 PUSH2 0x4182 JUMP JUMPDEST PUSH2 0x4A77 PUSH1 0x80 DUP4 ADD DUP7 PUSH2 0x4182 JUMP JUMPDEST PUSH2 0x4A84 PUSH1 0xA0 DUP4 ADD DUP6 PUSH2 0x411A JUMP JUMPDEST PUSH2 0x4A91 PUSH1 0xC0 DUP4 ADD DUP5 PUSH2 0x47C4 JUMP JUMPDEST SWAP9 SWAP8 POP POP POP POP POP POP POP POP JUMP JUMPDEST DUP1 MLOAD PUSH1 0xC0 DUP4 ADD SWAP1 PUSH2 0x4AAE DUP5 DUP3 PUSH2 0x4682 JUMP JUMPDEST POP PUSH1 0x20 DUP3 ADD MLOAD PUSH2 0x4AC1 PUSH1 0x20 DUP6 ADD DUP3 PUSH2 0x4182 JUMP JUMPDEST POP PUSH1 0x40 DUP3 ADD MLOAD PUSH2 0x4AD4 PUSH1 0x40 DUP6 ADD DUP3 PUSH2 0x4182 JUMP JUMPDEST POP PUSH1 0x60 DUP3 ADD MLOAD PUSH2 0x1F26 PUSH1 0x60 DUP6 ADD DUP3 PUSH2 0x47C4 JUMP JUMPDEST PUSH1 0xC0 DUP2 ADD PUSH2 0x1912 DUP3 DUP5 PUSH2 0x4A9D JUMP JUMPDEST PUSH1 0x0 DUP1 PUSH1 0x0 DUP1 PUSH1 0x80 DUP6 DUP8 SUB SLT ISZERO PUSH2 0x4B0E JUMPI PUSH2 0x4B0E PUSH1 0x0 DUP1 REVERT JUMPDEST PUSH1 0x0 PUSH2 0x4B1A DUP8 DUP8 PUSH2 0x40E6 JUMP JUMPDEST SWAP5 POP POP PUSH1 0x20 PUSH2 0x4B2B DUP8 DUP3 DUP9 ADD PUSH2 0x40E6 JUMP JUMPDEST SWAP4 POP POP PUSH1 0x40 PUSH2 0x4B3C DUP8 DUP3 DUP9 ADD PUSH2 0x40E6 JUMP JUMPDEST SWAP3 POP POP PUSH1 0x60 PUSH2 0x4B4D DUP8 DUP3 DUP9 ADD PUSH2 0x40E6 JUMP JUMPDEST SWAP2 POP POP SWAP3 SWAP6 SWAP2 SWAP5 POP SWAP3 POP JUMP JUMPDEST PUSH1 0x0 DUP1 PUSH1 0x40 DUP4 DUP6 SUB SLT ISZERO PUSH2 0x4B6F JUMPI PUSH2 0x4B6F PUSH1 0x0 DUP1 REVERT JUMPDEST DUP3 CALLDATALOAD PUSH8 0xFFFFFFFFFFFFFFFF DUP2 GT ISZERO PUSH2 0x4B89 JUMPI PUSH2 0x4B89 PUSH1 0x0 DUP1 REVERT JUMPDEST PUSH2 0x4B95 DUP6 DUP3 DUP7 ADD PUSH2 0x426D JUMP JUMPDEST SWAP3 POP POP PUSH1 0x20 DUP4 ADD CALLDATALOAD PUSH8 0xFFFFFFFFFFFFFFFF DUP2 GT ISZERO PUSH2 0x4BB5 JUMPI PUSH2 0x4BB5 PUSH1 0x0 DUP1 REVERT JUMPDEST PUSH2 0x4499 DUP6 DUP3 DUP7 ADD PUSH2 0x426D JUMP JUMPDEST PUSH1 0x60 DUP2 ADD PUSH2 0x4BCF DUP3 DUP7 PUSH2 0x4182 JUMP JUMPDEST PUSH2 0x4BDC PUSH1 0x20 DUP4 ADD DUP6 PUSH2 0x4182 JUMP JUMPDEST PUSH2 0x4112 PUSH1 0x40 DUP4 ADD DUP5 PUSH2 0x4182 JUMP JUMPDEST PUSH1 0x0 DUP1 PUSH1 0x0 DUP1 PUSH1 0x80 DUP6 DUP8 SUB SLT ISZERO PUSH2 0x4C02 JUMPI PUSH2 0x4C02 PUSH1 0x0 DUP1 REVERT JUMPDEST PUSH1 0x0 PUSH2 0x4C0E DUP8 DUP8 PUSH2 0x40E6 JUMP JUMPDEST SWAP5 POP POP PUSH1 0x20 PUSH2 0x4C1F DUP8 DUP3 DUP9 ADD PUSH2 0x40E6 JUMP JUMPDEST SWAP4 POP POP PUSH1 0x40 DUP6 ADD CALLDATALOAD PUSH8 0xFFFFFFFFFFFFFFFF DUP2 GT ISZERO PUSH2 0x4C3F JUMPI PUSH2 0x4C3F PUSH1 0x0 DUP1 REVERT JUMPDEST PUSH2 0x4B3C DUP8 DUP3 DUP9 ADD PUSH2 0x426D JUMP JUMPDEST PUSH1 0x0 PUSH2 0x190F DUP4 DUP4 PUSH2 0x46E4 JUMP JUMPDEST PUSH1 0x0 PUSH2 0x4C61 DUP3 MLOAD SWAP1 JUMP JUMPDEST DUP1 DUP5 MSTORE PUSH1 0x20 DUP5 ADD SWAP4 POP DUP4 PUSH1 0x20 DUP3 MUL DUP6 ADD PUSH2 0x4C7B DUP6 PUSH1 0x20 ADD SWAP1 JUMP JUMPDEST DUP1 PUSH1 0x0 JUMPDEST DUP6 DUP2 LT ISZERO PUSH2 0x4CB0 JUMPI DUP5 DUP5 SUB DUP10 MSTORE DUP2 MLOAD PUSH2 0x4C98 DUP6 DUP3 PUSH2 0x4C4B JUMP JUMPDEST SWAP5 POP PUSH1 0x20 DUP4 ADD PUSH1 0x20 SWAP11 SWAP1 SWAP11 ADD SWAP10 SWAP3 POP POP PUSH1 0x1 ADD PUSH2 0x4C7F JUMP JUMPDEST POP SWAP2 SWAP8 SWAP7 POP POP POP POP POP POP POP JUMP JUMPDEST PUSH1 0x0 PUSH2 0x4CC7 DUP3 MLOAD SWAP1 JUMP JUMPDEST DUP1 DUP5 MSTORE PUSH1 0x20 SWAP4 DUP5 ADD SWAP4 DUP4 ADD DUP1 PUSH1 0x0 JUMPDEST DUP4 DUP2 LT ISZERO PUSH2 0x4A13 JUMPI DUP2 MLOAD PUSH2 0x4CEA DUP9 DUP3 PUSH2 0x483E JUMP JUMPDEST SWAP8 POP PUSH1 0x20 DUP4 ADD SWAP3 POP POP PUSH1 0x1 ADD PUSH2 0x4CD6 JUMP JUMPDEST PUSH1 0x40 DUP1 DUP3 MSTORE DUP2 ADD PUSH2 0x4D0C DUP2 DUP6 PUSH2 0x4C57 JUMP JUMPDEST SWAP1 POP DUP2 DUP2 SUB PUSH1 0x20 DUP4 ADD MSTORE PUSH2 0x4112 DUP2 DUP5 PUSH2 0x4CBD JUMP JUMPDEST PUSH1 0x3 DUP2 MSTORE PUSH1 0x0 PUSH1 0x20 DUP3 ADD PUSH32 0x7573640000000000000000000000000000000000000000000000000000000000 DUP2 MSTORE SWAP2 POP JUMPDEST POP PUSH1 0x20 ADD SWAP1 JUMP JUMPDEST PUSH1 0x40 DUP1 DUP3 MSTORE DUP2 ADD PUSH2 0x4D68 DUP2 DUP5 PUSH2 0x46E4 JUMP JUMPDEST SWAP1 POP DUP2 DUP2 SUB PUSH1 0x20 DUP4 ADD MSTORE PUSH2 0x190F DUP2 PUSH2 0x4D20 JUMP JUMPDEST PUSH1 0x9 DUP2 MSTORE PUSH1 0x0 PUSH1 0x20 DUP3 ADD PUSH32 0x53706F7450726963650000000000000000000000000000000000000000000000 DUP2 MSTORE SWAP2 POP PUSH2 0x4D50 JUMP JUMPDEST PUSH1 0x40 DUP1 DUP3 MSTORE DUP2 ADD PUSH2 0x4DBF DUP2 PUSH2 0x4D7B JUMP JUMPDEST SWAP1 POP DUP2 DUP2 SUB PUSH1 0x20 DUP4 ADD MSTORE PUSH2 0x190F DUP2 DUP5 PUSH2 0x46E4 JUMP JUMPDEST PUSH4 0x4E487B71 PUSH1 0xE0 SHL PUSH1 0x0 MSTORE PUSH1 0x11 PUSH1 0x4 MSTORE PUSH1 0x24 PUSH1 0x0 REVERT JUMPDEST DUP2 DUP2 SUB DUP2 DUP2 GT ISZERO PUSH2 0x1912 JUMPI PUSH2 0x1912 PUSH2 0x4DD3 JUMP JUMPDEST DUP1 MLOAD PUSH2 0x1912 DUP2 PUSH2 0x40D6 JUMP JUMPDEST PUSH1 0x0 PUSH1 0x20 DUP3 DUP5 SUB SLT ISZERO PUSH2 0x4E1C JUMPI PUSH2 0x4E1C PUSH1 0x0 DUP1 REVERT JUMPDEST PUSH1 0x0 PUSH2 0x4112 DUP5 DUP5 PUSH2 0x4DFC JUMP JUMPDEST PUSH4 0x4E487B71 PUSH1 0xE0 SHL PUSH1 0x0 MSTORE PUSH1 0x12 PUSH1 0x4 MSTORE PUSH1 0x24 PUSH1 0x0 REVERT JUMPDEST PUSH1 0x0 DUP3 PUSH2 0x4E4D JUMPI PUSH2 0x4E4D PUSH2 0x4E28 JUMP JUMPDEST POP DIV SWAP1 JUMP JUMPDEST PUSH1 0x0 PUSH2 0x4E5F DUP4 DUP6 DUP5 PUSH2 0x4220 JUMP JUMPDEST POP POP ADD SWAP1 JUMP JUMPDEST PUSH1 0x0 PUSH2 0x4112 DUP3 DUP5 DUP7 PUSH2 0x4E52 JUMP JUMPDEST DUP2 DUP4 MSTORE PUSH1 0x0 PUSH1 0x20 DUP5 ADD SWAP4 POP PUSH2 0x4E88 DUP4 DUP6 DUP5 PUSH2 0x4220 JUMP JUMPDEST PUSH1 0x1F NOT PUSH1 0x1F DUP5 ADD AND PUSH2 0x470E JUMP JUMPDEST PUSH1 0xC0 DUP2 ADD PUSH2 0x4EA3 DUP3 DUP13 PUSH2 0x4182 JUMP JUMPDEST DUP2 DUP2 SUB PUSH1 0x20 DUP4 ADD MSTORE PUSH2 0x4EB6 DUP2 DUP11 DUP13 PUSH2 0x4E72 JUMP JUMPDEST SWAP1 POP DUP2 DUP2 SUB PUSH1 0x40 DUP4 ADD MSTORE PUSH2 0x4ECB DUP2 DUP9 DUP11 PUSH2 0x4E72 JUMP JUMPDEST SWAP1 POP PUSH2 0x4EDA PUSH1 0x60 DUP4 ADD DUP8 PUSH2 0x4182 JUMP JUMPDEST DUP2 DUP2 SUB PUSH1 0x80 DUP4 ADD MSTORE PUSH2 0x4EED DUP2 DUP6 DUP8 PUSH2 0x4E72 JUMP JUMPDEST SWAP1 POP PUSH2 0x4EFC PUSH1 0xA0 DUP4 ADD DUP5 PUSH2 0x4182 JUMP JUMPDEST SWAP11 SWAP10 POP POP POP POP POP POP POP POP POP POP JUMP JUMPDEST DUP1 MLOAD PUSH2 0x1912 DUP2 PUSH2 0x455C JUMP JUMPDEST PUSH1 0x0 PUSH1 0x20 DUP3 DUP5 SUB SLT ISZERO PUSH2 0x4F2A JUMPI PUSH2 0x4F2A PUSH1 0x0 DUP1 REVERT JUMPDEST PUSH1 0x0 PUSH2 0x4112 DUP5 DUP5 PUSH2 0x4F0A JUMP JUMPDEST DUP2 DUP2 MUL DUP1 DUP3 ISZERO DUP4 DUP3 DIV DUP6 EQ OR PUSH2 0x4F4E JUMPI PUSH2 0x4F4E PUSH2 0x4DD3 JUMP JUMPDEST POP SWAP3 SWAP2 POP POP JUMP JUMPDEST DUP1 DUP3 ADD DUP1 DUP3 GT ISZERO PUSH2 0x1912 JUMPI PUSH2 0x1912 PUSH2 0x4DD3 JUMP JUMPDEST PUSH1 0x8 DUP2 MSTORE PUSH1 0x0 PUSH1 0x20 DUP3 ADD PUSH32 0x526F756E64204F6E000000000000000000000000000000000000000000000000 DUP2 MSTORE SWAP2 POP PUSH2 0x4D50 JUMP JUMPDEST PUSH1 0x20 DUP1 DUP3 MSTORE DUP2 ADD PUSH2 0x1912 DUP2 PUSH2 0x4F68 JUMP JUMPDEST PUSH1 0xE DUP2 MSTORE PUSH1 0x0 PUSH1 0x20 DUP3 ADD PUSH32 0x21204F726967696E20436861696E000000000000000000000000000000000000 DUP2 MSTORE SWAP2 POP PUSH2 0x4D50 JUMP JUMPDEST PUSH1 0x20 DUP1 DUP3 MSTORE DUP2 ADD PUSH2 0x1912 DUP2 PUSH2 0x4FAC JUMP JUMPDEST PUSH1 0xE DUP2 MSTORE PUSH1 0x0 PUSH1 0x20 DUP3 ADD PUSH32 0x21205469636B6574204F776E6572000000000000000000000000000000000000 DUP2 MSTORE SWAP2 POP PUSH2 0x4D50 JUMP JUMPDEST PUSH1 0x20 DUP1 DUP3 MSTORE DUP2 ADD PUSH2 0x1912 DUP2 PUSH2 0x4FF0 JUMP JUMPDEST PUSH1 0x7 DUP2 MSTORE PUSH1 0x0 PUSH1 0x20 DUP3 ADD PUSH32 0x436C61696D656400000000000000000000000000000000000000000000000000 DUP2 MSTORE SWAP2 POP PUSH2 0x4D50 JUMP JUMPDEST PUSH1 0x20 DUP1 DUP3 MSTORE DUP2 ADD PUSH2 0x1912 DUP2 PUSH2 0x5034 JUMP JUMPDEST PUSH1 0x8 DUP2 MSTORE PUSH1 0x0 PUSH1 0x20 DUP3 ADD PUSH32 0x212057696E6E6572000000000000000000000000000000000000000000000000 DUP2 MSTORE SWAP2 POP PUSH2 0x4D50 JUMP JUMPDEST PUSH1 0x20 DUP1 DUP3 MSTORE DUP2 ADD PUSH2 0x1912 DUP2 PUSH2 0x5078 JUMP JUMPDEST PUSH1 0x40 DUP2 ADD PUSH2 0x44B1 DUP3 DUP6 PUSH2 0x4182 JUMP JUMPDEST PUSH1 0x0 DUP1 PUSH1 0x40 DUP4 DUP6 SUB SLT ISZERO PUSH2 0x50E0 JUMPI PUSH2 0x50E0 PUSH1 0x0 DUP1 REVERT JUMPDEST PUSH1 0x0 PUSH2 0x50EC DUP6 DUP6 PUSH2 0x4F0A JUMP JUMPDEST SWAP3 POP POP PUSH1 0x20 PUSH2 0x4499 DUP6 DUP3 DUP7 ADD PUSH2 0x4DFC JUMP JUMPDEST PUSH4 0x4E487B71 PUSH1 0xE0 SHL PUSH1 0x0 MSTORE PUSH1 0x32 PUSH1 0x4 MSTORE PUSH1 0x24 PUSH1 0x0 REVERT JUMPDEST PUSH1 0x0 PUSH1 0x0 NOT DUP3 SUB PUSH2 0x5126 JUMPI PUSH2 0x5126 PUSH2 0x4DD3 JUMP JUMPDEST POP PUSH1 0x1 ADD SWAP1 JUMP JUMPDEST PUSH1 0xD DUP2 MSTORE PUSH1 0x0 PUSH1 0x20 DUP3 ADD PUSH32 0x526F756E64205061737365642100000000000000000000000000000000000000 DUP2 MSTORE SWAP2 POP PUSH2 0x4D50 JUMP JUMPDEST PUSH1 0x20 DUP1 DUP3 MSTORE DUP2 ADD PUSH2 0x1912 DUP2 PUSH2 0x512D JUMP JUMPDEST PUSH1 0xC DUP2 MSTORE PUSH1 0x0 PUSH1 0x20 DUP3 ADD PUSH32 0x456E74727920436C6F7365640000000000000000000000000000000000000000 DUP2 MSTORE SWAP2 POP PUSH2 0x4D50 JUMP JUMPDEST PUSH1 0x20 DUP1 DUP3 MSTORE DUP2 ADD PUSH2 0x1912 DUP2 PUSH2 0x5171 JUMP JUMPDEST PUSH1 0x8 DUP2 MSTORE PUSH1 0x0 PUSH1 0x20 DUP3 ADD PUSH32 0x4E756D203E203330000000000000000000000000000000000000000000000000 DUP2 MSTORE SWAP2 POP PUSH2 0x4D50 JUMP JUMPDEST PUSH1 0x20 DUP1 DUP3 MSTORE DUP2 ADD PUSH2 0x1912 DUP2 PUSH2 0x51B5 JUMP JUMPDEST PUSH1 0x7 DUP2 MSTORE PUSH1 0x0 PUSH1 0x20 DUP3 ADD PUSH32 0x4C6F772042616C00000000000000000000000000000000000000000000000000 DUP2 MSTORE SWAP2 POP PUSH2 0x4D50 JUMP JUMPDEST PUSH1 0x20 DUP1 DUP3 MSTORE DUP2 ADD PUSH2 0x1912 DUP2 PUSH2 0x51F9 JUMP JUMPDEST PUSH1 0x1B DUP2 MSTORE PUSH1 0x0 PUSH1 0x20 DUP3 ADD PUSH32 0x496E73756666696369656E742057616C6C65742042616C616E63650000000000 DUP2 MSTORE SWAP2 POP PUSH2 0x4D50 JUMP JUMPDEST PUSH1 0x20 DUP1 DUP3 MSTORE DUP2 ADD PUSH2 0x1912 DUP2 PUSH2 0x523D JUMP JUMPDEST PUSH1 0xB DUP2 MSTORE PUSH1 0x0 PUSH1 0x20 DUP3 ADD PUSH32 0x4D6178205469636B657473000000000000000000000000000000000000000000 DUP2 MSTORE SWAP2 POP PUSH2 0x4D50 JUMP JUMPDEST PUSH1 0x20 DUP1 DUP3 MSTORE DUP2 ADD PUSH2 0x1912 DUP2 PUSH2 0x5281 JUMP JUMPDEST PUSH1 0x80 DUP2 ADD PUSH2 0x52D3 DUP3 DUP10 PUSH2 0x4182 JUMP JUMPDEST DUP2 DUP2 SUB PUSH1 0x20 DUP4 ADD MSTORE PUSH2 0x52E6 DUP2 DUP8 DUP10 PUSH2 0x4E72 JUMP JUMPDEST SWAP1 POP DUP2 DUP2 SUB PUSH1 0x40 DUP4 ADD MSTORE PUSH2 0x52FB DUP2 DUP6 DUP8 PUSH2 0x4E72 JUMP JUMPDEST SWAP1 POP PUSH2 0xD0C PUSH1 0x60 DUP4 ADD DUP5 PUSH2 0x4182 JUMP JUMPDEST PUSH1 0x14 DUP2 MSTORE PUSH1 0x0 PUSH1 0x20 DUP3 ADD PUSH32 0x696E73756666696369656E742062616C616E6365000000000000000000000000 DUP2 MSTORE SWAP2 POP PUSH2 0x4D50 JUMP JUMPDEST PUSH1 0x20 DUP1 DUP3 MSTORE DUP2 ADD PUSH2 0x1912 DUP2 PUSH2 0x530A JUMP JUMPDEST PUSH1 0x0 PUSH2 0x1912 DUP3 PUSH2 0x4146 JUMP JUMPDEST PUSH1 0x3 DUP2 MSTORE PUSH1 0x0 PUSH1 0x20 DUP3 ADD PUSH32 0x216F6B0000000000000000000000000000000000000000000000000000000000 DUP2 MSTORE SWAP2 POP PUSH2 0x4D50 JUMP JUMPDEST PUSH1 0x20 DUP1 DUP3 MSTORE DUP2 ADD PUSH2 0x1912 DUP2 PUSH2 0x5359 JUMP JUMPDEST PUSH1 0x40 DUP2 ADD PUSH2 0x44B1 DUP3 DUP6 PUSH2 0x4682 JUMP JUMPDEST PUSH1 0x60 DUP2 ADD PUSH2 0x53B9 DUP3 DUP7 PUSH2 0x4182 JUMP JUMPDEST PUSH2 0x53C6 PUSH1 0x20 DUP4 ADD DUP6 PUSH2 0x4182 JUMP JUMPDEST PUSH2 0x4112 PUSH1 0x40 DUP4 ADD DUP5 PUSH2 0x4682 JUMP JUMPDEST PUSH1 0x40 DUP2 ADD PUSH2 0x53E1 DUP3 DUP6 PUSH2 0x4182 JUMP JUMPDEST DUP2 DUP2 SUB PUSH1 0x20 DUP4 ADD MSTORE PUSH2 0x4112 DUP2 DUP5 PUSH2 0x46E4 JUMP JUMPDEST PUSH4 0x4E487B71 PUSH1 0xE0 SHL PUSH1 0x0 MSTORE PUSH1 0x22 PUSH1 0x4 MSTORE PUSH1 0x24 PUSH1 0x0 REVERT JUMPDEST PUSH1 0x2 DUP2 DIV PUSH1 0x1 DUP3 AND DUP1 PUSH2 0x541D JUMPI PUSH1 0x7F DUP3 AND SWAP2 POP JUMPDEST PUSH1 0x20 DUP3 LT DUP2 SUB PUSH2 0x128C JUMPI PUSH2 0x128C PUSH2 0x53F3 JUMP JUMPDEST PUSH1 0x60 DUP2 ADD PUSH2 0x543D DUP3 DUP7 PUSH2 0x4682 JUMP JUMPDEST PUSH2 0x4BDC PUSH1 0x20 DUP4 ADD DUP6 PUSH2 0x4682 JUMP JUMPDEST PUSH1 0xE DUP2 MSTORE PUSH1 0x0 PUSH1 0x20 DUP3 ADD PUSH32 0x5469636B657420436C61696D6564000000000000000000000000000000000000 DUP2 MSTORE SWAP2 POP PUSH2 0x4D50 JUMP JUMPDEST PUSH1 0x20 DUP1 DUP3 MSTORE DUP2 ADD PUSH2 0x1912 DUP2 PUSH2 0x544A JUMP JUMPDEST PUSH1 0x6 DUP2 MSTORE PUSH1 0x0 PUSH1 0x20 DUP3 ADD PUSH32 0x57696E6E65720000000000000000000000000000000000000000000000000000 DUP2 MSTORE SWAP2 POP PUSH2 0x4D50 JUMP JUMPDEST PUSH1 0x20 DUP1 DUP3 MSTORE DUP2 ADD PUSH2 0x1912 DUP2 PUSH2 0x548E JUMP JUMPDEST PUSH1 0x0 PUSH2 0x54E0 PUSH2 0x423A DUP5 PUSH2 0x41F5 JUMP JUMPDEST SWAP1 POP DUP3 DUP2 MSTORE PUSH1 0x20 DUP2 ADD DUP5 DUP5 DUP5 ADD GT ISZERO PUSH2 0x54FB JUMPI PUSH2 0x54FB PUSH1 0x0 DUP1 REVERT JUMPDEST PUSH2 0x4265 DUP5 DUP3 DUP6 PUSH2 0x46C0 JUMP JUMPDEST PUSH1 0x0 DUP3 PUSH1 0x1F DUP4 ADD SLT PUSH2 0x551A JUMPI PUSH2 0x551A PUSH1 0x0 DUP1 REVERT JUMPDEST DUP2 MLOAD PUSH2 0x4112 DUP5 DUP3 PUSH1 0x20 DUP7 ADD PUSH2 0x54D2 JUMP JUMPDEST PUSH1 0x0 DUP1 PUSH1 0x0 PUSH1 0x60 DUP5 DUP7 SUB SLT ISZERO PUSH2 0x5542 JUMPI PUSH2 0x5542 PUSH1 0x0 DUP1 REVERT JUMPDEST PUSH1 0x0 PUSH2 0x554E DUP7 DUP7 PUSH2 0x4F0A JUMP JUMPDEST SWAP4 POP POP PUSH1 0x20 DUP5 ADD MLOAD PUSH8 0xFFFFFFFFFFFFFFFF DUP2 GT ISZERO PUSH2 0x556E JUMPI PUSH2 0x556E PUSH1 0x0 DUP1 REVERT JUMPDEST PUSH2 0x557A DUP7 DUP3 DUP8 ADD PUSH2 0x5506 JUMP JUMPDEST SWAP3 POP POP PUSH1 0x40 PUSH2 0x45B5 DUP7 DUP3 DUP8 ADD PUSH2 0x4DFC JUMP JUMPDEST PUSH1 0x0 PUSH1 0x20 DUP3 DUP5 SUB SLT ISZERO PUSH2 0x55A0 JUMPI PUSH2 0x55A0 PUSH1 0x0 DUP1 REVERT JUMPDEST DUP2 MLOAD PUSH8 0xFFFFFFFFFFFFFFFF DUP2 GT ISZERO PUSH2 0x55BA JUMPI PUSH2 0x55BA PUSH1 0x0 DUP1 REVERT JUMPDEST PUSH2 0x4112 DUP5 DUP3 DUP6 ADD PUSH2 0x5506 JUMP JUMPDEST PUSH1 0x6 DUP2 MSTORE PUSH1 0x0 PUSH1 0x20 DUP3 ADD PUSH32 0x2141646D696E0000000000000000000000000000000000000000000000000000 DUP2 MSTORE SWAP2 POP PUSH2 0x4D50 JUMP JUMPDEST PUSH1 0x20 DUP1 DUP3 MSTORE DUP2 ADD PUSH2 0x1912 DUP2 PUSH2 0x55C6 JUMP JUMPDEST PUSH1 0x9 DUP2 MSTORE PUSH1 0x0 PUSH1 0x20 DUP3 ADD PUSH32 0x416E6E6F756E6365640000000000000000000000000000000000000000000000 DUP2 MSTORE SWAP2 POP PUSH2 0x4D50 JUMP JUMPDEST PUSH1 0x20 DUP1 DUP3 MSTORE DUP2 ADD PUSH2 0x1912 DUP2 PUSH2 0x560A JUMP JUMPDEST PUSH1 0x4 DUP2 MSTORE PUSH1 0x0 PUSH1 0x20 DUP3 ADD PUSH32 0x2146564D00000000000000000000000000000000000000000000000000000000 DUP2 MSTORE SWAP2 POP PUSH2 0x4D50 JUMP JUMPDEST PUSH1 0x20 DUP1 DUP3 MSTORE DUP2 ADD PUSH2 0x1912 DUP2 PUSH2 0x564E JUMP JUMPDEST PUSH1 0x0 PUSH2 0x1912 DUP3 PUSH1 0x60 SHL SWAP1 JUMP JUMPDEST PUSH1 0x0 PUSH2 0x1912 DUP3 PUSH2 0x5692 JUMP JUMPDEST PUSH2 0x411E PUSH2 0x56B5 DUP3 PUSH2 0x42CC JUMP JUMPDEST PUSH2 0x569E JUMP JUMPDEST PUSH1 0x0 PUSH2 0x56C6 DUP3 DUP7 PUSH2 0x4182 JUMP JUMPDEST PUSH1 0x20 DUP3 ADD SWAP2 POP PUSH2 0x56D6 DUP3 DUP6 PUSH2 0x56A9 JUMP JUMPDEST PUSH1 0x14 DUP3 ADD SWAP2 POP PUSH2 0x56E6 DUP3 DUP5 PUSH2 0x4182 JUMP JUMPDEST POP PUSH1 0x20 ADD SWAP4 SWAP3 POP POP POP JUMP JUMPDEST PUSH1 0x0 DUP3 PUSH2 0x5700 JUMPI PUSH2 0x5700 PUSH2 0x4E28 JUMP JUMPDEST POP MOD SWAP1 JUMP JUMPDEST PUSH1 0x0 PUSH2 0x1912 PUSH2 0x4146 DUP4 DUP2 JUMP JUMPDEST PUSH2 0x571A DUP4 PUSH2 0x5705 JUMP JUMPDEST DUP2 SLOAD PUSH1 0x8 DUP5 MUL DUP3 DUP2 SHL PUSH1 0x0 NOT SWAP1 SWAP2 SHL SWAP1 DUP2 AND SWAP1 NOT SWAP1 SWAP2 AND OR DUP3 SSTORE POP POP POP POP JUMP JUMPDEST PUSH1 0x0 PUSH2 0x2AA1 DUP2 DUP5 DUP5 PUSH2 0x5711 JUMP JUMPDEST DUP2 DUP2 LT ISZERO PUSH2 0x2B48 JUMPI PUSH2 0x575A PUSH1 0x0 DUP3 PUSH2 0x573A JUMP JUMPDEST PUSH1 0x1 ADD PUSH2 0x5747 JUMP JUMPDEST PUSH1 0x1F DUP3 GT ISZERO PUSH2 0x2AA1 JUMPI PUSH1 0x0 DUP2 DUP2 MSTORE PUSH1 0x20 SWAP1 KECCAK256 PUSH1 0x20 PUSH1 0x1F DUP6 ADD DIV DUP2 ADD PUSH1 0x20 DUP6 LT ISZERO PUSH2 0x5789 JUMPI POP DUP1 JUMPDEST PUSH2 0x1D8D PUSH1 0x20 PUSH1 0x1F DUP7 ADD DIV DUP4 ADD DUP3 PUSH2 0x5747 JUMP JUMPDEST DUP2 MLOAD PUSH8 0xFFFFFFFFFFFFFFFF DUP2 GT ISZERO PUSH2 0x57B5 JUMPI PUSH2 0x57B5 PUSH2 0x4196 JUMP JUMPDEST PUSH2 0x57BF DUP3 SLOAD PUSH2 0x5409 JUMP JUMPDEST PUSH2 0x57CA DUP3 DUP3 DUP6 PUSH2 0x5762 JUMP JUMPDEST PUSH1 0x20 PUSH1 0x1F DUP4 GT PUSH1 0x1 DUP2 EQ PUSH2 0x57FE JUMPI PUSH1 0x0 DUP5 ISZERO PUSH2 0x57E6 JUMPI POP DUP6 DUP3 ADD MLOAD JUMPDEST PUSH1 0x0 NOT PUSH1 0x8 DUP7 MUL SHR NOT DUP2 AND PUSH1 0x2 DUP7 MUL OR DUP7 SSTORE POP PUSH2 0x37DD JUMP JUMPDEST PUSH1 0x0 DUP6 DUP2 MSTORE PUSH1 0x20 DUP2 KECCAK256 PUSH1 0x1F NOT DUP7 AND SWAP2 JUMPDEST DUP3 DUP2 LT ISZERO PUSH2 0x582E JUMPI DUP9 DUP6 ADD MLOAD DUP3 SSTORE PUSH1 0x20 SWAP5 DUP6 ADD SWAP5 PUSH1 0x1 SWAP1 SWAP3 ADD SWAP2 ADD PUSH2 0x580E JUMP JUMPDEST DUP7 DUP4 LT ISZERO PUSH2 0x584A JUMPI DUP5 DUP10 ADD MLOAD PUSH1 0x0 NOT PUSH1 0x1F DUP10 AND PUSH1 0x8 MUL SHR NOT AND DUP3 SSTORE JUMPDEST PUSH1 0x1 PUSH1 0x2 DUP9 MUL ADD DUP9 SSTORE POP POP POP POP POP POP POP POP POP JUMP JUMPDEST PUSH1 0x9 DUP2 MSTORE PUSH1 0x0 PUSH1 0x20 DUP3 ADD PUSH32 0x216465706C6F7965720000000000000000000000000000000000000000000000 DUP2 MSTORE SWAP2 POP PUSH2 0x4D50 JUMP JUMPDEST PUSH1 0x20 DUP1 DUP3 MSTORE DUP2 ADD PUSH2 0x1912 DUP2 PUSH2 0x585E JUMP JUMPDEST PUSH1 0xB DUP2 MSTORE PUSH1 0x0 PUSH1 0x20 DUP3 ADD PUSH32 0x217375636365737366756C000000000000000000000000000000000000000000 DUP2 MSTORE SWAP2 POP PUSH2 0x4D50 JUMP JUMPDEST PUSH1 0x20 DUP1 DUP3 MSTORE DUP2 ADD PUSH2 0x1912 DUP2 PUSH2 0x58A2 JUMP JUMPDEST DUP1 MLOAD PUSH2 0x1912 DUP2 PUSH2 0x42DD JUMP JUMPDEST PUSH1 0x0 PUSH1 0x20 DUP3 DUP5 SUB SLT ISZERO PUSH2 0x5906 JUMPI PUSH2 0x5906 PUSH1 0x0 DUP1 REVERT JUMPDEST PUSH1 0x0 PUSH2 0x4112 DUP5 DUP5 PUSH2 0x58E6 JUMP JUMPDEST PUSH1 0x0 DUP2 PUSH2 0x5921 JUMPI PUSH2 0x5921 PUSH2 0x4DD3 JUMP JUMPDEST POP PUSH1 0x0 NOT ADD SWAP1 JUMP JUMPDEST PUSH1 0xF DUP2 MSTORE PUSH1 0x0 PUSH1 0x20 DUP3 ADD PUSH32 0x215370656369616C2043616C6C65720000000000000000000000000000000000 DUP2 MSTORE SWAP2 POP PUSH2 0x4D50 JUMP JUMPDEST PUSH1 0x20 DUP1 DUP3 MSTORE DUP2 ADD PUSH2 0x1912 DUP2 PUSH2 0x5929 JUMP JUMPDEST PUSH1 0x40 DUP2 ADD PUSH2 0x597B DUP3 DUP6 PUSH2 0x4182 JUMP JUMPDEST PUSH2 0x44BE PUSH1 0x20 DUP4 ADD DUP5 PUSH2 0x4682 JUMP JUMPDEST PUSH1 0x3 DUP2 DUP1 PUSH1 0x0 JUMPDEST DUP4 DUP2 LT ISZERO PUSH2 0x37DD JUMPI DUP2 MLOAD PUSH2 0x59A3 DUP8 DUP3 PUSH2 0x483E JUMP JUMPDEST SWAP7 POP PUSH1 0x20 DUP4 ADD SWAP3 POP POP PUSH1 0x1 ADD PUSH2 0x598F JUMP JUMPDEST PUSH2 0x200 DUP2 ADD PUSH2 0x59C3 DUP3 DUP12 PUSH2 0x4182 JUMP JUMPDEST PUSH2 0x59D0 PUSH1 0x20 DUP4 ADD DUP11 PUSH2 0x4682 JUMP JUMPDEST PUSH2 0x59DD PUSH1 0x40 DUP4 ADD DUP10 PUSH2 0x5988 JUMP JUMPDEST PUSH2 0x59EA PUSH1 0xA0 DUP4 ADD DUP9 PUSH2 0x4182 JUMP JUMPDEST PUSH2 0x59F7 PUSH1 0xC0 DUP4 ADD DUP8 PUSH2 0x411A JUMP JUMPDEST PUSH2 0x5A04 PUSH1 0xE0 DUP4 ADD DUP7 PUSH2 0x4182 JUMP JUMPDEST PUSH2 0x5A12 PUSH2 0x100 DUP4 ADD DUP6 PUSH2 0x4182 JUMP JUMPDEST PUSH2 0x5A20 PUSH2 0x120 DUP4 ADD DUP5 PUSH2 0x4964 JUMP JUMPDEST SWAP10 SWAP9 POP POP POP POP POP POP POP POP POP JUMP JUMPDEST PUSH1 0x0 DUP1 PUSH1 0x40 DUP4 DUP6 SUB SLT ISZERO PUSH2 0x5A43 JUMPI PUSH2 0x5A43 PUSH1 0x0 DUP1 REVERT JUMPDEST PUSH1 0x0 PUSH2 0x4B95 DUP6 DUP6 PUSH2 0x40E6 JUMP JUMPDEST PUSH1 0x0 DUP1 PUSH1 0x0 DUP1 PUSH1 0x80 DUP6 DUP8 SUB SLT ISZERO PUSH2 0x5A68 JUMPI PUSH2 0x5A68 PUSH1 0x0 DUP1 REVERT JUMPDEST PUSH1 0x0 PUSH2 0x5A74 DUP8 DUP8 PUSH2 0x4DFC JUMP JUMPDEST SWAP5 POP POP PUSH1 0x20 PUSH2 0x5A85 DUP8 DUP3 DUP9 ADD PUSH2 0x4F0A JUMP JUMPDEST SWAP4 POP POP PUSH1 0x40 PUSH2 0x5A96 DUP8 DUP3 DUP9 ADD PUSH2 0x4DFC JUMP JUMPDEST SWAP3 POP POP PUSH1 0x60 PUSH2 0x4B4D DUP8 DUP3 DUP9 ADD PUSH2 0x58E6 JUMP JUMPDEST PUSH1 0x0 PUSH2 0x5AB5 PUSH2 0x423A DUP5 PUSH2 0x44C5 JUMP JUMPDEST SWAP1 POP DUP1 PUSH1 0x20 DUP5 MUL DUP4 ADD DUP6 DUP2 GT ISZERO PUSH2 0x5ACE JUMPI PUSH2 0x5ACE PUSH1 0x0 DUP1 REVERT JUMPDEST DUP4 JUMPDEST DUP2 DUP2 LT ISZERO PUSH2 0x4531 JUMPI DUP1 PUSH2 0x5AE3 DUP9 DUP3 PUSH2 0x4DFC JUMP JUMPDEST DUP5 MSTORE POP PUSH1 0x20 SWAP3 DUP4 ADD SWAP3 ADD PUSH2 0x5AD0 JUMP JUMPDEST PUSH1 0x0 DUP3 PUSH1 0x1F DUP4 ADD SLT PUSH2 0x5B06 JUMPI PUSH2 0x5B06 PUSH1 0x0 DUP1 REVERT JUMPDEST PUSH1 0x3 PUSH2 0x4112 DUP5 DUP3 DUP6 PUSH2 0x5AA7 JUMP JUMPDEST PUSH1 0x0 PUSH1 0xE0 DUP3 DUP5 SUB SLT ISZERO PUSH2 0x5B28 JUMPI PUSH2 0x5B28 PUSH1 0x0 DUP1 REVERT JUMPDEST PUSH2 0x5B32 PUSH1 0xA0 PUSH2 0x41D9 JUMP JUMPDEST SWAP1 POP PUSH1 0x0 PUSH2 0x5B40 DUP5 DUP5 PUSH2 0x58E6 JUMP JUMPDEST DUP3 MSTORE POP PUSH1 0x20 PUSH2 0x5B51 DUP5 DUP5 DUP4 ADD PUSH2 0x4DFC JUMP JUMPDEST PUSH1 0x20 DUP4 ADD MSTORE POP PUSH1 0x40 PUSH2 0x5B65 DUP5 DUP3 DUP6 ADD PUSH2 0x5AF2 JUMP JUMPDEST PUSH1 0x40 DUP4 ADD MSTORE POP PUSH1 0xA0 PUSH2 0x5B79 DUP5 DUP3 DUP6 ADD PUSH2 0x4F0A JUMP JUMPDEST PUSH1 0x60 DUP4 ADD MSTORE POP PUSH1 0xC0 PUSH2 0x5B8D DUP5 DUP3 DUP6 ADD PUSH2 0x4DFC JUMP JUMPDEST PUSH1 0x80 DUP4 ADD MSTORE POP SWAP3 SWAP2 POP POP JUMP JUMPDEST PUSH1 0x0 DUP1 PUSH1 0x0 DUP1 PUSH1 0x0 DUP1 PUSH1 0x0 DUP1 PUSH2 0x200 DUP10 DUP12 SUB SLT ISZERO PUSH2 0x5BB9 JUMPI PUSH2 0x5BB9 PUSH1 0x0 DUP1 REVERT JUMPDEST PUSH1 0x0 PUSH2 0x5BC5 DUP12 DUP12 PUSH2 0x4DFC JUMP JUMPDEST SWAP9 POP POP PUSH1 0x20 PUSH2 0x5BD6 DUP12 DUP3 DUP13 ADD PUSH2 0x58E6 JUMP JUMPDEST SWAP8 POP POP PUSH1 0x40 PUSH2 0x5BE7 DUP12 DUP3 DUP13 ADD PUSH2 0x5AF2 JUMP JUMPDEST SWAP7 POP POP PUSH1 0xA0 PUSH2 0x5BF8 DUP12 DUP3 DUP13 ADD PUSH2 0x4DFC JUMP JUMPDEST SWAP6 POP POP PUSH1 0xC0 PUSH2 0x5C09 DUP12 DUP3 DUP13 ADD PUSH2 0x4F0A JUMP JUMPDEST SWAP5 POP POP PUSH1 0xE0 PUSH2 0x5C1A DUP12 DUP3 DUP13 ADD PUSH2 0x4DFC JUMP JUMPDEST SWAP4 POP POP PUSH2 0x100 PUSH2 0x5C2C DUP12 DUP3 DUP13 ADD PUSH2 0x4DFC JUMP JUMPDEST SWAP3 POP POP PUSH2 0x120 PUSH2 0x5C3E DUP12 DUP3 DUP13 ADD PUSH2 0x5B13 JUMP JUMPDEST SWAP2 POP POP SWAP3 SWAP6 SWAP9 POP SWAP3 SWAP6 SWAP9 SWAP1 SWAP4 SWAP7 POP JUMP JUMPDEST PUSH1 0x0 DUP1 PUSH1 0x0 DUP1 PUSH1 0x80 DUP6 DUP8 SUB SLT ISZERO PUSH2 0x5C67 JUMPI PUSH2 0x5C67 PUSH1 0x0 DUP1 REVERT JUMPDEST PUSH1 0x0 PUSH2 0x5C73 DUP8 DUP8 PUSH2 0x4DFC JUMP JUMPDEST SWAP5 POP POP PUSH1 0x20 PUSH2 0x5C84 DUP8 DUP3 DUP9 ADD PUSH2 0x4DFC JUMP JUMPDEST SWAP4 POP POP PUSH1 0x40 PUSH2 0x5C95 DUP8 DUP3 DUP9 ADD PUSH2 0x4DFC JUMP JUMPDEST SWAP3 POP POP PUSH1 0x60 DUP6 ADD MLOAD PUSH8 0xFFFFFFFFFFFFFFFF DUP2 GT ISZERO PUSH2 0x5CB5 JUMPI PUSH2 0x5CB5 PUSH1 0x0 DUP1 REVERT JUMPDEST PUSH2 0x4B4D DUP8 DUP3 DUP9 ADD PUSH2 0x5506 JUMP JUMPDEST PUSH1 0x0 DUP1 PUSH1 0x80 DUP4 DUP6 SUB SLT ISZERO PUSH2 0x5CD7 JUMPI PUSH2 0x5CD7 PUSH1 0x0 DUP1 REVERT JUMPDEST PUSH1 0x0 PUSH2 0x5CE3 DUP6 DUP6 PUSH2 0x4DFC JUMP JUMPDEST SWAP3 POP POP PUSH1 0x20 PUSH2 0x4499 DUP6 DUP3 DUP7 ADD PUSH2 0x5AF2 JUMP JUMPDEST PUSH1 0x0 DUP1 PUSH1 0x40 DUP4 DUP6 SUB SLT ISZERO PUSH2 0x5D0A JUMPI PUSH2 0x5D0A PUSH1 0x0 DUP1 REVERT JUMPDEST PUSH1 0x0 PUSH2 0x5D16 DUP6 DUP6 PUSH2 0x4DFC JUMP JUMPDEST SWAP3 POP POP PUSH1 0x20 PUSH2 0x4499 DUP6 DUP3 DUP7 ADD PUSH2 0x58E6 JUMP JUMPDEST PUSH1 0x0 DUP1 PUSH1 0x0 PUSH1 0x60 DUP5 DUP7 SUB SLT ISZERO PUSH2 0x5D3F JUMPI PUSH2 0x5D3F PUSH1 0x0 DUP1 REVERT JUMPDEST PUSH1 0x0 PUSH2 0x5D4B DUP7 DUP7 PUSH2 0x4DFC JUMP JUMPDEST SWAP4 POP POP PUSH1 0x20 PUSH2 0x5D5C DUP7 DUP3 DUP8 ADD PUSH2 0x4DFC JUMP JUMPDEST SWAP3 POP POP PUSH1 0x40 PUSH2 0x45B5 DUP7 DUP3 DUP8 ADD PUSH2 0x58E6 JUMP JUMPDEST PUSH1 0x0 DUP2 SLOAD PUSH2 0x5D7A DUP2 PUSH2 0x5409 JUMP JUMPDEST DUP1 DUP6 MSTORE PUSH1 0x20 DUP6 ADD SWAP5 POP PUSH1 0x1 DUP3 AND DUP1 ISZERO PUSH2 0x5D9A JUMPI PUSH1 0x1 DUP2 EQ PUSH2 0x5DB0 JUMPI PUSH2 0x5DDE JUMP JUMPDEST PUSH1 0xFF NOT DUP4 AND DUP7 MSTORE PUSH1 0x20 DUP3 ISZERO ISZERO MUL DUP7 ADD SWAP4 POP PUSH2 0x5DDE JUMP JUMPDEST PUSH1 0x0 DUP6 DUP2 MSTORE PUSH1 0x20 SWAP1 KECCAK256 PUSH1 0x0 JUMPDEST DUP4 DUP2 LT ISZERO PUSH2 0x5DD8 JUMPI DUP2 SLOAD DUP9 DUP3 ADD MSTORE PUSH1 0x1 SWAP1 SWAP2 ADD SWAP1 PUSH1 0x20 ADD PUSH2 0x5DBC JUMP JUMPDEST DUP8 ADD SWAP5 POP POP JUMPDEST POP POP POP SWAP3 SWAP2 POP POP JUMP JUMPDEST PUSH1 0xA0 DUP2 ADD PUSH2 0x5DF5 DUP3 DUP9 PUSH2 0x4682 JUMP JUMPDEST DUP2 DUP2 SUB PUSH1 0x20 DUP4 ADD MSTORE PUSH2 0x5E07 DUP2 DUP8 PUSH2 0x5D6D JUMP JUMPDEST SWAP1 POP DUP2 DUP2 SUB PUSH1 0x40 DUP4 ADD MSTORE PUSH2 0x5E1B DUP2 DUP7 PUSH2 0x5D6D JUMP JUMPDEST SWAP1 POP DUP2 DUP2 SUB PUSH1 0x60 DUP4 ADD MSTORE PUSH2 0x5E2F DUP2 DUP6 PUSH2 0x46E4 JUMP JUMPDEST SWAP1 POP PUSH2 0x5E3E PUSH1 0x80 DUP4 ADD DUP5 PUSH2 0x4682 JUMP JUMPDEST SWAP7 SWAP6 POP POP POP POP POP POP JUMP JUMPDEST PUSH1 0x60 DUP1 DUP3 MSTORE DUP2 ADD PUSH2 0x5E59 DUP2 DUP7 PUSH2 0x5D6D JUMP JUMPDEST SWAP1 POP DUP2 DUP2 SUB PUSH1 0x20 DUP4 ADD MSTORE PUSH2 0x5E6D DUP2 DUP6 PUSH2 0x5D6D JUMP JUMPDEST SWAP1 POP DUP2 DUP2 SUB PUSH1 0x40 DUP4 ADD MSTORE PUSH2 0xC61 DUP2 DUP5 PUSH2 0x46E4 JUMP JUMPDEST PUSH1 0x80 DUP2 ADD PUSH2 0x5E8F DUP3 DUP8 PUSH2 0x4182 JUMP JUMPDEST PUSH2 0x5E9C PUSH1 0x20 DUP4 ADD DUP7 PUSH2 0x411A JUMP JUMPDEST PUSH2 0x5EA9 PUSH1 0x40 DUP4 ADD DUP6 PUSH2 0x4182 JUMP JUMPDEST PUSH2 0xC61 PUSH1 0x60 DUP4 ADD DUP5 PUSH2 0x4682 JUMP JUMPDEST PUSH1 0x80 DUP2 ADD PUSH2 0x5EC4 DUP3 DUP6 PUSH2 0x4182 JUMP JUMPDEST PUSH2 0x44BE PUSH1 0x20 DUP4 ADD DUP5 PUSH2 0x5988 JUMP JUMPDEST PUSH1 0x80 DUP2 ADD PUSH2 0x5EDF DUP3 DUP8 PUSH2 0x4182 JUMP JUMPDEST PUSH2 0x5EEC PUSH1 0x20 DUP4 ADD DUP7 PUSH2 0x4182 JUMP JUMPDEST PUSH2 0x5EF9 PUSH1 0x40 DUP4 ADD DUP6 PUSH2 0x4182 JUMP JUMPDEST DUP2 DUP2 SUB PUSH1 0x60 DUP4 ADD MSTORE PUSH2 0x5E3E DUP2 DUP5 PUSH2 0x46E4 JUMP INVALID LOG2 PUSH5 0x6970667358 0x22 SLT KECCAK256 EXTCODEHASH PUSH13 0xE006A48842B035420CC2FADCF8 0xD0 LOG0 BLOCKHASH PUSH29 0xD60155984DB33CB86A26B56B9064736F6C634300081100330000000000 "},"gasEstimates":{"creation":{"codeDepositCost":"4877000","executionCost":"infinite","totalCost":"infinite"},"external":{"FILECOIN_CHAIN_ID()":"2461","MAX_TICKET_PER_ROUND()":"2486","POLYGON_CHAIN_ID()":"2463","PREDICTABLE_VALUE()":"2484","buyTicket(uint256[3],bool,uint256)":"infinite","buyTicketPath()":"2483","claimRefund(uint256,uint256)":"infinite","claimWinnings(uint256,uint256)":"infinite","claimWinningsPath()":"2484","currentRound()":"2462","deployer()":"infinite","execute(bytes32,string,string,bytes)":"infinite","executeWithToken(bytes32,string,string,bytes,string,uint256)":"infinite","filecoinChain()":"infinite","filecoinDestinationAddr()":"infinite","gasService()":"infinite","gateway()":"infinite","getAssetPriceUsd(string)":"infinite","getCurrentRoundDetails()":"infinite","getCurrentTimeStamp()":"359","getDataAfter(bytes32,uint256)":"infinite","getDataBefore(bytes32,uint256)":"infinite","getIndexForDataAfter(bytes32,uint256)":"infinite","getIndexForDataBefore(bytes32,uint256)":"infinite","getMultipleValuesBefore(bytes32,uint256,uint256,uint256)":"infinite","getNewValueCountbyQueryId(bytes32)":"infinite","getReporterByTimestamp(bytes32,uint256)":"infinite","getRoundPoolBalanceUsd()":"infinite","getTicketsPurchasedPerRound(address)":"infinite","getTimestampbyQueryIdandIndex(bytes32,uint256)":"infinite","getTotalRoundWinners()":"infinite","getUserDetails(address)":"infinite","getUserTicketsForCurrentRound(address)":"infinite","idMappingContract()":"infinite","isInDispute(bytes32,uint256)":"infinite","isWinner(uint256)":"infinite","krabzTokenAddress()":"infinite","newRoundPath()":"2441","polygonChain()":"infinite","polygonDestinationAddr()":"infinite","retrieveData(bytes32,uint256)":"infinite","roundIdToRoundDetails_(uint256)":"infinite","roundIdToTicketList_(uint256,uint256)":"infinite","roundToticketId_(uint256,uint256)":"infinite","setIdMappingContract(address)":"infinite","setRandomWinnersPath()":"2506","setRoundWinners(uint256,uint256,uint256,uint256)":"infinite","startNewRound(uint256,uint256,string,uint256)":"infinite","tellor()":"infinite","ticketsPurchasedPerRound_(uint256,address)":"infinite","topUpWalletBalance(uint256,bool,uint256)":"infinite","topUpWalletPath()":"2505","updateDestinationAddresses(string,string)":"infinite","userDetails_(address)":"infinite","valueFor(bytes32)":"infinite","withdrawFromWallet(uint256,uint256,uint256)":"infinite","withdrawFromWalletPath()":"2485","withdrawNativeAsset()":"2541"},"internal":{"_checkEquality(uint256[3] memory,uint256[3] memory)":"infinite","_execute(string calldata,string calldata,bytes calldata)":"infinite","_handleBuyTicketCrossChain(uint256,address,uint256[3] memory,uint256,bool,uint256,uint256,struct MrKrabz.Ticket memory,uint256)":"infinite","_handleBuyTicketexecutionPath(uint256,address,uint256[3] memory,uint256,bool,uint256,uint256,struct MrKrabz.Ticket memory)":"infinite","_handleClaimWinningsCrossChain(uint256,address,uint256)":"infinite","_handleSetRandomWinnersCrossChain(uint256,uint256[3] memory,uint256)":"infinite","_handleStartNewRoundCrossChain(uint256,uint256,uint256,string memory,uint256)":"infinite","_handleTopUpWalletBalanceCrossChain(uint256,bool,address,uint256)":"infinite","_handleTopupWalletExecutionPath(uint256,bool,uint256,address)":"28684","_sendPayloadFromFilecoin(bytes memory,uint256)":"infinite","_sendPayloadFromPolygon(bytes memory,uint256)":"infinite"}},"methodIdentifiers":{"FILECOIN_CHAIN_ID()":"ad898f5b","MAX_TICKET_PER_ROUND()":"15397a57","POLYGON_CHAIN_ID()":"20eb5632","PREDICTABLE_VALUE()":"4c21b369","buyTicket(uint256[3],bool,uint256)":"44e4e0f9","buyTicketPath()":"aebd823a","claimRefund(uint256,uint256)":"8527d58f","claimWinnings(uint256,uint256)":"286db5c2","claimWinningsPath()":"92093527","currentRound()":"8a19c8bc","deployer()":"d5f39488","execute(bytes32,string,string,bytes)":"49160658","executeWithToken(bytes32,string,string,bytes,string,uint256)":"1a98b2e0","filecoinChain()":"ff5c04ce","filecoinDestinationAddr()":"70ef05db","gasService()":"6a22d8cc","gateway()":"116191b6","getAssetPriceUsd(string)":"18409201","getCurrentRoundDetails()":"9bb6eb70","getCurrentTimeStamp()":"7e5e219c","getDataAfter(bytes32,uint256)":"64ee3c6d","getDataBefore(bytes32,uint256)":"a792765f","getIndexForDataAfter(bytes32,uint256)":"f66f49c3","getIndexForDataBefore(bytes32,uint256)":"29449085","getMultipleValuesBefore(bytes32,uint256,uint256,uint256)":"fcd4a546","getNewValueCountbyQueryId(bytes32)":"77b03e0d","getReporterByTimestamp(bytes32,uint256)":"e07c5486","getRoundPoolBalanceUsd()":"276f4872","getTicketsPurchasedPerRound(address)":"acb8b0c7","getTimestampbyQueryIdandIndex(bytes32,uint256)":"ce5e11bf","getTotalRoundWinners()":"42f5ac52","getUserDetails(address)":"cc3d967b","getUserTicketsForCurrentRound(address)":"a8c44b23","idMappingContract()":"2af8aae0","isInDispute(bytes32,uint256)":"44e87f91","isWinner(uint256)":"0e392288","krabzTokenAddress()":"795688ca","newRoundPath()":"16f961b7","polygonChain()":"e59fef7c","polygonDestinationAddr()":"80c1442b","retrieveData(bytes32,uint256)":"c5958af9","roundIdToRoundDetails_(uint256)":"cb288e8e","roundIdToTicketList_(uint256,uint256)":"6abc4367","roundToticketId_(uint256,uint256)":"491f3437","setIdMappingContract(address)":"193b505b","setRandomWinnersPath()":"6bfee4ea","setRoundWinners(uint256,uint256,uint256,uint256)":"d1813b33","startNewRound(uint256,uint256,string,uint256)":"fa45cfdd","tellor()":"1959ad5b","ticketsPurchasedPerRound_(uint256,address)":"a0876f49","topUpWalletBalance(uint256,bool,uint256)":"74cdb711","topUpWalletPath()":"b5f597f3","updateDestinationAddresses(string,string)":"d98c3c65","userDetails_(address)":"77f37283","valueFor(bytes32)":"f78eea83","withdrawFromWallet(uint256,uint256,uint256)":"6a8054c1","withdrawFromWalletPath()":"469a397b","withdrawNativeAsset()":"de7c756e"}},"storageLayout":{"storage":[{"astId":3452,"contract":"contracts/MrKrabz.sol:MrKrabz","label":"tellor","offset":0,"slot":"0","type":"t_contract(ITellor)5193"},{"astId":3455,"contract":"contracts/MrKrabz.sol:MrKrabz","label":"idMappingContract","offset":0,"slot":"1","type":"t_contract(IMappingContract)4198"},{"astId":1013,"contract":"contracts/MrKrabz.sol:MrKrabz","label":"krabzTokenAddress","offset":0,"slot":"2","type":"t_address"},{"astId":1015,"contract":"contracts/MrKrabz.sol:MrKrabz","label":"deployer","offset":0,"slot":"3","type":"t_address"},{"astId":1018,"contract":"contracts/MrKrabz.sol:MrKrabz","label":"FILECOIN_CHAIN_ID","offset":0,"slot":"4","type":"t_uint256"},{"astId":1021,"contract":"contracts/MrKrabz.sol:MrKrabz","label":"POLYGON_CHAIN_ID","offset":0,"slot":"5","type":"t_uint256"},{"astId":1024,"contract":"contracts/MrKrabz.sol:MrKrabz","label":"topUpWalletPath","offset":0,"slot":"6","type":"t_uint256"},{"astId":1027,"contract":"contracts/MrKrabz.sol:MrKrabz","label":"buyTicketPath","offset":0,"slot":"7","type":"t_uint256"},{"astId":1030,"contract":"contracts/MrKrabz.sol:MrKrabz","label":"newRoundPath","offset":0,"slot":"8","type":"t_uint256"},{"astId":1033,"contract":"contracts/MrKrabz.sol:MrKrabz","label":"setRandomWinnersPath","offset":0,"slot":"9","type":"t_uint256"},{"astId":1036,"contract":"contracts/MrKrabz.sol:MrKrabz","label":"claimWinningsPath","offset":0,"slot":"10","type":"t_uint256"},{"astId":1039,"contract":"contracts/MrKrabz.sol:MrKrabz","label":"withdrawFromWalletPath","offset":0,"slot":"11","type":"t_uint256"},{"astId":1041,"contract":"contracts/MrKrabz.sol:MrKrabz","label":"currentRound","offset":0,"slot":"12","type":"t_uint256"},{"astId":1044,"contract":"contracts/MrKrabz.sol:MrKrabz","label":"MAX_TICKET_PER_ROUND","offset":0,"slot":"13","type":"t_uint256"},{"astId":1047,"contract":"contracts/MrKrabz.sol:MrKrabz","label":"PREDICTABLE_VALUE","offset":0,"slot":"14","type":"t_uint256"},{"astId":1050,"contract":"contracts/MrKrabz.sol:MrKrabz","label":"filecoinChain","offset":0,"slot":"15","type":"t_string_storage"},{"astId":1053,"contract":"contracts/MrKrabz.sol:MrKrabz","label":"polygonChain","offset":0,"slot":"16","type":"t_string_storage"},{"astId":1055,"contract":"contracts/MrKrabz.sol:MrKrabz","label":"filecoinDestinationAddr","offset":0,"slot":"17","type":"t_string_storage"},{"astId":1057,"contract":"contracts/MrKrabz.sol:MrKrabz","label":"polygonDestinationAddr","offset":0,"slot":"18","type":"t_string_storage"},{"astId":1062,"contract":"contracts/MrKrabz.sol:MrKrabz","label":"userDetails_","offset":0,"slot":"19","type":"t_mapping(t_address,t_struct(User)1011_storage)"},{"astId":1069,"contract":"contracts/MrKrabz.sol:MrKrabz","label":"roundToticketId_","offset":0,"slot":"20","type":"t_mapping(t_uint256,t_mapping(t_uint256,t_struct(Ticket)981_storage))"},{"astId":1074,"contract":"contracts/MrKrabz.sol:MrKrabz","label":"roundIdToRoundDetails_","offset":0,"slot":"21","type":"t_mapping(t_uint256,t_struct(Round)1001_storage)"},{"astId":1080,"contract":"contracts/MrKrabz.sol:MrKrabz","label":"ticketsPurchasedPerRound_","offset":0,"slot":"22","type":"t_mapping(t_uint256,t_mapping(t_address,t_uint256))"},{"astId":1086,"contract":"contracts/MrKrabz.sol:MrKrabz","label":"roundIdToTicketList_","offset":0,"slot":"23","type":"t_mapping(t_uint256,t_array(t_struct(Ticket)981_storage)dyn_storage)"}],"types":{"t_address":{"encoding":"inplace","label":"address","numberOfBytes":"20"},"t_array(t_struct(Ticket)981_storage)dyn_storage":{"base":"t_struct(Ticket)981_storage","encoding":"dynamic_array","label":"struct MrKrabz.Ticket[]","numberOfBytes":"32"},"t_array(t_uint256)3_storage":{"base":"t_uint256","encoding":"inplace","label":"uint256[3]","numberOfBytes":"96"},"t_bool":{"encoding":"inplace","label":"bool","numberOfBytes":"1"},"t_contract(IMappingContract)4198":{"encoding":"inplace","label":"contract IMappingContract","numberOfBytes":"20"},"t_contract(ITellor)5193":{"encoding":"inplace","label":"contract ITellor","numberOfBytes":"20"},"t_mapping(t_address,t_struct(User)1011_storage)":{"encoding":"mapping","key":"t_address","label":"mapping(address => struct MrKrabz.User)","numberOfBytes":"32","value":"t_struct(User)1011_storage"},"t_mapping(t_address,t_uint256)":{"encoding":"mapping","key":"t_address","label":"mapping(address => uint256)","numberOfBytes":"32","value":"t_uint256"},"t_mapping(t_uint256,t_array(t_struct(Ticket)981_storage)dyn_storage)":{"encoding":"mapping","key":"t_uint256","label":"mapping(uint256 => struct MrKrabz.Ticket[])","numberOfBytes":"32","value":"t_array(t_struct(Ticket)981_storage)dyn_storage"},"t_mapping(t_uint256,t_mapping(t_address,t_uint256))":{"encoding":"mapping","key":"t_uint256","label":"mapping(uint256 => mapping(address => uint256))","numberOfBytes":"32","value":"t_mapping(t_address,t_uint256)"},"t_mapping(t_uint256,t_mapping(t_uint256,t_struct(Ticket)981_storage))":{"encoding":"mapping","key":"t_uint256","label":"mapping(uint256 => mapping(uint256 => struct MrKrabz.Ticket))","numberOfBytes":"32","value":"t_mapping(t_uint256,t_struct(Ticket)981_storage)"},"t_mapping(t_uint256,t_struct(Round)1001_storage)":{"encoding":"mapping","key":"t_uint256","label":"mapping(uint256 => struct MrKrabz.Round)","numberOfBytes":"32","value":"t_struct(Round)1001_storage"},"t_mapping(t_uint256,t_struct(Ticket)981_storage)":{"encoding":"mapping","key":"t_uint256","label":"mapping(uint256 => struct MrKrabz.Ticket)","numberOfBytes":"32","value":"t_struct(Ticket)981_storage"},"t_string_storage":{"encoding":"bytes","label":"string","numberOfBytes":"32"},"t_struct(CrossChainBalance)968_storage":{"encoding":"inplace","label":"struct MrKrabz.CrossChainBalance","members":[{"astId":963,"contract":"contracts/MrKrabz.sol:MrKrabz","label":"fil","offset":0,"slot":"0","type":"t_uint256"},{"astId":965,"contract":"contracts/MrKrabz.sol:MrKrabz","label":"matic","offset":0,"slot":"1","type":"t_uint256"},{"astId":967,"contract":"contracts/MrKrabz.sol:MrKrabz","label":"krabz","offset":0,"slot":"2","type":"t_uint256"}],"numberOfBytes":"96"},"t_struct(Round)1001_storage":{"encoding":"inplace","label":"struct MrKrabz.Round","members":[{"astId":983,"contract":"contracts/MrKrabz.sol:MrKrabz","label":"roundName","offset":0,"slot":"0","type":"t_string_storage"},{"astId":985,"contract":"contracts/MrKrabz.sol:MrKrabz","label":"roundId","offset":0,"slot":"1","type":"t_uint256"},{"astId":987,"contract":"contracts/MrKrabz.sol:MrKrabz","label":"ticketsPurchased","offset":0,"slot":"2","type":"t_uint256"},{"astId":989,"contract":"contracts/MrKrabz.sol:MrKrabz","label":"roundEndTime","offset":0,"slot":"3","type":"t_uint256"},{"astId":991,"contract":"contracts/MrKrabz.sol:MrKrabz","label":"ticketPrice","offset":0,"slot":"4","type":"t_uint256"},{"astId":995,"contract":"contracts/MrKrabz.sol:MrKrabz","label":"roundWinningNumbers","offset":0,"slot":"5","type":"t_array(t_uint256)3_storage"},{"astId":997,"contract":"contracts/MrKrabz.sol:MrKrabz","label":"roundState","offset":0,"slot":"8","type":"t_bool"},{"astId":1000,"contract":"contracts/MrKrabz.sol:MrKrabz","label":"balance","offset":0,"slot":"9","type":"t_struct(CrossChainBalance)968_storage"}],"numberOfBytes":"384"},"t_struct(Ticket)981_storage":{"encoding":"inplace","label":"struct MrKrabz.Ticket","members":[{"astId":970,"contract":"contracts/MrKrabz.sol:MrKrabz","label":"owner","offset":0,"slot":"0","type":"t_address"},{"astId":972,"contract":"contracts/MrKrabz.sol:MrKrabz","label":"ID","offset":0,"slot":"1","type":"t_uint256"},{"astId":976,"contract":"contracts/MrKrabz.sol:MrKrabz","label":"selectedNumbers","offset":0,"slot":"2","type":"t_array(t_uint256)3_storage"},{"astId":978,"contract":"contracts/MrKrabz.sol:MrKrabz","label":"withdrawn","offset":0,"slot":"5","type":"t_bool"},{"astId":980,"contract":"contracts/MrKrabz.sol:MrKrabz","label":"originChain","offset":0,"slot":"6","type":"t_uint256"}],"numberOfBytes":"224"},"t_struct(User)1011_storage":{"encoding":"inplace","label":"struct MrKrabz.User","members":[{"astId":1003,"contract":"contracts/MrKrabz.sol:MrKrabz","label":"user","offset":0,"slot":"0","type":"t_address"},{"astId":1005,"contract":"contracts/MrKrabz.sol:MrKrabz","label":"totalTicketsPurchased","offset":0,"slot":"1","type":"t_uint256"},{"astId":1007,"contract":"contracts/MrKrabz.sol:MrKrabz","label":"totalWinnings","offset":0,"slot":"2","type":"t_uint256"},{"astId":1010,"contract":"contracts/MrKrabz.sol:MrKrabz","label":"balance","offset":0,"slot":"3","type":"t_struct(CrossChainBalance)968_storage"}],"numberOfBytes":"192"},"t_uint256":{"encoding":"inplace","label":"uint256","numberOfBytes":"32"}}},"userdoc":{"kind":"user","methods":{},"version":1}}}}