{"@axelar-network/axelar-gmp-sdk-solidity/contracts/executable/AxelarExecutable.sol":{"AxelarExecutable":{"abi":[{"inputs":[{"internalType":"address","name":"gateway_","type":"address"}],"stateMutability":"nonpayable","type":"constructor"},{"inputs":[],"name":"InvalidAddress","type":"error"},{"inputs":[],"name":"NotApprovedByGateway","type":"error"},{"inputs":[{"internalType":"bytes32","name":"commandId","type":"bytes32"},{"internalType":"string","name":"sourceChain","type":"string"},{"internalType":"string","name":"sourceAddress","type":"string"},{"internalType":"bytes","name":"payload","type":"bytes"}],"name":"execute","outputs":[],"stateMutability":"nonpayable","type":"function"},{"inputs":[{"internalType":"bytes32","name":"commandId","type":"bytes32"},{"internalType":"string","name":"sourceChain","type":"string"},{"internalType":"string","name":"sourceAddress","type":"string"},{"internalType":"bytes","name":"payload","type":"bytes"},{"internalType":"string","name":"tokenSymbol","type":"string"},{"internalType":"uint256","name":"amount","type":"uint256"}],"name":"executeWithToken","outputs":[],"stateMutability":"nonpayable","type":"function"},{"inputs":[],"name":"gateway","outputs":[{"internalType":"contract IAxelarGateway","name":"","type":"address"}],"stateMutability":"view","type":"function"}],"devdoc":{"kind":"dev","methods":{},"version":1},"evm":{"bytecode":{"linkReferences":{},"object":"60a060405234801561001057600080fd5b506040516107b93803806107b983398101604081905261002f9161009c565b6001600160a01b0381166100565760405163e6c4247b60e01b815260040160405180910390fd5b6001600160a01b03166080526100c5565b60006001600160a01b0382165b92915050565b61008381610067565b811461008e57600080fd5b50565b80516100748161007a565b6000602082840312156100b1576100b1600080fd5b60006100bd8484610091565b949350505050565b6080516106cc6100ed60003960008181604b01528181610102015261020b01526106cc6000f3fe608060405234801561001057600080fd5b50600436106100415760003560e01c8063116191b6146100465780631a98b2e0146100835780634916065814610098575b600080fd5b61006d7f000000000000000000000000000000000000000000000000000000000000000081565b60405161007a91906102f9565b60405180910390f35b610096610091366004610374565b6100ab565b005b6100966100a636600461047d565b6101b4565b600085856040516100bd92919061055f565b6040519081900381207f1876eed9000000000000000000000000000000000000000000000000000000008252915073ffffffffffffffffffffffffffffffffffffffff7f00000000000000000000000000000000000000000000000000000000000000001690631876eed990610147908e908e908e908e908e9089908d908d908d9060040161059d565b6020604051808303816000875af1158015610166573d6000803e3d6000fd5b505050506040513d601f19601f8201168201806040525081019061018a9190610625565b6101a757604051631403112d60e21b815260040160405180910390fd5b5050505050505050505050565b600082826040516101c692919061055f565b6040519081900381207f5f6970c3000000000000000000000000000000000000000000000000000000008252915073ffffffffffffffffffffffffffffffffffffffff7f00000000000000000000000000000000000000000000000000000000000000001690635f6970c39061024a908b908b908b908b908b908990600401610646565b6020604051808303816000875af1158015610269573d6000803e3d6000fd5b505050506040513d601f19601f8201168201806040525081019061028d9190610625565b6102aa57604051631403112d60e21b815260040160405180910390fd5b5050505050505050565b600073ffffffffffffffffffffffffffffffffffffffff82165b92915050565b60006102ce826102b4565b60006102ce826102d4565b6102f3816102df565b82525050565b602081016102ce82846102ea565b805b811461031457600080fd5b50565b80356102ce81610307565b60008083601f84011261033757610337600080fd5b50813567ffffffffffffffff81111561035257610352600080fd5b60208301915083600182028301111561036d5761036d600080fd5b9250929050565b60008060008060008060008060008060c08b8d03121561039657610396600080fd5b60006103a28d8d610317565b9a505060208b013567ffffffffffffffff8111156103c2576103c2600080fd5b6103ce8d828e01610322565b995099505060408b013567ffffffffffffffff8111156103f0576103f0600080fd5b6103fc8d828e01610322565b975097505060608b013567ffffffffffffffff81111561041e5761041e600080fd5b61042a8d828e01610322565b955095505060808b013567ffffffffffffffff81111561044c5761044c600080fd5b6104588d828e01610322565b935093505060a061046b8d828e01610317565b9150509295989b9194979a5092959850565b60008060008060008060006080888a03121561049b5761049b600080fd5b60006104a78a8a610317565b975050602088013567ffffffffffffffff8111156104c7576104c7600080fd5b6104d38a828b01610322565b9650965050604088013567ffffffffffffffff8111156104f5576104f5600080fd5b6105018a828b01610322565b9450945050606088013567ffffffffffffffff81111561052357610523600080fd5b61052f8a828b01610322565b925092505092959891949750929550565b82818337506000910152565b6000610559838584610540565b50500190565b600061056c82848661054c565b949350505050565b806102f3565b8183526000602084019350610590838584610540565b5050601f01601f19160190565b60c081016105ab828c610574565b81810360208301526105be818a8c61057a565b905081810360408301526105d381888a61057a565b90506105e26060830187610574565b81810360808301526105f581858761057a565b905061060460a0830184610574565b9a9950505050505050505050565b801515610309565b80516102ce81610612565b60006020828403121561063a5761063a600080fd5b600061056c848461061a565b608081016106548289610574565b818103602083015261066781878961057a565b9050818103604083015261067c81858761057a565b905061068b6060830184610574565b97965050505050505056fea2646970667358221220f1cc047bd3bf04a248db0497c99d3b9a48a0b3308032fb2a67b5d19e942b68d664736f6c63430008110033","opcodes":"PUSH1 0xA0 PUSH1 0x40 MSTORE CALLVALUE DUP1 ISZERO PUSH2 0x10 JUMPI PUSH1 0x0 DUP1 REVERT JUMPDEST POP PUSH1 0x40 MLOAD PUSH2 0x7B9 CODESIZE SUB DUP1 PUSH2 0x7B9 DUP4 CODECOPY DUP2 ADD PUSH1 0x40 DUP2 SWAP1 MSTORE PUSH2 0x2F SWAP2 PUSH2 0x9C JUMP JUMPDEST PUSH1 0x1 PUSH1 0x1 PUSH1 0xA0 SHL SUB DUP2 AND PUSH2 0x56 JUMPI PUSH1 0x40 MLOAD PUSH4 0xE6C4247B PUSH1 0xE0 SHL DUP2 MSTORE PUSH1 0x4 ADD PUSH1 0x40 MLOAD DUP1 SWAP2 SUB SWAP1 REVERT JUMPDEST PUSH1 0x1 PUSH1 0x1 PUSH1 0xA0 SHL SUB AND PUSH1 0x80 MSTORE PUSH2 0xC5 JUMP JUMPDEST PUSH1 0x0 PUSH1 0x1 PUSH1 0x1 PUSH1 0xA0 SHL SUB DUP3 AND JUMPDEST SWAP3 SWAP2 POP POP JUMP JUMPDEST PUSH2 0x83 DUP2 PUSH2 0x67 JUMP JUMPDEST DUP2 EQ PUSH2 0x8E JUMPI PUSH1 0x0 DUP1 REVERT JUMPDEST POP JUMP JUMPDEST DUP1 MLOAD PUSH2 0x74 DUP2 PUSH2 0x7A JUMP JUMPDEST PUSH1 0x0 PUSH1 0x20 DUP3 DUP5 SUB SLT ISZERO PUSH2 0xB1 JUMPI PUSH2 0xB1 PUSH1 0x0 DUP1 REVERT JUMPDEST PUSH1 0x0 PUSH2 0xBD DUP5 DUP5 PUSH2 0x91 JUMP JUMPDEST SWAP5 SWAP4 POP POP POP POP JUMP JUMPDEST PUSH1 0x80 MLOAD PUSH2 0x6CC PUSH2 0xED PUSH1 0x0 CODECOPY PUSH1 0x0 DUP2 DUP2 PUSH1 0x4B ADD MSTORE DUP2 DUP2 PUSH2 0x102 ADD MSTORE PUSH2 0x20B ADD MSTORE PUSH2 0x6CC PUSH1 0x0 RETURN INVALID PUSH1 0x80 PUSH1 0x40 MSTORE CALLVALUE DUP1 ISZERO PUSH2 0x10 JUMPI PUSH1 0x0 DUP1 REVERT JUMPDEST POP PUSH1 0x4 CALLDATASIZE LT PUSH2 0x41 JUMPI PUSH1 0x0 CALLDATALOAD PUSH1 0xE0 SHR DUP1 PUSH4 0x116191B6 EQ PUSH2 0x46 JUMPI DUP1 PUSH4 0x1A98B2E0 EQ PUSH2 0x83 JUMPI DUP1 PUSH4 0x49160658 EQ PUSH2 0x98 JUMPI JUMPDEST PUSH1 0x0 DUP1 REVERT JUMPDEST PUSH2 0x6D PUSH32 0x0 DUP2 JUMP JUMPDEST PUSH1 0x40 MLOAD PUSH2 0x7A SWAP2 SWAP1 PUSH2 0x2F9 JUMP JUMPDEST PUSH1 0x40 MLOAD DUP1 SWAP2 SUB SWAP1 RETURN JUMPDEST PUSH2 0x96 PUSH2 0x91 CALLDATASIZE PUSH1 0x4 PUSH2 0x374 JUMP JUMPDEST PUSH2 0xAB JUMP JUMPDEST STOP JUMPDEST PUSH2 0x96 PUSH2 0xA6 CALLDATASIZE PUSH1 0x4 PUSH2 0x47D JUMP JUMPDEST PUSH2 0x1B4 JUMP JUMPDEST PUSH1 0x0 DUP6 DUP6 PUSH1 0x40 MLOAD PUSH2 0xBD SWAP3 SWAP2 SWAP1 PUSH2 0x55F JUMP JUMPDEST PUSH1 0x40 MLOAD SWAP1 DUP2 SWAP1 SUB DUP2 KECCAK256 PUSH32 0x1876EED900000000000000000000000000000000000000000000000000000000 DUP3 MSTORE SWAP2 POP PUSH20 0xFFFFFFFFFFFFFFFFFFFFFFFFFFFFFFFFFFFFFFFF PUSH32 0x0 AND SWAP1 PUSH4 0x1876EED9 SWAP1 PUSH2 0x147 SWAP1 DUP15 SWAP1 DUP15 SWAP1 DUP15 SWAP1 DUP15 SWAP1 DUP15 SWAP1 DUP10 SWAP1 DUP14 SWAP1 DUP14 SWAP1 DUP14 SWAP1 PUSH1 0x4 ADD PUSH2 0x59D JUMP JUMPDEST PUSH1 0x20 PUSH1 0x40 MLOAD DUP1 DUP4 SUB DUP2 PUSH1 0x0 DUP8 GAS CALL ISZERO DUP1 ISZERO PUSH2 0x166 JUMPI RETURNDATASIZE PUSH1 0x0 DUP1 RETURNDATACOPY RETURNDATASIZE PUSH1 0x0 REVERT JUMPDEST POP POP POP POP PUSH1 0x40 MLOAD RETURNDATASIZE PUSH1 0x1F NOT PUSH1 0x1F DUP3 ADD AND DUP3 ADD DUP1 PUSH1 0x40 MSTORE POP DUP2 ADD SWAP1 PUSH2 0x18A SWAP2 SWAP1 PUSH2 0x625 JUMP JUMPDEST PUSH2 0x1A7 JUMPI PUSH1 0x40 MLOAD PUSH4 0x1403112D PUSH1 0xE2 SHL DUP2 MSTORE PUSH1 0x4 ADD PUSH1 0x40 MLOAD DUP1 SWAP2 SUB SWAP1 REVERT JUMPDEST POP POP POP POP POP POP POP POP POP POP POP JUMP JUMPDEST PUSH1 0x0 DUP3 DUP3 PUSH1 0x40 MLOAD PUSH2 0x1C6 SWAP3 SWAP2 SWAP1 PUSH2 0x55F JUMP JUMPDEST PUSH1 0x40 MLOAD SWAP1 DUP2 SWAP1 SUB DUP2 KECCAK256 PUSH32 0x5F6970C300000000000000000000000000000000000000000000000000000000 DUP3 MSTORE SWAP2 POP PUSH20 0xFFFFFFFFFFFFFFFFFFFFFFFFFFFFFFFFFFFFFFFF PUSH32 0x0 AND SWAP1 PUSH4 0x5F6970C3 SWAP1 PUSH2 0x24A SWAP1 DUP12 SWAP1 DUP12 SWAP1 DUP12 SWAP1 DUP12 SWAP1 DUP12 SWAP1 DUP10 SWAP1 PUSH1 0x4 ADD PUSH2 0x646 JUMP JUMPDEST PUSH1 0x20 PUSH1 0x40 MLOAD DUP1 DUP4 SUB DUP2 PUSH1 0x0 DUP8 GAS CALL ISZERO DUP1 ISZERO PUSH2 0x269 JUMPI RETURNDATASIZE PUSH1 0x0 DUP1 RETURNDATACOPY RETURNDATASIZE PUSH1 0x0 REVERT JUMPDEST POP POP POP POP PUSH1 0x40 MLOAD RETURNDATASIZE PUSH1 0x1F NOT PUSH1 0x1F DUP3 ADD AND DUP3 ADD DUP1 PUSH1 0x40 MSTORE POP DUP2 ADD SWAP1 PUSH2 0x28D SWAP2 SWAP1 PUSH2 0x625 JUMP JUMPDEST PUSH2 0x2AA JUMPI PUSH1 0x40 MLOAD PUSH4 0x1403112D PUSH1 0xE2 SHL DUP2 MSTORE PUSH1 0x4 ADD PUSH1 0x40 MLOAD DUP1 SWAP2 SUB SWAP1 REVERT JUMPDEST POP POP POP POP POP POP POP POP JUMP JUMPDEST PUSH1 0x0 PUSH20 0xFFFFFFFFFFFFFFFFFFFFFFFFFFFFFFFFFFFFFFFF DUP3 AND JUMPDEST SWAP3 SWAP2 POP POP JUMP JUMPDEST PUSH1 0x0 PUSH2 0x2CE DUP3 PUSH2 0x2B4 JUMP JUMPDEST PUSH1 0x0 PUSH2 0x2CE DUP3 PUSH2 0x2D4 JUMP JUMPDEST PUSH2 0x2F3 DUP2 PUSH2 0x2DF JUMP JUMPDEST DUP3 MSTORE POP POP JUMP JUMPDEST PUSH1 0x20 DUP2 ADD PUSH2 0x2CE DUP3 DUP5 PUSH2 0x2EA JUMP JUMPDEST DUP1 JUMPDEST DUP2 EQ PUSH2 0x314 JUMPI PUSH1 0x0 DUP1 REVERT JUMPDEST POP JUMP JUMPDEST DUP1 CALLDATALOAD PUSH2 0x2CE DUP2 PUSH2 0x307 JUMP JUMPDEST PUSH1 0x0 DUP1 DUP4 PUSH1 0x1F DUP5 ADD SLT PUSH2 0x337 JUMPI PUSH2 0x337 PUSH1 0x0 DUP1 REVERT JUMPDEST POP DUP2 CALLDATALOAD PUSH8 0xFFFFFFFFFFFFFFFF DUP2 GT ISZERO PUSH2 0x352 JUMPI PUSH2 0x352 PUSH1 0x0 DUP1 REVERT JUMPDEST PUSH1 0x20 DUP4 ADD SWAP2 POP DUP4 PUSH1 0x1 DUP3 MUL DUP4 ADD GT ISZERO PUSH2 0x36D JUMPI PUSH2 0x36D PUSH1 0x0 DUP1 REVERT JUMPDEST SWAP3 POP SWAP3 SWAP1 POP JUMP JUMPDEST PUSH1 0x0 DUP1 PUSH1 0x0 DUP1 PUSH1 0x0 DUP1 PUSH1 0x0 DUP1 PUSH1 0x0 DUP1 PUSH1 0xC0 DUP12 DUP14 SUB SLT ISZERO PUSH2 0x396 JUMPI PUSH2 0x396 PUSH1 0x0 DUP1 REVERT JUMPDEST PUSH1 0x0 PUSH2 0x3A2 DUP14 DUP14 PUSH2 0x317 JUMP JUMPDEST SWAP11 POP POP PUSH1 0x20 DUP12 ADD CALLDATALOAD PUSH8 0xFFFFFFFFFFFFFFFF DUP2 GT ISZERO PUSH2 0x3C2 JUMPI PUSH2 0x3C2 PUSH1 0x0 DUP1 REVERT JUMPDEST PUSH2 0x3CE DUP14 DUP3 DUP15 ADD PUSH2 0x322 JUMP JUMPDEST SWAP10 POP SWAP10 POP POP PUSH1 0x40 DUP12 ADD CALLDATALOAD PUSH8 0xFFFFFFFFFFFFFFFF DUP2 GT ISZERO PUSH2 0x3F0 JUMPI PUSH2 0x3F0 PUSH1 0x0 DUP1 REVERT JUMPDEST PUSH2 0x3FC DUP14 DUP3 DUP15 ADD PUSH2 0x322 JUMP JUMPDEST SWAP8 POP SWAP8 POP POP PUSH1 0x60 DUP12 ADD CALLDATALOAD PUSH8 0xFFFFFFFFFFFFFFFF DUP2 GT ISZERO PUSH2 0x41E JUMPI PUSH2 0x41E PUSH1 0x0 DUP1 REVERT JUMPDEST PUSH2 0x42A DUP14 DUP3 DUP15 ADD PUSH2 0x322 JUMP JUMPDEST SWAP6 POP SWAP6 POP POP PUSH1 0x80 DUP12 ADD CALLDATALOAD PUSH8 0xFFFFFFFFFFFFFFFF DUP2 GT ISZERO PUSH2 0x44C JUMPI PUSH2 0x44C PUSH1 0x0 DUP1 REVERT JUMPDEST PUSH2 0x458 DUP14 DUP3 DUP15 ADD PUSH2 0x322 JUMP JUMPDEST SWAP4 POP SWAP4 POP POP PUSH1 0xA0 PUSH2 0x46B DUP14 DUP3 DUP15 ADD PUSH2 0x317 JUMP JUMPDEST SWAP2 POP POP SWAP3 SWAP6 SWAP9 SWAP12 SWAP2 SWAP5 SWAP8 SWAP11 POP SWAP3 SWAP6 SWAP9 POP JUMP JUMPDEST PUSH1 0x0 DUP1 PUSH1 0x0 DUP1 PUSH1 0x0 DUP1 PUSH1 0x0 PUSH1 0x80 DUP9 DUP11 SUB SLT ISZERO PUSH2 0x49B JUMPI PUSH2 0x49B PUSH1 0x0 DUP1 REVERT JUMPDEST PUSH1 0x0 PUSH2 0x4A7 DUP11 DUP11 PUSH2 0x317 JUMP JUMPDEST SWAP8 POP POP PUSH1 0x20 DUP9 ADD CALLDATALOAD PUSH8 0xFFFFFFFFFFFFFFFF DUP2 GT ISZERO PUSH2 0x4C7 JUMPI PUSH2 0x4C7 PUSH1 0x0 DUP1 REVERT JUMPDEST PUSH2 0x4D3 DUP11 DUP3 DUP12 ADD PUSH2 0x322 JUMP JUMPDEST SWAP7 POP SWAP7 POP POP PUSH1 0x40 DUP9 ADD CALLDATALOAD PUSH8 0xFFFFFFFFFFFFFFFF DUP2 GT ISZERO PUSH2 0x4F5 JUMPI PUSH2 0x4F5 PUSH1 0x0 DUP1 REVERT JUMPDEST PUSH2 0x501 DUP11 DUP3 DUP12 ADD PUSH2 0x322 JUMP JUMPDEST SWAP5 POP SWAP5 POP POP PUSH1 0x60 DUP9 ADD CALLDATALOAD PUSH8 0xFFFFFFFFFFFFFFFF DUP2 GT ISZERO PUSH2 0x523 JUMPI PUSH2 0x523 PUSH1 0x0 DUP1 REVERT JUMPDEST PUSH2 0x52F DUP11 DUP3 DUP12 ADD PUSH2 0x322 JUMP JUMPDEST SWAP3 POP SWAP3 POP POP SWAP3 SWAP6 SWAP9 SWAP2 SWAP5 SWAP8 POP SWAP3 SWAP6 POP JUMP JUMPDEST DUP3 DUP2 DUP4 CALLDATACOPY POP PUSH1 0x0 SWAP2 ADD MSTORE JUMP JUMPDEST PUSH1 0x0 PUSH2 0x559 DUP4 DUP6 DUP5 PUSH2 0x540 JUMP JUMPDEST POP POP ADD SWAP1 JUMP JUMPDEST PUSH1 0x0 PUSH2 0x56C DUP3 DUP5 DUP7 PUSH2 0x54C JUMP JUMPDEST SWAP5 SWAP4 POP POP POP POP JUMP JUMPDEST DUP1 PUSH2 0x2F3 JUMP JUMPDEST DUP2 DUP4 MSTORE PUSH1 0x0 PUSH1 0x20 DUP5 ADD SWAP4 POP PUSH2 0x590 DUP4 DUP6 DUP5 PUSH2 0x540 JUMP JUMPDEST POP POP PUSH1 0x1F ADD PUSH1 0x1F NOT AND ADD SWAP1 JUMP JUMPDEST PUSH1 0xC0 DUP2 ADD PUSH2 0x5AB DUP3 DUP13 PUSH2 0x574 JUMP JUMPDEST DUP2 DUP2 SUB PUSH1 0x20 DUP4 ADD MSTORE PUSH2 0x5BE DUP2 DUP11 DUP13 PUSH2 0x57A JUMP JUMPDEST SWAP1 POP DUP2 DUP2 SUB PUSH1 0x40 DUP4 ADD MSTORE PUSH2 0x5D3 DUP2 DUP9 DUP11 PUSH2 0x57A JUMP JUMPDEST SWAP1 POP PUSH2 0x5E2 PUSH1 0x60 DUP4 ADD DUP8 PUSH2 0x574 JUMP JUMPDEST DUP2 DUP2 SUB PUSH1 0x80 DUP4 ADD MSTORE PUSH2 0x5F5 DUP2 DUP6 DUP8 PUSH2 0x57A JUMP JUMPDEST SWAP1 POP PUSH2 0x604 PUSH1 0xA0 DUP4 ADD DUP5 PUSH2 0x574 JUMP JUMPDEST SWAP11 SWAP10 POP POP POP POP POP POP POP POP POP POP JUMP JUMPDEST DUP1 ISZERO ISZERO PUSH2 0x309 JUMP JUMPDEST DUP1 MLOAD PUSH2 0x2CE DUP2 PUSH2 0x612 JUMP JUMPDEST PUSH1 0x0 PUSH1 0x20 DUP3 DUP5 SUB SLT ISZERO PUSH2 0x63A JUMPI PUSH2 0x63A PUSH1 0x0 DUP1 REVERT JUMPDEST PUSH1 0x0 PUSH2 0x56C DUP5 DUP5 PUSH2 0x61A JUMP JUMPDEST PUSH1 0x80 DUP2 ADD PUSH2 0x654 DUP3 DUP10 PUSH2 0x574 JUMP JUMPDEST DUP2 DUP2 SUB PUSH1 0x20 DUP4 ADD MSTORE PUSH2 0x667 DUP2 DUP8 DUP10 PUSH2 0x57A JUMP JUMPDEST SWAP1 POP DUP2 DUP2 SUB PUSH1 0x40 DUP4 ADD MSTORE PUSH2 0x67C DUP2 DUP6 DUP8 PUSH2 0x57A JUMP JUMPDEST SWAP1 POP PUSH2 0x68B PUSH1 0x60 DUP4 ADD DUP5 PUSH2 0x574 JUMP JUMPDEST SWAP8 SWAP7 POP POP POP POP POP POP POP JUMP INVALID LOG2 PUSH5 0x6970667358 0x22 SLT KECCAK256 CALL 0xCC DIV PUSH28 0xD3BF04A248DB0497C99D3B9A48A0B3308032FB2A67B5D19E942B68D6 PUSH5 0x736F6C6343 STOP ADDMOD GT STOP CALLER "},"gasEstimates":{"creation":{"codeDepositCost":"348000","executionCost":"infinite","totalCost":"infinite"},"external":{"execute(bytes32,string,string,bytes)":"infinite","executeWithToken(bytes32,string,string,bytes,string,uint256)":"infinite","gateway()":"infinite"},"internal":{"_execute(string calldata,string calldata,bytes calldata)":"infinite","_executeWithToken(string calldata,string calldata,bytes calldata,string calldata,uint256)":"infinite"}},"methodIdentifiers":{"execute(bytes32,string,string,bytes)":"49160658","executeWithToken(bytes32,string,string,bytes,string,uint256)":"1a98b2e0","gateway()":"116191b6"}},"storageLayout":{"storage":[],"types":null},"userdoc":{"kind":"user","methods":{},"version":1}}}}