{"usingtellor/contracts/UsingTellor.sol":{"UsingTellor":{"abi":[{"inputs":[{"internalType":"address payable","name":"_tellor","type":"address"}],"stateMutability":"nonpayable","type":"constructor"},{"inputs":[{"internalType":"bytes32","name":"_queryId","type":"bytes32"},{"internalType":"uint256","name":"_timestamp","type":"uint256"}],"name":"getDataAfter","outputs":[{"internalType":"bytes","name":"_value","type":"bytes"},{"internalType":"uint256","name":"_timestampRetrieved","type":"uint256"}],"stateMutability":"view","type":"function"},{"inputs":[{"internalType":"bytes32","name":"_queryId","type":"bytes32"},{"internalType":"uint256","name":"_timestamp","type":"uint256"}],"name":"getDataBefore","outputs":[{"internalType":"bytes","name":"_value","type":"bytes"},{"internalType":"uint256","name":"_timestampRetrieved","type":"uint256"}],"stateMutability":"view","type":"function"},{"inputs":[{"internalType":"bytes32","name":"_queryId","type":"bytes32"},{"internalType":"uint256","name":"_timestamp","type":"uint256"}],"name":"getIndexForDataAfter","outputs":[{"internalType":"bool","name":"_found","type":"bool"},{"internalType":"uint256","name":"_index","type":"uint256"}],"stateMutability":"view","type":"function"},{"inputs":[{"internalType":"bytes32","name":"_queryId","type":"bytes32"},{"internalType":"uint256","name":"_timestamp","type":"uint256"}],"name":"getIndexForDataBefore","outputs":[{"internalType":"bool","name":"_found","type":"bool"},{"internalType":"uint256","name":"_index","type":"uint256"}],"stateMutability":"view","type":"function"},{"inputs":[{"internalType":"bytes32","name":"_queryId","type":"bytes32"},{"internalType":"uint256","name":"_timestamp","type":"uint256"},{"internalType":"uint256","name":"_maxAge","type":"uint256"},{"internalType":"uint256","name":"_maxCount","type":"uint256"}],"name":"getMultipleValuesBefore","outputs":[{"internalType":"bytes[]","name":"_values","type":"bytes[]"},{"internalType":"uint256[]","name":"_timestamps","type":"uint256[]"}],"stateMutability":"view","type":"function"},{"inputs":[{"internalType":"bytes32","name":"_queryId","type":"bytes32"}],"name":"getNewValueCountbyQueryId","outputs":[{"internalType":"uint256","name":"","type":"uint256"}],"stateMutability":"view","type":"function"},{"inputs":[{"internalType":"bytes32","name":"_queryId","type":"bytes32"},{"internalType":"uint256","name":"_timestamp","type":"uint256"}],"name":"getReporterByTimestamp","outputs":[{"internalType":"address","name":"","type":"address"}],"stateMutability":"view","type":"function"},{"inputs":[{"internalType":"bytes32","name":"_queryId","type":"bytes32"},{"internalType":"uint256","name":"_index","type":"uint256"}],"name":"getTimestampbyQueryIdandIndex","outputs":[{"internalType":"uint256","name":"","type":"uint256"}],"stateMutability":"view","type":"function"},{"inputs":[],"name":"idMappingContract","outputs":[{"internalType":"contract IMappingContract","name":"","type":"address"}],"stateMutability":"view","type":"function"},{"inputs":[{"internalType":"bytes32","name":"_queryId","type":"bytes32"},{"internalType":"uint256","name":"_timestamp","type":"uint256"}],"name":"isInDispute","outputs":[{"internalType":"bool","name":"","type":"bool"}],"stateMutability":"view","type":"function"},{"inputs":[{"internalType":"bytes32","name":"_queryId","type":"bytes32"},{"internalType":"uint256","name":"_timestamp","type":"uint256"}],"name":"retrieveData","outputs":[{"internalType":"bytes","name":"","type":"bytes"}],"stateMutability":"view","type":"function"},{"inputs":[{"internalType":"address","name":"_addy","type":"address"}],"name":"setIdMappingContract","outputs":[],"stateMutability":"nonpayable","type":"function"},{"inputs":[],"name":"tellor","outputs":[{"internalType":"contract ITellor","name":"","type":"address"}],"stateMutability":"view","type":"function"},{"inputs":[{"internalType":"bytes32","name":"_id","type":"bytes32"}],"name":"valueFor","outputs":[{"internalType":"int256","name":"_value","type":"int256"},{"internalType":"uint256","name":"_timestamp","type":"uint256"},{"internalType":"uint256","name":"_statusCode","type":"uint256"}],"stateMutability":"view","type":"function"}],"devdoc":{"author":"Tellor Inc","details":"This contract helps smart contracts read data from Tellor","kind":"dev","methods":{"constructor":{"details":"the constructor sets the oracle address in storage","params":{"_tellor":"is the Tellor Oracle address"}},"getDataAfter(bytes32,uint256)":{"details":"Retrieves the next value for the queryId after the specified timestamp","params":{"_queryId":"is the queryId to look up the value for","_timestamp":"after which to search for next value"},"returns":{"_timestampRetrieved":"the value's timestamp","_value":"the value retrieved"}},"getDataBefore(bytes32,uint256)":{"details":"Retrieves the latest value for the queryId before the specified timestamp","params":{"_queryId":"is the queryId to look up the value for","_timestamp":"before which to search for latest value"},"returns":{"_timestampRetrieved":"the value's timestamp","_value":"the value retrieved"}},"getIndexForDataAfter(bytes32,uint256)":{"details":"Retrieves latest array index of data before the specified timestamp for the queryId","params":{"_queryId":"is the queryId to look up the index for","_timestamp":"is the timestamp before which to search for the latest index"},"returns":{"_found":"whether the index was found","_index":"the latest index found before the specified timestamp"}},"getIndexForDataBefore(bytes32,uint256)":{"details":"Retrieves latest array index of data before the specified timestamp for the queryId","params":{"_queryId":"is the queryId to look up the index for","_timestamp":"is the timestamp before which to search for the latest index"},"returns":{"_found":"whether the index was found","_index":"the latest index found before the specified timestamp"}},"getMultipleValuesBefore(bytes32,uint256,uint256,uint256)":{"details":"Retrieves multiple uint256 values before the specified timestamp","params":{"_maxAge":"the maximum number of seconds before the _timestamp to search for values","_maxCount":"the maximum number of values to return","_queryId":"the unique id of the data query","_timestamp":"the timestamp before which to search for values"},"returns":{"_timestamps":"the timestamps of the values retrieved","_values":"the values retrieved, ordered from oldest to newest"}},"getNewValueCountbyQueryId(bytes32)":{"details":"Counts the number of values that have been submitted for the queryId","params":{"_queryId":"the id to look up"},"returns":{"_0":"uint256 count of the number of values received for the queryId"}},"getReporterByTimestamp(bytes32,uint256)":{"details":"Returns the address of the reporter who submitted a value for a data ID at a specific time","params":{"_queryId":"is ID of the specific data feed","_timestamp":"is the timestamp to find a corresponding reporter for"},"returns":{"_0":"address of the reporter who reported the value for the data ID at the given timestamp"}},"getTimestampbyQueryIdandIndex(bytes32,uint256)":{"details":"Gets the timestamp for the value based on their index","params":{"_index":"is the value index to look up","_queryId":"is the id to look up"},"returns":{"_0":"uint256 timestamp"}},"isInDispute(bytes32,uint256)":{"details":"Determines whether a value with a given queryId and timestamp has been disputed","params":{"_queryId":"is the value id to look up","_timestamp":"is the timestamp of the value to look up"},"returns":{"_0":"bool true if queryId/timestamp is under dispute"}},"retrieveData(bytes32,uint256)":{"details":"Retrieve value from oracle based on queryId/timestamp","params":{"_queryId":"being requested","_timestamp":"to retrieve data/value from"},"returns":{"_0":"bytes value for query/timestamp submitted"}},"setIdMappingContract(address)":{"details":"allows dev to set mapping contract for valueFor (EIP2362)","params":{"_addy":"address of mapping contract"}},"valueFor(bytes32)":{"details":"Retrieve most recent int256 value from oracle based on queryId","params":{"_id":"being requested"},"returns":{"_statusCode":"200 if value found, 404 if not found","_timestamp":"timestamp of most recent value","_value":"most recent value submitted"}}},"title":"UsingTellor","version":1},"evm":{"bytecode":{"linkReferences":{},"object":"60806040523480156200001157600080fd5b50604051620014ac380380620014ac833981016040819052620000349162000094565b600080546001600160a01b0319166001600160a01b0392909216919091179055620000c1565b60006001600160a01b0382165b92915050565b62000078816200005a565b81146200008457600080fd5b50565b805162000067816200006d565b600060208284031215620000ab57620000ab600080fd5b6000620000b9848462000087565b949350505050565b6113db80620000d16000396000f3fe608060405234801561001057600080fd5b50600436106100ea5760003560e01c8063a792765f1161008c578063e07c548611610066578063e07c548614610208578063f66f49c314610228578063f78eea831461023b578063fcd4a5461461025d57600080fd5b8063a792765f146101c2578063c5958af9146101d5578063ce5e11bf146101f557600080fd5b80632af8aae0116100c85780632af8aae01461014e57806344e87f911461016157806364ee3c6d1461018157806377b03e0d146101a257600080fd5b8063193b505b146100ef5780631959ad5b14610104578063294490851461012d575b600080fd5b6101026100fd366004610d42565b61027e565b005b600054610117906001600160a01b031681565b6040516101249190610d90565b60405180910390f35b61014061013b366004610daf565b6102ce565b604051610124929190610dfa565b600154610117906001600160a01b031681565b61017461016f366004610daf565b610366565b6040516101249190610e1c565b61019461018f366004610daf565b6103fc565b604051610124929190610e80565b6101b56101b0366004610ea0565b610455565b6040516101249190610ec1565b6101946101d0366004610daf565b6104e0565b6101e86101e3366004610daf565b61057f565b6040516101249190610ecf565b6101b5610203366004610daf565b610610565b61021b610216366004610daf565b61069d565b6040516101249190610ee9565b610140610236366004610daf565b61072a565b61024e610249366004610ea0565b6108e7565b60405161012493929190610ef7565b61027061026b366004610f1f565b6109c9565b604051610124929190611052565b6001546001600160a01b03161561029457600080fd5b600180547fffffffffffffffffffffffff0000000000000000000000000000000000000000166001600160a01b0392909216919091179055565b600080546040517f2944908500000000000000000000000000000000000000000000000000000000815282916001600160a01b03169063294490859061031a9087908790600401611077565b6040805180830381865afa158015610336573d6000803e3d6000fd5b505050506040513d601f19601f8201168201806040525081019061035a91906110a3565b915091505b9250929050565b600080546040517f44e87f910000000000000000000000000000000000000000000000000000000081526001600160a01b03909116906344e87f91906103b29086908690600401611077565b602060405180830381865afa1580156103cf573d6000803e3d6000fd5b505050506040513d601f19601f820116820180604052508101906103f391906110d6565b90505b92915050565b6060600080600061040d868661072a565b9150915081610434576000604051806020016040528060008152509093509350505061035f565b61043e8682610610565b925061044a868461057f565b935050509250929050565b600080546040517f77b03e0d0000000000000000000000000000000000000000000000000000000081526001600160a01b03909116906377b03e0d9061049f908590600401610ec1565b602060405180830381865afa1580156104bc573d6000803e3d6000fd5b505050506040513d601f19601f820116820180604052508101906103f691906110f7565b600080546040517fa792765f000000000000000000000000000000000000000000000000000000008152606092916001600160a01b03169063a792765f9061052e9087908790600401611077565b600060405180830381865afa15801561054b573d6000803e3d6000fd5b505050506040513d6000823e601f3d908101601f191682016040526105739190810190611207565b90969095509350505050565b6000546040517fc5958af90000000000000000000000000000000000000000000000000000000081526060916001600160a01b03169063c5958af9906105cb9086908690600401611077565b600060405180830381865afa1580156105e8573d6000803e3d6000fd5b505050506040513d6000823e601f3d908101601f191682016040526103f39190810190611272565b600080546040517fce5e11bf0000000000000000000000000000000000000000000000000000000081526001600160a01b039091169063ce5e11bf9061065c9086908690600401611077565b602060405180830381865afa158015610679573d6000803e3d6000fd5b505050506040513d601f19601f820116820180604052508101906103f391906110f7565b600080546040517fe07c54860000000000000000000000000000000000000000000000000000000081526001600160a01b039091169063e07c5486906106e99086908690600401611077565b602060405180830381865afa158015610706573d6000803e3d6000fd5b505050506040513d601f19601f820116820180604052508101906103f391906112b8565b600080600061073885610455565b90508060000361074f57600080925092505061035f565b80610759816112ef565b915060019050600080838161076e8a83610610565b9050888111610789576000809750975050505050505061035f565b6107938a84610610565b9050888111156107a257600094505b84156108525760026107b48484611306565b6107be919061132f565b93506107ca8a85610610565b90508881111561080b5760006107e58b610203600188611343565b90508981116107f75760009550610805565b610802600186611343565b92505b506107a2565b600061081c8b610203876001611306565b90508981111561083f57600095508461083481611356565b955050809150610805565b61084a856001611306565b9350506107a2565b61085c8a82610366565b610872576001849750975050505050505061035f565b61087c8a82610366565b801561088757508584105b156108aa578361089681611356565b9450506108a38a85610610565b9050610872565b85841480156108be57506108be8a82610366565b156108d5576000809750975050505050505061035f565b6001849750975050505050505061035f565b6001546040517f87a475fd0000000000000000000000000000000000000000000000000000000081526000918291829182916001600160a01b03909116906387a475fd90610939908890600401610ec1565b602060405180830381865afa158015610956573d6000803e3d6000fd5b505050506040513d601f19601f8201168201806040525081019061097a91906110f7565b9050606061098d826101d0426001611306565b9450905060008490036109ad5760008061019494509450945050506109c2565b60006109b882610cb8565b955060c893505050505b9193909250565b6060806000806109dd88610236888a611343565b9150915081610a2e576040805160008082526020820190925290610a11565b60608152602001906001900390816109fc5790505b506040805160008152602081019091529094509250610caf915050565b6000610a3a89896102ce565b909350905082610a8d576040805160008082526020820190925290610a6f565b6060815260200190600190039081610a5a5790505b506040805160008152602081019091529095509350610caf92505050565b60008060008867ffffffffffffffff811115610aab57610aab611118565b604051908082528060200260200182016040528015610ad4578160200160208202803683370190505b5090505b8883108015610afb57508482610aef866001611306565b610af99190611343565b115b15610b5f576000610b108d6102038588611343565b9050610b1c8d82610366565b610b4c5780828581518110610b3357610b33611370565b602090810291909101015283610b4881611356565b9450505b82610b5681611356565b93505050610ad8565b60008367ffffffffffffffff811115610b7a57610b7a611118565b604051908082528060200260200182016040528015610bad57816020015b6060815260200190600190039081610b985790505b50905060008467ffffffffffffffff811115610bcb57610bcb611118565b604051908082528060200260200182016040528015610bf4578160200160208202803683370190505b50905060005b85811015610ca2578381610c0f600189611343565b610c199190611343565b81518110610c2957610c29611370565b6020026020010151828281518110610c4357610c43611370565b602002602001018181525050610c728f838381518110610c6557610c65611370565b602002602001015161057f565b838281518110610c8457610c84611370565b60200260200101819052508080610c9a90611356565b915050610bfa565b5090985096505050505050505b94509492505050565b6000805b8251811015610d0957828181518110610cd757610cd7611370565b016020015160f81c610ceb83610100611386565b610cf59190611306565b915080610d0181611356565b915050610cbc565b50919050565b60006001600160a01b0382166103f6565b610d2981610d0f565b8114610d3457600080fd5b50565b80356103f681610d20565b600060208284031215610d5757610d57600080fd5b6000610d638484610d37565b949350505050565b60006103f682610d0f565b60006103f682610d6b565b610d8a81610d76565b82525050565b602081016103f68284610d81565b80610d29565b80356103f681610d9e565b60008060408385031215610dc557610dc5600080fd5b6000610dd18585610da4565b9250506020610de285828601610da4565b9150509250929050565b801515610d8a565b80610d8a565b60408101610e088285610dec565b610e156020830184610df4565b9392505050565b602081016103f68284610dec565b60005b83811015610e45578181015183820152602001610e2d565b50506000910152565b6000610e58825190565b808452602084019350610e6f818560208601610e2a565b601f01601f19169290920192915050565b60408082528101610e918185610e4e565b9050610e156020830184610df4565b600060208284031215610eb557610eb5600080fd5b6000610d638484610da4565b602081016103f68284610df4565b602080825281016103f38184610e4e565b610d8a81610d0f565b602081016103f68284610ee0565b60608101610f058286610df4565b610f126020830185610df4565b610d636040830184610df4565b60008060008060808587031215610f3857610f38600080fd5b6000610f448787610da4565b9450506020610f5587828801610da4565b9350506040610f6687828801610da4565b9250506060610f7787828801610da4565b91505092959194509250565b60006103f38383610e4e565b6000610f99825190565b80845260208401935083602082028501610fb38560200190565b8060005b85811015610fe85784840389528151610fd08582610f83565b94506020830160209a909a0199925050600101610fb7565b5091979650505050505050565b60006110018383610df4565b505060200190565b6000611013825190565b80845260209384019383018060005b838110156110475781516110368882610ff5565b975060208301925050600101611022565b509495945050505050565b604080825281016110638185610f8f565b90508181036020830152610d638184611009565b60408101610e088285610df4565b801515610d29565b80516103f681611085565b80516103f681610d9e565b600080604083850312156110b9576110b9600080fd5b60006110c5858561108d565b9250506020610de285828601611098565b6000602082840312156110eb576110eb600080fd5b6000610d63848461108d565b60006020828403121561110c5761110c600080fd5b6000610d638484611098565b634e487b7160e01b600052604160045260246000fd5b601f19601f830116810181811067ffffffffffffffff8211171561115457611154611118565b6040525050565b600061116660405190565b9050611172828261112e565b919050565b600067ffffffffffffffff82111561119157611191611118565b601f19601f83011660200192915050565b60006111b56111b084611177565b61115b565b9050828152602081018484840111156111d0576111d0600080fd5b6111db848285610e2a565b509392505050565b600082601f8301126111f7576111f7600080fd5b8151610d638482602086016111a2565b60008060006060848603121561121f5761121f600080fd5b600061122b868661108d565b935050602084015167ffffffffffffffff81111561124b5761124b600080fd5b611257868287016111e3565b925050604061126886828701611098565b9150509250925092565b60006020828403121561128757611287600080fd5b815167ffffffffffffffff8111156112a1576112a1600080fd5b610d63848285016111e3565b80516103f681610d20565b6000602082840312156112cd576112cd600080fd5b6000610d6384846112ad565b634e487b7160e01b600052601160045260246000fd5b6000816112fe576112fe6112d9565b506000190190565b808201808211156103f6576103f66112d9565b634e487b7160e01b600052601260045260246000fd5b60008261133e5761133e611319565b500490565b818103818111156103f6576103f66112d9565b60006000198203611369576113696112d9565b5060010190565b634e487b7160e01b600052603260045260246000fd5b81810280821583820485141761139e5761139e6112d9565b509291505056fea2646970667358221220ec7b11a143f92eaa58e5b2a168b84efd50531d7139b1e3c72770fdfccced859364736f6c63430008110033","opcodes":"PUSH1 0x80 PUSH1 0x40 MSTORE CALLVALUE DUP1 ISZERO PUSH3 0x11 JUMPI PUSH1 0x0 DUP1 REVERT JUMPDEST POP PUSH1 0x40 MLOAD PUSH3 0x14AC CODESIZE SUB DUP1 PUSH3 0x14AC DUP4 CODECOPY DUP2 ADD PUSH1 0x40 DUP2 SWAP1 MSTORE PUSH3 0x34 SWAP2 PUSH3 0x94 JUMP JUMPDEST PUSH1 0x0 DUP1 SLOAD PUSH1 0x1 PUSH1 0x1 PUSH1 0xA0 SHL SUB NOT AND PUSH1 0x1 PUSH1 0x1 PUSH1 0xA0 SHL SUB SWAP3 SWAP1 SWAP3 AND SWAP2 SWAP1 SWAP2 OR SWAP1 SSTORE PUSH3 0xC1 JUMP JUMPDEST PUSH1 0x0 PUSH1 0x1 PUSH1 0x1 PUSH1 0xA0 SHL SUB DUP3 AND JUMPDEST SWAP3 SWAP2 POP POP JUMP JUMPDEST PUSH3 0x78 DUP2 PUSH3 0x5A JUMP JUMPDEST DUP2 EQ PUSH3 0x84 JUMPI PUSH1 0x0 DUP1 REVERT JUMPDEST POP JUMP JUMPDEST DUP1 MLOAD PUSH3 0x67 DUP2 PUSH3 0x6D JUMP JUMPDEST PUSH1 0x0 PUSH1 0x20 DUP3 DUP5 SUB SLT ISZERO PUSH3 0xAB JUMPI PUSH3 0xAB PUSH1 0x0 DUP1 REVERT JUMPDEST PUSH1 0x0 PUSH3 0xB9 DUP5 DUP5 PUSH3 0x87 JUMP JUMPDEST SWAP5 SWAP4 POP POP POP POP JUMP JUMPDEST PUSH2 0x13DB DUP1 PUSH3 0xD1 PUSH1 0x0 CODECOPY PUSH1 0x0 RETURN INVALID PUSH1 0x80 PUSH1 0x40 MSTORE CALLVALUE DUP1 ISZERO PUSH2 0x10 JUMPI PUSH1 0x0 DUP1 REVERT JUMPDEST POP PUSH1 0x4 CALLDATASIZE LT PUSH2 0xEA JUMPI PUSH1 0x0 CALLDATALOAD PUSH1 0xE0 SHR DUP1 PUSH4 0xA792765F GT PUSH2 0x8C JUMPI DUP1 PUSH4 0xE07C5486 GT PUSH2 0x66 JUMPI DUP1 PUSH4 0xE07C5486 EQ PUSH2 0x208 JUMPI DUP1 PUSH4 0xF66F49C3 EQ PUSH2 0x228 JUMPI DUP1 PUSH4 0xF78EEA83 EQ PUSH2 0x23B JUMPI DUP1 PUSH4 0xFCD4A546 EQ PUSH2 0x25D JUMPI PUSH1 0x0 DUP1 REVERT JUMPDEST DUP1 PUSH4 0xA792765F EQ PUSH2 0x1C2 JUMPI DUP1 PUSH4 0xC5958AF9 EQ PUSH2 0x1D5 JUMPI DUP1 PUSH4 0xCE5E11BF EQ PUSH2 0x1F5 JUMPI PUSH1 0x0 DUP1 REVERT JUMPDEST DUP1 PUSH4 0x2AF8AAE0 GT PUSH2 0xC8 JUMPI DUP1 PUSH4 0x2AF8AAE0 EQ PUSH2 0x14E JUMPI DUP1 PUSH4 0x44E87F91 EQ PUSH2 0x161 JUMPI DUP1 PUSH4 0x64EE3C6D EQ PUSH2 0x181 JUMPI DUP1 PUSH4 0x77B03E0D EQ PUSH2 0x1A2 JUMPI PUSH1 0x0 DUP1 REVERT JUMPDEST DUP1 PUSH4 0x193B505B EQ PUSH2 0xEF JUMPI DUP1 PUSH4 0x1959AD5B EQ PUSH2 0x104 JUMPI DUP1 PUSH4 0x29449085 EQ PUSH2 0x12D JUMPI JUMPDEST PUSH1 0x0 DUP1 REVERT JUMPDEST PUSH2 0x102 PUSH2 0xFD CALLDATASIZE PUSH1 0x4 PUSH2 0xD42 JUMP JUMPDEST PUSH2 0x27E JUMP JUMPDEST STOP JUMPDEST PUSH1 0x0 SLOAD PUSH2 0x117 SWAP1 PUSH1 0x1 PUSH1 0x1 PUSH1 0xA0 SHL SUB AND DUP2 JUMP JUMPDEST PUSH1 0x40 MLOAD PUSH2 0x124 SWAP2 SWAP1 PUSH2 0xD90 JUMP JUMPDEST PUSH1 0x40 MLOAD DUP1 SWAP2 SUB SWAP1 RETURN JUMPDEST PUSH2 0x140 PUSH2 0x13B CALLDATASIZE PUSH1 0x4 PUSH2 0xDAF JUMP JUMPDEST PUSH2 0x2CE JUMP JUMPDEST PUSH1 0x40 MLOAD PUSH2 0x124 SWAP3 SWAP2 SWAP1 PUSH2 0xDFA JUMP JUMPDEST PUSH1 0x1 SLOAD PUSH2 0x117 SWAP1 PUSH1 0x1 PUSH1 0x1 PUSH1 0xA0 SHL SUB AND DUP2 JUMP JUMPDEST PUSH2 0x174 PUSH2 0x16F CALLDATASIZE PUSH1 0x4 PUSH2 0xDAF JUMP JUMPDEST PUSH2 0x366 JUMP JUMPDEST PUSH1 0x40 MLOAD PUSH2 0x124 SWAP2 SWAP1 PUSH2 0xE1C JUMP JUMPDEST PUSH2 0x194 PUSH2 0x18F CALLDATASIZE PUSH1 0x4 PUSH2 0xDAF JUMP JUMPDEST PUSH2 0x3FC JUMP JUMPDEST PUSH1 0x40 MLOAD PUSH2 0x124 SWAP3 SWAP2 SWAP1 PUSH2 0xE80 JUMP JUMPDEST PUSH2 0x1B5 PUSH2 0x1B0 CALLDATASIZE PUSH1 0x4 PUSH2 0xEA0 JUMP JUMPDEST PUSH2 0x455 JUMP JUMPDEST PUSH1 0x40 MLOAD PUSH2 0x124 SWAP2 SWAP1 PUSH2 0xEC1 JUMP JUMPDEST PUSH2 0x194 PUSH2 0x1D0 CALLDATASIZE PUSH1 0x4 PUSH2 0xDAF JUMP JUMPDEST PUSH2 0x4E0 JUMP JUMPDEST PUSH2 0x1E8 PUSH2 0x1E3 CALLDATASIZE PUSH1 0x4 PUSH2 0xDAF JUMP JUMPDEST PUSH2 0x57F JUMP JUMPDEST PUSH1 0x40 MLOAD PUSH2 0x124 SWAP2 SWAP1 PUSH2 0xECF JUMP JUMPDEST PUSH2 0x1B5 PUSH2 0x203 CALLDATASIZE PUSH1 0x4 PUSH2 0xDAF JUMP JUMPDEST PUSH2 0x610 JUMP JUMPDEST PUSH2 0x21B PUSH2 0x216 CALLDATASIZE PUSH1 0x4 PUSH2 0xDAF JUMP JUMPDEST PUSH2 0x69D JUMP JUMPDEST PUSH1 0x40 MLOAD PUSH2 0x124 SWAP2 SWAP1 PUSH2 0xEE9 JUMP JUMPDEST PUSH2 0x140 PUSH2 0x236 CALLDATASIZE PUSH1 0x4 PUSH2 0xDAF JUMP JUMPDEST PUSH2 0x72A JUMP JUMPDEST PUSH2 0x24E PUSH2 0x249 CALLDATASIZE PUSH1 0x4 PUSH2 0xEA0 JUMP JUMPDEST PUSH2 0x8E7 JUMP JUMPDEST PUSH1 0x40 MLOAD PUSH2 0x124 SWAP4 SWAP3 SWAP2 SWAP1 PUSH2 0xEF7 JUMP JUMPDEST PUSH2 0x270 PUSH2 0x26B CALLDATASIZE PUSH1 0x4 PUSH2 0xF1F JUMP JUMPDEST PUSH2 0x9C9 JUMP JUMPDEST PUSH1 0x40 MLOAD PUSH2 0x124 SWAP3 SWAP2 SWAP1 PUSH2 0x1052 JUMP JUMPDEST PUSH1 0x1 SLOAD PUSH1 0x1 PUSH1 0x1 PUSH1 0xA0 SHL SUB AND ISZERO PUSH2 0x294 JUMPI PUSH1 0x0 DUP1 REVERT JUMPDEST PUSH1 0x1 DUP1 SLOAD PUSH32 0xFFFFFFFFFFFFFFFFFFFFFFFF0000000000000000000000000000000000000000 AND PUSH1 0x1 PUSH1 0x1 PUSH1 0xA0 SHL SUB SWAP3 SWAP1 SWAP3 AND SWAP2 SWAP1 SWAP2 OR SWAP1 SSTORE JUMP JUMPDEST PUSH1 0x0 DUP1 SLOAD PUSH1 0x40 MLOAD PUSH32 0x2944908500000000000000000000000000000000000000000000000000000000 DUP2 MSTORE DUP3 SWAP2 PUSH1 0x1 PUSH1 0x1 PUSH1 0xA0 SHL SUB AND SWAP1 PUSH4 0x29449085 SWAP1 PUSH2 0x31A SWAP1 DUP8 SWAP1 DUP8 SWAP1 PUSH1 0x4 ADD PUSH2 0x1077 JUMP JUMPDEST PUSH1 0x40 DUP1 MLOAD DUP1 DUP4 SUB DUP2 DUP7 GAS STATICCALL ISZERO DUP1 ISZERO PUSH2 0x336 JUMPI RETURNDATASIZE PUSH1 0x0 DUP1 RETURNDATACOPY RETURNDATASIZE PUSH1 0x0 REVERT JUMPDEST POP POP POP POP PUSH1 0x40 MLOAD RETURNDATASIZE PUSH1 0x1F NOT PUSH1 0x1F DUP3 ADD AND DUP3 ADD DUP1 PUSH1 0x40 MSTORE POP DUP2 ADD SWAP1 PUSH2 0x35A SWAP2 SWAP1 PUSH2 0x10A3 JUMP JUMPDEST SWAP2 POP SWAP2 POP JUMPDEST SWAP3 POP SWAP3 SWAP1 POP JUMP JUMPDEST PUSH1 0x0 DUP1 SLOAD PUSH1 0x40 MLOAD PUSH32 0x44E87F9100000000000000000000000000000000000000000000000000000000 DUP2 MSTORE PUSH1 0x1 PUSH1 0x1 PUSH1 0xA0 SHL SUB SWAP1 SWAP2 AND SWAP1 PUSH4 0x44E87F91 SWAP1 PUSH2 0x3B2 SWAP1 DUP7 SWAP1 DUP7 SWAP1 PUSH1 0x4 ADD PUSH2 0x1077 JUMP JUMPDEST PUSH1 0x20 PUSH1 0x40 MLOAD DUP1 DUP4 SUB DUP2 DUP7 GAS STATICCALL ISZERO DUP1 ISZERO PUSH2 0x3CF JUMPI RETURNDATASIZE PUSH1 0x0 DUP1 RETURNDATACOPY RETURNDATASIZE PUSH1 0x0 REVERT JUMPDEST POP POP POP POP PUSH1 0x40 MLOAD RETURNDATASIZE PUSH1 0x1F NOT PUSH1 0x1F DUP3 ADD AND DUP3 ADD DUP1 PUSH1 0x40 MSTORE POP DUP2 ADD SWAP1 PUSH2 0x3F3 SWAP2 SWAP1 PUSH2 0x10D6 JUMP JUMPDEST SWAP1 POP JUMPDEST SWAP3 SWAP2 POP POP JUMP JUMPDEST PUSH1 0x60 PUSH1 0x0 DUP1 PUSH1 0x0 PUSH2 0x40D DUP7 DUP7 PUSH2 0x72A JUMP JUMPDEST SWAP2 POP SWAP2 POP DUP2 PUSH2 0x434 JUMPI PUSH1 0x0 PUSH1 0x40 MLOAD DUP1 PUSH1 0x20 ADD PUSH1 0x40 MSTORE DUP1 PUSH1 0x0 DUP2 MSTORE POP SWAP1 SWAP4 POP SWAP4 POP POP POP PUSH2 0x35F JUMP JUMPDEST PUSH2 0x43E DUP7 DUP3 PUSH2 0x610 JUMP JUMPDEST SWAP3 POP PUSH2 0x44A DUP7 DUP5 PUSH2 0x57F JUMP JUMPDEST SWAP4 POP POP POP SWAP3 POP SWAP3 SWAP1 POP JUMP JUMPDEST PUSH1 0x0 DUP1 SLOAD PUSH1 0x40 MLOAD PUSH32 0x77B03E0D00000000000000000000000000000000000000000000000000000000 DUP2 MSTORE PUSH1 0x1 PUSH1 0x1 PUSH1 0xA0 SHL SUB SWAP1 SWAP2 AND SWAP1 PUSH4 0x77B03E0D SWAP1 PUSH2 0x49F SWAP1 DUP6 SWAP1 PUSH1 0x4 ADD PUSH2 0xEC1 JUMP JUMPDEST PUSH1 0x20 PUSH1 0x40 MLOAD DUP1 DUP4 SUB DUP2 DUP7 GAS STATICCALL ISZERO DUP1 ISZERO PUSH2 0x4BC JUMPI RETURNDATASIZE PUSH1 0x0 DUP1 RETURNDATACOPY RETURNDATASIZE PUSH1 0x0 REVERT JUMPDEST POP POP POP POP PUSH1 0x40 MLOAD RETURNDATASIZE PUSH1 0x1F NOT PUSH1 0x1F DUP3 ADD AND DUP3 ADD DUP1 PUSH1 0x40 MSTORE POP DUP2 ADD SWAP1 PUSH2 0x3F6 SWAP2 SWAP1 PUSH2 0x10F7 JUMP JUMPDEST PUSH1 0x0 DUP1 SLOAD PUSH1 0x40 MLOAD PUSH32 0xA792765F00000000000000000000000000000000000000000000000000000000 DUP2 MSTORE PUSH1 0x60 SWAP3 SWAP2 PUSH1 0x1 PUSH1 0x1 PUSH1 0xA0 SHL SUB AND SWAP1 PUSH4 0xA792765F SWAP1 PUSH2 0x52E SWAP1 DUP8 SWAP1 DUP8 SWAP1 PUSH1 0x4 ADD PUSH2 0x1077 JUMP JUMPDEST PUSH1 0x0 PUSH1 0x40 MLOAD DUP1 DUP4 SUB DUP2 DUP7 GAS STATICCALL ISZERO DUP1 ISZERO PUSH2 0x54B JUMPI RETURNDATASIZE PUSH1 0x0 DUP1 RETURNDATACOPY RETURNDATASIZE PUSH1 0x0 REVERT JUMPDEST POP POP POP POP PUSH1 0x40 MLOAD RETURNDATASIZE PUSH1 0x0 DUP3 RETURNDATACOPY PUSH1 0x1F RETURNDATASIZE SWAP1 DUP2 ADD PUSH1 0x1F NOT AND DUP3 ADD PUSH1 0x40 MSTORE PUSH2 0x573 SWAP2 SWAP1 DUP2 ADD SWAP1 PUSH2 0x1207 JUMP JUMPDEST SWAP1 SWAP7 SWAP1 SWAP6 POP SWAP4 POP POP POP POP JUMP JUMPDEST PUSH1 0x0 SLOAD PUSH1 0x40 MLOAD PUSH32 0xC5958AF900000000000000000000000000000000000000000000000000000000 DUP2 MSTORE PUSH1 0x60 SWAP2 PUSH1 0x1 PUSH1 0x1 PUSH1 0xA0 SHL SUB AND SWAP1 PUSH4 0xC5958AF9 SWAP1 PUSH2 0x5CB SWAP1 DUP7 SWAP1 DUP7 SWAP1 PUSH1 0x4 ADD PUSH2 0x1077 JUMP JUMPDEST PUSH1 0x0 PUSH1 0x40 MLOAD DUP1 DUP4 SUB DUP2 DUP7 GAS STATICCALL ISZERO DUP1 ISZERO PUSH2 0x5E8 JUMPI RETURNDATASIZE PUSH1 0x0 DUP1 RETURNDATACOPY RETURNDATASIZE PUSH1 0x0 REVERT JUMPDEST POP POP POP POP PUSH1 0x40 MLOAD RETURNDATASIZE PUSH1 0x0 DUP3 RETURNDATACOPY PUSH1 0x1F RETURNDATASIZE SWAP1 DUP2 ADD PUSH1 0x1F NOT AND DUP3 ADD PUSH1 0x40 MSTORE PUSH2 0x3F3 SWAP2 SWAP1 DUP2 ADD SWAP1 PUSH2 0x1272 JUMP JUMPDEST PUSH1 0x0 DUP1 SLOAD PUSH1 0x40 MLOAD PUSH32 0xCE5E11BF00000000000000000000000000000000000000000000000000000000 DUP2 MSTORE PUSH1 0x1 PUSH1 0x1 PUSH1 0xA0 SHL SUB SWAP1 SWAP2 AND SWAP1 PUSH4 0xCE5E11BF SWAP1 PUSH2 0x65C SWAP1 DUP7 SWAP1 DUP7 SWAP1 PUSH1 0x4 ADD PUSH2 0x1077 JUMP JUMPDEST PUSH1 0x20 PUSH1 0x40 MLOAD DUP1 DUP4 SUB DUP2 DUP7 GAS STATICCALL ISZERO DUP1 ISZERO PUSH2 0x679 JUMPI RETURNDATASIZE PUSH1 0x0 DUP1 RETURNDATACOPY RETURNDATASIZE PUSH1 0x0 REVERT JUMPDEST POP POP POP POP PUSH1 0x40 MLOAD RETURNDATASIZE PUSH1 0x1F NOT PUSH1 0x1F DUP3 ADD AND DUP3 ADD DUP1 PUSH1 0x40 MSTORE POP DUP2 ADD SWAP1 PUSH2 0x3F3 SWAP2 SWAP1 PUSH2 0x10F7 JUMP JUMPDEST PUSH1 0x0 DUP1 SLOAD PUSH1 0x40 MLOAD PUSH32 0xE07C548600000000000000000000000000000000000000000000000000000000 DUP2 MSTORE PUSH1 0x1 PUSH1 0x1 PUSH1 0xA0 SHL SUB SWAP1 SWAP2 AND SWAP1 PUSH4 0xE07C5486 SWAP1 PUSH2 0x6E9 SWAP1 DUP7 SWAP1 DUP7 SWAP1 PUSH1 0x4 ADD PUSH2 0x1077 JUMP JUMPDEST PUSH1 0x20 PUSH1 0x40 MLOAD DUP1 DUP4 SUB DUP2 DUP7 GAS STATICCALL ISZERO DUP1 ISZERO PUSH2 0x706 JUMPI RETURNDATASIZE PUSH1 0x0 DUP1 RETURNDATACOPY RETURNDATASIZE PUSH1 0x0 REVERT JUMPDEST POP POP POP POP PUSH1 0x40 MLOAD RETURNDATASIZE PUSH1 0x1F NOT PUSH1 0x1F DUP3 ADD AND DUP3 ADD DUP1 PUSH1 0x40 MSTORE POP DUP2 ADD SWAP1 PUSH2 0x3F3 SWAP2 SWAP1 PUSH2 0x12B8 JUMP JUMPDEST PUSH1 0x0 DUP1 PUSH1 0x0 PUSH2 0x738 DUP6 PUSH2 0x455 JUMP JUMPDEST SWAP1 POP DUP1 PUSH1 0x0 SUB PUSH2 0x74F JUMPI PUSH1 0x0 DUP1 SWAP3 POP SWAP3 POP POP PUSH2 0x35F JUMP JUMPDEST DUP1 PUSH2 0x759 DUP2 PUSH2 0x12EF JUMP JUMPDEST SWAP2 POP PUSH1 0x1 SWAP1 POP PUSH1 0x0 DUP1 DUP4 DUP2 PUSH2 0x76E DUP11 DUP4 PUSH2 0x610 JUMP JUMPDEST SWAP1 POP DUP9 DUP2 GT PUSH2 0x789 JUMPI PUSH1 0x0 DUP1 SWAP8 POP SWAP8 POP POP POP POP POP POP POP PUSH2 0x35F JUMP JUMPDEST PUSH2 0x793 DUP11 DUP5 PUSH2 0x610 JUMP JUMPDEST SWAP1 POP DUP9 DUP2 GT ISZERO PUSH2 0x7A2 JUMPI PUSH1 0x0 SWAP5 POP JUMPDEST DUP5 ISZERO PUSH2 0x852 JUMPI PUSH1 0x2 PUSH2 0x7B4 DUP5 DUP5 PUSH2 0x1306 JUMP JUMPDEST PUSH2 0x7BE SWAP2 SWAP1 PUSH2 0x132F JUMP JUMPDEST SWAP4 POP PUSH2 0x7CA DUP11 DUP6 PUSH2 0x610 JUMP JUMPDEST SWAP1 POP DUP9 DUP2 GT ISZERO PUSH2 0x80B JUMPI PUSH1 0x0 PUSH2 0x7E5 DUP12 PUSH2 0x203 PUSH1 0x1 DUP9 PUSH2 0x1343 JUMP JUMPDEST SWAP1 POP DUP10 DUP2 GT PUSH2 0x7F7 JUMPI PUSH1 0x0 SWAP6 POP PUSH2 0x805 JUMP JUMPDEST PUSH2 0x802 PUSH1 0x1 DUP7 PUSH2 0x1343 JUMP JUMPDEST SWAP3 POP JUMPDEST POP PUSH2 0x7A2 JUMP JUMPDEST PUSH1 0x0 PUSH2 0x81C DUP12 PUSH2 0x203 DUP8 PUSH1 0x1 PUSH2 0x1306 JUMP JUMPDEST SWAP1 POP DUP10 DUP2 GT ISZERO PUSH2 0x83F JUMPI PUSH1 0x0 SWAP6 POP DUP5 PUSH2 0x834 DUP2 PUSH2 0x1356 JUMP JUMPDEST SWAP6 POP POP DUP1 SWAP2 POP PUSH2 0x805 JUMP JUMPDEST PUSH2 0x84A DUP6 PUSH1 0x1 PUSH2 0x1306 JUMP JUMPDEST SWAP4 POP POP PUSH2 0x7A2 JUMP JUMPDEST PUSH2 0x85C DUP11 DUP3 PUSH2 0x366 JUMP JUMPDEST PUSH2 0x872 JUMPI PUSH1 0x1 DUP5 SWAP8 POP SWAP8 POP POP POP POP POP POP POP PUSH2 0x35F JUMP JUMPDEST PUSH2 0x87C DUP11 DUP3 PUSH2 0x366 JUMP JUMPDEST DUP1 ISZERO PUSH2 0x887 JUMPI POP DUP6 DUP5 LT JUMPDEST ISZERO PUSH2 0x8AA JUMPI DUP4 PUSH2 0x896 DUP2 PUSH2 0x1356 JUMP JUMPDEST SWAP5 POP POP PUSH2 0x8A3 DUP11 DUP6 PUSH2 0x610 JUMP JUMPDEST SWAP1 POP PUSH2 0x872 JUMP JUMPDEST DUP6 DUP5 EQ DUP1 ISZERO PUSH2 0x8BE JUMPI POP PUSH2 0x8BE DUP11 DUP3 PUSH2 0x366 JUMP JUMPDEST ISZERO PUSH2 0x8D5 JUMPI PUSH1 0x0 DUP1 SWAP8 POP SWAP8 POP POP POP POP POP POP POP PUSH2 0x35F JUMP JUMPDEST PUSH1 0x1 DUP5 SWAP8 POP SWAP8 POP POP POP POP POP POP POP PUSH2 0x35F JUMP JUMPDEST PUSH1 0x1 SLOAD PUSH1 0x40 MLOAD PUSH32 0x87A475FD00000000000000000000000000000000000000000000000000000000 DUP2 MSTORE PUSH1 0x0 SWAP2 DUP3 SWAP2 DUP3 SWAP2 DUP3 SWAP2 PUSH1 0x1 PUSH1 0x1 PUSH1 0xA0 SHL SUB SWAP1 SWAP2 AND SWAP1 PUSH4 0x87A475FD SWAP1 PUSH2 0x939 SWAP1 DUP9 SWAP1 PUSH1 0x4 ADD PUSH2 0xEC1 JUMP JUMPDEST PUSH1 0x20 PUSH1 0x40 MLOAD DUP1 DUP4 SUB DUP2 DUP7 GAS STATICCALL ISZERO DUP1 ISZERO PUSH2 0x956 JUMPI RETURNDATASIZE PUSH1 0x0 DUP1 RETURNDATACOPY RETURNDATASIZE PUSH1 0x0 REVERT JUMPDEST POP POP POP POP PUSH1 0x40 MLOAD RETURNDATASIZE PUSH1 0x1F NOT PUSH1 0x1F DUP3 ADD AND DUP3 ADD DUP1 PUSH1 0x40 MSTORE POP DUP2 ADD SWAP1 PUSH2 0x97A SWAP2 SWAP1 PUSH2 0x10F7 JUMP JUMPDEST SWAP1 POP PUSH1 0x60 PUSH2 0x98D DUP3 PUSH2 0x1D0 TIMESTAMP PUSH1 0x1 PUSH2 0x1306 JUMP JUMPDEST SWAP5 POP SWAP1 POP PUSH1 0x0 DUP5 SWAP1 SUB PUSH2 0x9AD JUMPI PUSH1 0x0 DUP1 PUSH2 0x194 SWAP5 POP SWAP5 POP SWAP5 POP POP POP PUSH2 0x9C2 JUMP JUMPDEST PUSH1 0x0 PUSH2 0x9B8 DUP3 PUSH2 0xCB8 JUMP JUMPDEST SWAP6 POP PUSH1 0xC8 SWAP4 POP POP POP POP JUMPDEST SWAP2 SWAP4 SWAP1 SWAP3 POP JUMP JUMPDEST PUSH1 0x60 DUP1 PUSH1 0x0 DUP1 PUSH2 0x9DD DUP9 PUSH2 0x236 DUP9 DUP11 PUSH2 0x1343 JUMP JUMPDEST SWAP2 POP SWAP2 POP DUP2 PUSH2 0xA2E JUMPI PUSH1 0x40 DUP1 MLOAD PUSH1 0x0 DUP1 DUP3 MSTORE PUSH1 0x20 DUP3 ADD SWAP1 SWAP3 MSTORE SWAP1 PUSH2 0xA11 JUMP JUMPDEST PUSH1 0x60 DUP2 MSTORE PUSH1 0x20 ADD SWAP1 PUSH1 0x1 SWAP1 SUB SWAP1 DUP2 PUSH2 0x9FC JUMPI SWAP1 POP JUMPDEST POP PUSH1 0x40 DUP1 MLOAD PUSH1 0x0 DUP2 MSTORE PUSH1 0x20 DUP2 ADD SWAP1 SWAP2 MSTORE SWAP1 SWAP5 POP SWAP3 POP PUSH2 0xCAF SWAP2 POP POP JUMP JUMPDEST PUSH1 0x0 PUSH2 0xA3A DUP10 DUP10 PUSH2 0x2CE JUMP JUMPDEST SWAP1 SWAP4 POP SWAP1 POP DUP3 PUSH2 0xA8D JUMPI PUSH1 0x40 DUP1 MLOAD PUSH1 0x0 DUP1 DUP3 MSTORE PUSH1 0x20 DUP3 ADD SWAP1 SWAP3 MSTORE SWAP1 PUSH2 0xA6F JUMP JUMPDEST PUSH1 0x60 DUP2 MSTORE PUSH1 0x20 ADD SWAP1 PUSH1 0x1 SWAP1 SUB SWAP1 DUP2 PUSH2 0xA5A JUMPI SWAP1 POP JUMPDEST POP PUSH1 0x40 DUP1 MLOAD PUSH1 0x0 DUP2 MSTORE PUSH1 0x20 DUP2 ADD SWAP1 SWAP2 MSTORE SWAP1 SWAP6 POP SWAP4 POP PUSH2 0xCAF SWAP3 POP POP POP JUMP JUMPDEST PUSH1 0x0 DUP1 PUSH1 0x0 DUP9 PUSH8 0xFFFFFFFFFFFFFFFF DUP2 GT ISZERO PUSH2 0xAAB JUMPI PUSH2 0xAAB PUSH2 0x1118 JUMP JUMPDEST PUSH1 0x40 MLOAD SWAP1 DUP1 DUP3 MSTORE DUP1 PUSH1 0x20 MUL PUSH1 0x20 ADD DUP3 ADD PUSH1 0x40 MSTORE DUP1 ISZERO PUSH2 0xAD4 JUMPI DUP2 PUSH1 0x20 ADD PUSH1 0x20 DUP3 MUL DUP1 CALLDATASIZE DUP4 CALLDATACOPY ADD SWAP1 POP JUMPDEST POP SWAP1 POP JUMPDEST DUP9 DUP4 LT DUP1 ISZERO PUSH2 0xAFB JUMPI POP DUP5 DUP3 PUSH2 0xAEF DUP7 PUSH1 0x1 PUSH2 0x1306 JUMP JUMPDEST PUSH2 0xAF9 SWAP2 SWAP1 PUSH2 0x1343 JUMP JUMPDEST GT JUMPDEST ISZERO PUSH2 0xB5F JUMPI PUSH1 0x0 PUSH2 0xB10 DUP14 PUSH2 0x203 DUP6 DUP9 PUSH2 0x1343 JUMP JUMPDEST SWAP1 POP PUSH2 0xB1C DUP14 DUP3 PUSH2 0x366 JUMP JUMPDEST PUSH2 0xB4C JUMPI DUP1 DUP3 DUP6 DUP2 MLOAD DUP2 LT PUSH2 0xB33 JUMPI PUSH2 0xB33 PUSH2 0x1370 JUMP JUMPDEST PUSH1 0x20 SWAP1 DUP2 MUL SWAP2 SWAP1 SWAP2 ADD ADD MSTORE DUP4 PUSH2 0xB48 DUP2 PUSH2 0x1356 JUMP JUMPDEST SWAP5 POP POP JUMPDEST DUP3 PUSH2 0xB56 DUP2 PUSH2 0x1356 JUMP JUMPDEST SWAP4 POP POP POP PUSH2 0xAD8 JUMP JUMPDEST PUSH1 0x0 DUP4 PUSH8 0xFFFFFFFFFFFFFFFF DUP2 GT ISZERO PUSH2 0xB7A JUMPI PUSH2 0xB7A PUSH2 0x1118 JUMP JUMPDEST PUSH1 0x40 MLOAD SWAP1 DUP1 DUP3 MSTORE DUP1 PUSH1 0x20 MUL PUSH1 0x20 ADD DUP3 ADD PUSH1 0x40 MSTORE DUP1 ISZERO PUSH2 0xBAD JUMPI DUP2 PUSH1 0x20 ADD JUMPDEST PUSH1 0x60 DUP2 MSTORE PUSH1 0x20 ADD SWAP1 PUSH1 0x1 SWAP1 SUB SWAP1 DUP2 PUSH2 0xB98 JUMPI SWAP1 POP JUMPDEST POP SWAP1 POP PUSH1 0x0 DUP5 PUSH8 0xFFFFFFFFFFFFFFFF DUP2 GT ISZERO PUSH2 0xBCB JUMPI PUSH2 0xBCB PUSH2 0x1118 JUMP JUMPDEST PUSH1 0x40 MLOAD SWAP1 DUP1 DUP3 MSTORE DUP1 PUSH1 0x20 MUL PUSH1 0x20 ADD DUP3 ADD PUSH1 0x40 MSTORE DUP1 ISZERO PUSH2 0xBF4 JUMPI DUP2 PUSH1 0x20 ADD PUSH1 0x20 DUP3 MUL DUP1 CALLDATASIZE DUP4 CALLDATACOPY ADD SWAP1 POP JUMPDEST POP SWAP1 POP PUSH1 0x0 JUMPDEST DUP6 DUP2 LT ISZERO PUSH2 0xCA2 JUMPI DUP4 DUP2 PUSH2 0xC0F PUSH1 0x1 DUP10 PUSH2 0x1343 JUMP JUMPDEST PUSH2 0xC19 SWAP2 SWAP1 PUSH2 0x1343 JUMP JUMPDEST DUP2 MLOAD DUP2 LT PUSH2 0xC29 JUMPI PUSH2 0xC29 PUSH2 0x1370 JUMP JUMPDEST PUSH1 0x20 MUL PUSH1 0x20 ADD ADD MLOAD DUP3 DUP3 DUP2 MLOAD DUP2 LT PUSH2 0xC43 JUMPI PUSH2 0xC43 PUSH2 0x1370 JUMP JUMPDEST PUSH1 0x20 MUL PUSH1 0x20 ADD ADD DUP2 DUP2 MSTORE POP POP PUSH2 0xC72 DUP16 DUP4 DUP4 DUP2 MLOAD DUP2 LT PUSH2 0xC65 JUMPI PUSH2 0xC65 PUSH2 0x1370 JUMP JUMPDEST PUSH1 0x20 MUL PUSH1 0x20 ADD ADD MLOAD PUSH2 0x57F JUMP JUMPDEST DUP4 DUP3 DUP2 MLOAD DUP2 LT PUSH2 0xC84 JUMPI PUSH2 0xC84 PUSH2 0x1370 JUMP JUMPDEST PUSH1 0x20 MUL PUSH1 0x20 ADD ADD DUP2 SWAP1 MSTORE POP DUP1 DUP1 PUSH2 0xC9A SWAP1 PUSH2 0x1356 JUMP JUMPDEST SWAP2 POP POP PUSH2 0xBFA JUMP JUMPDEST POP SWAP1 SWAP9 POP SWAP7 POP POP POP POP POP POP POP JUMPDEST SWAP5 POP SWAP5 SWAP3 POP POP POP JUMP JUMPDEST PUSH1 0x0 DUP1 JUMPDEST DUP3 MLOAD DUP2 LT ISZERO PUSH2 0xD09 JUMPI DUP3 DUP2 DUP2 MLOAD DUP2 LT PUSH2 0xCD7 JUMPI PUSH2 0xCD7 PUSH2 0x1370 JUMP JUMPDEST ADD PUSH1 0x20 ADD MLOAD PUSH1 0xF8 SHR PUSH2 0xCEB DUP4 PUSH2 0x100 PUSH2 0x1386 JUMP JUMPDEST PUSH2 0xCF5 SWAP2 SWAP1 PUSH2 0x1306 JUMP JUMPDEST SWAP2 POP DUP1 PUSH2 0xD01 DUP2 PUSH2 0x1356 JUMP JUMPDEST SWAP2 POP POP PUSH2 0xCBC JUMP JUMPDEST POP SWAP2 SWAP1 POP JUMP JUMPDEST PUSH1 0x0 PUSH1 0x1 PUSH1 0x1 PUSH1 0xA0 SHL SUB DUP3 AND PUSH2 0x3F6 JUMP JUMPDEST PUSH2 0xD29 DUP2 PUSH2 0xD0F JUMP JUMPDEST DUP2 EQ PUSH2 0xD34 JUMPI PUSH1 0x0 DUP1 REVERT JUMPDEST POP JUMP JUMPDEST DUP1 CALLDATALOAD PUSH2 0x3F6 DUP2 PUSH2 0xD20 JUMP JUMPDEST PUSH1 0x0 PUSH1 0x20 DUP3 DUP5 SUB SLT ISZERO PUSH2 0xD57 JUMPI PUSH2 0xD57 PUSH1 0x0 DUP1 REVERT JUMPDEST PUSH1 0x0 PUSH2 0xD63 DUP5 DUP5 PUSH2 0xD37 JUMP JUMPDEST SWAP5 SWAP4 POP POP POP POP JUMP JUMPDEST PUSH1 0x0 PUSH2 0x3F6 DUP3 PUSH2 0xD0F JUMP JUMPDEST PUSH1 0x0 PUSH2 0x3F6 DUP3 PUSH2 0xD6B JUMP JUMPDEST PUSH2 0xD8A DUP2 PUSH2 0xD76 JUMP JUMPDEST DUP3 MSTORE POP POP JUMP JUMPDEST PUSH1 0x20 DUP2 ADD PUSH2 0x3F6 DUP3 DUP5 PUSH2 0xD81 JUMP JUMPDEST DUP1 PUSH2 0xD29 JUMP JUMPDEST DUP1 CALLDATALOAD PUSH2 0x3F6 DUP2 PUSH2 0xD9E JUMP JUMPDEST PUSH1 0x0 DUP1 PUSH1 0x40 DUP4 DUP6 SUB SLT ISZERO PUSH2 0xDC5 JUMPI PUSH2 0xDC5 PUSH1 0x0 DUP1 REVERT JUMPDEST PUSH1 0x0 PUSH2 0xDD1 DUP6 DUP6 PUSH2 0xDA4 JUMP JUMPDEST SWAP3 POP POP PUSH1 0x20 PUSH2 0xDE2 DUP6 DUP3 DUP7 ADD PUSH2 0xDA4 JUMP JUMPDEST SWAP2 POP POP SWAP3 POP SWAP3 SWAP1 POP JUMP JUMPDEST DUP1 ISZERO ISZERO PUSH2 0xD8A JUMP JUMPDEST DUP1 PUSH2 0xD8A JUMP JUMPDEST PUSH1 0x40 DUP2 ADD PUSH2 0xE08 DUP3 DUP6 PUSH2 0xDEC JUMP JUMPDEST PUSH2 0xE15 PUSH1 0x20 DUP4 ADD DUP5 PUSH2 0xDF4 JUMP JUMPDEST SWAP4 SWAP3 POP POP POP JUMP JUMPDEST PUSH1 0x20 DUP2 ADD PUSH2 0x3F6 DUP3 DUP5 PUSH2 0xDEC JUMP JUMPDEST PUSH1 0x0 JUMPDEST DUP4 DUP2 LT ISZERO PUSH2 0xE45 JUMPI DUP2 DUP2 ADD MLOAD DUP4 DUP3 ADD MSTORE PUSH1 0x20 ADD PUSH2 0xE2D JUMP JUMPDEST POP POP PUSH1 0x0 SWAP2 ADD MSTORE JUMP JUMPDEST PUSH1 0x0 PUSH2 0xE58 DUP3 MLOAD SWAP1 JUMP JUMPDEST DUP1 DUP5 MSTORE PUSH1 0x20 DUP5 ADD SWAP4 POP PUSH2 0xE6F DUP2 DUP6 PUSH1 0x20 DUP7 ADD PUSH2 0xE2A JUMP JUMPDEST PUSH1 0x1F ADD PUSH1 0x1F NOT AND SWAP3 SWAP1 SWAP3 ADD SWAP3 SWAP2 POP POP JUMP JUMPDEST PUSH1 0x40 DUP1 DUP3 MSTORE DUP2 ADD PUSH2 0xE91 DUP2 DUP6 PUSH2 0xE4E JUMP JUMPDEST SWAP1 POP PUSH2 0xE15 PUSH1 0x20 DUP4 ADD DUP5 PUSH2 0xDF4 JUMP JUMPDEST PUSH1 0x0 PUSH1 0x20 DUP3 DUP5 SUB SLT ISZERO PUSH2 0xEB5 JUMPI PUSH2 0xEB5 PUSH1 0x0 DUP1 REVERT JUMPDEST PUSH1 0x0 PUSH2 0xD63 DUP5 DUP5 PUSH2 0xDA4 JUMP JUMPDEST PUSH1 0x20 DUP2 ADD PUSH2 0x3F6 DUP3 DUP5 PUSH2 0xDF4 JUMP JUMPDEST PUSH1 0x20 DUP1 DUP3 MSTORE DUP2 ADD PUSH2 0x3F3 DUP2 DUP5 PUSH2 0xE4E JUMP JUMPDEST PUSH2 0xD8A DUP2 PUSH2 0xD0F JUMP JUMPDEST PUSH1 0x20 DUP2 ADD PUSH2 0x3F6 DUP3 DUP5 PUSH2 0xEE0 JUMP JUMPDEST PUSH1 0x60 DUP2 ADD PUSH2 0xF05 DUP3 DUP7 PUSH2 0xDF4 JUMP JUMPDEST PUSH2 0xF12 PUSH1 0x20 DUP4 ADD DUP6 PUSH2 0xDF4 JUMP JUMPDEST PUSH2 0xD63 PUSH1 0x40 DUP4 ADD DUP5 PUSH2 0xDF4 JUMP JUMPDEST PUSH1 0x0 DUP1 PUSH1 0x0 DUP1 PUSH1 0x80 DUP6 DUP8 SUB SLT ISZERO PUSH2 0xF38 JUMPI PUSH2 0xF38 PUSH1 0x0 DUP1 REVERT JUMPDEST PUSH1 0x0 PUSH2 0xF44 DUP8 DUP8 PUSH2 0xDA4 JUMP JUMPDEST SWAP5 POP POP PUSH1 0x20 PUSH2 0xF55 DUP8 DUP3 DUP9 ADD PUSH2 0xDA4 JUMP JUMPDEST SWAP4 POP POP PUSH1 0x40 PUSH2 0xF66 DUP8 DUP3 DUP9 ADD PUSH2 0xDA4 JUMP JUMPDEST SWAP3 POP POP PUSH1 0x60 PUSH2 0xF77 DUP8 DUP3 DUP9 ADD PUSH2 0xDA4 JUMP JUMPDEST SWAP2 POP POP SWAP3 SWAP6 SWAP2 SWAP5 POP SWAP3 POP JUMP JUMPDEST PUSH1 0x0 PUSH2 0x3F3 DUP4 DUP4 PUSH2 0xE4E JUMP JUMPDEST PUSH1 0x0 PUSH2 0xF99 DUP3 MLOAD SWAP1 JUMP JUMPDEST DUP1 DUP5 MSTORE PUSH1 0x20 DUP5 ADD SWAP4 POP DUP4 PUSH1 0x20 DUP3 MUL DUP6 ADD PUSH2 0xFB3 DUP6 PUSH1 0x20 ADD SWAP1 JUMP JUMPDEST DUP1 PUSH1 0x0 JUMPDEST DUP6 DUP2 LT ISZERO PUSH2 0xFE8 JUMPI DUP5 DUP5 SUB DUP10 MSTORE DUP2 MLOAD PUSH2 0xFD0 DUP6 DUP3 PUSH2 0xF83 JUMP JUMPDEST SWAP5 POP PUSH1 0x20 DUP4 ADD PUSH1 0x20 SWAP11 SWAP1 SWAP11 ADD SWAP10 SWAP3 POP POP PUSH1 0x1 ADD PUSH2 0xFB7 JUMP JUMPDEST POP SWAP2 SWAP8 SWAP7 POP POP POP POP POP POP POP JUMP JUMPDEST PUSH1 0x0 PUSH2 0x1001 DUP4 DUP4 PUSH2 0xDF4 JUMP JUMPDEST POP POP PUSH1 0x20 ADD SWAP1 JUMP JUMPDEST PUSH1 0x0 PUSH2 0x1013 DUP3 MLOAD SWAP1 JUMP JUMPDEST DUP1 DUP5 MSTORE PUSH1 0x20 SWAP4 DUP5 ADD SWAP4 DUP4 ADD DUP1 PUSH1 0x0 JUMPDEST DUP4 DUP2 LT ISZERO PUSH2 0x1047 JUMPI DUP2 MLOAD PUSH2 0x1036 DUP9 DUP3 PUSH2 0xFF5 JUMP JUMPDEST SWAP8 POP PUSH1 0x20 DUP4 ADD SWAP3 POP POP PUSH1 0x1 ADD PUSH2 0x1022 JUMP JUMPDEST POP SWAP5 SWAP6 SWAP5 POP POP POP POP POP JUMP JUMPDEST PUSH1 0x40 DUP1 DUP3 MSTORE DUP2 ADD PUSH2 0x1063 DUP2 DUP6 PUSH2 0xF8F JUMP JUMPDEST SWAP1 POP DUP2 DUP2 SUB PUSH1 0x20 DUP4 ADD MSTORE PUSH2 0xD63 DUP2 DUP5 PUSH2 0x1009 JUMP JUMPDEST PUSH1 0x40 DUP2 ADD PUSH2 0xE08 DUP3 DUP6 PUSH2 0xDF4 JUMP JUMPDEST DUP1 ISZERO ISZERO PUSH2 0xD29 JUMP JUMPDEST DUP1 MLOAD PUSH2 0x3F6 DUP2 PUSH2 0x1085 JUMP JUMPDEST DUP1 MLOAD PUSH2 0x3F6 DUP2 PUSH2 0xD9E JUMP JUMPDEST PUSH1 0x0 DUP1 PUSH1 0x40 DUP4 DUP6 SUB SLT ISZERO PUSH2 0x10B9 JUMPI PUSH2 0x10B9 PUSH1 0x0 DUP1 REVERT JUMPDEST PUSH1 0x0 PUSH2 0x10C5 DUP6 DUP6 PUSH2 0x108D JUMP JUMPDEST SWAP3 POP POP PUSH1 0x20 PUSH2 0xDE2 DUP6 DUP3 DUP7 ADD PUSH2 0x1098 JUMP JUMPDEST PUSH1 0x0 PUSH1 0x20 DUP3 DUP5 SUB SLT ISZERO PUSH2 0x10EB JUMPI PUSH2 0x10EB PUSH1 0x0 DUP1 REVERT JUMPDEST PUSH1 0x0 PUSH2 0xD63 DUP5 DUP5 PUSH2 0x108D JUMP JUMPDEST PUSH1 0x0 PUSH1 0x20 DUP3 DUP5 SUB SLT ISZERO PUSH2 0x110C JUMPI PUSH2 0x110C PUSH1 0x0 DUP1 REVERT JUMPDEST PUSH1 0x0 PUSH2 0xD63 DUP5 DUP5 PUSH2 0x1098 JUMP JUMPDEST PUSH4 0x4E487B71 PUSH1 0xE0 SHL PUSH1 0x0 MSTORE PUSH1 0x41 PUSH1 0x4 MSTORE PUSH1 0x24 PUSH1 0x0 REVERT JUMPDEST PUSH1 0x1F NOT PUSH1 0x1F DUP4 ADD AND DUP2 ADD DUP2 DUP2 LT PUSH8 0xFFFFFFFFFFFFFFFF DUP3 GT OR ISZERO PUSH2 0x1154 JUMPI PUSH2 0x1154 PUSH2 0x1118 JUMP JUMPDEST PUSH1 0x40 MSTORE POP POP JUMP JUMPDEST PUSH1 0x0 PUSH2 0x1166 PUSH1 0x40 MLOAD SWAP1 JUMP JUMPDEST SWAP1 POP PUSH2 0x1172 DUP3 DUP3 PUSH2 0x112E JUMP JUMPDEST SWAP2 SWAP1 POP JUMP JUMPDEST PUSH1 0x0 PUSH8 0xFFFFFFFFFFFFFFFF DUP3 GT ISZERO PUSH2 0x1191 JUMPI PUSH2 0x1191 PUSH2 0x1118 JUMP JUMPDEST PUSH1 0x1F NOT PUSH1 0x1F DUP4 ADD AND PUSH1 0x20 ADD SWAP3 SWAP2 POP POP JUMP JUMPDEST PUSH1 0x0 PUSH2 0x11B5 PUSH2 0x11B0 DUP5 PUSH2 0x1177 JUMP JUMPDEST PUSH2 0x115B JUMP JUMPDEST SWAP1 POP DUP3 DUP2 MSTORE PUSH1 0x20 DUP2 ADD DUP5 DUP5 DUP5 ADD GT ISZERO PUSH2 0x11D0 JUMPI PUSH2 0x11D0 PUSH1 0x0 DUP1 REVERT JUMPDEST PUSH2 0x11DB DUP5 DUP3 DUP6 PUSH2 0xE2A JUMP JUMPDEST POP SWAP4 SWAP3 POP POP POP JUMP JUMPDEST PUSH1 0x0 DUP3 PUSH1 0x1F DUP4 ADD SLT PUSH2 0x11F7 JUMPI PUSH2 0x11F7 PUSH1 0x0 DUP1 REVERT JUMPDEST DUP2 MLOAD PUSH2 0xD63 DUP5 DUP3 PUSH1 0x20 DUP7 ADD PUSH2 0x11A2 JUMP JUMPDEST PUSH1 0x0 DUP1 PUSH1 0x0 PUSH1 0x60 DUP5 DUP7 SUB SLT ISZERO PUSH2 0x121F JUMPI PUSH2 0x121F PUSH1 0x0 DUP1 REVERT JUMPDEST PUSH1 0x0 PUSH2 0x122B DUP7 DUP7 PUSH2 0x108D JUMP JUMPDEST SWAP4 POP POP PUSH1 0x20 DUP5 ADD MLOAD PUSH8 0xFFFFFFFFFFFFFFFF DUP2 GT ISZERO PUSH2 0x124B JUMPI PUSH2 0x124B PUSH1 0x0 DUP1 REVERT JUMPDEST PUSH2 0x1257 DUP7 DUP3 DUP8 ADD PUSH2 0x11E3 JUMP JUMPDEST SWAP3 POP POP PUSH1 0x40 PUSH2 0x1268 DUP7 DUP3 DUP8 ADD PUSH2 0x1098 JUMP JUMPDEST SWAP2 POP POP SWAP3 POP SWAP3 POP SWAP3 JUMP JUMPDEST PUSH1 0x0 PUSH1 0x20 DUP3 DUP5 SUB SLT ISZERO PUSH2 0x1287 JUMPI PUSH2 0x1287 PUSH1 0x0 DUP1 REVERT JUMPDEST DUP2 MLOAD PUSH8 0xFFFFFFFFFFFFFFFF DUP2 GT ISZERO PUSH2 0x12A1 JUMPI PUSH2 0x12A1 PUSH1 0x0 DUP1 REVERT JUMPDEST PUSH2 0xD63 DUP5 DUP3 DUP6 ADD PUSH2 0x11E3 JUMP JUMPDEST DUP1 MLOAD PUSH2 0x3F6 DUP2 PUSH2 0xD20 JUMP JUMPDEST PUSH1 0x0 PUSH1 0x20 DUP3 DUP5 SUB SLT ISZERO PUSH2 0x12CD JUMPI PUSH2 0x12CD PUSH1 0x0 DUP1 REVERT JUMPDEST PUSH1 0x0 PUSH2 0xD63 DUP5 DUP5 PUSH2 0x12AD JUMP JUMPDEST PUSH4 0x4E487B71 PUSH1 0xE0 SHL PUSH1 0x0 MSTORE PUSH1 0x11 PUSH1 0x4 MSTORE PUSH1 0x24 PUSH1 0x0 REVERT JUMPDEST PUSH1 0x0 DUP2 PUSH2 0x12FE JUMPI PUSH2 0x12FE PUSH2 0x12D9 JUMP JUMPDEST POP PUSH1 0x0 NOT ADD SWAP1 JUMP JUMPDEST DUP1 DUP3 ADD DUP1 DUP3 GT ISZERO PUSH2 0x3F6 JUMPI PUSH2 0x3F6 PUSH2 0x12D9 JUMP JUMPDEST PUSH4 0x4E487B71 PUSH1 0xE0 SHL PUSH1 0x0 MSTORE PUSH1 0x12 PUSH1 0x4 MSTORE PUSH1 0x24 PUSH1 0x0 REVERT JUMPDEST PUSH1 0x0 DUP3 PUSH2 0x133E JUMPI PUSH2 0x133E PUSH2 0x1319 JUMP JUMPDEST POP DIV SWAP1 JUMP JUMPDEST DUP2 DUP2 SUB DUP2 DUP2 GT ISZERO PUSH2 0x3F6 JUMPI PUSH2 0x3F6 PUSH2 0x12D9 JUMP JUMPDEST PUSH1 0x0 PUSH1 0x0 NOT DUP3 SUB PUSH2 0x1369 JUMPI PUSH2 0x1369 PUSH2 0x12D9 JUMP JUMPDEST POP PUSH1 0x1 ADD SWAP1 JUMP JUMPDEST PUSH4 0x4E487B71 PUSH1 0xE0 SHL PUSH1 0x0 MSTORE PUSH1 0x32 PUSH1 0x4 MSTORE PUSH1 0x24 PUSH1 0x0 REVERT JUMPDEST DUP2 DUP2 MUL DUP1 DUP3 ISZERO DUP4 DUP3 DIV DUP6 EQ OR PUSH2 0x139E JUMPI PUSH2 0x139E PUSH2 0x12D9 JUMP JUMPDEST POP SWAP3 SWAP2 POP POP JUMP INVALID LOG2 PUSH5 0x6970667358 0x22 SLT KECCAK256 0xEC PUSH28 0x11A143F92EAA58E5B2A168B84EFD50531D7139B1E3C72770FDFCCCED DUP6 SWAP4 PUSH5 0x736F6C6343 STOP ADDMOD GT STOP CALLER "},"gasEstimates":{"creation":{"codeDepositCost":"1016600","executionCost":"infinite","totalCost":"infinite"},"external":{"getDataAfter(bytes32,uint256)":"infinite","getDataBefore(bytes32,uint256)":"infinite","getIndexForDataAfter(bytes32,uint256)":"infinite","getIndexForDataBefore(bytes32,uint256)":"infinite","getMultipleValuesBefore(bytes32,uint256,uint256,uint256)":"infinite","getNewValueCountbyQueryId(bytes32)":"infinite","getReporterByTimestamp(bytes32,uint256)":"infinite","getTimestampbyQueryIdandIndex(bytes32,uint256)":"infinite","idMappingContract()":"infinite","isInDispute(bytes32,uint256)":"infinite","retrieveData(bytes32,uint256)":"infinite","setIdMappingContract(address)":"infinite","tellor()":"infinite","valueFor(bytes32)":"infinite"},"internal":{"_sliceUint(bytes memory)":"infinite"}},"methodIdentifiers":{"getDataAfter(bytes32,uint256)":"64ee3c6d","getDataBefore(bytes32,uint256)":"a792765f","getIndexForDataAfter(bytes32,uint256)":"f66f49c3","getIndexForDataBefore(bytes32,uint256)":"29449085","getMultipleValuesBefore(bytes32,uint256,uint256,uint256)":"fcd4a546","getNewValueCountbyQueryId(bytes32)":"77b03e0d","getReporterByTimestamp(bytes32,uint256)":"e07c5486","getTimestampbyQueryIdandIndex(bytes32,uint256)":"ce5e11bf","idMappingContract()":"2af8aae0","isInDispute(bytes32,uint256)":"44e87f91","retrieveData(bytes32,uint256)":"c5958af9","setIdMappingContract(address)":"193b505b","tellor()":"1959ad5b","valueFor(bytes32)":"f78eea83"}},"storageLayout":{"storage":[{"astId":3452,"contract":"usingtellor/contracts/UsingTellor.sol:UsingTellor","label":"tellor","offset":0,"slot":"0","type":"t_contract(ITellor)5193"},{"astId":3455,"contract":"usingtellor/contracts/UsingTellor.sol:UsingTellor","label":"idMappingContract","offset":0,"slot":"1","type":"t_contract(IMappingContract)4198"}],"types":{"t_contract(IMappingContract)4198":{"encoding":"inplace","label":"contract IMappingContract","numberOfBytes":"20"},"t_contract(ITellor)5193":{"encoding":"inplace","label":"contract ITellor","numberOfBytes":"20"}}},"userdoc":{"kind":"user","methods":{},"version":1}}}}