{"contracts/MrKrabz.sol":{"MrKrabz":{"abi":[{"inputs":[{"internalType":"address","name":"_gateway","type":"address"},{"internalType":"address","name":"_gasReceiver","type":"address"},{"internalType":"address payable","name":"_tellorAddress","type":"address"},{"internalType":"address","name":"_krabzTokenAddress","type":"address"}],"stateMutability":"nonpayable","type":"constructor"},{"inputs":[],"name":"InvalidAddress","type":"error"},{"inputs":[],"name":"NotApprovedByGateway","type":"error"},{"inputs":[],"name":"FILECOIN_CHAIN_ID","outputs":[{"internalType":"uint256","name":"","type":"uint256"}],"stateMutability":"view","type":"function"},{"inputs":[],"name":"MAX_TICKET_PER_ROUND","outputs":[{"internalType":"uint256","name":"","type":"uint256"}],"stateMutability":"view","type":"function"},{"inputs":[],"name":"POLYGON_CHAIN_ID","outputs":[{"internalType":"uint256","name":"","type":"uint256"}],"stateMutability":"view","type":"function"},{"inputs":[],"name":"PREDICTABLE_VALUE","outputs":[{"internalType":"uint256","name":"","type":"uint256"}],"stateMutability":"view","type":"function"},{"inputs":[{"internalType":"uint256[3]","name":"_selectedNumbers","type":"uint256[3]"},{"internalType":"bool","name":"_nativeAsset","type":"bool"},{"internalType":"uint256","name":"_estimateGasAmountOne","type":"uint256"}],"name":"buyTicket","outputs":[],"stateMutability":"nonpayable","type":"function"},{"inputs":[],"name":"buyTicketPath","outputs":[{"internalType":"uint256","name":"","type":"uint256"}],"stateMutability":"view","type":"function"},{"inputs":[{"internalType":"uint256","name":"_ticketId","type":"uint256"},{"internalType":"uint256","name":"_estimateGasAmountOne","type":"uint256"}],"name":"claimRefund","outputs":[],"stateMutability":"nonpayable","type":"function"},{"inputs":[{"internalType":"uint256","name":"_ticketId","type":"uint256"},{"internalType":"uint256","name":"_estimateGasAmountOne","type":"uint256"}],"name":"claimWinnings","outputs":[],"stateMutability":"nonpayable","type":"function"},{"inputs":[],"name":"claimWinningsPath","outputs":[{"internalType":"uint256","name":"","type":"uint256"}],"stateMutability":"view","type":"function"},{"inputs":[],"name":"currentRound","outputs":[{"internalType":"uint256","name":"","type":"uint256"}],"stateMutability":"view","type":"function"},{"inputs":[],"name":"deployer","outputs":[{"internalType":"address","name":"","type":"address"}],"stateMutability":"view","type":"function"},{"inputs":[{"internalType":"bytes32","name":"commandId","type":"bytes32"},{"internalType":"string","name":"sourceChain","type":"string"},{"internalType":"string","name":"sourceAddress","type":"string"},{"internalType":"bytes","name":"payload","type":"bytes"}],"name":"execute","outputs":[],"stateMutability":"nonpayable","type":"function"},{"inputs":[{"internalType":"bytes32","name":"commandId","type":"bytes32"},{"internalType":"string","name":"sourceChain","type":"string"},{"internalType":"string","name":"sourceAddress","type":"string"},{"internalType":"bytes","name":"payload","type":"bytes"},{"internalType":"string","name":"tokenSymbol","type":"string"},{"internalType":"uint256","name":"amount","type":"uint256"}],"name":"executeWithToken","outputs":[],"stateMutability":"nonpayable","type":"function"},{"inputs":[],"name":"filecoinChain","outputs":[{"internalType":"string","name":"","type":"string"}],"stateMutability":"view","type":"function"},{"inputs":[],"name":"filecoinDestinationAddr","outputs":[{"internalType":"string","name":"","type":"string"}],"stateMutability":"view","type":"function"},{"inputs":[],"name":"gasService","outputs":[{"internalType":"contract IAxelarGasService","name":"","type":"address"}],"stateMutability":"view","type":"function"},{"inputs":[],"name":"gateway","outputs":[{"internalType":"contract IAxelarGateway","name":"","type":"address"}],"stateMutability":"view","type":"function"},{"inputs":[{"internalType":"string","name":"_assetName","type":"string"}],"name":"getAssetPriceUsd","outputs":[{"internalType":"uint256","name":"","type":"uint256"}],"stateMutability":"view","type":"function"},{"inputs":[],"name":"getCurrentRoundDetails","outputs":[{"components":[{"internalType":"string","name":"roundName","type":"string"},{"internalType":"uint256","name":"roundId","type":"uint256"},{"internalType":"uint256","name":"ticketsPurchased","type":"uint256"},{"internalType":"uint256","name":"roundEndTime","type":"uint256"},{"internalType":"uint256","name":"ticketPrice","type":"uint256"},{"internalType":"uint256[3]","name":"roundWinningNumbers","type":"uint256[3]"},{"internalType":"bool","name":"roundState","type":"bool"},{"components":[{"internalType":"uint256","name":"fil","type":"uint256"},{"internalType":"uint256","name":"matic","type":"uint256"},{"internalType":"uint256","name":"krabz","type":"uint256"}],"internalType":"struct MrKrabz.CrossChainBalance","name":"balance","type":"tuple"}],"internalType":"struct MrKrabz.Round","name":"","type":"tuple"}],"stateMutability":"view","type":"function"},{"inputs":[],"name":"getCurrentTimeStamp","outputs":[{"internalType":"uint256","name":"","type":"uint256"}],"stateMutability":"view","type":"function"},{"inputs":[{"internalType":"bytes32","name":"_queryId","type":"bytes32"},{"internalType":"uint256","name":"_timestamp","type":"uint256"}],"name":"getDataAfter","outputs":[{"internalType":"bytes","name":"_value","type":"bytes"},{"internalType":"uint256","name":"_timestampRetrieved","type":"uint256"}],"stateMutability":"view","type":"function"},{"inputs":[{"internalType":"bytes32","name":"_queryId","type":"bytes32"},{"internalType":"uint256","name":"_timestamp","type":"uint256"}],"name":"getDataBefore","outputs":[{"internalType":"bytes","name":"_value","type":"bytes"},{"internalType":"uint256","name":"_timestampRetrieved","type":"uint256"}],"stateMutability":"view","type":"function"},{"inputs":[{"internalType":"bytes32","name":"_queryId","type":"bytes32"},{"internalType":"uint256","name":"_timestamp","type":"uint256"}],"name":"getIndexForDataAfter","outputs":[{"internalType":"bool","name":"_found","type":"bool"},{"internalType":"uint256","name":"_index","type":"uint256"}],"stateMutability":"view","type":"function"},{"inputs":[{"internalType":"bytes32","name":"_queryId","type":"bytes32"},{"internalType":"uint256","name":"_timestamp","type":"uint256"}],"name":"getIndexForDataBefore","outputs":[{"internalType":"bool","name":"_found","type":"bool"},{"internalType":"uint256","name":"_index","type":"uint256"}],"stateMutability":"view","type":"function"},{"inputs":[{"internalType":"bytes32","name":"_queryId","type":"bytes32"},{"internalType":"uint256","name":"_timestamp","type":"uint256"},{"internalType":"uint256","name":"_maxAge","type":"uint256"},{"internalType":"uint256","name":"_maxCount","type":"uint256"}],"name":"getMultipleValuesBefore","outputs":[{"internalType":"bytes[]","name":"_values","type":"bytes[]"},{"internalType":"uint256[]","name":"_timestamps","type":"uint256[]"}],"stateMutability":"view","type":"function"},{"inputs":[{"internalType":"bytes32","name":"_queryId","type":"bytes32"}],"name":"getNewValueCountbyQueryId","outputs":[{"internalType":"uint256","name":"","type":"uint256"}],"stateMutability":"view","type":"function"},{"inputs":[{"internalType":"bytes32","name":"_queryId","type":"bytes32"},{"internalType":"uint256","name":"_timestamp","type":"uint256"}],"name":"getReporterByTimestamp","outputs":[{"internalType":"address","name":"","type":"address"}],"stateMutability":"view","type":"function"},{"inputs":[],"name":"getRoundPoolBalanceUsd","outputs":[{"internalType":"uint256","name":"","type":"uint256"}],"stateMutability":"view","type":"function"},{"inputs":[{"internalType":"address","name":"_user","type":"address"}],"name":"getTicketsPurchasedPerRound","outputs":[{"internalType":"uint256","name":"","type":"uint256"}],"stateMutability":"view","type":"function"},{"inputs":[{"internalType":"bytes32","name":"_queryId","type":"bytes32"},{"internalType":"uint256","name":"_index","type":"uint256"}],"name":"getTimestampbyQueryIdandIndex","outputs":[{"internalType":"uint256","name":"","type":"uint256"}],"stateMutability":"view","type":"function"},{"inputs":[],"name":"getTotalWinners","outputs":[{"internalType":"uint256","name":"","type":"uint256"}],"stateMutability":"view","type":"function"},{"inputs":[{"internalType":"address","name":"_user","type":"address"}],"name":"getUserDetails","outputs":[{"components":[{"internalType":"address","name":"user","type":"address"},{"internalType":"uint256","name":"totalTicketsPurchased","type":"uint256"},{"internalType":"uint256","name":"totalWinnings","type":"uint256"},{"components":[{"internalType":"uint256","name":"fil","type":"uint256"},{"internalType":"uint256","name":"matic","type":"uint256"},{"internalType":"uint256","name":"krabz","type":"uint256"}],"internalType":"struct MrKrabz.CrossChainBalance","name":"balance","type":"tuple"}],"internalType":"struct MrKrabz.User","name":"","type":"tuple"}],"stateMutability":"view","type":"function"},{"inputs":[{"internalType":"address","name":"_user","type":"address"}],"name":"getUserTicketsForCurrentRound","outputs":[{"components":[{"internalType":"address","name":"owner","type":"address"},{"internalType":"uint256","name":"ID","type":"uint256"},{"internalType":"uint256[3]","name":"selectedNumbers","type":"uint256[3]"},{"internalType":"bool","name":"withdrawn","type":"bool"},{"internalType":"uint256","name":"originChain","type":"uint256"}],"internalType":"struct MrKrabz.Ticket[]","name":"","type":"tuple[]"}],"stateMutability":"view","type":"function"},{"inputs":[],"name":"idMappingContract","outputs":[{"internalType":"contract IMappingContract","name":"","type":"address"}],"stateMutability":"view","type":"function"},{"inputs":[{"internalType":"bytes32","name":"_queryId","type":"bytes32"},{"internalType":"uint256","name":"_timestamp","type":"uint256"}],"name":"isInDispute","outputs":[{"internalType":"bool","name":"","type":"bool"}],"stateMutability":"view","type":"function"},{"inputs":[{"internalType":"uint256","name":"_ticketId","type":"uint256"}],"name":"isWinner","outputs":[{"internalType":"bool","name":"","type":"bool"}],"stateMutability":"view","type":"function"},{"inputs":[],"name":"krabzTokenAddress","outputs":[{"internalType":"address","name":"","type":"address"}],"stateMutability":"view","type":"function"},{"inputs":[],"name":"newRoundPath","outputs":[{"internalType":"uint256","name":"","type":"uint256"}],"stateMutability":"view","type":"function"},{"inputs":[],"name":"polygonChain","outputs":[{"internalType":"string","name":"","type":"string"}],"stateMutability":"view","type":"function"},{"inputs":[],"name":"polygonDestinationAddr","outputs":[{"internalType":"string","name":"","type":"string"}],"stateMutability":"view","type":"function"},{"inputs":[{"internalType":"bytes32","name":"_queryId","type":"bytes32"},{"internalType":"uint256","name":"_timestamp","type":"uint256"}],"name":"retrieveData","outputs":[{"internalType":"bytes","name":"","type":"bytes"}],"stateMutability":"view","type":"function"},{"inputs":[{"internalType":"uint256","name":"","type":"uint256"}],"name":"roundIdToRoundDetails_","outputs":[{"internalType":"string","name":"roundName","type":"string"},{"internalType":"uint256","name":"roundId","type":"uint256"},{"internalType":"uint256","name":"ticketsPurchased","type":"uint256"},{"internalType":"uint256","name":"roundEndTime","type":"uint256"},{"internalType":"uint256","name":"ticketPrice","type":"uint256"},{"internalType":"bool","name":"roundState","type":"bool"},{"components":[{"internalType":"uint256","name":"fil","type":"uint256"},{"internalType":"uint256","name":"matic","type":"uint256"},{"internalType":"uint256","name":"krabz","type":"uint256"}],"internalType":"struct MrKrabz.CrossChainBalance","name":"balance","type":"tuple"}],"stateMutability":"view","type":"function"},{"inputs":[{"internalType":"uint256","name":"","type":"uint256"},{"internalType":"uint256","name":"","type":"uint256"}],"name":"roundIdToTicketList_","outputs":[{"internalType":"address","name":"owner","type":"address"},{"internalType":"uint256","name":"ID","type":"uint256"},{"internalType":"bool","name":"withdrawn","type":"bool"},{"internalType":"uint256","name":"originChain","type":"uint256"}],"stateMutability":"view","type":"function"},{"inputs":[{"internalType":"uint256","name":"","type":"uint256"},{"internalType":"uint256","name":"","type":"uint256"}],"name":"roundToticketId_","outputs":[{"internalType":"address","name":"owner","type":"address"},{"internalType":"uint256","name":"ID","type":"uint256"},{"internalType":"bool","name":"withdrawn","type":"bool"},{"internalType":"uint256","name":"originChain","type":"uint256"}],"stateMutability":"view","type":"function"},{"inputs":[{"internalType":"address","name":"_addy","type":"address"}],"name":"setIdMappingContract","outputs":[],"stateMutability":"nonpayable","type":"function"},{"inputs":[],"name":"setRandomWinnersPath","outputs":[{"internalType":"uint256","name":"","type":"uint256"}],"stateMutability":"view","type":"function"},{"inputs":[{"internalType":"uint256","name":"_nonceOne","type":"uint256"},{"internalType":"uint256","name":"_nonceTwo","type":"uint256"},{"internalType":"uint256","name":"_nonceThree","type":"uint256"},{"internalType":"uint256","name":"_estimateGasAmountOne","type":"uint256"}],"name":"setRoundWinners","outputs":[],"stateMutability":"nonpayable","type":"function"},{"inputs":[{"internalType":"uint256","name":"_roundEndTime","type":"uint256"},{"internalType":"uint256","name":"_ticketPriceInUsd","type":"uint256"},{"internalType":"string","name":"_roundName","type":"string"},{"internalType":"uint256","name":"_estimateGasAmountOne","type":"uint256"},{"internalType":"uint256[3]","name":"_winningNumbers","type":"uint256[3]"}],"name":"startNewRound","outputs":[],"stateMutability":"nonpayable","type":"function"},{"inputs":[],"name":"tellor","outputs":[{"internalType":"contract ITellor","name":"","type":"address"}],"stateMutability":"view","type":"function"},{"inputs":[{"internalType":"uint256","name":"","type":"uint256"},{"internalType":"address","name":"","type":"address"}],"name":"ticketsPurchasedPerRound_","outputs":[{"internalType":"uint256","name":"","type":"uint256"}],"stateMutability":"view","type":"function"},{"inputs":[{"internalType":"uint256","name":"_amount","type":"uint256"},{"internalType":"bool","name":"_nativeAsset","type":"bool"},{"internalType":"uint256","name":"_estimateGasAmountOne","type":"uint256"}],"name":"topUpWalletBalance","outputs":[],"stateMutability":"payable","type":"function"},{"inputs":[],"name":"topUpWalletPath","outputs":[{"internalType":"uint256","name":"","type":"uint256"}],"stateMutability":"view","type":"function"},{"inputs":[{"internalType":"string","name":"_filDestinationAddress","type":"string"},{"internalType":"string","name":"_polygonDestinationAddress","type":"string"}],"name":"updateDestinationAddresses","outputs":[],"stateMutability":"nonpayable","type":"function"},{"inputs":[{"internalType":"address","name":"","type":"address"}],"name":"userDetails_","outputs":[{"internalType":"address","name":"user","type":"address"},{"internalType":"uint256","name":"totalTicketsPurchased","type":"uint256"},{"internalType":"uint256","name":"totalWinnings","type":"uint256"},{"components":[{"internalType":"uint256","name":"fil","type":"uint256"},{"internalType":"uint256","name":"matic","type":"uint256"},{"internalType":"uint256","name":"krabz","type":"uint256"}],"internalType":"struct MrKrabz.CrossChainBalance","name":"balance","type":"tuple"}],"stateMutability":"view","type":"function"},{"inputs":[{"internalType":"bytes32","name":"_id","type":"bytes32"}],"name":"valueFor","outputs":[{"internalType":"int256","name":"_value","type":"int256"},{"internalType":"uint256","name":"_timestamp","type":"uint256"},{"internalType":"uint256","name":"_statusCode","type":"uint256"}],"stateMutability":"view","type":"function"},{"inputs":[{"internalType":"uint256","name":"_assetType","type":"uint256"},{"internalType":"uint256","name":"_amount","type":"uint256"},{"internalType":"uint256","name":"_estimateGasAmount","type":"uint256"}],"name":"withdrawFromWallet","outputs":[],"stateMutability":"nonpayable","type":"function"},{"inputs":[],"name":"withdrawFromWalletPath","outputs":[{"internalType":"uint256","name":"","type":"uint256"}],"stateMutability":"view","type":"function"},{"inputs":[],"name":"withdrawNativeAsset","outputs":[],"stateMutability":"nonpayable","type":"function"},{"stateMutability":"payable","type":"receive"}],"devdoc":{"kind":"dev","methods":{"getDataAfter(bytes32,uint256)":{"details":"Retrieves the next value for the queryId after the specified timestamp","params":{"_queryId":"is the queryId to look up the value for","_timestamp":"after which to search for next value"},"returns":{"_timestampRetrieved":"the value's timestamp","_value":"the value retrieved"}},"getDataBefore(bytes32,uint256)":{"details":"Retrieves the latest value for the queryId before the specified timestamp","params":{"_queryId":"is the queryId to look up the value for","_timestamp":"before which to search for latest value"},"returns":{"_timestampRetrieved":"the value's timestamp","_value":"the value retrieved"}},"getIndexForDataAfter(bytes32,uint256)":{"details":"Retrieves latest array index of data before the specified timestamp for the queryId","params":{"_queryId":"is the queryId to look up the index for","_timestamp":"is the timestamp before which to search for the latest index"},"returns":{"_found":"whether the index was found","_index":"the latest index found before the specified timestamp"}},"getIndexForDataBefore(bytes32,uint256)":{"details":"Retrieves latest array index of data before the specified timestamp for the queryId","params":{"_queryId":"is the queryId to look up the index for","_timestamp":"is the timestamp before which to search for the latest index"},"returns":{"_found":"whether the index was found","_index":"the latest index found before the specified timestamp"}},"getMultipleValuesBefore(bytes32,uint256,uint256,uint256)":{"details":"Retrieves multiple uint256 values before the specified timestamp","params":{"_maxAge":"the maximum number of seconds before the _timestamp to search for values","_maxCount":"the maximum number of values to return","_queryId":"the unique id of the data query","_timestamp":"the timestamp before which to search for values"},"returns":{"_timestamps":"the timestamps of the values retrieved","_values":"the values retrieved, ordered from oldest to newest"}},"getNewValueCountbyQueryId(bytes32)":{"details":"Counts the number of values that have been submitted for the queryId","params":{"_queryId":"the id to look up"},"returns":{"_0":"uint256 count of the number of values received for the queryId"}},"getReporterByTimestamp(bytes32,uint256)":{"details":"Returns the address of the reporter who submitted a value for a data ID at a specific time","params":{"_queryId":"is ID of the specific data feed","_timestamp":"is the timestamp to find a corresponding reporter for"},"returns":{"_0":"address of the reporter who reported the value for the data ID at the given timestamp"}},"getTimestampbyQueryIdandIndex(bytes32,uint256)":{"details":"Gets the timestamp for the value based on their index","params":{"_index":"is the value index to look up","_queryId":"is the id to look up"},"returns":{"_0":"uint256 timestamp"}},"isInDispute(bytes32,uint256)":{"details":"Determines whether a value with a given queryId and timestamp has been disputed","params":{"_queryId":"is the value id to look up","_timestamp":"is the timestamp of the value to look up"},"returns":{"_0":"bool true if queryId/timestamp is under dispute"}},"retrieveData(bytes32,uint256)":{"details":"Retrieve value from oracle based on queryId/timestamp","params":{"_queryId":"being requested","_timestamp":"to retrieve data/value from"},"returns":{"_0":"bytes value for query/timestamp submitted"}},"setIdMappingContract(address)":{"details":"allows dev to set mapping contract for valueFor (EIP2362)","params":{"_addy":"address of mapping contract"}},"valueFor(bytes32)":{"details":"Retrieve most recent int256 value from oracle based on queryId","params":{"_id":"being requested"},"returns":{"_statusCode":"200 if value found, 404 if not found","_timestamp":"timestamp of most recent value","_value":"most recent value submitted"}}},"version":1},"evm":{"bytecode":{"linkReferences":{},"object":"610c45600490815562013881600590815560016006908155600260075560036008818155600994909455600a92909255600b55600d5562c61dea600e5561010060405260c0908152673334b632b1b7b4b760c11b60e052600f906200006590826200025e565b506040805180820190915260078152662837b63cb3b7b760c91b60208201526010906200009390826200025e565b50348015620000a157600080fd5b506040516200639d3803806200639d833981016040819052620000c49162000367565b600080546001600160a01b0319166001600160a01b038481169190911790915584908116620001065760405163e6c4247b60e01b815260040160405180910390fd5b6001600160a01b0390811660805292831660a05260028054919093166001600160a01b03199182161790925550600380549091163317905550620003d5565b634e487b7160e01b600052604160045260246000fd5b634e487b7160e01b600052602260045260246000fd5b6002810460018216806200018657607f821691505b6020821081036200019b576200019b6200015b565b50919050565b6000620001b2620001af8381565b90565b92915050565b620001c383620001a1565b81546008840282811b60001990911b908116901990911617825550505050565b6000620001f2818484620001b8565b505050565b8181101562000216576200020d600082620001e3565b600101620001f7565b5050565b601f821115620001f2576000818152602090206020601f85010481016020851015620002435750805b620002576020601f860104830182620001f7565b5050505050565b81516001600160401b038111156200027a576200027a62000145565b62000286825462000171565b620002938282856200021a565b6020601f831160018114620002ca5760008415620002b15750858201515b600019600886021c198116600286021786555062000326565b600085815260208120601f198616915b82811015620002fc5788850151825560209485019460019092019101620002da565b86831015620003195784890151600019601f89166008021c191682555b6001600288020188555050505b505050505050565b60006001600160a01b038216620001b2565b6200034b816200032e565b81146200035757600080fd5b50565b8051620001b28162000340565b60008060008060808587031215620003825762000382600080fd5b60006200039087876200035a565b9450506020620003a3878288016200035a565b9350506040620003b6878288016200035a565b9250506060620003c9878288016200035a565b91505092959194509250565b60805160a051615f7862000425600039600081816106b501528181613768015261387a0152600081816103d901528181610d99015281816119e1015281816137ef01526139010152615f786000f3fe6080604052600436106103855760003560e01c8063795688ca116101d1578063c5958af911610102578063d98c3c65116100a0578063f66f49c31161006f578063f66f49c314610b2e578063f78eea8314610b4e578063fcd4a54614610b7d578063ff5c04ce14610bab57600080fd5b8063d98c3c6514610ac4578063de7c756e14610ae4578063e07c548614610af9578063e59fef7c14610b1957600080fd5b8063ce5e11bf116100dc578063ce5e11bf14610a4f578063ceeca98414610a6f578063d1813b3314610a84578063d5f3948814610aa457600080fd5b8063c5958af9146109cf578063cb288e8e146109ef578063cc3d967b14610a2257600080fd5b8063a0876f491161016f578063acb8b0c711610149578063acb8b0c714610949578063ad898f5b1461098d578063aebd823a146109a3578063b5f597f3146109b957600080fd5b8063a0876f49146108c4578063a792765f146108fc578063a8c44b231461091c57600080fd5b80638527d58f116101ab5780638527d58f146108565780638a19c8bc14610876578063920935271461088c5780639bb6eb70146108a257600080fd5b8063795688ca146108015780637e5e219c1461082e57806380c1442b1461084157600080fd5b806344e4e0f9116102b65780636a22d8cc1161025457806370ef05db1161022357806370ef05db1461072d57806374cdb7111461074f57806377b03e0d1461076257806377f372831461078257600080fd5b80636a22d8cc146106a35780636a8054c1146106d75780636abc4367146106f75780636bfee4ea1461071757600080fd5b8063491606581161029057806349160658146105d2578063491f3437146105f25780634c21b3691461065f57806364ee3c6d1461067557600080fd5b806344e4e0f91461057c57806344e87f911461059c578063469a397b146105bc57600080fd5b80631a98b2e011610323578063286db5c2116102fd578063286db5c2146104ee578063294490851461050e5780632af8aae01461053c578063383fc78d1461055c57600080fd5b80631a98b2e0146104a357806320eb5632146104c3578063276f4872146104d957600080fd5b806316f961b71161035f57806316f961b71461042b5780631840920114610441578063193b505b146104615780631959ad5b1461048357600080fd5b80630e39228814610391578063116191b6146103c757806315397a571461040857600080fd5b3661038c57005b600080fd5b34801561039d57600080fd5b506103b16103ac3660046140f7565b610bc0565b6040516103be919061412a565b60405180910390f35b3480156103d357600080fd5b506103fb7f000000000000000000000000000000000000000000000000000000000000000081565b6040516103be919061417a565b34801561041457600080fd5b5061041e600d5481565b6040516103be919061418e565b34801561043757600080fd5b5061041e60085481565b34801561044d57600080fd5b5061041e61045c366004614297565b610c6a565b34801561046d57600080fd5b5061048161047c3660046142f7565b610d17565b005b34801561048f57600080fd5b506000546103fb906001600160a01b031681565b3480156104af57600080fd5b506104816104be366004614363565b610d4f565b3480156104cf57600080fd5b5061041e60055481565b3480156104e557600080fd5b5061041e610e4b565b3480156104fa57600080fd5b5061048161050936600461446c565b610f49565b34801561051a57600080fd5b5061052e61052936600461446c565b61116f565b6040516103be9291906144a9565b34801561054857600080fd5b506001546103fb906001600160a01b031681565b34801561056857600080fd5b50610481610577366004614562565b611207565b34801561058857600080fd5b50610481610597366004614608565b611311565b3480156105a857600080fd5b506103b16105b736600461446c565b611901565b3480156105c857600080fd5b5061041e600b5481565b3480156105de57600080fd5b506104816105ed366004614658565b611997565b3480156105fe57600080fd5b5061064f61060d36600461446c565b601460209081526000928352604080842090915290825290208054600182015460058301546006909301546001600160a01b0390921692909160ff9091169084565b6040516103be9493929190614724565b34801561066b57600080fd5b5061041e600e5481565b34801561068157600080fd5b5061069561069036600461446c565b611a98565b6040516103be9291906147b1565b3480156106af57600080fd5b506103fb7f000000000000000000000000000000000000000000000000000000000000000081565b3480156106e357600080fd5b506104816106f23660046147d1565b611af1565b34801561070357600080fd5b5061064f61071236600461446c565b611e0c565b34801561072357600080fd5b5061041e60095481565b34801561073957600080fd5b50610742611e62565b6040516103be9190614817565b61048161075d366004614828565b611ef0565b34801561076e57600080fd5b5061041e61077d3660046140f7565b611fa4565b34801561078e57600080fd5b506107f161079d3660046142f7565b601360209081526000918252604091829020805460018201546002830154855160608101875260038501548152600485015495810195909552600590930154948401949094526001600160a01b0316929184565b6040516103be9493929190614894565b34801561080d57600080fd5b50600254610821906001600160a01b031681565b6040516103be91906148c9565b34801561083a57600080fd5b504261041e565b34801561084d57600080fd5b5061074261202f565b34801561086257600080fd5b5061048161087136600461446c565b61203c565b34801561088257600080fd5b5061041e600c5481565b34801561089857600080fd5b5061041e600a5481565b3480156108ae57600080fd5b506108b761224c565b6040516103be91906149b9565b3480156108d057600080fd5b5061041e6108df3660046149ca565b601660209081526000928352604080842090915290825290205481565b34801561090857600080fd5b5061069561091736600461446c565b6123b0565b34801561092857600080fd5b5061093c6109373660046142f7565b61244f565b6040516103be9190614ab7565b34801561095557600080fd5b5061041e6109643660046142f7565b600c5460009081526016602090815260408083206001600160a01b039094168352929052205490565b34801561099957600080fd5b5061041e60045481565b3480156109af57600080fd5b5061041e60075481565b3480156109c557600080fd5b5061041e60065481565b3480156109db57600080fd5b506107426109ea36600461446c565b612695565b3480156109fb57600080fd5b50610a0f610a0a3660046140f7565b612726565b6040516103be9796959493929190614ac8565b348015610a2e57600080fd5b50610a42610a3d3660046142f7565b61280e565b6040516103be9190614b80565b348015610a5b57600080fd5b5061041e610a6a36600461446c565b612884565b348015610a7b57600080fd5b5061041e612911565b348015610a9057600080fd5b50610481610a9f366004614b8e565b61299c565b348015610ab057600080fd5b50600354610821906001600160a01b031681565b348015610ad057600080fd5b50610481610adf366004614bf2565b612b70565b348015610af057600080fd5b50610481612b8e565b348015610b0557600080fd5b50610821610b1436600461446c565b612c34565b348015610b2557600080fd5b50610742612cc1565b348015610b3a57600080fd5b5061052e610b4936600461446c565b612cce565b348015610b5a57600080fd5b50610b6e610b693660046140f7565b612e8b565b6040516103be93929190614c5a565b348015610b8957600080fd5b50610b9d610b98366004614b8e565b612f6d565b6040516103be929190614d32565b348015610bb757600080fd5b5061074261325c565b600c54600090815260146020908152604080832084845290915280822081516060810192839052839290916002019060039082845b815481526020019060010190808311610bf5575050600c546000908152601560205260408082208151606081019283905296975091959450600590910192506003915082845b815481526020019060010190808311610c3b57505050505090506000610c618383613269565b95945050505050565b60008082604051602001610c7e9190614d8e565b6040516020818303038152906040529050600081604051602001610ca29190614de6565b60408051601f1981840301815291905280516020820120909150600080610ccf836109176104b042614e20565b9150915080600003610ce8575060009695505050505050565b6402540be40082806020019051810190610d029190614e3e565b610d0c9190614e75565b979650505050505050565b6001546001600160a01b031615610d2d57600080fd5b600180546001600160a01b0319166001600160a01b0392909216919091179055565b60008585604051610d61929190614e9c565b6040519081900381207f1876eed900000000000000000000000000000000000000000000000000000000825291506001600160a01b037f00000000000000000000000000000000000000000000000000000000000000001690631876eed990610dde908e908e908e908e908e9089908d908d908d90600401614ecc565b6020604051808303816000875af1158015610dfd573d6000803e3d6000fd5b505050506040513d601f19601f82011682018060405250810190610e219190614f4c565b610e3e57604051631403112d60e21b815260040160405180910390fd5b5050505050505050505050565b60008060156000600c5481526020019081526020016000206009016000015490506000670de0b6b3a764000082610e9c60405180604001604052806003815260200162199a5b60ea1b815250610c6a565b610ea69190614f6d565b610eb09190614e75565b9050600060156000600c5481526020019081526020016000206009016001015490506000670de0b6b3a764000082610f04604051806040016040528060058152602001646d6174696360d81b815250610c6a565b610f0e9190614f6d565b610f189190614e75565b90506000610f268285614f8c565b90506064610f35826046614f6d565b610f3f9190614e75565b9550505050505090565b600c5460009081526015602052604090206008015460ff16610f865760405162461bcd60e51b8152600401610f7d90614fd3565b60405180910390fd5b600c5460009081526014602090815260408083208584529091529020600601544614610fc45760405162461bcd60e51b8152600401610f7d90615017565b600c5460009081526014602090815260408083208584529091529020546001600160a01b031633146110085760405162461bcd60e51b8152600401610f7d9061505b565b600c54600090815260146020908152604080832085845290915290206005015460ff16156110485760405162461bcd60e51b8152600401610f7d9061509f565b600061105383610bc0565b9050806110725760405162461bcd60e51b8152600401610f7d906150e3565b600061107c612911565b90506000611088610e4b565b905060006110968383614e75565b905060006110c1604051806040016040528060068152602001653130b233b2b960d11b815250610c6a565b6110d383670de0b6b3a7640000614f6d565b6110dd9190614e75565b33600090815260136020526040812060050180549293508392909190611104908490614f8c565b909155505033600090815260136020526040812060020180546001929061112c908490614f8c565b9091555050600c5460009081526014602090815260408083208a84529091529020600501805460ff191660011790556111668133886132cf565b50505050505050565b600080546040517f2944908500000000000000000000000000000000000000000000000000000000815282916001600160a01b0316906329449085906111bb90879087906004016150f3565b6040805180830381865afa1580156111d7573d6000803e3d6000fd5b505050506040513d601f19601f820116820180604052508101906111fb9190615101565b915091505b9250929050565b6003546001600160a01b031633146112315760405162461bcd60e51b8152600401610f7d90615168565b600c546000908152601560205260409020600301544210156112655760405162461bcd60e51b8152600401610f7d90614fd3565b6001600c60008282546112789190614f8c565b9091555050600c54600081815260156020526040902060018101919091556004018490556112a68542614f8c565b600c80546000908152601560205260408082206003019390935590548152206112cf848261524a565b50600c5460009081526015602052604090206112f090600501826003613f52565b50600c5461130a906113024288614f8c565b868686613394565b5050505050565b600c54600090815260156020526040902060030154428110156113465760405162461bcd60e51b8152600401610f7d90615341565b600c5460009081526015602052604090206008015460ff161561137b5760405162461bcd60e51b8152600401610f7d90615385565b60005b60038110156113d057601e85826003811061139b5761139b615395565b602002015111156113be5760405162461bcd60e51b8152600401610f7d906153df565b806113c8816153ef565b91505061137e565b50600c5460009081526015602052604081206004015484156115915760045446036114bb5761141960405180604001604052806003815260200162199a5b60ea1b815250610c6a565b61142b82670de0b6b3a7640000614f6d565b6114359190614e75565b3360009081526013602052604090206003015490925082111561146a5760405162461bcd60e51b8152600401610f7d9061543d565b336000908152601360205260408120600301805484929061148c908490614e20565b9091555050600c54600090815260156020526040812060090180548492906114b5908490614f8c565b90915550505b600554460361158c576114ea604051806040016040528060058152602001646d6174696360d81b815250610c6a565b6114fc82670de0b6b3a7640000614f6d565b6115069190614e75565b3360009081526013602052604090206004015490925082111561153b5760405162461bcd60e51b8152600401610f7d90615481565b336000908152601360205260408120600401805484929061155d908490614e20565b9091555050600c546000908152601560205260408120600a018054849290611586908490614f8c565b90915550505b61165a565b6115b8604051806040016040528060068152602001653130b233b2b960d11b815250610c6a565b6115ca82670de0b6b3a7640000614f6d565b6115d49190614e75565b336000908152601360205260409020600501549092508211156116095760405162461bcd60e51b8152600401610f7d90615481565b336000908152601360205260408120600501805484929061162b908490614e20565b9091555050600c546000908152601560205260408120600b018054849290611654908490614f8c565b90915550505b600d54600c546000908152601660209081526040808320338452909152902054106116975760405162461bcd60e51b8152600401610f7d906154c5565b600c54600090815260156020526040812060020180546001919083906116be908490614f8c565b91829055506040805160a08101825233815260208082018481528284018d8152600060608501819052466080860152600c5481526014845285812087825290935293909120825181546001600160a01b0319166001600160a01b0390911617815590516001820155915192945092509061173e9060028301906003613f52565b50606082015160058201805460ff19169115159190911790556080909101516006909101553360009081526013602052604081206001908101805491929091611788908490614f8c565b9091555050600c54600090815260176020908152604080832060148352818420858552835290832081546001818101845592855292909320835460079093020180546001600160a01b0319166001600160a01b0390931692909217825580830154908201556117ff60028083019084016003613f90565b50600582810154908201805460ff191660ff9092161515919091179055600691820154910155600c5460009081526016602090815260408083203384529091528120805460019290611852908490614f8c565b9091555050600c546000818152601460209081526040808320858452825291829020825160a08101845281546001600160a01b03168152600182015492810192909252825160608101845261116694869433948e9446948f948d9490939291908301906002830160038282826020028201915b8154815260200190600101908083116118c5575050509183525050600582015460ff16151560208201526006909101546040909101528d61340c565b600080546040517f44e87f910000000000000000000000000000000000000000000000000000000081526001600160a01b03909116906344e87f919061194d90869086906004016150f3565b602060405180830381865afa15801561196a573d6000803e3d6000fd5b505050506040513d601f19601f8201168201806040525081019061198e9190614f4c565b90505b92915050565b600082826040516119a9929190614e9c565b6040519081900381207f5f6970c300000000000000000000000000000000000000000000000000000000825291506001600160a01b037f00000000000000000000000000000000000000000000000000000000000000001690635f6970c390611a20908b908b908b908b908b9089906004016154d5565b6020604051808303816000875af1158015611a3f573d6000803e3d6000fd5b505050506040513d601f19601f82011682018060405250810190611a639190614f4c565b611a8057604051631403112d60e21b815260040160405180910390fd5b611a8e87878787878761348c565b5050505050505050565b60606000806000611aa98686612cce565b9150915081611ad05760006040518060200160405280600081525090935093505050611200565b611ada8682612884565b9250611ae68684612695565b935050509250929050565b6004548303611bcb5733600090815260136020526040902060030154821115611b2c5760405162461bcd60e51b8152600401610f7d9061554e565b3360009081526013602052604081206003018054849290611b4e908490614e20565b909155505060405160009033908490611b669061555e565b60006040518083038185875af1925050503d8060008114611ba3576040519150601f19603f3d011682016040523d82523d6000602084013e611ba8565b606091505b5050905080611bc95760405162461bcd60e51b8152600401610f7d9061559d565b505b6005548303611ca55733600090815260136020526040902060040154821115611c065760405162461bcd60e51b8152600401610f7d9061554e565b3360009081526013602052604081206004018054849290611c28908490614e20565b909155505060405160009033908490611c409061555e565b60006040518083038185875af1925050503d8060008114611c7d576040519150601f19603f3d011682016040523d82523d6000602084013e611c82565b606091505b5050905080611ca35760405162461bcd60e51b8152600401610f7d9061559d565b505b82600303611d965733600090815260136020526040902060050154821115611cdf5760405162461bcd60e51b8152600401610f7d9061554e565b3360009081526013602052604081206005018054849290611d01908490614e20565b90915550506002546040517fa9059cbb0000000000000000000000000000000000000000000000000000000081526001600160a01b039091169063a9059cbb90611d5190339086906004016155ad565b6020604051808303816000875af1158015611d70573d6000803e3d6000fd5b505050506040513d601f19601f82011682018060405250810190611d949190614f4c565b505b6000838333604051602001611dad939291906155bb565b60405160208183030381529060405290506000600b5482604051602001611dd59291906155e3565b60405160208183030381529060405290506004544603611df957611df98184613751565b600554460361130a5761130a8184613863565b60176020528160005260406000208181548110611e2857600080fd5b600091825260209091206007909102018054600182015460058301546006909301546001600160a01b039092169450925060ff9091169084565b60118054611e6f9061518e565b80601f0160208091040260200160405190810160405280929190818152602001828054611e9b9061518e565b8015611ee85780601f10611ebd57610100808354040283529160200191611ee8565b820191906000526020600020905b815481529060010190602001808311611ecb57829003601f168201915b505050505081565b60008215611eff575034611f92565b506002546040517f23b872dd00000000000000000000000000000000000000000000000000000000815284916001600160a01b0316906323b872dd90611f4d90339030908690600401615603565b6020604051808303816000875af1158015611f6c573d6000803e3d6000fd5b505050506040513d601f19601f82011682018060405250810190611f909190614f4c565b505b611f9e8184338561393f565b50505050565b600080546040517f77b03e0d0000000000000000000000000000000000000000000000000000000081526001600160a01b03909116906377b03e0d90611fee90859060040161418e565b602060405180830381865afa15801561200b573d6000803e3d6000fd5b505050506040513d601f19601f820116820180604052508101906119919190614e3e565b60128054611e6f9061518e565b600c5460009081526015602052604090206008015460ff166120705760405162461bcd60e51b8152600401610f7d90614fd3565b600c54600090815260146020908152604080832085845290915290206006015446146120ae5760405162461bcd60e51b8152600401610f7d90615017565b600c5460009081526014602090815260408083208584529091529020546001600160a01b031633146120f25760405162461bcd60e51b8152600401610f7d9061505b565b600c54600090815260146020908152604080832085845290915290206005015460ff16156121325760405162461bcd60e51b8152600401610f7d90615652565b600061213d83610bc0565b9050801561215d5760405162461bcd60e51b8152600401610f7d90615696565b600060156000600c54815260200190815260200160002060040154905060006121a3604051806040016040528060068152602001653130b233b2b960d11b815250610c6a565b6121b583670de0b6b3a7640000614f6d565b6121bf9190614e75565b905060646121ce82601e614f6d565b6121d89190614e75565b33600090815260136020526040812060050180549091906121fa908490614f8c565b9091555050600c5460009081526014602090815260408083208884529091529020600501805460ff1916600117905561130a606461223983601e614f6d565b6122439190614e75565b6000338761393f565b612254613fbb565b600c5460009081526015602052604090819020815161010081019092528054829082906122809061518e565b80601f01602080910402602001604051908101604052809291908181526020018280546122ac9061518e565b80156122f95780601f106122ce576101008083540402835291602001916122f9565b820191906000526020600020905b8154815290600101906020018083116122dc57829003601f168201915b505050505081526020016001820154815260200160028201548152602001600382015481526020016004820154815260200160058201600380602002604051908101604052809291908260038015612366576020028201915b815481526020019060010190808311612352575b5050509183525050600882015460ff1615156020808301919091526040805160608101825260098501548152600a85015492810192909252600b9093015481840152910152919050565b600080546040517fa792765f000000000000000000000000000000000000000000000000000000008152606092916001600160a01b03169063a792765f906123fe90879087906004016150f3565b600060405180830381865afa15801561241b573d6000803e3d6000fd5b505050506040513d6000823e601f3d908101601f1916820160405261244391908101906156fe565b90969095509350505050565b60606000805b600c546000908152601760205260409020548110156124dd57836001600160a01b031660176000600c548152602001908152602001600020828154811061249e5761249e615395565b60009182526020909120600790910201546001600160a01b0316036124cb57816124c7816153ef565b9250505b806124d5816153ef565b915050612455565b5060008167ffffffffffffffff8111156124f9576124f961419c565b60405190808252806020026020018201604052801561253257816020015b61251f614029565b8152602001906001900390816125175790505b5090506000805b600c5460009081526017602052604090205481101561268b57856001600160a01b031660176000600c548152602001908152602001600020828154811061258257612582615395565b60009182526020909120600790910201546001600160a01b03160361266c57600c5460009081526017602052604090208054829081106125c4576125c4615395565b60009182526020918290206040805160a08101825260079390930290910180546001600160a01b0316835260018101549383019390935280516060810180835292939291840191600284019060039082845b815481526020019060010190808311612616575050509183525050600582015460ff1615156020820152600690910154604090910152835184908490811061266057612660615395565b60200260200101819052505b612677600183614f8c565b915080612683816153ef565b915050612539565b5090949350505050565b6000546040517fc5958af90000000000000000000000000000000000000000000000000000000081526060916001600160a01b03169063c5958af9906126e190869086906004016150f3565b600060405180830381865afa1580156126fe573d6000803e3d6000fd5b505050506040513d6000823e601f3d908101601f1916820160405261198e919081019061575f565b6015602052600090815260409020805481906127419061518e565b80601f016020809104026020016040519081016040528092919081815260200182805461276d9061518e565b80156127ba5780601f1061278f576101008083540402835291602001916127ba565b820191906000526020600020905b81548152906001019060200180831161279d57829003601f168201915b50505050600183015460028401546003850154600486015460088701546040805160608101825260098a01548152600a8a01546020820152600b9099015490890152959693959294509092909160ff169087565b61281661405c565b506001600160a01b03908116600090815260136020908152604091829020825160808101845281549094168452600181015484830152600281015484840152825160608181018552600383015482526004830154938201939093526005909101549281019290925282015290565b600080546040517fce5e11bf0000000000000000000000000000000000000000000000000000000081526001600160a01b039091169063ce5e11bf906128d090869086906004016150f3565b602060405180830381865afa1580156128ed573d6000803e3d6000fd5b505050506040513d601f19601f8201168201806040525081019061198e9190614e3e565b60008060005b600c5460009081526017602052604090205481101561299657600c54600090815260176020526040812080548390811061295357612953615395565b906000526020600020906007020160010154905061297081610bc0565b1561298357612980600184614f8c565b92505b508061298e816153ef565b915050612917565b50919050565b6003546001600160a01b031633146129c65760405162461bcd60e51b8152600401610f7d906157ce565b600c5460009081526015602052604090206008015460ff16156129fb5760405162461bcd60e51b8152600401610f7d90615812565b600c54600090815260156020526040902060030154421015612a2f5760405162461bcd60e51b8152600401610f7d90614fd3565b6004544614612a505760405162461bcd60e51b8152600401610f7d90615856565b6000601e600e543387604051602001612a6b9392919061588e565b6040516020818303038152906040528051906020012060001c612a8e91906158c5565b90506000601e600e543387604051602001612aab9392919061588e565b6040516020818303038152906040528051906020012060001c612ace91906158c5565b90506000601e600e543387604051602001612aeb9392919061588e565b6040516020818303038152906040528051906020012060001c612b0e91906158c5565b604080516060810182528581526020808201869052818301849052600c805460009081526015909252838220600801805460ff191660011790555481529190912091925090612b6290600501826003613f52565b50611a8e600c548287613aea565b6011612b7c838261524a565b506012612b89828261524a565b505050565b6003546001600160a01b03163314612bb85760405162461bcd60e51b8152600401610f7d9061590d565b604051479060009033908390612bcd9061555e565b60006040518083038185875af1925050503d8060008114612c0a576040519150601f19603f3d011682016040523d82523d6000602084013e612c0f565b606091505b5050905080612c305760405162461bcd60e51b8152600401610f7d90615951565b5050565b600080546040517fe07c54860000000000000000000000000000000000000000000000000000000081526001600160a01b039091169063e07c548690612c8090869086906004016150f3565b602060405180830381865afa158015612c9d573d6000803e3d6000fd5b505050506040513d601f19601f8201168201806040525081019061198e919061596c565b60108054611e6f9061518e565b6000806000612cdc85611fa4565b905080600003612cf3576000809250925050611200565b80612cfd8161598d565b9150600190506000808381612d128a83612884565b9050888111612d2d5760008097509750505050505050611200565b612d378a84612884565b905088811115612d4657600094505b8415612df6576002612d588484614f8c565b612d629190614e75565b9350612d6e8a85612884565b905088811115612daf576000612d898b610a6a600188614e20565b9050898111612d9b5760009550612da9565b612da6600186614e20565b92505b50612d46565b6000612dc08b610a6a876001614f8c565b905089811115612de3576000955084612dd8816153ef565b955050809150612da9565b612dee856001614f8c565b935050612d46565b612e008a82611901565b612e165760018497509750505050505050611200565b612e208a82611901565b8015612e2b57508584105b15612e4e5783612e3a816153ef565b945050612e478a85612884565b9050612e16565b8584148015612e625750612e628a82611901565b15612e795760008097509750505050505050611200565b60018497509750505050505050611200565b6001546040517f87a475fd0000000000000000000000000000000000000000000000000000000081526000918291829182916001600160a01b03909116906387a475fd90612edd90889060040161418e565b602060405180830381865afa158015612efa573d6000803e3d6000fd5b505050506040513d601f19601f82011682018060405250810190612f1e9190614e3e565b90506060612f3182610917426001614f8c565b945090506000849003612f51576000806101949450945094505050612f66565b6000612f5c82613b27565b955060c893505050505b9193909250565b606080600080612f8188610b49888a614e20565b9150915081612fd2576040805160008082526020820190925290612fb5565b6060815260200190600190039081612fa05790505b506040805160008152602081019091529094509250613253915050565b6000612fde898961116f565b909350905082613031576040805160008082526020820190925290613013565b6060815260200190600190039081612ffe5790505b50604080516000815260208101909152909550935061325392505050565b60008060008867ffffffffffffffff81111561304f5761304f61419c565b604051908082528060200260200182016040528015613078578160200160208202803683370190505b5090505b888310801561309f57508482613093866001614f8c565b61309d9190614e20565b115b156131035760006130b48d610a6a8588614e20565b90506130c08d82611901565b6130f057808285815181106130d7576130d7615395565b6020908102919091010152836130ec816153ef565b9450505b826130fa816153ef565b9350505061307c565b60008367ffffffffffffffff81111561311e5761311e61419c565b60405190808252806020026020018201604052801561315157816020015b606081526020019060019003908161313c5790505b50905060008467ffffffffffffffff81111561316f5761316f61419c565b604051908082528060200260200182016040528015613198578160200160208202803683370190505b50905060005b858110156132465783816131b3600189614e20565b6131bd9190614e20565b815181106131cd576131cd615395565b60200260200101518282815181106131e7576131e7615395565b6020026020010181815250506132168f83838151811061320957613209615395565b6020026020010151612695565b83828151811061322857613228615395565b6020026020010181905250808061323e906153ef565b91505061319e565b5090985096505050505050505b94509492505050565b600f8054611e6f9061518e565b6000805b60038110156132c55782816003811061328857613288615395565b602002015184826003811061329f5761329f615395565b6020020151146132b3576000915050611991565b806132bd816153ef565b91505061326d565b5060019392505050565b600454460361333357600083836040516020016132ed9291906159a4565b60405160208183030381529060405290506000600a54826040516020016133159291906155e3565b60405160208183030381529060405290506133308184613751565b50505b6005544603612b8957600083836040516020016133519291906159a4565b60405160208183030381529060405290506000600a54826040516020016133799291906155e3565b604051602081830303815290604052905061130a8184613863565b6000858585856040516020016133ad94939291906159bf565b60405160208183030381529060405290506000600854826040516020016133d59291906155e3565b604051602081830303815290604052905060045446036133f9576133f98184613751565b6005544603611166576111668184613863565b6000898989898989898960405160200161342d989796959493929190615a2f565b60405160208183030381529060405290506000600754826040516020016134559291906155e3565b60405160208183030381529060405290506004544603613479576134798184613751565b6005544603610e3e57610e3e8184613863565b60008061349b83850185615aa8565b9150915060065482036134db57600080600080848060200190518101906134c29190615aca565b93509350935093506134d684848484613b78565b505050505b600754820361352d57600080600080600080600080888060200190518101906135049190615c14565b975097509750975097509750975097506135248888888888888888613c69565b50505050505050505b600854820361359257600080600080848060200190518101906135509190615cc9565b600c84905560008481526015602052604090206001810185905560048101839055600381018490559397509195509350915061358c828261524a565b50505050505b60095482036135e757600080828060200190518101906135b29190615d3c565b600082815260156020526040902060088101805460ff1916600117905591935091506135e390600501826003613f52565b5050505b600a54820361367057600080828060200190518101906136079190615d6f565b6001600160a01b038116600090815260136020526040812060050180549395509193508492613637908490614f8c565b90915550506001600160a01b0381166000908152601360205260408120600201805460019290613668908490614f8c565b909155505050505b600b548203611a8e576000806000838060200190518101906136929190615da2565b92509250925060045483036136d2576001600160a01b038116600090815260136020526040812060030180548492906136cc908490614e20565b90915550505b600554830361370c576001600160a01b03811660009081526013602052604081206004018054849290613706908490614e20565b90915550505b82600303610e3e576001600160a01b0381166000908152601360205260408120600501805484929061373f908490614e20565b90915550505050505050505050505050565b604051630c93e3bb60e01b81526001600160a01b037f00000000000000000000000000000000000000000000000000000000000000001690630c93e3bb9083906137a990309060109060129089908490600401615e62565b6000604051808303818588803b1580156137c257600080fd5b505af11580156137d6573d6000803e3d6000fd5b5050604051631c92115f60e01b81526001600160a01b037f0000000000000000000000000000000000000000000000000000000000000000169350631c92115f925061382d91506010906012908790600401615eb9565b600060405180830381600087803b15801561384757600080fd5b505af115801561385b573d6000803e3d6000fd5b505050505050565b604051630c93e3bb60e01b81526001600160a01b037f00000000000000000000000000000000000000000000000000000000000000001690630c93e3bb9083906138bb903090600f9060119089908490600401615e62565b6000604051808303818588803b1580156138d457600080fd5b505af11580156138e8573d6000803e3d6000fd5b5050604051631c92115f60e01b81526001600160a01b037f0000000000000000000000000000000000000000000000000000000000000000169350631c92115f925061382d9150600f906011908790600401615eb9565b6004544603613a16578215613984576001600160a01b03821660009081526013602052604081206003018054869290613979908490614f8c565b909155506139b59050565b6001600160a01b038216600090815260136020526040812060050180548692906139af908490614f8c565b90915550505b60006004548486856040516020016139d09493929190615ef2565b60405160208183030381529060405290506000600654826040516020016139f89291906155e3565b6040516020818303038152906040529050613a138184613751565b50505b6005544603611f9e578215613a5b576001600160a01b03821660009081526013602052604081206004018054869290613a50908490614f8c565b90915550613a8c9050565b6001600160a01b03821660009081526013602052604081206005018054869290613a86908490614f8c565b90915550505b6000600454848685604051602001613aa79493929190615ef2565b6040516020818303038152906040529050600060065482604051602001613acf9291906155e3565b604051602081830303815290604052905061385b8184613863565b60008383604051602001613aff929190615f27565b6040516020818303038152906040529050600060095482604051602001611dd59291906155e3565b6000805b825181101561299657828181518110613b4657613b46615395565b016020015160f81c613b5a83610100614f6d565b613b649190614f8c565b915080613b70816153ef565b915050613b2b565b6004548403613bee578215613bbd576001600160a01b03811660009081526013602052604081206003018054849290613bb2908490614f8c565b90915550613bee9050565b6001600160a01b03811660009081526013602052604081206005018054849290613be8908490614f8c565b90915550505b6005548403611f9e578215613c33576001600160a01b03811660009081526013602052604081206004018054849290613c28908490614f8c565b90915550611f9e9050565b6001600160a01b03811660009081526013602052604081206005018054849290613c5e908490614f8c565b909155505050505050565b8315613d34576004548503613ccf576001600160a01b03871660009081526013602052604081206003018054859290613ca3908490614e20565b909155505060008281526015602052604081206009018054859290613cc9908490614f8c565b90915550505b6005548503613d2f576001600160a01b03871660009081526013602052604081206004018054859290613d03908490614e20565b90915550506000828152601560205260408120600a018054859290613d29908490614f8c565b90915550505b613d8b565b6001600160a01b03871660009081526013602052604081206005018054859290613d5f908490614e20565b90915550506000828152601560205260408120600b018054859290613d85908490614f8c565b90915550505b6000828152601560205260408120600201805460019290613dad908490614f8c565b90915550506040805160a0810182526001600160a01b03898116825260208083018c81528385018b8152600060608601819052608086018c9052888152601484528681208f825290935294909120835181546001600160a01b03191693169290921782555160018201559151909190613e2c9060028301906003613f52565b50606082015160058201805460ff19169115159190911790556080909101516006909101556001600160a01b03871660009081526013602052604081206001908101805491929091613e7f908490614f8c565b9091555050600082815260176020908152604080832080546001808201835591855293839020855160079095020180546001600160a01b0319166001600160a01b039095169490941784559184015191830191909155820151829190613eeb9060028301906003613f52565b50606082015160058201805460ff191691151591909117905560809091015160069091015560008281526016602090815260408083206001600160a01b038b1684529091528120805460019290613f43908490614f8c565b90915550505050505050505050565b8260038101928215613f80579160200282015b82811115613f80578251825591602001919060010190613f65565b50613f8c9291506140a9565b5090565b8260038101928215613f80579182015b82811115613f80578254825591600101919060010190613fa0565b6040518061010001604052806060815260200160008152602001600081526020016000815260200160008152602001613ff26140be565b815260200160001515815260200161402460405180606001604052806000815260200160008152602001600081525090565b905290565b6040805160a081018252600080825260208201529081016140486140be565b815260006020820181905260409091015290565b604051806080016040528060006001600160a01b03168152602001600081526020016000815260200161402460405180606001604052806000815260200160008152602001600081525090565b5b80821115613f8c57600081556001016140aa565b60405180606001604052806003906020820280368337509192915050565b805b81146140e957600080fd5b50565b8035611991816140dc565b60006020828403121561410c5761410c600080fd5b600061411884846140ec565b949350505050565b8015155b82525050565b602081016119918284614120565b60006119916001600160a01b03831661414f565b90565b6001600160a01b031690565b600061199182614138565b60006119918261415b565b61412481614166565b602081016119918284614171565b80614124565b602081016119918284614188565b634e487b7160e01b600052604160045260246000fd5b601f19601f830116810181811067ffffffffffffffff821117156141d8576141d861419c565b6040525050565b60006141ea60405190565b90506141f682826141b2565b919050565b600067ffffffffffffffff8211156142155761421561419c565b601f19601f83011660200192915050565b82818337506000910152565b6000614245614240846141fb565b6141df565b90508281526020810184848401111561426057614260600080fd5b61426b848285614226565b509392505050565b600082601f83011261428757614287600080fd5b8135614118848260208601614232565b6000602082840312156142ac576142ac600080fd5b813567ffffffffffffffff8111156142c6576142c6600080fd5b61411884828501614273565b60006001600160a01b038216611991565b6140de816142d2565b8035611991816142e3565b60006020828403121561430c5761430c600080fd5b600061411884846142ec565b60008083601f84011261432d5761432d600080fd5b50813567ffffffffffffffff81111561434857614348600080fd5b60208301915083600182028301111561120057611200600080fd5b60008060008060008060008060008060c08b8d03121561438557614385600080fd5b60006143918d8d6140ec565b9a505060208b013567ffffffffffffffff8111156143b1576143b1600080fd5b6143bd8d828e01614318565b995099505060408b013567ffffffffffffffff8111156143df576143df600080fd5b6143eb8d828e01614318565b975097505060608b013567ffffffffffffffff81111561440d5761440d600080fd5b6144198d828e01614318565b955095505060808b013567ffffffffffffffff81111561443b5761443b600080fd5b6144478d828e01614318565b935093505060a061445a8d828e016140ec565b9150509295989b9194979a5092959850565b6000806040838503121561448257614482600080fd5b600061448e85856140ec565b925050602061449f858286016140ec565b9150509250929050565b604081016144b78285614120565b6144c46020830184614188565b9392505050565b600067ffffffffffffffff8211156144e5576144e561419c565b5060200290565b60006144fa614240846144cb565b9050806020840283018581111561451357614513600080fd5b835b81811015614537578061452888826140ec565b84525060209283019201614515565b5050509392505050565b600082601f83011261455557614555600080fd5b60036141188482856144ec565b600080600080600060e0868803121561457d5761457d600080fd5b600061458988886140ec565b955050602061459a888289016140ec565b945050604086013567ffffffffffffffff8111156145ba576145ba600080fd5b6145c688828901614273565b93505060606145d7888289016140ec565b92505060806145e888828901614541565b9150509295509295909350565b8015156140de565b8035611991816145f5565b600080600060a0848603121561462057614620600080fd5b600061462c8686614541565b935050606061463d868287016145fd565b925050608061464e868287016140ec565b9150509250925092565b60008060008060008060006080888a03121561467657614676600080fd5b60006146828a8a6140ec565b975050602088013567ffffffffffffffff8111156146a2576146a2600080fd5b6146ae8a828b01614318565b9650965050604088013567ffffffffffffffff8111156146d0576146d0600080fd5b6146dc8a828b01614318565b9450945050606088013567ffffffffffffffff8111156146fe576146fe600080fd5b61470a8a828b01614318565b925092505092959891949750929550565b614124816142d2565b60808101614732828761471b565b61473f6020830186614188565b61474c6040830185614120565b610c616060830184614188565b60005b8381101561477457818101518382015260200161475c565b50506000910152565b6000614787825190565b80845260208401935061479e818560208601614759565b601f19601f8201165b9093019392505050565b604080825281016147c2818561477d565b90506144c46020830184614188565b6000806000606084860312156147e9576147e9600080fd5b60006147f586866140ec565b9350506020614806868287016140ec565b925050604061464e868287016140ec565b6020808252810161198e818461477d565b60008060006060848603121561484057614840600080fd5b600061484c86866140ec565b9350506020614806868287016145fd565b8051606083019061486e8482614188565b5060208201516148816020850182614188565b506040820151611f9e6040850182614188565b60c081016148a2828761471b565b6148af6020830186614188565b6148bc6040830185614188565b610c61606083018461485d565b60208101611991828461471b565b60006148e38383614188565b505060200190565b6003818060005b8381101561385b57815161490687826148d7565b9650602083019250506001016148f2565b805161018080845260009190840190614930828261477d565b91505060208301516149456020860182614188565b5060408301516149586040860182614188565b50606083015161496b6060860182614188565b50608083015161497e6080860182614188565b5060a083015161499160a08601826148eb565b5060c08301516149a5610100860182614120565b5060e083015161426b61012086018261485d565b6020808252810161198e8184614917565b600080604083850312156149e0576149e0600080fd5b60006149ec85856140ec565b925050602061449f858286016142ec565b805160e0830190614a0e848261471b565b506020820151614a216020850182614188565b506040820151614a3460408501826148eb565b506060820151614a4760a0850182614120565b506080820151611f9e60c0850182614188565b6000614a6683836149fd565b505060e00190565b6000614a78825190565b80845260209384019383018060005b83811015614aac578151614a9b8882614a5a565b975060208301925050600101614a87565b509495945050505050565b6020808252810161198e8184614a6e565b6101208082528101614ada818a61477d565b9050614ae96020830189614188565b614af66040830188614188565b614b036060830187614188565b614b106080830186614188565b614b1d60a0830185614120565b614b2a60c083018461485d565b98975050505050505050565b805160c0830190614b47848261471b565b506020820151614b5a6020850182614188565b506040820151614b6d6040850182614188565b506060820151611f9e606085018261485d565b60c081016119918284614b36565b60008060008060808587031215614ba757614ba7600080fd5b6000614bb387876140ec565b9450506020614bc4878288016140ec565b9350506040614bd5878288016140ec565b9250506060614be6878288016140ec565b91505092959194509250565b60008060408385031215614c0857614c08600080fd5b823567ffffffffffffffff811115614c2257614c22600080fd5b614c2e85828601614273565b925050602083013567ffffffffffffffff811115614c4e57614c4e600080fd5b61449f85828601614273565b60608101614c688286614188565b614c756020830185614188565b6141186040830184614188565b600061198e838361477d565b6000614c98825190565b80845260208401935083602082028501614cb28560200190565b8060005b85811015614ce75784840389528151614ccf8582614c82565b94506020830160209a909a0199925050600101614cb6565b5091979650505050505050565b6000614cfe825190565b80845260209384019383018060005b83811015614aac578151614d2188826148d7565b975060208301925050600101614d0d565b60408082528101614d438185614c8e565b905081810360208301526141188184614cf4565b600381526000602082017f7573640000000000000000000000000000000000000000000000000000000000815291505b5060200190565b60408082528101614d9f818461477d565b9050818103602083015261198e81614d57565b600981526000602082017f53706f745072696365000000000000000000000000000000000000000000000081529150614d87565b60408082528101614df681614db2565b9050818103602083015261198e818461477d565b634e487b7160e01b600052601160045260246000fd5b8181038181111561199157611991614e0a565b8051611991816140dc565b600060208284031215614e5357614e53600080fd5b60006141188484614e33565b634e487b7160e01b600052601260045260246000fd5b600082614e8457614e84614e5f565b500490565b6000614e96838584614226565b50500190565b6000614118828486614e89565b8183526000602084019350614ebf838584614226565b601f19601f8401166147a7565b60c08101614eda828c614188565b8181036020830152614eed818a8c614ea9565b90508181036040830152614f0281888a614ea9565b9050614f116060830187614188565b8181036080830152614f24818587614ea9565b9050614f3360a0830184614188565b9a9950505050505050505050565b8051611991816145f5565b600060208284031215614f6157614f61600080fd5b60006141188484614f41565b818102808215838204851417614f8557614f85614e0a565b5092915050565b8082018082111561199157611991614e0a565b600881526000602082017f526f756e64204f6e00000000000000000000000000000000000000000000000081529150614d87565b6020808252810161199181614f9f565b600e81526000602082017f21204f726967696e20436861696e00000000000000000000000000000000000081529150614d87565b6020808252810161199181614fe3565b600e81526000602082017f21205469636b6574204f776e657200000000000000000000000000000000000081529150614d87565b6020808252810161199181615027565b600781526000602082017f436c61696d65640000000000000000000000000000000000000000000000000081529150614d87565b602080825281016119918161506b565b600881526000602082017f212057696e6e657200000000000000000000000000000000000000000000000081529150614d87565b60208082528101611991816150af565b604081016144b78285614188565b6000806040838503121561511757615117600080fd5b60006151238585614f41565b925050602061449f85828601614e33565b600f81526000602082017f215370656369616c2043616c6c6572000000000000000000000000000000000081529150614d87565b6020808252810161199181615134565b634e487b7160e01b600052602260045260246000fd5b6002810460018216806151a257607f821691505b60208210810361299657612996615178565b600061199161414c8381565b6151c9836151b4565b81546008840282811b60001990911b908116901990911617825550505050565b6000612b898184846151c0565b81811015612c30576152096000826151e9565b6001016151f6565b601f821115612b89576000818152602090206020601f850104810160208510156152385750805b61130a6020601f8601048301826151f6565b815167ffffffffffffffff8111156152645761526461419c565b61526e825461518e565b615279828285615211565b6020601f8311600181146152ad57600084156152955750858201515b600019600886021c198116600286021786555061385b565b600085815260208120601f198616915b828110156152dd57888501518255602094850194600190920191016152bd565b868310156152f95784890151600019601f89166008021c191682555b600160028802018855505050505050505050565b600d81526000602082017f526f756e6420506173736564210000000000000000000000000000000000000081529150614d87565b602080825281016119918161530d565b600c81526000602082017f456e74727920436c6f736564000000000000000000000000000000000000000081529150614d87565b6020808252810161199181615351565b634e487b7160e01b600052603260045260246000fd5b600881526000602082017f4e756d203e20333000000000000000000000000000000000000000000000000081529150614d87565b60208082528101611991816153ab565b6000600019820361540257615402614e0a565b5060010190565b600781526000602082017f4c6f772042616c0000000000000000000000000000000000000000000000000081529150614d87565b6020808252810161199181615409565b601b81526000602082017f496e73756666696369656e742057616c6c65742042616c616e6365000000000081529150614d87565b602080825281016119918161544d565b600b81526000602082017f4d6178205469636b65747300000000000000000000000000000000000000000081529150614d87565b6020808252810161199181615491565b608081016154e38289614188565b81810360208301526154f6818789614ea9565b9050818103604083015261550b818587614ea9565b9050610d0c6060830184614188565b601481526000602082017f696e73756666696369656e742062616c616e636500000000000000000000000081529150614d87565b602080825281016119918161551a565b60006119918261414c565b600381526000602082017f216f6b000000000000000000000000000000000000000000000000000000000081529150614d87565b6020808252810161199181615569565b604081016144b7828561471b565b606081016155c98286614188565b6155d66020830185614188565b614118604083018461471b565b604081016155f18285614188565b8181036020830152614118818461477d565b60608101615611828661471b565b614c75602083018561471b565b600e81526000602082017f5469636b657420436c61696d656400000000000000000000000000000000000081529150614d87565b602080825281016119918161561e565b600681526000602082017f57696e6e6572000000000000000000000000000000000000000000000000000081529150614d87565b6020808252810161199181615662565b60006156b4614240846141fb565b9050828152602081018484840111156156cf576156cf600080fd5b61426b848285614759565b600082601f8301126156ee576156ee600080fd5b81516141188482602086016156a6565b60008060006060848603121561571657615716600080fd5b60006157228686614f41565b935050602084015167ffffffffffffffff81111561574257615742600080fd5b61574e868287016156da565b925050604061464e86828701614e33565b60006020828403121561577457615774600080fd5b815167ffffffffffffffff81111561578e5761578e600080fd5b614118848285016156da565b600681526000602082017f2141646d696e000000000000000000000000000000000000000000000000000081529150614d87565b602080825281016119918161579a565b600981526000602082017f416e6e6f756e636564000000000000000000000000000000000000000000000081529150614d87565b60208082528101611991816157de565b600481526000602082017f2146564d0000000000000000000000000000000000000000000000000000000081529150614d87565b6020808252810161199181615822565b60006119918260601b90565b600061199182615866565b614124615889826142d2565b615872565b600061589a8286614188565b6020820191506158aa828561587d565b6014820191506158ba8284614188565b506020019392505050565b6000826158d4576158d4614e5f565b500690565b600981526000602082017f216465706c6f796572000000000000000000000000000000000000000000000081529150614d87565b60208082528101611991816158d9565b600b81526000602082017f217375636365737366756c00000000000000000000000000000000000000000081529150614d87565b602080825281016119918161591d565b8051611991816142e3565b60006020828403121561598157615981600080fd5b60006141188484615961565b60008161599c5761599c614e0a565b506000190190565b604081016159b28285614188565b6144c4602083018461471b565b608081016159cd8287614188565b6159da6020830186614188565b6159e76040830185614188565b81810360608301526159f9818461477d565b9695505050505050565b6003818060005b8381101561385b578151615a1e87826148d7565b965060208301925050600101615a0a565b6102008101615a3e828b614188565b615a4b602083018a61471b565b615a586040830189615a03565b615a6560a0830188614188565b615a7260c0830187614120565b615a7f60e0830186614188565b615a8d610100830185614188565b615a9b6101208301846149fd565b9998505050505050505050565b60008060408385031215615abe57615abe600080fd5b6000614c2e85856140ec565b60008060008060808587031215615ae357615ae3600080fd5b6000615aef8787614e33565b9450506020615b0087828801614f41565b9350506040615b1187828801614e33565b9250506060614be687828801615961565b6000615b30614240846144cb565b90508060208402830185811115615b4957615b49600080fd5b835b818110156145375780615b5e8882614e33565b84525060209283019201615b4b565b600082601f830112615b8157615b81600080fd5b6003614118848285615b22565b600060e08284031215615ba357615ba3600080fd5b615bad60a06141df565b90506000615bbb8484615961565b8252506020615bcc84848301614e33565b6020830152506040615be084828501615b6d565b60408301525060a0615bf484828501614f41565b60608301525060c0615c0884828501614e33565b60808301525092915050565b600080600080600080600080610200898b031215615c3457615c34600080fd5b6000615c408b8b614e33565b9850506020615c518b828c01615961565b9750506040615c628b828c01615b6d565b96505060a0615c738b828c01614e33565b95505060c0615c848b828c01614f41565b94505060e0615c958b828c01614e33565b935050610100615ca78b828c01614e33565b925050610120615cb98b828c01615b8e565b9150509295985092959890939650565b60008060008060808587031215615ce257615ce2600080fd5b6000615cee8787614e33565b9450506020615cff87828801614e33565b9350506040615d1087828801614e33565b925050606085015167ffffffffffffffff811115615d3057615d30600080fd5b614be6878288016156da565b60008060808385031215615d5257615d52600080fd5b6000615d5e8585614e33565b925050602061449f85828601615b6d565b60008060408385031215615d8557615d85600080fd5b6000615d918585614e33565b925050602061449f85828601615961565b600080600060608486031215615dba57615dba600080fd5b6000615dc68686614e33565b9350506020615dd786828701614e33565b925050604061464e86828701615961565b60008154615df58161518e565b808552602085019450600182168015615e155760018114615e2b57615e59565b60ff198316865260208215150286019350615e59565b60008581526020902060005b83811015615e5357815488820152600190910190602001615e37565b87019450505b50505092915050565b60a08101615e70828861471b565b8181036020830152615e828187615de8565b90508181036040830152615e968186615de8565b90508181036060830152615eaa818561477d565b90506159f9608083018461471b565b60608082528101615eca8186615de8565b90508181036020830152615ede8185615de8565b90508181036040830152610c61818461477d565b60808101615f008287614188565b615f0d6020830186614120565b615f1a6040830185614188565b610c61606083018461471b565b60808101615f358285614188565b6144c46020830184615a0356fea26469706673582212200134854bfd177384aa422ba95c3f3c1da3830b77cd189b3d3c9fed80f5919b8464736f6c63430008110033","opcodes":"PUSH2 0xC45 PUSH1 0x4 SWAP1 DUP2 SSTORE PUSH3 0x13881 PUSH1 0x5 SWAP1 DUP2 SSTORE PUSH1 0x1 PUSH1 0x6 SWAP1 DUP2 SSTORE PUSH1 0x2 PUSH1 0x7 SSTORE PUSH1 0x3 PUSH1 0x8 DUP2 DUP2 SSTORE PUSH1 0x9 SWAP5 SWAP1 SWAP5 SSTORE PUSH1 0xA SWAP3 SWAP1 SWAP3 SSTORE PUSH1 0xB SSTORE PUSH1 0xD SSTORE PUSH3 0xC61DEA PUSH1 0xE SSTORE PUSH2 0x100 PUSH1 0x40 MSTORE PUSH1 0xC0 SWAP1 DUP2 MSTORE PUSH8 0x3334B632B1B7B4B7 PUSH1 0xC1 SHL PUSH1 0xE0 MSTORE PUSH1 0xF SWAP1 PUSH3 0x65 SWAP1 DUP3 PUSH3 0x25E JUMP JUMPDEST POP PUSH1 0x40 DUP1 MLOAD DUP1 DUP3 ADD SWAP1 SWAP2 MSTORE PUSH1 0x7 DUP2 MSTORE PUSH7 0x2837B63CB3B7B7 PUSH1 0xC9 SHL PUSH1 0x20 DUP3 ADD MSTORE PUSH1 0x10 SWAP1 PUSH3 0x93 SWAP1 DUP3 PUSH3 0x25E JUMP JUMPDEST POP CALLVALUE DUP1 ISZERO PUSH3 0xA1 JUMPI PUSH1 0x0 DUP1 REVERT JUMPDEST POP PUSH1 0x40 MLOAD PUSH3 0x639D CODESIZE SUB DUP1 PUSH3 0x639D DUP4 CODECOPY DUP2 ADD PUSH1 0x40 DUP2 SWAP1 MSTORE PUSH3 0xC4 SWAP2 PUSH3 0x367 JUMP JUMPDEST PUSH1 0x0 DUP1 SLOAD PUSH1 0x1 PUSH1 0x1 PUSH1 0xA0 SHL SUB NOT AND PUSH1 0x1 PUSH1 0x1 PUSH1 0xA0 SHL SUB DUP5 DUP2 AND SWAP2 SWAP1 SWAP2 OR SWAP1 SWAP2 SSTORE DUP5 SWAP1 DUP2 AND PUSH3 0x106 JUMPI PUSH1 0x40 MLOAD PUSH4 0xE6C4247B PUSH1 0xE0 SHL DUP2 MSTORE PUSH1 0x4 ADD PUSH1 0x40 MLOAD DUP1 SWAP2 SUB SWAP1 REVERT JUMPDEST PUSH1 0x1 PUSH1 0x1 PUSH1 0xA0 SHL SUB SWAP1 DUP2 AND PUSH1 0x80 MSTORE SWAP3 DUP4 AND PUSH1 0xA0 MSTORE PUSH1 0x2 DUP1 SLOAD SWAP2 SWAP1 SWAP4 AND PUSH1 0x1 PUSH1 0x1 PUSH1 0xA0 SHL SUB NOT SWAP2 DUP3 AND OR SWAP1 SWAP3 SSTORE POP PUSH1 0x3 DUP1 SLOAD SWAP1 SWAP2 AND CALLER OR SWAP1 SSTORE POP PUSH3 0x3D5 JUMP JUMPDEST PUSH4 0x4E487B71 PUSH1 0xE0 SHL PUSH1 0x0 MSTORE PUSH1 0x41 PUSH1 0x4 MSTORE PUSH1 0x24 PUSH1 0x0 REVERT JUMPDEST PUSH4 0x4E487B71 PUSH1 0xE0 SHL PUSH1 0x0 MSTORE PUSH1 0x22 PUSH1 0x4 MSTORE PUSH1 0x24 PUSH1 0x0 REVERT JUMPDEST PUSH1 0x2 DUP2 DIV PUSH1 0x1 DUP3 AND DUP1 PUSH3 0x186 JUMPI PUSH1 0x7F DUP3 AND SWAP2 POP JUMPDEST PUSH1 0x20 DUP3 LT DUP2 SUB PUSH3 0x19B JUMPI PUSH3 0x19B PUSH3 0x15B JUMP JUMPDEST POP SWAP2 SWAP1 POP JUMP JUMPDEST PUSH1 0x0 PUSH3 0x1B2 PUSH3 0x1AF DUP4 DUP2 JUMP JUMPDEST SWAP1 JUMP JUMPDEST SWAP3 SWAP2 POP POP JUMP JUMPDEST PUSH3 0x1C3 DUP4 PUSH3 0x1A1 JUMP JUMPDEST DUP2 SLOAD PUSH1 0x8 DUP5 MUL DUP3 DUP2 SHL PUSH1 0x0 NOT SWAP1 SWAP2 SHL SWAP1 DUP2 AND SWAP1 NOT SWAP1 SWAP2 AND OR DUP3 SSTORE POP POP POP POP JUMP JUMPDEST PUSH1 0x0 PUSH3 0x1F2 DUP2 DUP5 DUP5 PUSH3 0x1B8 JUMP JUMPDEST POP POP POP JUMP JUMPDEST DUP2 DUP2 LT ISZERO PUSH3 0x216 JUMPI PUSH3 0x20D PUSH1 0x0 DUP3 PUSH3 0x1E3 JUMP JUMPDEST PUSH1 0x1 ADD PUSH3 0x1F7 JUMP JUMPDEST POP POP JUMP JUMPDEST PUSH1 0x1F DUP3 GT ISZERO PUSH3 0x1F2 JUMPI PUSH1 0x0 DUP2 DUP2 MSTORE PUSH1 0x20 SWAP1 KECCAK256 PUSH1 0x20 PUSH1 0x1F DUP6 ADD DIV DUP2 ADD PUSH1 0x20 DUP6 LT ISZERO PUSH3 0x243 JUMPI POP DUP1 JUMPDEST PUSH3 0x257 PUSH1 0x20 PUSH1 0x1F DUP7 ADD DIV DUP4 ADD DUP3 PUSH3 0x1F7 JUMP JUMPDEST POP POP POP POP POP JUMP JUMPDEST DUP2 MLOAD PUSH1 0x1 PUSH1 0x1 PUSH1 0x40 SHL SUB DUP2 GT ISZERO PUSH3 0x27A JUMPI PUSH3 0x27A PUSH3 0x145 JUMP JUMPDEST PUSH3 0x286 DUP3 SLOAD PUSH3 0x171 JUMP JUMPDEST PUSH3 0x293 DUP3 DUP3 DUP6 PUSH3 0x21A JUMP JUMPDEST PUSH1 0x20 PUSH1 0x1F DUP4 GT PUSH1 0x1 DUP2 EQ PUSH3 0x2CA JUMPI PUSH1 0x0 DUP5 ISZERO PUSH3 0x2B1 JUMPI POP DUP6 DUP3 ADD MLOAD JUMPDEST PUSH1 0x0 NOT PUSH1 0x8 DUP7 MUL SHR NOT DUP2 AND PUSH1 0x2 DUP7 MUL OR DUP7 SSTORE POP PUSH3 0x326 JUMP JUMPDEST PUSH1 0x0 DUP6 DUP2 MSTORE PUSH1 0x20 DUP2 KECCAK256 PUSH1 0x1F NOT DUP7 AND SWAP2 JUMPDEST DUP3 DUP2 LT ISZERO PUSH3 0x2FC JUMPI DUP9 DUP6 ADD MLOAD DUP3 SSTORE PUSH1 0x20 SWAP5 DUP6 ADD SWAP5 PUSH1 0x1 SWAP1 SWAP3 ADD SWAP2 ADD PUSH3 0x2DA JUMP JUMPDEST DUP7 DUP4 LT ISZERO PUSH3 0x319 JUMPI DUP5 DUP10 ADD MLOAD PUSH1 0x0 NOT PUSH1 0x1F DUP10 AND PUSH1 0x8 MUL SHR NOT AND DUP3 SSTORE JUMPDEST PUSH1 0x1 PUSH1 0x2 DUP9 MUL ADD DUP9 SSTORE POP POP POP JUMPDEST POP POP POP POP POP POP JUMP JUMPDEST PUSH1 0x0 PUSH1 0x1 PUSH1 0x1 PUSH1 0xA0 SHL SUB DUP3 AND PUSH3 0x1B2 JUMP JUMPDEST PUSH3 0x34B DUP2 PUSH3 0x32E JUMP JUMPDEST DUP2 EQ PUSH3 0x357 JUMPI PUSH1 0x0 DUP1 REVERT JUMPDEST POP JUMP JUMPDEST DUP1 MLOAD PUSH3 0x1B2 DUP2 PUSH3 0x340 JUMP JUMPDEST PUSH1 0x0 DUP1 PUSH1 0x0 DUP1 PUSH1 0x80 DUP6 DUP8 SUB SLT ISZERO PUSH3 0x382 JUMPI PUSH3 0x382 PUSH1 0x0 DUP1 REVERT JUMPDEST PUSH1 0x0 PUSH3 0x390 DUP8 DUP8 PUSH3 0x35A JUMP JUMPDEST SWAP5 POP POP PUSH1 0x20 PUSH3 0x3A3 DUP8 DUP3 DUP9 ADD PUSH3 0x35A JUMP JUMPDEST SWAP4 POP POP PUSH1 0x40 PUSH3 0x3B6 DUP8 DUP3 DUP9 ADD PUSH3 0x35A JUMP JUMPDEST SWAP3 POP POP PUSH1 0x60 PUSH3 0x3C9 DUP8 DUP3 DUP9 ADD PUSH3 0x35A JUMP JUMPDEST SWAP2 POP POP SWAP3 SWAP6 SWAP2 SWAP5 POP SWAP3 POP JUMP JUMPDEST PUSH1 0x80 MLOAD PUSH1 0xA0 MLOAD PUSH2 0x5F78 PUSH3 0x425 PUSH1 0x0 CODECOPY PUSH1 0x0 DUP2 DUP2 PUSH2 0x6B5 ADD MSTORE DUP2 DUP2 PUSH2 0x3768 ADD MSTORE PUSH2 0x387A ADD MSTORE PUSH1 0x0 DUP2 DUP2 PUSH2 0x3D9 ADD MSTORE DUP2 DUP2 PUSH2 0xD99 ADD MSTORE DUP2 DUP2 PUSH2 0x19E1 ADD MSTORE DUP2 DUP2 PUSH2 0x37EF ADD MSTORE PUSH2 0x3901 ADD MSTORE PUSH2 0x5F78 PUSH1 0x0 RETURN INVALID PUSH1 0x80 PUSH1 0x40 MSTORE PUSH1 0x4 CALLDATASIZE LT PUSH2 0x385 JUMPI PUSH1 0x0 CALLDATALOAD PUSH1 0xE0 SHR DUP1 PUSH4 0x795688CA GT PUSH2 0x1D1 JUMPI DUP1 PUSH4 0xC5958AF9 GT PUSH2 0x102 JUMPI DUP1 PUSH4 0xD98C3C65 GT PUSH2 0xA0 JUMPI DUP1 PUSH4 0xF66F49C3 GT PUSH2 0x6F JUMPI DUP1 PUSH4 0xF66F49C3 EQ PUSH2 0xB2E JUMPI DUP1 PUSH4 0xF78EEA83 EQ PUSH2 0xB4E JUMPI DUP1 PUSH4 0xFCD4A546 EQ PUSH2 0xB7D JUMPI DUP1 PUSH4 0xFF5C04CE EQ PUSH2 0xBAB JUMPI PUSH1 0x0 DUP1 REVERT JUMPDEST DUP1 PUSH4 0xD98C3C65 EQ PUSH2 0xAC4 JUMPI DUP1 PUSH4 0xDE7C756E EQ PUSH2 0xAE4 JUMPI DUP1 PUSH4 0xE07C5486 EQ PUSH2 0xAF9 JUMPI DUP1 PUSH4 0xE59FEF7C EQ PUSH2 0xB19 JUMPI PUSH1 0x0 DUP1 REVERT JUMPDEST DUP1 PUSH4 0xCE5E11BF GT PUSH2 0xDC JUMPI DUP1 PUSH4 0xCE5E11BF EQ PUSH2 0xA4F JUMPI DUP1 PUSH4 0xCEECA984 EQ PUSH2 0xA6F JUMPI DUP1 PUSH4 0xD1813B33 EQ PUSH2 0xA84 JUMPI DUP1 PUSH4 0xD5F39488 EQ PUSH2 0xAA4 JUMPI PUSH1 0x0 DUP1 REVERT JUMPDEST DUP1 PUSH4 0xC5958AF9 EQ PUSH2 0x9CF JUMPI DUP1 PUSH4 0xCB288E8E EQ PUSH2 0x9EF JUMPI DUP1 PUSH4 0xCC3D967B EQ PUSH2 0xA22 JUMPI PUSH1 0x0 DUP1 REVERT JUMPDEST DUP1 PUSH4 0xA0876F49 GT PUSH2 0x16F JUMPI DUP1 PUSH4 0xACB8B0C7 GT PUSH2 0x149 JUMPI DUP1 PUSH4 0xACB8B0C7 EQ PUSH2 0x949 JUMPI DUP1 PUSH4 0xAD898F5B EQ PUSH2 0x98D JUMPI DUP1 PUSH4 0xAEBD823A EQ PUSH2 0x9A3 JUMPI DUP1 PUSH4 0xB5F597F3 EQ PUSH2 0x9B9 JUMPI PUSH1 0x0 DUP1 REVERT JUMPDEST DUP1 PUSH4 0xA0876F49 EQ PUSH2 0x8C4 JUMPI DUP1 PUSH4 0xA792765F EQ PUSH2 0x8FC JUMPI DUP1 PUSH4 0xA8C44B23 EQ PUSH2 0x91C JUMPI PUSH1 0x0 DUP1 REVERT JUMPDEST DUP1 PUSH4 0x8527D58F GT PUSH2 0x1AB JUMPI DUP1 PUSH4 0x8527D58F EQ PUSH2 0x856 JUMPI DUP1 PUSH4 0x8A19C8BC EQ PUSH2 0x876 JUMPI DUP1 PUSH4 0x92093527 EQ PUSH2 0x88C JUMPI DUP1 PUSH4 0x9BB6EB70 EQ PUSH2 0x8A2 JUMPI PUSH1 0x0 DUP1 REVERT JUMPDEST DUP1 PUSH4 0x795688CA EQ PUSH2 0x801 JUMPI DUP1 PUSH4 0x7E5E219C EQ PUSH2 0x82E JUMPI DUP1 PUSH4 0x80C1442B EQ PUSH2 0x841 JUMPI PUSH1 0x0 DUP1 REVERT JUMPDEST DUP1 PUSH4 0x44E4E0F9 GT PUSH2 0x2B6 JUMPI DUP1 PUSH4 0x6A22D8CC GT PUSH2 0x254 JUMPI DUP1 PUSH4 0x70EF05DB GT PUSH2 0x223 JUMPI DUP1 PUSH4 0x70EF05DB EQ PUSH2 0x72D JUMPI DUP1 PUSH4 0x74CDB711 EQ PUSH2 0x74F JUMPI DUP1 PUSH4 0x77B03E0D EQ PUSH2 0x762 JUMPI DUP1 PUSH4 0x77F37283 EQ PUSH2 0x782 JUMPI PUSH1 0x0 DUP1 REVERT JUMPDEST DUP1 PUSH4 0x6A22D8CC EQ PUSH2 0x6A3 JUMPI DUP1 PUSH4 0x6A8054C1 EQ PUSH2 0x6D7 JUMPI DUP1 PUSH4 0x6ABC4367 EQ PUSH2 0x6F7 JUMPI DUP1 PUSH4 0x6BFEE4EA EQ PUSH2 0x717 JUMPI PUSH1 0x0 DUP1 REVERT JUMPDEST DUP1 PUSH4 0x49160658 GT PUSH2 0x290 JUMPI DUP1 PUSH4 0x49160658 EQ PUSH2 0x5D2 JUMPI DUP1 PUSH4 0x491F3437 EQ PUSH2 0x5F2 JUMPI DUP1 PUSH4 0x4C21B369 EQ PUSH2 0x65F JUMPI DUP1 PUSH4 0x64EE3C6D EQ PUSH2 0x675 JUMPI PUSH1 0x0 DUP1 REVERT JUMPDEST DUP1 PUSH4 0x44E4E0F9 EQ PUSH2 0x57C JUMPI DUP1 PUSH4 0x44E87F91 EQ PUSH2 0x59C JUMPI DUP1 PUSH4 0x469A397B EQ PUSH2 0x5BC JUMPI PUSH1 0x0 DUP1 REVERT JUMPDEST DUP1 PUSH4 0x1A98B2E0 GT PUSH2 0x323 JUMPI DUP1 PUSH4 0x286DB5C2 GT PUSH2 0x2FD JUMPI DUP1 PUSH4 0x286DB5C2 EQ PUSH2 0x4EE JUMPI DUP1 PUSH4 0x29449085 EQ PUSH2 0x50E JUMPI DUP1 PUSH4 0x2AF8AAE0 EQ PUSH2 0x53C JUMPI DUP1 PUSH4 0x383FC78D EQ PUSH2 0x55C JUMPI PUSH1 0x0 DUP1 REVERT JUMPDEST DUP1 PUSH4 0x1A98B2E0 EQ PUSH2 0x4A3 JUMPI DUP1 PUSH4 0x20EB5632 EQ PUSH2 0x4C3 JUMPI DUP1 PUSH4 0x276F4872 EQ PUSH2 0x4D9 JUMPI PUSH1 0x0 DUP1 REVERT JUMPDEST DUP1 PUSH4 0x16F961B7 GT PUSH2 0x35F JUMPI DUP1 PUSH4 0x16F961B7 EQ PUSH2 0x42B JUMPI DUP1 PUSH4 0x18409201 EQ PUSH2 0x441 JUMPI DUP1 PUSH4 0x193B505B EQ PUSH2 0x461 JUMPI DUP1 PUSH4 0x1959AD5B EQ PUSH2 0x483 JUMPI PUSH1 0x0 DUP1 REVERT JUMPDEST DUP1 PUSH4 0xE392288 EQ PUSH2 0x391 JUMPI DUP1 PUSH4 0x116191B6 EQ PUSH2 0x3C7 JUMPI DUP1 PUSH4 0x15397A57 EQ PUSH2 0x408 JUMPI PUSH1 0x0 DUP1 REVERT JUMPDEST CALLDATASIZE PUSH2 0x38C JUMPI STOP JUMPDEST PUSH1 0x0 DUP1 REVERT JUMPDEST CALLVALUE DUP1 ISZERO PUSH2 0x39D JUMPI PUSH1 0x0 DUP1 REVERT JUMPDEST POP PUSH2 0x3B1 PUSH2 0x3AC CALLDATASIZE PUSH1 0x4 PUSH2 0x40F7 JUMP JUMPDEST PUSH2 0xBC0 JUMP JUMPDEST PUSH1 0x40 MLOAD PUSH2 0x3BE SWAP2 SWAP1 PUSH2 0x412A JUMP JUMPDEST PUSH1 0x40 MLOAD DUP1 SWAP2 SUB SWAP1 RETURN JUMPDEST CALLVALUE DUP1 ISZERO PUSH2 0x3D3 JUMPI PUSH1 0x0 DUP1 REVERT JUMPDEST POP PUSH2 0x3FB PUSH32 0x0 DUP2 JUMP JUMPDEST PUSH1 0x40 MLOAD PUSH2 0x3BE SWAP2 SWAP1 PUSH2 0x417A JUMP JUMPDEST CALLVALUE DUP1 ISZERO PUSH2 0x414 JUMPI PUSH1 0x0 DUP1 REVERT JUMPDEST POP PUSH2 0x41E PUSH1 0xD SLOAD DUP2 JUMP JUMPDEST PUSH1 0x40 MLOAD PUSH2 0x3BE SWAP2 SWAP1 PUSH2 0x418E JUMP JUMPDEST CALLVALUE DUP1 ISZERO PUSH2 0x437 JUMPI PUSH1 0x0 DUP1 REVERT JUMPDEST POP PUSH2 0x41E PUSH1 0x8 SLOAD DUP2 JUMP JUMPDEST CALLVALUE DUP1 ISZERO PUSH2 0x44D JUMPI PUSH1 0x0 DUP1 REVERT JUMPDEST POP PUSH2 0x41E PUSH2 0x45C CALLDATASIZE PUSH1 0x4 PUSH2 0x4297 JUMP JUMPDEST PUSH2 0xC6A JUMP JUMPDEST CALLVALUE DUP1 ISZERO PUSH2 0x46D JUMPI PUSH1 0x0 DUP1 REVERT JUMPDEST POP PUSH2 0x481 PUSH2 0x47C CALLDATASIZE PUSH1 0x4 PUSH2 0x42F7 JUMP JUMPDEST PUSH2 0xD17 JUMP JUMPDEST STOP JUMPDEST CALLVALUE DUP1 ISZERO PUSH2 0x48F JUMPI PUSH1 0x0 DUP1 REVERT JUMPDEST POP PUSH1 0x0 SLOAD PUSH2 0x3FB SWAP1 PUSH1 0x1 PUSH1 0x1 PUSH1 0xA0 SHL SUB AND DUP2 JUMP JUMPDEST CALLVALUE DUP1 ISZERO PUSH2 0x4AF JUMPI PUSH1 0x0 DUP1 REVERT JUMPDEST POP PUSH2 0x481 PUSH2 0x4BE CALLDATASIZE PUSH1 0x4 PUSH2 0x4363 JUMP JUMPDEST PUSH2 0xD4F JUMP JUMPDEST CALLVALUE DUP1 ISZERO PUSH2 0x4CF JUMPI PUSH1 0x0 DUP1 REVERT JUMPDEST POP PUSH2 0x41E PUSH1 0x5 SLOAD DUP2 JUMP JUMPDEST CALLVALUE DUP1 ISZERO PUSH2 0x4E5 JUMPI PUSH1 0x0 DUP1 REVERT JUMPDEST POP PUSH2 0x41E PUSH2 0xE4B JUMP JUMPDEST CALLVALUE DUP1 ISZERO PUSH2 0x4FA JUMPI PUSH1 0x0 DUP1 REVERT JUMPDEST POP PUSH2 0x481 PUSH2 0x509 CALLDATASIZE PUSH1 0x4 PUSH2 0x446C JUMP JUMPDEST PUSH2 0xF49 JUMP JUMPDEST CALLVALUE DUP1 ISZERO PUSH2 0x51A JUMPI PUSH1 0x0 DUP1 REVERT JUMPDEST POP PUSH2 0x52E PUSH2 0x529 CALLDATASIZE PUSH1 0x4 PUSH2 0x446C JUMP JUMPDEST PUSH2 0x116F JUMP JUMPDEST PUSH1 0x40 MLOAD PUSH2 0x3BE SWAP3 SWAP2 SWAP1 PUSH2 0x44A9 JUMP JUMPDEST CALLVALUE DUP1 ISZERO PUSH2 0x548 JUMPI PUSH1 0x0 DUP1 REVERT JUMPDEST POP PUSH1 0x1 SLOAD PUSH2 0x3FB SWAP1 PUSH1 0x1 PUSH1 0x1 PUSH1 0xA0 SHL SUB AND DUP2 JUMP JUMPDEST CALLVALUE DUP1 ISZERO PUSH2 0x568 JUMPI PUSH1 0x0 DUP1 REVERT JUMPDEST POP PUSH2 0x481 PUSH2 0x577 CALLDATASIZE PUSH1 0x4 PUSH2 0x4562 JUMP JUMPDEST PUSH2 0x1207 JUMP JUMPDEST CALLVALUE DUP1 ISZERO PUSH2 0x588 JUMPI PUSH1 0x0 DUP1 REVERT JUMPDEST POP PUSH2 0x481 PUSH2 0x597 CALLDATASIZE PUSH1 0x4 PUSH2 0x4608 JUMP JUMPDEST PUSH2 0x1311 JUMP JUMPDEST CALLVALUE DUP1 ISZERO PUSH2 0x5A8 JUMPI PUSH1 0x0 DUP1 REVERT JUMPDEST POP PUSH2 0x3B1 PUSH2 0x5B7 CALLDATASIZE PUSH1 0x4 PUSH2 0x446C JUMP JUMPDEST PUSH2 0x1901 JUMP JUMPDEST CALLVALUE DUP1 ISZERO PUSH2 0x5C8 JUMPI PUSH1 0x0 DUP1 REVERT JUMPDEST POP PUSH2 0x41E PUSH1 0xB SLOAD DUP2 JUMP JUMPDEST CALLVALUE DUP1 ISZERO PUSH2 0x5DE JUMPI PUSH1 0x0 DUP1 REVERT JUMPDEST POP PUSH2 0x481 PUSH2 0x5ED CALLDATASIZE PUSH1 0x4 PUSH2 0x4658 JUMP JUMPDEST PUSH2 0x1997 JUMP JUMPDEST CALLVALUE DUP1 ISZERO PUSH2 0x5FE JUMPI PUSH1 0x0 DUP1 REVERT JUMPDEST POP PUSH2 0x64F PUSH2 0x60D CALLDATASIZE PUSH1 0x4 PUSH2 0x446C JUMP JUMPDEST PUSH1 0x14 PUSH1 0x20 SWAP1 DUP2 MSTORE PUSH1 0x0 SWAP3 DUP4 MSTORE PUSH1 0x40 DUP1 DUP5 KECCAK256 SWAP1 SWAP2 MSTORE SWAP1 DUP3 MSTORE SWAP1 KECCAK256 DUP1 SLOAD PUSH1 0x1 DUP3 ADD SLOAD PUSH1 0x5 DUP4 ADD SLOAD PUSH1 0x6 SWAP1 SWAP4 ADD SLOAD PUSH1 0x1 PUSH1 0x1 PUSH1 0xA0 SHL SUB SWAP1 SWAP3 AND SWAP3 SWAP1 SWAP2 PUSH1 0xFF SWAP1 SWAP2 AND SWAP1 DUP5 JUMP JUMPDEST PUSH1 0x40 MLOAD PUSH2 0x3BE SWAP5 SWAP4 SWAP3 SWAP2 SWAP1 PUSH2 0x4724 JUMP JUMPDEST CALLVALUE DUP1 ISZERO PUSH2 0x66B JUMPI PUSH1 0x0 DUP1 REVERT JUMPDEST POP PUSH2 0x41E PUSH1 0xE SLOAD DUP2 JUMP JUMPDEST CALLVALUE DUP1 ISZERO PUSH2 0x681 JUMPI PUSH1 0x0 DUP1 REVERT JUMPDEST POP PUSH2 0x695 PUSH2 0x690 CALLDATASIZE PUSH1 0x4 PUSH2 0x446C JUMP JUMPDEST PUSH2 0x1A98 JUMP JUMPDEST PUSH1 0x40 MLOAD PUSH2 0x3BE SWAP3 SWAP2 SWAP1 PUSH2 0x47B1 JUMP JUMPDEST CALLVALUE DUP1 ISZERO PUSH2 0x6AF JUMPI PUSH1 0x0 DUP1 REVERT JUMPDEST POP PUSH2 0x3FB PUSH32 0x0 DUP2 JUMP JUMPDEST CALLVALUE DUP1 ISZERO PUSH2 0x6E3 JUMPI PUSH1 0x0 DUP1 REVERT JUMPDEST POP PUSH2 0x481 PUSH2 0x6F2 CALLDATASIZE PUSH1 0x4 PUSH2 0x47D1 JUMP JUMPDEST PUSH2 0x1AF1 JUMP JUMPDEST CALLVALUE DUP1 ISZERO PUSH2 0x703 JUMPI PUSH1 0x0 DUP1 REVERT JUMPDEST POP PUSH2 0x64F PUSH2 0x712 CALLDATASIZE PUSH1 0x4 PUSH2 0x446C JUMP JUMPDEST PUSH2 0x1E0C JUMP JUMPDEST CALLVALUE DUP1 ISZERO PUSH2 0x723 JUMPI PUSH1 0x0 DUP1 REVERT JUMPDEST POP PUSH2 0x41E PUSH1 0x9 SLOAD DUP2 JUMP JUMPDEST CALLVALUE DUP1 ISZERO PUSH2 0x739 JUMPI PUSH1 0x0 DUP1 REVERT JUMPDEST POP PUSH2 0x742 PUSH2 0x1E62 JUMP JUMPDEST PUSH1 0x40 MLOAD PUSH2 0x3BE SWAP2 SWAP1 PUSH2 0x4817 JUMP JUMPDEST PUSH2 0x481 PUSH2 0x75D CALLDATASIZE PUSH1 0x4 PUSH2 0x4828 JUMP JUMPDEST PUSH2 0x1EF0 JUMP JUMPDEST CALLVALUE DUP1 ISZERO PUSH2 0x76E JUMPI PUSH1 0x0 DUP1 REVERT JUMPDEST POP PUSH2 0x41E PUSH2 0x77D CALLDATASIZE PUSH1 0x4 PUSH2 0x40F7 JUMP JUMPDEST PUSH2 0x1FA4 JUMP JUMPDEST CALLVALUE DUP1 ISZERO PUSH2 0x78E JUMPI PUSH1 0x0 DUP1 REVERT JUMPDEST POP PUSH2 0x7F1 PUSH2 0x79D CALLDATASIZE PUSH1 0x4 PUSH2 0x42F7 JUMP JUMPDEST PUSH1 0x13 PUSH1 0x20 SWAP1 DUP2 MSTORE PUSH1 0x0 SWAP2 DUP3 MSTORE PUSH1 0x40 SWAP2 DUP3 SWAP1 KECCAK256 DUP1 SLOAD PUSH1 0x1 DUP3 ADD SLOAD PUSH1 0x2 DUP4 ADD SLOAD DUP6 MLOAD PUSH1 0x60 DUP2 ADD DUP8 MSTORE PUSH1 0x3 DUP6 ADD SLOAD DUP2 MSTORE PUSH1 0x4 DUP6 ADD SLOAD SWAP6 DUP2 ADD SWAP6 SWAP1 SWAP6 MSTORE PUSH1 0x5 SWAP1 SWAP4 ADD SLOAD SWAP5 DUP5 ADD SWAP5 SWAP1 SWAP5 MSTORE PUSH1 0x1 PUSH1 0x1 PUSH1 0xA0 SHL SUB AND SWAP3 SWAP2 DUP5 JUMP JUMPDEST PUSH1 0x40 MLOAD PUSH2 0x3BE SWAP5 SWAP4 SWAP3 SWAP2 SWAP1 PUSH2 0x4894 JUMP JUMPDEST CALLVALUE DUP1 ISZERO PUSH2 0x80D JUMPI PUSH1 0x0 DUP1 REVERT JUMPDEST POP PUSH1 0x2 SLOAD PUSH2 0x821 SWAP1 PUSH1 0x1 PUSH1 0x1 PUSH1 0xA0 SHL SUB AND DUP2 JUMP JUMPDEST PUSH1 0x40 MLOAD PUSH2 0x3BE SWAP2 SWAP1 PUSH2 0x48C9 JUMP JUMPDEST CALLVALUE DUP1 ISZERO PUSH2 0x83A JUMPI PUSH1 0x0 DUP1 REVERT JUMPDEST POP TIMESTAMP PUSH2 0x41E JUMP JUMPDEST CALLVALUE DUP1 ISZERO PUSH2 0x84D JUMPI PUSH1 0x0 DUP1 REVERT JUMPDEST POP PUSH2 0x742 PUSH2 0x202F JUMP JUMPDEST CALLVALUE DUP1 ISZERO PUSH2 0x862 JUMPI PUSH1 0x0 DUP1 REVERT JUMPDEST POP PUSH2 0x481 PUSH2 0x871 CALLDATASIZE PUSH1 0x4 PUSH2 0x446C JUMP JUMPDEST PUSH2 0x203C JUMP JUMPDEST CALLVALUE DUP1 ISZERO PUSH2 0x882 JUMPI PUSH1 0x0 DUP1 REVERT JUMPDEST POP PUSH2 0x41E PUSH1 0xC SLOAD DUP2 JUMP JUMPDEST CALLVALUE DUP1 ISZERO PUSH2 0x898 JUMPI PUSH1 0x0 DUP1 REVERT JUMPDEST POP PUSH2 0x41E PUSH1 0xA SLOAD DUP2 JUMP JUMPDEST CALLVALUE DUP1 ISZERO PUSH2 0x8AE JUMPI PUSH1 0x0 DUP1 REVERT JUMPDEST POP PUSH2 0x8B7 PUSH2 0x224C JUMP JUMPDEST PUSH1 0x40 MLOAD PUSH2 0x3BE SWAP2 SWAP1 PUSH2 0x49B9 JUMP JUMPDEST CALLVALUE DUP1 ISZERO PUSH2 0x8D0 JUMPI PUSH1 0x0 DUP1 REVERT JUMPDEST POP PUSH2 0x41E PUSH2 0x8DF CALLDATASIZE PUSH1 0x4 PUSH2 0x49CA JUMP JUMPDEST PUSH1 0x16 PUSH1 0x20 SWAP1 DUP2 MSTORE PUSH1 0x0 SWAP3 DUP4 MSTORE PUSH1 0x40 DUP1 DUP5 KECCAK256 SWAP1 SWAP2 MSTORE SWAP1 DUP3 MSTORE SWAP1 KECCAK256 SLOAD DUP2 JUMP JUMPDEST CALLVALUE DUP1 ISZERO PUSH2 0x908 JUMPI PUSH1 0x0 DUP1 REVERT JUMPDEST POP PUSH2 0x695 PUSH2 0x917 CALLDATASIZE PUSH1 0x4 PUSH2 0x446C JUMP JUMPDEST PUSH2 0x23B0 JUMP JUMPDEST CALLVALUE DUP1 ISZERO PUSH2 0x928 JUMPI PUSH1 0x0 DUP1 REVERT JUMPDEST POP PUSH2 0x93C PUSH2 0x937 CALLDATASIZE PUSH1 0x4 PUSH2 0x42F7 JUMP JUMPDEST PUSH2 0x244F JUMP JUMPDEST PUSH1 0x40 MLOAD PUSH2 0x3BE SWAP2 SWAP1 PUSH2 0x4AB7 JUMP JUMPDEST CALLVALUE DUP1 ISZERO PUSH2 0x955 JUMPI PUSH1 0x0 DUP1 REVERT JUMPDEST POP PUSH2 0x41E PUSH2 0x964 CALLDATASIZE PUSH1 0x4 PUSH2 0x42F7 JUMP JUMPDEST PUSH1 0xC SLOAD PUSH1 0x0 SWAP1 DUP2 MSTORE PUSH1 0x16 PUSH1 0x20 SWAP1 DUP2 MSTORE PUSH1 0x40 DUP1 DUP4 KECCAK256 PUSH1 0x1 PUSH1 0x1 PUSH1 0xA0 SHL SUB SWAP1 SWAP5 AND DUP4 MSTORE SWAP3 SWAP1 MSTORE KECCAK256 SLOAD SWAP1 JUMP JUMPDEST CALLVALUE DUP1 ISZERO PUSH2 0x999 JUMPI PUSH1 0x0 DUP1 REVERT JUMPDEST POP PUSH2 0x41E PUSH1 0x4 SLOAD DUP2 JUMP JUMPDEST CALLVALUE DUP1 ISZERO PUSH2 0x9AF JUMPI PUSH1 0x0 DUP1 REVERT JUMPDEST POP PUSH2 0x41E PUSH1 0x7 SLOAD DUP2 JUMP JUMPDEST CALLVALUE DUP1 ISZERO PUSH2 0x9C5 JUMPI PUSH1 0x0 DUP1 REVERT JUMPDEST POP PUSH2 0x41E PUSH1 0x6 SLOAD DUP2 JUMP JUMPDEST CALLVALUE DUP1 ISZERO PUSH2 0x9DB JUMPI PUSH1 0x0 DUP1 REVERT JUMPDEST POP PUSH2 0x742 PUSH2 0x9EA CALLDATASIZE PUSH1 0x4 PUSH2 0x446C JUMP JUMPDEST PUSH2 0x2695 JUMP JUMPDEST CALLVALUE DUP1 ISZERO PUSH2 0x9FB JUMPI PUSH1 0x0 DUP1 REVERT JUMPDEST POP PUSH2 0xA0F PUSH2 0xA0A CALLDATASIZE PUSH1 0x4 PUSH2 0x40F7 JUMP JUMPDEST PUSH2 0x2726 JUMP JUMPDEST PUSH1 0x40 MLOAD PUSH2 0x3BE SWAP8 SWAP7 SWAP6 SWAP5 SWAP4 SWAP3 SWAP2 SWAP1 PUSH2 0x4AC8 JUMP JUMPDEST CALLVALUE DUP1 ISZERO PUSH2 0xA2E JUMPI PUSH1 0x0 DUP1 REVERT JUMPDEST POP PUSH2 0xA42 PUSH2 0xA3D CALLDATASIZE PUSH1 0x4 PUSH2 0x42F7 JUMP JUMPDEST PUSH2 0x280E JUMP JUMPDEST PUSH1 0x40 MLOAD PUSH2 0x3BE SWAP2 SWAP1 PUSH2 0x4B80 JUMP JUMPDEST CALLVALUE DUP1 ISZERO PUSH2 0xA5B JUMPI PUSH1 0x0 DUP1 REVERT JUMPDEST POP PUSH2 0x41E PUSH2 0xA6A CALLDATASIZE PUSH1 0x4 PUSH2 0x446C JUMP JUMPDEST PUSH2 0x2884 JUMP JUMPDEST CALLVALUE DUP1 ISZERO PUSH2 0xA7B JUMPI PUSH1 0x0 DUP1 REVERT JUMPDEST POP PUSH2 0x41E PUSH2 0x2911 JUMP JUMPDEST CALLVALUE DUP1 ISZERO PUSH2 0xA90 JUMPI PUSH1 0x0 DUP1 REVERT JUMPDEST POP PUSH2 0x481 PUSH2 0xA9F CALLDATASIZE PUSH1 0x4 PUSH2 0x4B8E JUMP JUMPDEST PUSH2 0x299C JUMP JUMPDEST CALLVALUE DUP1 ISZERO PUSH2 0xAB0 JUMPI PUSH1 0x0 DUP1 REVERT JUMPDEST POP PUSH1 0x3 SLOAD PUSH2 0x821 SWAP1 PUSH1 0x1 PUSH1 0x1 PUSH1 0xA0 SHL SUB AND DUP2 JUMP JUMPDEST CALLVALUE DUP1 ISZERO PUSH2 0xAD0 JUMPI PUSH1 0x0 DUP1 REVERT JUMPDEST POP PUSH2 0x481 PUSH2 0xADF CALLDATASIZE PUSH1 0x4 PUSH2 0x4BF2 JUMP JUMPDEST PUSH2 0x2B70 JUMP JUMPDEST CALLVALUE DUP1 ISZERO PUSH2 0xAF0 JUMPI PUSH1 0x0 DUP1 REVERT JUMPDEST POP PUSH2 0x481 PUSH2 0x2B8E JUMP JUMPDEST CALLVALUE DUP1 ISZERO PUSH2 0xB05 JUMPI PUSH1 0x0 DUP1 REVERT JUMPDEST POP PUSH2 0x821 PUSH2 0xB14 CALLDATASIZE PUSH1 0x4 PUSH2 0x446C JUMP JUMPDEST PUSH2 0x2C34 JUMP JUMPDEST CALLVALUE DUP1 ISZERO PUSH2 0xB25 JUMPI PUSH1 0x0 DUP1 REVERT JUMPDEST POP PUSH2 0x742 PUSH2 0x2CC1 JUMP JUMPDEST CALLVALUE DUP1 ISZERO PUSH2 0xB3A JUMPI PUSH1 0x0 DUP1 REVERT JUMPDEST POP PUSH2 0x52E PUSH2 0xB49 CALLDATASIZE PUSH1 0x4 PUSH2 0x446C JUMP JUMPDEST PUSH2 0x2CCE JUMP JUMPDEST CALLVALUE DUP1 ISZERO PUSH2 0xB5A JUMPI PUSH1 0x0 DUP1 REVERT JUMPDEST POP PUSH2 0xB6E PUSH2 0xB69 CALLDATASIZE PUSH1 0x4 PUSH2 0x40F7 JUMP JUMPDEST PUSH2 0x2E8B JUMP JUMPDEST PUSH1 0x40 MLOAD PUSH2 0x3BE SWAP4 SWAP3 SWAP2 SWAP1 PUSH2 0x4C5A JUMP JUMPDEST CALLVALUE DUP1 ISZERO PUSH2 0xB89 JUMPI PUSH1 0x0 DUP1 REVERT JUMPDEST POP PUSH2 0xB9D PUSH2 0xB98 CALLDATASIZE PUSH1 0x4 PUSH2 0x4B8E JUMP JUMPDEST PUSH2 0x2F6D JUMP JUMPDEST PUSH1 0x40 MLOAD PUSH2 0x3BE SWAP3 SWAP2 SWAP1 PUSH2 0x4D32 JUMP JUMPDEST CALLVALUE DUP1 ISZERO PUSH2 0xBB7 JUMPI PUSH1 0x0 DUP1 REVERT JUMPDEST POP PUSH2 0x742 PUSH2 0x325C JUMP JUMPDEST PUSH1 0xC SLOAD PUSH1 0x0 SWAP1 DUP2 MSTORE PUSH1 0x14 PUSH1 0x20 SWAP1 DUP2 MSTORE PUSH1 0x40 DUP1 DUP4 KECCAK256 DUP5 DUP5 MSTORE SWAP1 SWAP2 MSTORE DUP1 DUP3 KECCAK256 DUP2 MLOAD PUSH1 0x60 DUP2 ADD SWAP3 DUP4 SWAP1 MSTORE DUP4 SWAP3 SWAP1 SWAP2 PUSH1 0x2 ADD SWAP1 PUSH1 0x3 SWAP1 DUP3 DUP5 JUMPDEST DUP2 SLOAD DUP2 MSTORE PUSH1 0x20 ADD SWAP1 PUSH1 0x1 ADD SWAP1 DUP1 DUP4 GT PUSH2 0xBF5 JUMPI POP POP PUSH1 0xC SLOAD PUSH1 0x0 SWAP1 DUP2 MSTORE PUSH1 0x15 PUSH1 0x20 MSTORE PUSH1 0x40 DUP1 DUP3 KECCAK256 DUP2 MLOAD PUSH1 0x60 DUP2 ADD SWAP3 DUP4 SWAP1 MSTORE SWAP7 SWAP8 POP SWAP2 SWAP6 SWAP5 POP PUSH1 0x5 SWAP1 SWAP2 ADD SWAP3 POP PUSH1 0x3 SWAP2 POP DUP3 DUP5 JUMPDEST DUP2 SLOAD DUP2 MSTORE PUSH1 0x20 ADD SWAP1 PUSH1 0x1 ADD SWAP1 DUP1 DUP4 GT PUSH2 0xC3B JUMPI POP POP POP POP POP SWAP1 POP PUSH1 0x0 PUSH2 0xC61 DUP4 DUP4 PUSH2 0x3269 JUMP JUMPDEST SWAP6 SWAP5 POP POP POP POP POP JUMP JUMPDEST PUSH1 0x0 DUP1 DUP3 PUSH1 0x40 MLOAD PUSH1 0x20 ADD PUSH2 0xC7E SWAP2 SWAP1 PUSH2 0x4D8E JUMP JUMPDEST PUSH1 0x40 MLOAD PUSH1 0x20 DUP2 DUP4 SUB SUB DUP2 MSTORE SWAP1 PUSH1 0x40 MSTORE SWAP1 POP PUSH1 0x0 DUP2 PUSH1 0x40 MLOAD PUSH1 0x20 ADD PUSH2 0xCA2 SWAP2 SWAP1 PUSH2 0x4DE6 JUMP JUMPDEST PUSH1 0x40 DUP1 MLOAD PUSH1 0x1F NOT DUP2 DUP5 SUB ADD DUP2 MSTORE SWAP2 SWAP1 MSTORE DUP1 MLOAD PUSH1 0x20 DUP3 ADD KECCAK256 SWAP1 SWAP2 POP PUSH1 0x0 DUP1 PUSH2 0xCCF DUP4 PUSH2 0x917 PUSH2 0x4B0 TIMESTAMP PUSH2 0x4E20 JUMP JUMPDEST SWAP2 POP SWAP2 POP DUP1 PUSH1 0x0 SUB PUSH2 0xCE8 JUMPI POP PUSH1 0x0 SWAP7 SWAP6 POP POP POP POP POP POP JUMP JUMPDEST PUSH5 0x2540BE400 DUP3 DUP1 PUSH1 0x20 ADD SWAP1 MLOAD DUP2 ADD SWAP1 PUSH2 0xD02 SWAP2 SWAP1 PUSH2 0x4E3E JUMP JUMPDEST PUSH2 0xD0C SWAP2 SWAP1 PUSH2 0x4E75 JUMP JUMPDEST SWAP8 SWAP7 POP POP POP POP POP POP POP JUMP JUMPDEST PUSH1 0x1 SLOAD PUSH1 0x1 PUSH1 0x1 PUSH1 0xA0 SHL SUB AND ISZERO PUSH2 0xD2D JUMPI PUSH1 0x0 DUP1 REVERT JUMPDEST PUSH1 0x1 DUP1 SLOAD PUSH1 0x1 PUSH1 0x1 PUSH1 0xA0 SHL SUB NOT AND PUSH1 0x1 PUSH1 0x1 PUSH1 0xA0 SHL SUB SWAP3 SWAP1 SWAP3 AND SWAP2 SWAP1 SWAP2 OR SWAP1 SSTORE JUMP JUMPDEST PUSH1 0x0 DUP6 DUP6 PUSH1 0x40 MLOAD PUSH2 0xD61 SWAP3 SWAP2 SWAP1 PUSH2 0x4E9C JUMP JUMPDEST PUSH1 0x40 MLOAD SWAP1 DUP2 SWAP1 SUB DUP2 KECCAK256 PUSH32 0x1876EED900000000000000000000000000000000000000000000000000000000 DUP3 MSTORE SWAP2 POP PUSH1 0x1 PUSH1 0x1 PUSH1 0xA0 SHL SUB PUSH32 0x0 AND SWAP1 PUSH4 0x1876EED9 SWAP1 PUSH2 0xDDE SWAP1 DUP15 SWAP1 DUP15 SWAP1 DUP15 SWAP1 DUP15 SWAP1 DUP15 SWAP1 DUP10 SWAP1 DUP14 SWAP1 DUP14 SWAP1 DUP14 SWAP1 PUSH1 0x4 ADD PUSH2 0x4ECC JUMP JUMPDEST PUSH1 0x20 PUSH1 0x40 MLOAD DUP1 DUP4 SUB DUP2 PUSH1 0x0 DUP8 GAS CALL ISZERO DUP1 ISZERO PUSH2 0xDFD JUMPI RETURNDATASIZE PUSH1 0x0 DUP1 RETURNDATACOPY RETURNDATASIZE PUSH1 0x0 REVERT JUMPDEST POP POP POP POP PUSH1 0x40 MLOAD RETURNDATASIZE PUSH1 0x1F NOT PUSH1 0x1F DUP3 ADD AND DUP3 ADD DUP1 PUSH1 0x40 MSTORE POP DUP2 ADD SWAP1 PUSH2 0xE21 SWAP2 SWAP1 PUSH2 0x4F4C JUMP JUMPDEST PUSH2 0xE3E JUMPI PUSH1 0x40 MLOAD PUSH4 0x1403112D PUSH1 0xE2 SHL DUP2 MSTORE PUSH1 0x4 ADD PUSH1 0x40 MLOAD DUP1 SWAP2 SUB SWAP1 REVERT JUMPDEST POP POP POP POP POP POP POP POP POP POP POP JUMP JUMPDEST PUSH1 0x0 DUP1 PUSH1 0x15 PUSH1 0x0 PUSH1 0xC SLOAD DUP2 MSTORE PUSH1 0x20 ADD SWAP1 DUP2 MSTORE PUSH1 0x20 ADD PUSH1 0x0 KECCAK256 PUSH1 0x9 ADD PUSH1 0x0 ADD SLOAD SWAP1 POP PUSH1 0x0 PUSH8 0xDE0B6B3A7640000 DUP3 PUSH2 0xE9C PUSH1 0x40 MLOAD DUP1 PUSH1 0x40 ADD PUSH1 0x40 MSTORE DUP1 PUSH1 0x3 DUP2 MSTORE PUSH1 0x20 ADD PUSH3 0x199A5B PUSH1 0xEA SHL DUP2 MSTORE POP PUSH2 0xC6A JUMP JUMPDEST PUSH2 0xEA6 SWAP2 SWAP1 PUSH2 0x4F6D JUMP JUMPDEST PUSH2 0xEB0 SWAP2 SWAP1 PUSH2 0x4E75 JUMP JUMPDEST SWAP1 POP PUSH1 0x0 PUSH1 0x15 PUSH1 0x0 PUSH1 0xC SLOAD DUP2 MSTORE PUSH1 0x20 ADD SWAP1 DUP2 MSTORE PUSH1 0x20 ADD PUSH1 0x0 KECCAK256 PUSH1 0x9 ADD PUSH1 0x1 ADD SLOAD SWAP1 POP PUSH1 0x0 PUSH8 0xDE0B6B3A7640000 DUP3 PUSH2 0xF04 PUSH1 0x40 MLOAD DUP1 PUSH1 0x40 ADD PUSH1 0x40 MSTORE DUP1 PUSH1 0x5 DUP2 MSTORE PUSH1 0x20 ADD PUSH5 0x6D61746963 PUSH1 0xD8 SHL DUP2 MSTORE POP PUSH2 0xC6A JUMP JUMPDEST PUSH2 0xF0E SWAP2 SWAP1 PUSH2 0x4F6D JUMP JUMPDEST PUSH2 0xF18 SWAP2 SWAP1 PUSH2 0x4E75 JUMP JUMPDEST SWAP1 POP PUSH1 0x0 PUSH2 0xF26 DUP3 DUP6 PUSH2 0x4F8C JUMP JUMPDEST SWAP1 POP PUSH1 0x64 PUSH2 0xF35 DUP3 PUSH1 0x46 PUSH2 0x4F6D JUMP JUMPDEST PUSH2 0xF3F SWAP2 SWAP1 PUSH2 0x4E75 JUMP JUMPDEST SWAP6 POP POP POP POP POP POP SWAP1 JUMP JUMPDEST PUSH1 0xC SLOAD PUSH1 0x0 SWAP1 DUP2 MSTORE PUSH1 0x15 PUSH1 0x20 MSTORE PUSH1 0x40 SWAP1 KECCAK256 PUSH1 0x8 ADD SLOAD PUSH1 0xFF AND PUSH2 0xF86 JUMPI PUSH1 0x40 MLOAD PUSH3 0x461BCD PUSH1 0xE5 SHL DUP2 MSTORE PUSH1 0x4 ADD PUSH2 0xF7D SWAP1 PUSH2 0x4FD3 JUMP JUMPDEST PUSH1 0x40 MLOAD DUP1 SWAP2 SUB SWAP1 REVERT JUMPDEST PUSH1 0xC SLOAD PUSH1 0x0 SWAP1 DUP2 MSTORE PUSH1 0x14 PUSH1 0x20 SWAP1 DUP2 MSTORE PUSH1 0x40 DUP1 DUP4 KECCAK256 DUP6 DUP5 MSTORE SWAP1 SWAP2 MSTORE SWAP1 KECCAK256 PUSH1 0x6 ADD SLOAD CHAINID EQ PUSH2 0xFC4 JUMPI PUSH1 0x40 MLOAD PUSH3 0x461BCD PUSH1 0xE5 SHL DUP2 MSTORE PUSH1 0x4 ADD PUSH2 0xF7D SWAP1 PUSH2 0x5017 JUMP JUMPDEST PUSH1 0xC SLOAD PUSH1 0x0 SWAP1 DUP2 MSTORE PUSH1 0x14 PUSH1 0x20 SWAP1 DUP2 MSTORE PUSH1 0x40 DUP1 DUP4 KECCAK256 DUP6 DUP5 MSTORE SWAP1 SWAP2 MSTORE SWAP1 KECCAK256 SLOAD PUSH1 0x1 PUSH1 0x1 PUSH1 0xA0 SHL SUB AND CALLER EQ PUSH2 0x1008 JUMPI PUSH1 0x40 MLOAD PUSH3 0x461BCD PUSH1 0xE5 SHL DUP2 MSTORE PUSH1 0x4 ADD PUSH2 0xF7D SWAP1 PUSH2 0x505B JUMP JUMPDEST PUSH1 0xC SLOAD PUSH1 0x0 SWAP1 DUP2 MSTORE PUSH1 0x14 PUSH1 0x20 SWAP1 DUP2 MSTORE PUSH1 0x40 DUP1 DUP4 KECCAK256 DUP6 DUP5 MSTORE SWAP1 SWAP2 MSTORE SWAP1 KECCAK256 PUSH1 0x5 ADD SLOAD PUSH1 0xFF AND ISZERO PUSH2 0x1048 JUMPI PUSH1 0x40 MLOAD PUSH3 0x461BCD PUSH1 0xE5 SHL DUP2 MSTORE PUSH1 0x4 ADD PUSH2 0xF7D SWAP1 PUSH2 0x509F JUMP JUMPDEST PUSH1 0x0 PUSH2 0x1053 DUP4 PUSH2 0xBC0 JUMP JUMPDEST SWAP1 POP DUP1 PUSH2 0x1072 JUMPI PUSH1 0x40 MLOAD PUSH3 0x461BCD PUSH1 0xE5 SHL DUP2 MSTORE PUSH1 0x4 ADD PUSH2 0xF7D SWAP1 PUSH2 0x50E3 JUMP JUMPDEST PUSH1 0x0 PUSH2 0x107C PUSH2 0x2911 JUMP JUMPDEST SWAP1 POP PUSH1 0x0 PUSH2 0x1088 PUSH2 0xE4B JUMP JUMPDEST SWAP1 POP PUSH1 0x0 PUSH2 0x1096 DUP4 DUP4 PUSH2 0x4E75 JUMP JUMPDEST SWAP1 POP PUSH1 0x0 PUSH2 0x10C1 PUSH1 0x40 MLOAD DUP1 PUSH1 0x40 ADD PUSH1 0x40 MSTORE DUP1 PUSH1 0x6 DUP2 MSTORE PUSH1 0x20 ADD PUSH6 0x3130B233B2B9 PUSH1 0xD1 SHL DUP2 MSTORE POP PUSH2 0xC6A JUMP JUMPDEST PUSH2 0x10D3 DUP4 PUSH8 0xDE0B6B3A7640000 PUSH2 0x4F6D JUMP JUMPDEST PUSH2 0x10DD SWAP2 SWAP1 PUSH2 0x4E75 JUMP JUMPDEST CALLER PUSH1 0x0 SWAP1 DUP2 MSTORE PUSH1 0x13 PUSH1 0x20 MSTORE PUSH1 0x40 DUP2 KECCAK256 PUSH1 0x5 ADD DUP1 SLOAD SWAP3 SWAP4 POP DUP4 SWAP3 SWAP1 SWAP2 SWAP1 PUSH2 0x1104 SWAP1 DUP5 SWAP1 PUSH2 0x4F8C JUMP JUMPDEST SWAP1 SWAP2 SSTORE POP POP CALLER PUSH1 0x0 SWAP1 DUP2 MSTORE PUSH1 0x13 PUSH1 0x20 MSTORE PUSH1 0x40 DUP2 KECCAK256 PUSH1 0x2 ADD DUP1 SLOAD PUSH1 0x1 SWAP3 SWAP1 PUSH2 0x112C SWAP1 DUP5 SWAP1 PUSH2 0x4F8C JUMP JUMPDEST SWAP1 SWAP2 SSTORE POP POP PUSH1 0xC SLOAD PUSH1 0x0 SWAP1 DUP2 MSTORE PUSH1 0x14 PUSH1 0x20 SWAP1 DUP2 MSTORE PUSH1 0x40 DUP1 DUP4 KECCAK256 DUP11 DUP5 MSTORE SWAP1 SWAP2 MSTORE SWAP1 KECCAK256 PUSH1 0x5 ADD DUP1 SLOAD PUSH1 0xFF NOT AND PUSH1 0x1 OR SWAP1 SSTORE PUSH2 0x1166 DUP2 CALLER DUP9 PUSH2 0x32CF JUMP JUMPDEST POP POP POP POP POP POP POP JUMP JUMPDEST PUSH1 0x0 DUP1 SLOAD PUSH1 0x40 MLOAD PUSH32 0x2944908500000000000000000000000000000000000000000000000000000000 DUP2 MSTORE DUP3 SWAP2 PUSH1 0x1 PUSH1 0x1 PUSH1 0xA0 SHL SUB AND SWAP1 PUSH4 0x29449085 SWAP1 PUSH2 0x11BB SWAP1 DUP8 SWAP1 DUP8 SWAP1 PUSH1 0x4 ADD PUSH2 0x50F3 JUMP JUMPDEST PUSH1 0x40 DUP1 MLOAD DUP1 DUP4 SUB DUP2 DUP7 GAS STATICCALL ISZERO DUP1 ISZERO PUSH2 0x11D7 JUMPI RETURNDATASIZE PUSH1 0x0 DUP1 RETURNDATACOPY RETURNDATASIZE PUSH1 0x0 REVERT JUMPDEST POP POP POP POP PUSH1 0x40 MLOAD RETURNDATASIZE PUSH1 0x1F NOT PUSH1 0x1F DUP3 ADD AND DUP3 ADD DUP1 PUSH1 0x40 MSTORE POP DUP2 ADD SWAP1 PUSH2 0x11FB SWAP2 SWAP1 PUSH2 0x5101 JUMP JUMPDEST SWAP2 POP SWAP2 POP JUMPDEST SWAP3 POP SWAP3 SWAP1 POP JUMP JUMPDEST PUSH1 0x3 SLOAD PUSH1 0x1 PUSH1 0x1 PUSH1 0xA0 SHL SUB AND CALLER EQ PUSH2 0x1231 JUMPI PUSH1 0x40 MLOAD PUSH3 0x461BCD PUSH1 0xE5 SHL DUP2 MSTORE PUSH1 0x4 ADD PUSH2 0xF7D SWAP1 PUSH2 0x5168 JUMP JUMPDEST PUSH1 0xC SLOAD PUSH1 0x0 SWAP1 DUP2 MSTORE PUSH1 0x15 PUSH1 0x20 MSTORE PUSH1 0x40 SWAP1 KECCAK256 PUSH1 0x3 ADD SLOAD TIMESTAMP LT ISZERO PUSH2 0x1265 JUMPI PUSH1 0x40 MLOAD PUSH3 0x461BCD PUSH1 0xE5 SHL DUP2 MSTORE PUSH1 0x4 ADD PUSH2 0xF7D SWAP1 PUSH2 0x4FD3 JUMP JUMPDEST PUSH1 0x1 PUSH1 0xC PUSH1 0x0 DUP3 DUP3 SLOAD PUSH2 0x1278 SWAP2 SWAP1 PUSH2 0x4F8C JUMP JUMPDEST SWAP1 SWAP2 SSTORE POP POP PUSH1 0xC SLOAD PUSH1 0x0 DUP2 DUP2 MSTORE PUSH1 0x15 PUSH1 0x20 MSTORE PUSH1 0x40 SWAP1 KECCAK256 PUSH1 0x1 DUP2 ADD SWAP2 SWAP1 SWAP2 SSTORE PUSH1 0x4 ADD DUP5 SWAP1 SSTORE PUSH2 0x12A6 DUP6 TIMESTAMP PUSH2 0x4F8C JUMP JUMPDEST PUSH1 0xC DUP1 SLOAD PUSH1 0x0 SWAP1 DUP2 MSTORE PUSH1 0x15 PUSH1 0x20 MSTORE PUSH1 0x40 DUP1 DUP3 KECCAK256 PUSH1 0x3 ADD SWAP4 SWAP1 SWAP4 SSTORE SWAP1 SLOAD DUP2 MSTORE KECCAK256 PUSH2 0x12CF DUP5 DUP3 PUSH2 0x524A JUMP JUMPDEST POP PUSH1 0xC SLOAD PUSH1 0x0 SWAP1 DUP2 MSTORE PUSH1 0x15 PUSH1 0x20 MSTORE PUSH1 0x40 SWAP1 KECCAK256 PUSH2 0x12F0 SWAP1 PUSH1 0x5 ADD DUP3 PUSH1 0x3 PUSH2 0x3F52 JUMP JUMPDEST POP PUSH1 0xC SLOAD PUSH2 0x130A SWAP1 PUSH2 0x1302 TIMESTAMP DUP9 PUSH2 0x4F8C JUMP JUMPDEST DUP7 DUP7 DUP7 PUSH2 0x3394 JUMP JUMPDEST POP POP POP POP POP JUMP JUMPDEST PUSH1 0xC SLOAD PUSH1 0x0 SWAP1 DUP2 MSTORE PUSH1 0x15 PUSH1 0x20 MSTORE PUSH1 0x40 SWAP1 KECCAK256 PUSH1 0x3 ADD SLOAD TIMESTAMP DUP2 LT ISZERO PUSH2 0x1346 JUMPI PUSH1 0x40 MLOAD PUSH3 0x461BCD PUSH1 0xE5 SHL DUP2 MSTORE PUSH1 0x4 ADD PUSH2 0xF7D SWAP1 PUSH2 0x5341 JUMP JUMPDEST PUSH1 0xC SLOAD PUSH1 0x0 SWAP1 DUP2 MSTORE PUSH1 0x15 PUSH1 0x20 MSTORE PUSH1 0x40 SWAP1 KECCAK256 PUSH1 0x8 ADD SLOAD PUSH1 0xFF AND ISZERO PUSH2 0x137B JUMPI PUSH1 0x40 MLOAD PUSH3 0x461BCD PUSH1 0xE5 SHL DUP2 MSTORE PUSH1 0x4 ADD PUSH2 0xF7D SWAP1 PUSH2 0x5385 JUMP JUMPDEST PUSH1 0x0 JUMPDEST PUSH1 0x3 DUP2 LT ISZERO PUSH2 0x13D0 JUMPI PUSH1 0x1E DUP6 DUP3 PUSH1 0x3 DUP2 LT PUSH2 0x139B JUMPI PUSH2 0x139B PUSH2 0x5395 JUMP JUMPDEST PUSH1 0x20 MUL ADD MLOAD GT ISZERO PUSH2 0x13BE JUMPI PUSH1 0x40 MLOAD PUSH3 0x461BCD PUSH1 0xE5 SHL DUP2 MSTORE PUSH1 0x4 ADD PUSH2 0xF7D SWAP1 PUSH2 0x53DF JUMP JUMPDEST DUP1 PUSH2 0x13C8 DUP2 PUSH2 0x53EF JUMP JUMPDEST SWAP2 POP POP PUSH2 0x137E JUMP JUMPDEST POP PUSH1 0xC SLOAD PUSH1 0x0 SWAP1 DUP2 MSTORE PUSH1 0x15 PUSH1 0x20 MSTORE PUSH1 0x40 DUP2 KECCAK256 PUSH1 0x4 ADD SLOAD DUP5 ISZERO PUSH2 0x1591 JUMPI PUSH1 0x4 SLOAD CHAINID SUB PUSH2 0x14BB JUMPI PUSH2 0x1419 PUSH1 0x40 MLOAD DUP1 PUSH1 0x40 ADD PUSH1 0x40 MSTORE DUP1 PUSH1 0x3 DUP2 MSTORE PUSH1 0x20 ADD PUSH3 0x199A5B PUSH1 0xEA SHL DUP2 MSTORE POP PUSH2 0xC6A JUMP JUMPDEST PUSH2 0x142B DUP3 PUSH8 0xDE0B6B3A7640000 PUSH2 0x4F6D JUMP JUMPDEST PUSH2 0x1435 SWAP2 SWAP1 PUSH2 0x4E75 JUMP JUMPDEST CALLER PUSH1 0x0 SWAP1 DUP2 MSTORE PUSH1 0x13 PUSH1 0x20 MSTORE PUSH1 0x40 SWAP1 KECCAK256 PUSH1 0x3 ADD SLOAD SWAP1 SWAP3 POP DUP3 GT ISZERO PUSH2 0x146A JUMPI PUSH1 0x40 MLOAD PUSH3 0x461BCD PUSH1 0xE5 SHL DUP2 MSTORE PUSH1 0x4 ADD PUSH2 0xF7D SWAP1 PUSH2 0x543D JUMP JUMPDEST CALLER PUSH1 0x0 SWAP1 DUP2 MSTORE PUSH1 0x13 PUSH1 0x20 MSTORE PUSH1 0x40 DUP2 KECCAK256 PUSH1 0x3 ADD DUP1 SLOAD DUP5 SWAP3 SWAP1 PUSH2 0x148C SWAP1 DUP5 SWAP1 PUSH2 0x4E20 JUMP JUMPDEST SWAP1 SWAP2 SSTORE POP POP PUSH1 0xC SLOAD PUSH1 0x0 SWAP1 DUP2 MSTORE PUSH1 0x15 PUSH1 0x20 MSTORE PUSH1 0x40 DUP2 KECCAK256 PUSH1 0x9 ADD DUP1 SLOAD DUP5 SWAP3 SWAP1 PUSH2 0x14B5 SWAP1 DUP5 SWAP1 PUSH2 0x4F8C JUMP JUMPDEST SWAP1 SWAP2 SSTORE POP POP JUMPDEST PUSH1 0x5 SLOAD CHAINID SUB PUSH2 0x158C JUMPI PUSH2 0x14EA PUSH1 0x40 MLOAD DUP1 PUSH1 0x40 ADD PUSH1 0x40 MSTORE DUP1 PUSH1 0x5 DUP2 MSTORE PUSH1 0x20 ADD PUSH5 0x6D61746963 PUSH1 0xD8 SHL DUP2 MSTORE POP PUSH2 0xC6A JUMP JUMPDEST PUSH2 0x14FC DUP3 PUSH8 0xDE0B6B3A7640000 PUSH2 0x4F6D JUMP JUMPDEST PUSH2 0x1506 SWAP2 SWAP1 PUSH2 0x4E75 JUMP JUMPDEST CALLER PUSH1 0x0 SWAP1 DUP2 MSTORE PUSH1 0x13 PUSH1 0x20 MSTORE PUSH1 0x40 SWAP1 KECCAK256 PUSH1 0x4 ADD SLOAD SWAP1 SWAP3 POP DUP3 GT ISZERO PUSH2 0x153B JUMPI PUSH1 0x40 MLOAD PUSH3 0x461BCD PUSH1 0xE5 SHL DUP2 MSTORE PUSH1 0x4 ADD PUSH2 0xF7D SWAP1 PUSH2 0x5481 JUMP JUMPDEST CALLER PUSH1 0x0 SWAP1 DUP2 MSTORE PUSH1 0x13 PUSH1 0x20 MSTORE PUSH1 0x40 DUP2 KECCAK256 PUSH1 0x4 ADD DUP1 SLOAD DUP5 SWAP3 SWAP1 PUSH2 0x155D SWAP1 DUP5 SWAP1 PUSH2 0x4E20 JUMP JUMPDEST SWAP1 SWAP2 SSTORE POP POP PUSH1 0xC SLOAD PUSH1 0x0 SWAP1 DUP2 MSTORE PUSH1 0x15 PUSH1 0x20 MSTORE PUSH1 0x40 DUP2 KECCAK256 PUSH1 0xA ADD DUP1 SLOAD DUP5 SWAP3 SWAP1 PUSH2 0x1586 SWAP1 DUP5 SWAP1 PUSH2 0x4F8C JUMP JUMPDEST SWAP1 SWAP2 SSTORE POP POP JUMPDEST PUSH2 0x165A JUMP JUMPDEST PUSH2 0x15B8 PUSH1 0x40 MLOAD DUP1 PUSH1 0x40 ADD PUSH1 0x40 MSTORE DUP1 PUSH1 0x6 DUP2 MSTORE PUSH1 0x20 ADD PUSH6 0x3130B233B2B9 PUSH1 0xD1 SHL DUP2 MSTORE POP PUSH2 0xC6A JUMP JUMPDEST PUSH2 0x15CA DUP3 PUSH8 0xDE0B6B3A7640000 PUSH2 0x4F6D JUMP JUMPDEST PUSH2 0x15D4 SWAP2 SWAP1 PUSH2 0x4E75 JUMP JUMPDEST CALLER PUSH1 0x0 SWAP1 DUP2 MSTORE PUSH1 0x13 PUSH1 0x20 MSTORE PUSH1 0x40 SWAP1 KECCAK256 PUSH1 0x5 ADD SLOAD SWAP1 SWAP3 POP DUP3 GT ISZERO PUSH2 0x1609 JUMPI PUSH1 0x40 MLOAD PUSH3 0x461BCD PUSH1 0xE5 SHL DUP2 MSTORE PUSH1 0x4 ADD PUSH2 0xF7D SWAP1 PUSH2 0x5481 JUMP JUMPDEST CALLER PUSH1 0x0 SWAP1 DUP2 MSTORE PUSH1 0x13 PUSH1 0x20 MSTORE PUSH1 0x40 DUP2 KECCAK256 PUSH1 0x5 ADD DUP1 SLOAD DUP5 SWAP3 SWAP1 PUSH2 0x162B SWAP1 DUP5 SWAP1 PUSH2 0x4E20 JUMP JUMPDEST SWAP1 SWAP2 SSTORE POP POP PUSH1 0xC SLOAD PUSH1 0x0 SWAP1 DUP2 MSTORE PUSH1 0x15 PUSH1 0x20 MSTORE PUSH1 0x40 DUP2 KECCAK256 PUSH1 0xB ADD DUP1 SLOAD DUP5 SWAP3 SWAP1 PUSH2 0x1654 SWAP1 DUP5 SWAP1 PUSH2 0x4F8C JUMP JUMPDEST SWAP1 SWAP2 SSTORE POP POP JUMPDEST PUSH1 0xD SLOAD PUSH1 0xC SLOAD PUSH1 0x0 SWAP1 DUP2 MSTORE PUSH1 0x16 PUSH1 0x20 SWAP1 DUP2 MSTORE PUSH1 0x40 DUP1 DUP4 KECCAK256 CALLER DUP5 MSTORE SWAP1 SWAP2 MSTORE SWAP1 KECCAK256 SLOAD LT PUSH2 0x1697 JUMPI PUSH1 0x40 MLOAD PUSH3 0x461BCD PUSH1 0xE5 SHL DUP2 MSTORE PUSH1 0x4 ADD PUSH2 0xF7D SWAP1 PUSH2 0x54C5 JUMP JUMPDEST PUSH1 0xC SLOAD PUSH1 0x0 SWAP1 DUP2 MSTORE PUSH1 0x15 PUSH1 0x20 MSTORE PUSH1 0x40 DUP2 KECCAK256 PUSH1 0x2 ADD DUP1 SLOAD PUSH1 0x1 SWAP2 SWAP1 DUP4 SWAP1 PUSH2 0x16BE SWAP1 DUP5 SWAP1 PUSH2 0x4F8C JUMP JUMPDEST SWAP2 DUP3 SWAP1 SSTORE POP PUSH1 0x40 DUP1 MLOAD PUSH1 0xA0 DUP2 ADD DUP3 MSTORE CALLER DUP2 MSTORE PUSH1 0x20 DUP1 DUP3 ADD DUP5 DUP2 MSTORE DUP3 DUP5 ADD DUP14 DUP2 MSTORE PUSH1 0x0 PUSH1 0x60 DUP6 ADD DUP2 SWAP1 MSTORE CHAINID PUSH1 0x80 DUP7 ADD MSTORE PUSH1 0xC SLOAD DUP2 MSTORE PUSH1 0x14 DUP5 MSTORE DUP6 DUP2 KECCAK256 DUP8 DUP3 MSTORE SWAP1 SWAP4 MSTORE SWAP4 SWAP1 SWAP2 KECCAK256 DUP3 MLOAD DUP2 SLOAD PUSH1 0x1 PUSH1 0x1 PUSH1 0xA0 SHL SUB NOT AND PUSH1 0x1 PUSH1 0x1 PUSH1 0xA0 SHL SUB SWAP1 SWAP2 AND OR DUP2 SSTORE SWAP1 MLOAD PUSH1 0x1 DUP3 ADD SSTORE SWAP2 MLOAD SWAP3 SWAP5 POP SWAP3 POP SWAP1 PUSH2 0x173E SWAP1 PUSH1 0x2 DUP4 ADD SWAP1 PUSH1 0x3 PUSH2 0x3F52 JUMP JUMPDEST POP PUSH1 0x60 DUP3 ADD MLOAD PUSH1 0x5 DUP3 ADD DUP1 SLOAD PUSH1 0xFF NOT AND SWAP2 ISZERO ISZERO SWAP2 SWAP1 SWAP2 OR SWAP1 SSTORE PUSH1 0x80 SWAP1 SWAP2 ADD MLOAD PUSH1 0x6 SWAP1 SWAP2 ADD SSTORE CALLER PUSH1 0x0 SWAP1 DUP2 MSTORE PUSH1 0x13 PUSH1 0x20 MSTORE PUSH1 0x40 DUP2 KECCAK256 PUSH1 0x1 SWAP1 DUP2 ADD DUP1 SLOAD SWAP2 SWAP3 SWAP1 SWAP2 PUSH2 0x1788 SWAP1 DUP5 SWAP1 PUSH2 0x4F8C JUMP JUMPDEST SWAP1 SWAP2 SSTORE POP POP PUSH1 0xC SLOAD PUSH1 0x0 SWAP1 DUP2 MSTORE PUSH1 0x17 PUSH1 0x20 SWAP1 DUP2 MSTORE PUSH1 0x40 DUP1 DUP4 KECCAK256 PUSH1 0x14 DUP4 MSTORE DUP2 DUP5 KECCAK256 DUP6 DUP6 MSTORE DUP4 MSTORE SWAP1 DUP4 KECCAK256 DUP2 SLOAD PUSH1 0x1 DUP2 DUP2 ADD DUP5 SSTORE SWAP3 DUP6 MSTORE SWAP3 SWAP1 SWAP4 KECCAK256 DUP4 SLOAD PUSH1 0x7 SWAP1 SWAP4 MUL ADD DUP1 SLOAD PUSH1 0x1 PUSH1 0x1 PUSH1 0xA0 SHL SUB NOT AND PUSH1 0x1 PUSH1 0x1 PUSH1 0xA0 SHL SUB SWAP1 SWAP4 AND SWAP3 SWAP1 SWAP3 OR DUP3 SSTORE DUP1 DUP4 ADD SLOAD SWAP1 DUP3 ADD SSTORE PUSH2 0x17FF PUSH1 0x2 DUP1 DUP4 ADD SWAP1 DUP5 ADD PUSH1 0x3 PUSH2 0x3F90 JUMP JUMPDEST POP PUSH1 0x5 DUP3 DUP2 ADD SLOAD SWAP1 DUP3 ADD DUP1 SLOAD PUSH1 0xFF NOT AND PUSH1 0xFF SWAP1 SWAP3 AND ISZERO ISZERO SWAP2 SWAP1 SWAP2 OR SWAP1 SSTORE PUSH1 0x6 SWAP2 DUP3 ADD SLOAD SWAP2 ADD SSTORE PUSH1 0xC SLOAD PUSH1 0x0 SWAP1 DUP2 MSTORE PUSH1 0x16 PUSH1 0x20 SWAP1 DUP2 MSTORE PUSH1 0x40 DUP1 DUP4 KECCAK256 CALLER DUP5 MSTORE SWAP1 SWAP2 MSTORE DUP2 KECCAK256 DUP1 SLOAD PUSH1 0x1 SWAP3 SWAP1 PUSH2 0x1852 SWAP1 DUP5 SWAP1 PUSH2 0x4F8C JUMP JUMPDEST SWAP1 SWAP2 SSTORE POP POP PUSH1 0xC SLOAD PUSH1 0x0 DUP2 DUP2 MSTORE PUSH1 0x14 PUSH1 0x20 SWAP1 DUP2 MSTORE PUSH1 0x40 DUP1 DUP4 KECCAK256 DUP6 DUP5 MSTORE DUP3 MSTORE SWAP2 DUP3 SWAP1 KECCAK256 DUP3 MLOAD PUSH1 0xA0 DUP2 ADD DUP5 MSTORE DUP2 SLOAD PUSH1 0x1 PUSH1 0x1 PUSH1 0xA0 SHL SUB AND DUP2 MSTORE PUSH1 0x1 DUP3 ADD SLOAD SWAP3 DUP2 ADD SWAP3 SWAP1 SWAP3 MSTORE DUP3 MLOAD PUSH1 0x60 DUP2 ADD DUP5 MSTORE PUSH2 0x1166 SWAP5 DUP7 SWAP5 CALLER SWAP5 DUP15 SWAP5 CHAINID SWAP5 DUP16 SWAP5 DUP14 SWAP5 SWAP1 SWAP4 SWAP3 SWAP2 SWAP1 DUP4 ADD SWAP1 PUSH1 0x2 DUP4 ADD PUSH1 0x3 DUP3 DUP3 DUP3 PUSH1 0x20 MUL DUP3 ADD SWAP2 JUMPDEST DUP2 SLOAD DUP2 MSTORE PUSH1 0x20 ADD SWAP1 PUSH1 0x1 ADD SWAP1 DUP1 DUP4 GT PUSH2 0x18C5 JUMPI POP POP POP SWAP2 DUP4 MSTORE POP POP PUSH1 0x5 DUP3 ADD SLOAD PUSH1 0xFF AND ISZERO ISZERO PUSH1 0x20 DUP3 ADD MSTORE PUSH1 0x6 SWAP1 SWAP2 ADD SLOAD PUSH1 0x40 SWAP1 SWAP2 ADD MSTORE DUP14 PUSH2 0x340C JUMP JUMPDEST PUSH1 0x0 DUP1 SLOAD PUSH1 0x40 MLOAD PUSH32 0x44E87F9100000000000000000000000000000000000000000000000000000000 DUP2 MSTORE PUSH1 0x1 PUSH1 0x1 PUSH1 0xA0 SHL SUB SWAP1 SWAP2 AND SWAP1 PUSH4 0x44E87F91 SWAP1 PUSH2 0x194D SWAP1 DUP7 SWAP1 DUP7 SWAP1 PUSH1 0x4 ADD PUSH2 0x50F3 JUMP JUMPDEST PUSH1 0x20 PUSH1 0x40 MLOAD DUP1 DUP4 SUB DUP2 DUP7 GAS STATICCALL ISZERO DUP1 ISZERO PUSH2 0x196A JUMPI RETURNDATASIZE PUSH1 0x0 DUP1 RETURNDATACOPY RETURNDATASIZE PUSH1 0x0 REVERT JUMPDEST POP POP POP POP PUSH1 0x40 MLOAD RETURNDATASIZE PUSH1 0x1F NOT PUSH1 0x1F DUP3 ADD AND DUP3 ADD DUP1 PUSH1 0x40 MSTORE POP DUP2 ADD SWAP1 PUSH2 0x198E SWAP2 SWAP1 PUSH2 0x4F4C JUMP JUMPDEST SWAP1 POP JUMPDEST SWAP3 SWAP2 POP POP JUMP JUMPDEST PUSH1 0x0 DUP3 DUP3 PUSH1 0x40 MLOAD PUSH2 0x19A9 SWAP3 SWAP2 SWAP1 PUSH2 0x4E9C JUMP JUMPDEST PUSH1 0x40 MLOAD SWAP1 DUP2 SWAP1 SUB DUP2 KECCAK256 PUSH32 0x5F6970C300000000000000000000000000000000000000000000000000000000 DUP3 MSTORE SWAP2 POP PUSH1 0x1 PUSH1 0x1 PUSH1 0xA0 SHL SUB PUSH32 0x0 AND SWAP1 PUSH4 0x5F6970C3 SWAP1 PUSH2 0x1A20 SWAP1 DUP12 SWAP1 DUP12 SWAP1 DUP12 SWAP1 DUP12 SWAP1 DUP12 SWAP1 DUP10 SWAP1 PUSH1 0x4 ADD PUSH2 0x54D5 JUMP JUMPDEST PUSH1 0x20 PUSH1 0x40 MLOAD DUP1 DUP4 SUB DUP2 PUSH1 0x0 DUP8 GAS CALL ISZERO DUP1 ISZERO PUSH2 0x1A3F JUMPI RETURNDATASIZE PUSH1 0x0 DUP1 RETURNDATACOPY RETURNDATASIZE PUSH1 0x0 REVERT JUMPDEST POP POP POP POP PUSH1 0x40 MLOAD RETURNDATASIZE PUSH1 0x1F NOT PUSH1 0x1F DUP3 ADD AND DUP3 ADD DUP1 PUSH1 0x40 MSTORE POP DUP2 ADD SWAP1 PUSH2 0x1A63 SWAP2 SWAP1 PUSH2 0x4F4C JUMP JUMPDEST PUSH2 0x1A80 JUMPI PUSH1 0x40 MLOAD PUSH4 0x1403112D PUSH1 0xE2 SHL DUP2 MSTORE PUSH1 0x4 ADD PUSH1 0x40 MLOAD DUP1 SWAP2 SUB SWAP1 REVERT JUMPDEST PUSH2 0x1A8E DUP8 DUP8 DUP8 DUP8 DUP8 DUP8 PUSH2 0x348C JUMP JUMPDEST POP POP POP POP POP POP POP POP JUMP JUMPDEST PUSH1 0x60 PUSH1 0x0 DUP1 PUSH1 0x0 PUSH2 0x1AA9 DUP7 DUP7 PUSH2 0x2CCE JUMP JUMPDEST SWAP2 POP SWAP2 POP DUP2 PUSH2 0x1AD0 JUMPI PUSH1 0x0 PUSH1 0x40 MLOAD DUP1 PUSH1 0x20 ADD PUSH1 0x40 MSTORE DUP1 PUSH1 0x0 DUP2 MSTORE POP SWAP1 SWAP4 POP SWAP4 POP POP POP PUSH2 0x1200 JUMP JUMPDEST PUSH2 0x1ADA DUP7 DUP3 PUSH2 0x2884 JUMP JUMPDEST SWAP3 POP PUSH2 0x1AE6 DUP7 DUP5 PUSH2 0x2695 JUMP JUMPDEST SWAP4 POP POP POP SWAP3 POP SWAP3 SWAP1 POP JUMP JUMPDEST PUSH1 0x4 SLOAD DUP4 SUB PUSH2 0x1BCB JUMPI CALLER PUSH1 0x0 SWAP1 DUP2 MSTORE PUSH1 0x13 PUSH1 0x20 MSTORE PUSH1 0x40 SWAP1 KECCAK256 PUSH1 0x3 ADD SLOAD DUP3 GT ISZERO PUSH2 0x1B2C JUMPI PUSH1 0x40 MLOAD PUSH3 0x461BCD PUSH1 0xE5 SHL DUP2 MSTORE PUSH1 0x4 ADD PUSH2 0xF7D SWAP1 PUSH2 0x554E JUMP JUMPDEST CALLER PUSH1 0x0 SWAP1 DUP2 MSTORE PUSH1 0x13 PUSH1 0x20 MSTORE PUSH1 0x40 DUP2 KECCAK256 PUSH1 0x3 ADD DUP1 SLOAD DUP5 SWAP3 SWAP1 PUSH2 0x1B4E SWAP1 DUP5 SWAP1 PUSH2 0x4E20 JUMP JUMPDEST SWAP1 SWAP2 SSTORE POP POP PUSH1 0x40 MLOAD PUSH1 0x0 SWAP1 CALLER SWAP1 DUP5 SWAP1 PUSH2 0x1B66 SWAP1 PUSH2 0x555E JUMP JUMPDEST PUSH1 0x0 PUSH1 0x40 MLOAD DUP1 DUP4 SUB DUP2 DUP6 DUP8 GAS CALL SWAP3 POP POP POP RETURNDATASIZE DUP1 PUSH1 0x0 DUP2 EQ PUSH2 0x1BA3 JUMPI PUSH1 0x40 MLOAD SWAP2 POP PUSH1 0x1F NOT PUSH1 0x3F RETURNDATASIZE ADD AND DUP3 ADD PUSH1 0x40 MSTORE RETURNDATASIZE DUP3 MSTORE RETURNDATASIZE PUSH1 0x0 PUSH1 0x20 DUP5 ADD RETURNDATACOPY PUSH2 0x1BA8 JUMP JUMPDEST PUSH1 0x60 SWAP2 POP JUMPDEST POP POP SWAP1 POP DUP1 PUSH2 0x1BC9 JUMPI PUSH1 0x40 MLOAD PUSH3 0x461BCD PUSH1 0xE5 SHL DUP2 MSTORE PUSH1 0x4 ADD PUSH2 0xF7D SWAP1 PUSH2 0x559D JUMP JUMPDEST POP JUMPDEST PUSH1 0x5 SLOAD DUP4 SUB PUSH2 0x1CA5 JUMPI CALLER PUSH1 0x0 SWAP1 DUP2 MSTORE PUSH1 0x13 PUSH1 0x20 MSTORE PUSH1 0x40 SWAP1 KECCAK256 PUSH1 0x4 ADD SLOAD DUP3 GT ISZERO PUSH2 0x1C06 JUMPI PUSH1 0x40 MLOAD PUSH3 0x461BCD PUSH1 0xE5 SHL DUP2 MSTORE PUSH1 0x4 ADD PUSH2 0xF7D SWAP1 PUSH2 0x554E JUMP JUMPDEST CALLER PUSH1 0x0 SWAP1 DUP2 MSTORE PUSH1 0x13 PUSH1 0x20 MSTORE PUSH1 0x40 DUP2 KECCAK256 PUSH1 0x4 ADD DUP1 SLOAD DUP5 SWAP3 SWAP1 PUSH2 0x1C28 SWAP1 DUP5 SWAP1 PUSH2 0x4E20 JUMP JUMPDEST SWAP1 SWAP2 SSTORE POP POP PUSH1 0x40 MLOAD PUSH1 0x0 SWAP1 CALLER SWAP1 DUP5 SWAP1 PUSH2 0x1C40 SWAP1 PUSH2 0x555E JUMP JUMPDEST PUSH1 0x0 PUSH1 0x40 MLOAD DUP1 DUP4 SUB DUP2 DUP6 DUP8 GAS CALL SWAP3 POP POP POP RETURNDATASIZE DUP1 PUSH1 0x0 DUP2 EQ PUSH2 0x1C7D JUMPI PUSH1 0x40 MLOAD SWAP2 POP PUSH1 0x1F NOT PUSH1 0x3F RETURNDATASIZE ADD AND DUP3 ADD PUSH1 0x40 MSTORE RETURNDATASIZE DUP3 MSTORE RETURNDATASIZE PUSH1 0x0 PUSH1 0x20 DUP5 ADD RETURNDATACOPY PUSH2 0x1C82 JUMP JUMPDEST PUSH1 0x60 SWAP2 POP JUMPDEST POP POP SWAP1 POP DUP1 PUSH2 0x1CA3 JUMPI PUSH1 0x40 MLOAD PUSH3 0x461BCD PUSH1 0xE5 SHL DUP2 MSTORE PUSH1 0x4 ADD PUSH2 0xF7D SWAP1 PUSH2 0x559D JUMP JUMPDEST POP JUMPDEST DUP3 PUSH1 0x3 SUB PUSH2 0x1D96 JUMPI CALLER PUSH1 0x0 SWAP1 DUP2 MSTORE PUSH1 0x13 PUSH1 0x20 MSTORE PUSH1 0x40 SWAP1 KECCAK256 PUSH1 0x5 ADD SLOAD DUP3 GT ISZERO PUSH2 0x1CDF JUMPI PUSH1 0x40 MLOAD PUSH3 0x461BCD PUSH1 0xE5 SHL DUP2 MSTORE PUSH1 0x4 ADD PUSH2 0xF7D SWAP1 PUSH2 0x554E JUMP JUMPDEST CALLER PUSH1 0x0 SWAP1 DUP2 MSTORE PUSH1 0x13 PUSH1 0x20 MSTORE PUSH1 0x40 DUP2 KECCAK256 PUSH1 0x5 ADD DUP1 SLOAD DUP5 SWAP3 SWAP1 PUSH2 0x1D01 SWAP1 DUP5 SWAP1 PUSH2 0x4E20 JUMP JUMPDEST SWAP1 SWAP2 SSTORE POP POP PUSH1 0x2 SLOAD PUSH1 0x40 MLOAD PUSH32 0xA9059CBB00000000000000000000000000000000000000000000000000000000 DUP2 MSTORE PUSH1 0x1 PUSH1 0x1 PUSH1 0xA0 SHL SUB SWAP1 SWAP2 AND SWAP1 PUSH4 0xA9059CBB SWAP1 PUSH2 0x1D51 SWAP1 CALLER SWAP1 DUP7 SWAP1 PUSH1 0x4 ADD PUSH2 0x55AD JUMP JUMPDEST PUSH1 0x20 PUSH1 0x40 MLOAD DUP1 DUP4 SUB DUP2 PUSH1 0x0 DUP8 GAS CALL ISZERO DUP1 ISZERO PUSH2 0x1D70 JUMPI RETURNDATASIZE PUSH1 0x0 DUP1 RETURNDATACOPY RETURNDATASIZE PUSH1 0x0 REVERT JUMPDEST POP POP POP POP PUSH1 0x40 MLOAD RETURNDATASIZE PUSH1 0x1F NOT PUSH1 0x1F DUP3 ADD AND DUP3 ADD DUP1 PUSH1 0x40 MSTORE POP DUP2 ADD SWAP1 PUSH2 0x1D94 SWAP2 SWAP1 PUSH2 0x4F4C JUMP JUMPDEST POP JUMPDEST PUSH1 0x0 DUP4 DUP4 CALLER PUSH1 0x40 MLOAD PUSH1 0x20 ADD PUSH2 0x1DAD SWAP4 SWAP3 SWAP2 SWAP1 PUSH2 0x55BB JUMP JUMPDEST PUSH1 0x40 MLOAD PUSH1 0x20 DUP2 DUP4 SUB SUB DUP2 MSTORE SWAP1 PUSH1 0x40 MSTORE SWAP1 POP PUSH1 0x0 PUSH1 0xB SLOAD DUP3 PUSH1 0x40 MLOAD PUSH1 0x20 ADD PUSH2 0x1DD5 SWAP3 SWAP2 SWAP1 PUSH2 0x55E3 JUMP JUMPDEST PUSH1 0x40 MLOAD PUSH1 0x20 DUP2 DUP4 SUB SUB DUP2 MSTORE SWAP1 PUSH1 0x40 MSTORE SWAP1 POP PUSH1 0x4 SLOAD CHAINID SUB PUSH2 0x1DF9 JUMPI PUSH2 0x1DF9 DUP2 DUP5 PUSH2 0x3751 JUMP JUMPDEST PUSH1 0x5 SLOAD CHAINID SUB PUSH2 0x130A JUMPI PUSH2 0x130A DUP2 DUP5 PUSH2 0x3863 JUMP JUMPDEST PUSH1 0x17 PUSH1 0x20 MSTORE DUP2 PUSH1 0x0 MSTORE PUSH1 0x40 PUSH1 0x0 KECCAK256 DUP2 DUP2 SLOAD DUP2 LT PUSH2 0x1E28 JUMPI PUSH1 0x0 DUP1 REVERT JUMPDEST PUSH1 0x0 SWAP2 DUP3 MSTORE PUSH1 0x20 SWAP1 SWAP2 KECCAK256 PUSH1 0x7 SWAP1 SWAP2 MUL ADD DUP1 SLOAD PUSH1 0x1 DUP3 ADD SLOAD PUSH1 0x5 DUP4 ADD SLOAD PUSH1 0x6 SWAP1 SWAP4 ADD SLOAD PUSH1 0x1 PUSH1 0x1 PUSH1 0xA0 SHL SUB SWAP1 SWAP3 AND SWAP5 POP SWAP3 POP PUSH1 0xFF SWAP1 SWAP2 AND SWAP1 DUP5 JUMP JUMPDEST PUSH1 0x11 DUP1 SLOAD PUSH2 0x1E6F SWAP1 PUSH2 0x518E JUMP JUMPDEST DUP1 PUSH1 0x1F ADD PUSH1 0x20 DUP1 SWAP2 DIV MUL PUSH1 0x20 ADD PUSH1 0x40 MLOAD SWAP1 DUP2 ADD PUSH1 0x40 MSTORE DUP1 SWAP3 SWAP2 SWAP1 DUP2 DUP2 MSTORE PUSH1 0x20 ADD DUP3 DUP1 SLOAD PUSH2 0x1E9B SWAP1 PUSH2 0x518E JUMP JUMPDEST DUP1 ISZERO PUSH2 0x1EE8 JUMPI DUP1 PUSH1 0x1F LT PUSH2 0x1EBD JUMPI PUSH2 0x100 DUP1 DUP4 SLOAD DIV MUL DUP4 MSTORE SWAP2 PUSH1 0x20 ADD SWAP2 PUSH2 0x1EE8 JUMP JUMPDEST DUP3 ADD SWAP2 SWAP1 PUSH1 0x0 MSTORE PUSH1 0x20 PUSH1 0x0 KECCAK256 SWAP1 JUMPDEST DUP2 SLOAD DUP2 MSTORE SWAP1 PUSH1 0x1 ADD SWAP1 PUSH1 0x20 ADD DUP1 DUP4 GT PUSH2 0x1ECB JUMPI DUP3 SWAP1 SUB PUSH1 0x1F AND DUP3 ADD SWAP2 JUMPDEST POP POP POP POP POP DUP2 JUMP JUMPDEST PUSH1 0x0 DUP3 ISZERO PUSH2 0x1EFF JUMPI POP CALLVALUE PUSH2 0x1F92 JUMP JUMPDEST POP PUSH1 0x2 SLOAD PUSH1 0x40 MLOAD PUSH32 0x23B872DD00000000000000000000000000000000000000000000000000000000 DUP2 MSTORE DUP5 SWAP2 PUSH1 0x1 PUSH1 0x1 PUSH1 0xA0 SHL SUB AND SWAP1 PUSH4 0x23B872DD SWAP1 PUSH2 0x1F4D SWAP1 CALLER SWAP1 ADDRESS SWAP1 DUP7 SWAP1 PUSH1 0x4 ADD PUSH2 0x5603 JUMP JUMPDEST PUSH1 0x20 PUSH1 0x40 MLOAD DUP1 DUP4 SUB DUP2 PUSH1 0x0 DUP8 GAS CALL ISZERO DUP1 ISZERO PUSH2 0x1F6C JUMPI RETURNDATASIZE PUSH1 0x0 DUP1 RETURNDATACOPY RETURNDATASIZE PUSH1 0x0 REVERT JUMPDEST POP POP POP POP PUSH1 0x40 MLOAD RETURNDATASIZE PUSH1 0x1F NOT PUSH1 0x1F DUP3 ADD AND DUP3 ADD DUP1 PUSH1 0x40 MSTORE POP DUP2 ADD SWAP1 PUSH2 0x1F90 SWAP2 SWAP1 PUSH2 0x4F4C JUMP JUMPDEST POP JUMPDEST PUSH2 0x1F9E DUP2 DUP5 CALLER DUP6 PUSH2 0x393F JUMP JUMPDEST POP POP POP POP JUMP JUMPDEST PUSH1 0x0 DUP1 SLOAD PUSH1 0x40 MLOAD PUSH32 0x77B03E0D00000000000000000000000000000000000000000000000000000000 DUP2 MSTORE PUSH1 0x1 PUSH1 0x1 PUSH1 0xA0 SHL SUB SWAP1 SWAP2 AND SWAP1 PUSH4 0x77B03E0D SWAP1 PUSH2 0x1FEE SWAP1 DUP6 SWAP1 PUSH1 0x4 ADD PUSH2 0x418E JUMP JUMPDEST PUSH1 0x20 PUSH1 0x40 MLOAD DUP1 DUP4 SUB DUP2 DUP7 GAS STATICCALL ISZERO DUP1 ISZERO PUSH2 0x200B JUMPI RETURNDATASIZE PUSH1 0x0 DUP1 RETURNDATACOPY RETURNDATASIZE PUSH1 0x0 REVERT JUMPDEST POP POP POP POP PUSH1 0x40 MLOAD RETURNDATASIZE PUSH1 0x1F NOT PUSH1 0x1F DUP3 ADD AND DUP3 ADD DUP1 PUSH1 0x40 MSTORE POP DUP2 ADD SWAP1 PUSH2 0x1991 SWAP2 SWAP1 PUSH2 0x4E3E JUMP JUMPDEST PUSH1 0x12 DUP1 SLOAD PUSH2 0x1E6F SWAP1 PUSH2 0x518E JUMP JUMPDEST PUSH1 0xC SLOAD PUSH1 0x0 SWAP1 DUP2 MSTORE PUSH1 0x15 PUSH1 0x20 MSTORE PUSH1 0x40 SWAP1 KECCAK256 PUSH1 0x8 ADD SLOAD PUSH1 0xFF AND PUSH2 0x2070 JUMPI PUSH1 0x40 MLOAD PUSH3 0x461BCD PUSH1 0xE5 SHL DUP2 MSTORE PUSH1 0x4 ADD PUSH2 0xF7D SWAP1 PUSH2 0x4FD3 JUMP JUMPDEST PUSH1 0xC SLOAD PUSH1 0x0 SWAP1 DUP2 MSTORE PUSH1 0x14 PUSH1 0x20 SWAP1 DUP2 MSTORE PUSH1 0x40 DUP1 DUP4 KECCAK256 DUP6 DUP5 MSTORE SWAP1 SWAP2 MSTORE SWAP1 KECCAK256 PUSH1 0x6 ADD SLOAD CHAINID EQ PUSH2 0x20AE JUMPI PUSH1 0x40 MLOAD PUSH3 0x461BCD PUSH1 0xE5 SHL DUP2 MSTORE PUSH1 0x4 ADD PUSH2 0xF7D SWAP1 PUSH2 0x5017 JUMP JUMPDEST PUSH1 0xC SLOAD PUSH1 0x0 SWAP1 DUP2 MSTORE PUSH1 0x14 PUSH1 0x20 SWAP1 DUP2 MSTORE PUSH1 0x40 DUP1 DUP4 KECCAK256 DUP6 DUP5 MSTORE SWAP1 SWAP2 MSTORE SWAP1 KECCAK256 SLOAD PUSH1 0x1 PUSH1 0x1 PUSH1 0xA0 SHL SUB AND CALLER EQ PUSH2 0x20F2 JUMPI PUSH1 0x40 MLOAD PUSH3 0x461BCD PUSH1 0xE5 SHL DUP2 MSTORE PUSH1 0x4 ADD PUSH2 0xF7D SWAP1 PUSH2 0x505B JUMP JUMPDEST PUSH1 0xC SLOAD PUSH1 0x0 SWAP1 DUP2 MSTORE PUSH1 0x14 PUSH1 0x20 SWAP1 DUP2 MSTORE PUSH1 0x40 DUP1 DUP4 KECCAK256 DUP6 DUP5 MSTORE SWAP1 SWAP2 MSTORE SWAP1 KECCAK256 PUSH1 0x5 ADD SLOAD PUSH1 0xFF AND ISZERO PUSH2 0x2132 JUMPI PUSH1 0x40 MLOAD PUSH3 0x461BCD PUSH1 0xE5 SHL DUP2 MSTORE PUSH1 0x4 ADD PUSH2 0xF7D SWAP1 PUSH2 0x5652 JUMP JUMPDEST PUSH1 0x0 PUSH2 0x213D DUP4 PUSH2 0xBC0 JUMP JUMPDEST SWAP1 POP DUP1 ISZERO PUSH2 0x215D JUMPI PUSH1 0x40 MLOAD PUSH3 0x461BCD PUSH1 0xE5 SHL DUP2 MSTORE PUSH1 0x4 ADD PUSH2 0xF7D SWAP1 PUSH2 0x5696 JUMP JUMPDEST PUSH1 0x0 PUSH1 0x15 PUSH1 0x0 PUSH1 0xC SLOAD DUP2 MSTORE PUSH1 0x20 ADD SWAP1 DUP2 MSTORE PUSH1 0x20 ADD PUSH1 0x0 KECCAK256 PUSH1 0x4 ADD SLOAD SWAP1 POP PUSH1 0x0 PUSH2 0x21A3 PUSH1 0x40 MLOAD DUP1 PUSH1 0x40 ADD PUSH1 0x40 MSTORE DUP1 PUSH1 0x6 DUP2 MSTORE PUSH1 0x20 ADD PUSH6 0x3130B233B2B9 PUSH1 0xD1 SHL DUP2 MSTORE POP PUSH2 0xC6A JUMP JUMPDEST PUSH2 0x21B5 DUP4 PUSH8 0xDE0B6B3A7640000 PUSH2 0x4F6D JUMP JUMPDEST PUSH2 0x21BF SWAP2 SWAP1 PUSH2 0x4E75 JUMP JUMPDEST SWAP1 POP PUSH1 0x64 PUSH2 0x21CE DUP3 PUSH1 0x1E PUSH2 0x4F6D JUMP JUMPDEST PUSH2 0x21D8 SWAP2 SWAP1 PUSH2 0x4E75 JUMP JUMPDEST CALLER PUSH1 0x0 SWAP1 DUP2 MSTORE PUSH1 0x13 PUSH1 0x20 MSTORE PUSH1 0x40 DUP2 KECCAK256 PUSH1 0x5 ADD DUP1 SLOAD SWAP1 SWAP2 SWAP1 PUSH2 0x21FA SWAP1 DUP5 SWAP1 PUSH2 0x4F8C JUMP JUMPDEST SWAP1 SWAP2 SSTORE POP POP PUSH1 0xC SLOAD PUSH1 0x0 SWAP1 DUP2 MSTORE PUSH1 0x14 PUSH1 0x20 SWAP1 DUP2 MSTORE PUSH1 0x40 DUP1 DUP4 KECCAK256 DUP9 DUP5 MSTORE SWAP1 SWAP2 MSTORE SWAP1 KECCAK256 PUSH1 0x5 ADD DUP1 SLOAD PUSH1 0xFF NOT AND PUSH1 0x1 OR SWAP1 SSTORE PUSH2 0x130A PUSH1 0x64 PUSH2 0x2239 DUP4 PUSH1 0x1E PUSH2 0x4F6D JUMP JUMPDEST PUSH2 0x2243 SWAP2 SWAP1 PUSH2 0x4E75 JUMP JUMPDEST PUSH1 0x0 CALLER DUP8 PUSH2 0x393F JUMP JUMPDEST PUSH2 0x2254 PUSH2 0x3FBB JUMP JUMPDEST PUSH1 0xC SLOAD PUSH1 0x0 SWAP1 DUP2 MSTORE PUSH1 0x15 PUSH1 0x20 MSTORE PUSH1 0x40 SWAP1 DUP2 SWAP1 KECCAK256 DUP2 MLOAD PUSH2 0x100 DUP2 ADD SWAP1 SWAP3 MSTORE DUP1 SLOAD DUP3 SWAP1 DUP3 SWAP1 PUSH2 0x2280 SWAP1 PUSH2 0x518E JUMP JUMPDEST DUP1 PUSH1 0x1F ADD PUSH1 0x20 DUP1 SWAP2 DIV MUL PUSH1 0x20 ADD PUSH1 0x40 MLOAD SWAP1 DUP2 ADD PUSH1 0x40 MSTORE DUP1 SWAP3 SWAP2 SWAP1 DUP2 DUP2 MSTORE PUSH1 0x20 ADD DUP3 DUP1 SLOAD PUSH2 0x22AC SWAP1 PUSH2 0x518E JUMP JUMPDEST DUP1 ISZERO PUSH2 0x22F9 JUMPI DUP1 PUSH1 0x1F LT PUSH2 0x22CE JUMPI PUSH2 0x100 DUP1 DUP4 SLOAD DIV MUL DUP4 MSTORE SWAP2 PUSH1 0x20 ADD SWAP2 PUSH2 0x22F9 JUMP JUMPDEST DUP3 ADD SWAP2 SWAP1 PUSH1 0x0 MSTORE PUSH1 0x20 PUSH1 0x0 KECCAK256 SWAP1 JUMPDEST DUP2 SLOAD DUP2 MSTORE SWAP1 PUSH1 0x1 ADD SWAP1 PUSH1 0x20 ADD DUP1 DUP4 GT PUSH2 0x22DC JUMPI DUP3 SWAP1 SUB PUSH1 0x1F AND DUP3 ADD SWAP2 JUMPDEST POP POP POP POP POP DUP2 MSTORE PUSH1 0x20 ADD PUSH1 0x1 DUP3 ADD SLOAD DUP2 MSTORE PUSH1 0x20 ADD PUSH1 0x2 DUP3 ADD SLOAD DUP2 MSTORE PUSH1 0x20 ADD PUSH1 0x3 DUP3 ADD SLOAD DUP2 MSTORE PUSH1 0x20 ADD PUSH1 0x4 DUP3 ADD SLOAD DUP2 MSTORE PUSH1 0x20 ADD PUSH1 0x5 DUP3 ADD PUSH1 0x3 DUP1 PUSH1 0x20 MUL PUSH1 0x40 MLOAD SWAP1 DUP2 ADD PUSH1 0x40 MSTORE DUP1 SWAP3 SWAP2 SWAP1 DUP3 PUSH1 0x3 DUP1 ISZERO PUSH2 0x2366 JUMPI PUSH1 0x20 MUL DUP3 ADD SWAP2 JUMPDEST DUP2 SLOAD DUP2 MSTORE PUSH1 0x20 ADD SWAP1 PUSH1 0x1 ADD SWAP1 DUP1 DUP4 GT PUSH2 0x2352 JUMPI JUMPDEST POP POP POP SWAP2 DUP4 MSTORE POP POP PUSH1 0x8 DUP3 ADD SLOAD PUSH1 0xFF AND ISZERO ISZERO PUSH1 0x20 DUP1 DUP4 ADD SWAP2 SWAP1 SWAP2 MSTORE PUSH1 0x40 DUP1 MLOAD PUSH1 0x60 DUP2 ADD DUP3 MSTORE PUSH1 0x9 DUP6 ADD SLOAD DUP2 MSTORE PUSH1 0xA DUP6 ADD SLOAD SWAP3 DUP2 ADD SWAP3 SWAP1 SWAP3 MSTORE PUSH1 0xB SWAP1 SWAP4 ADD SLOAD DUP2 DUP5 ADD MSTORE SWAP2 ADD MSTORE SWAP2 SWAP1 POP JUMP JUMPDEST PUSH1 0x0 DUP1 SLOAD PUSH1 0x40 MLOAD PUSH32 0xA792765F00000000000000000000000000000000000000000000000000000000 DUP2 MSTORE PUSH1 0x60 SWAP3 SWAP2 PUSH1 0x1 PUSH1 0x1 PUSH1 0xA0 SHL SUB AND SWAP1 PUSH4 0xA792765F SWAP1 PUSH2 0x23FE SWAP1 DUP8 SWAP1 DUP8 SWAP1 PUSH1 0x4 ADD PUSH2 0x50F3 JUMP JUMPDEST PUSH1 0x0 PUSH1 0x40 MLOAD DUP1 DUP4 SUB DUP2 DUP7 GAS STATICCALL ISZERO DUP1 ISZERO PUSH2 0x241B JUMPI RETURNDATASIZE PUSH1 0x0 DUP1 RETURNDATACOPY RETURNDATASIZE PUSH1 0x0 REVERT JUMPDEST POP POP POP POP PUSH1 0x40 MLOAD RETURNDATASIZE PUSH1 0x0 DUP3 RETURNDATACOPY PUSH1 0x1F RETURNDATASIZE SWAP1 DUP2 ADD PUSH1 0x1F NOT AND DUP3 ADD PUSH1 0x40 MSTORE PUSH2 0x2443 SWAP2 SWAP1 DUP2 ADD SWAP1 PUSH2 0x56FE JUMP JUMPDEST SWAP1 SWAP7 SWAP1 SWAP6 POP SWAP4 POP POP POP POP JUMP JUMPDEST PUSH1 0x60 PUSH1 0x0 DUP1 JUMPDEST PUSH1 0xC SLOAD PUSH1 0x0 SWAP1 DUP2 MSTORE PUSH1 0x17 PUSH1 0x20 MSTORE PUSH1 0x40 SWAP1 KECCAK256 SLOAD DUP2 LT ISZERO PUSH2 0x24DD JUMPI DUP4 PUSH1 0x1 PUSH1 0x1 PUSH1 0xA0 SHL SUB AND PUSH1 0x17 PUSH1 0x0 PUSH1 0xC SLOAD DUP2 MSTORE PUSH1 0x20 ADD SWAP1 DUP2 MSTORE PUSH1 0x20 ADD PUSH1 0x0 KECCAK256 DUP3 DUP2 SLOAD DUP2 LT PUSH2 0x249E JUMPI PUSH2 0x249E PUSH2 0x5395 JUMP JUMPDEST PUSH1 0x0 SWAP2 DUP3 MSTORE PUSH1 0x20 SWAP1 SWAP2 KECCAK256 PUSH1 0x7 SWAP1 SWAP2 MUL ADD SLOAD PUSH1 0x1 PUSH1 0x1 PUSH1 0xA0 SHL SUB AND SUB PUSH2 0x24CB JUMPI DUP2 PUSH2 0x24C7 DUP2 PUSH2 0x53EF JUMP JUMPDEST SWAP3 POP POP JUMPDEST DUP1 PUSH2 0x24D5 DUP2 PUSH2 0x53EF JUMP JUMPDEST SWAP2 POP POP PUSH2 0x2455 JUMP JUMPDEST POP PUSH1 0x0 DUP2 PUSH8 0xFFFFFFFFFFFFFFFF DUP2 GT ISZERO PUSH2 0x24F9 JUMPI PUSH2 0x24F9 PUSH2 0x419C JUMP JUMPDEST PUSH1 0x40 MLOAD SWAP1 DUP1 DUP3 MSTORE DUP1 PUSH1 0x20 MUL PUSH1 0x20 ADD DUP3 ADD PUSH1 0x40 MSTORE DUP1 ISZERO PUSH2 0x2532 JUMPI DUP2 PUSH1 0x20 ADD JUMPDEST PUSH2 0x251F PUSH2 0x4029 JUMP JUMPDEST DUP2 MSTORE PUSH1 0x20 ADD SWAP1 PUSH1 0x1 SWAP1 SUB SWAP1 DUP2 PUSH2 0x2517 JUMPI SWAP1 POP JUMPDEST POP SWAP1 POP PUSH1 0x0 DUP1 JUMPDEST PUSH1 0xC SLOAD PUSH1 0x0 SWAP1 DUP2 MSTORE PUSH1 0x17 PUSH1 0x20 MSTORE PUSH1 0x40 SWAP1 KECCAK256 SLOAD DUP2 LT ISZERO PUSH2 0x268B JUMPI DUP6 PUSH1 0x1 PUSH1 0x1 PUSH1 0xA0 SHL SUB AND PUSH1 0x17 PUSH1 0x0 PUSH1 0xC SLOAD DUP2 MSTORE PUSH1 0x20 ADD SWAP1 DUP2 MSTORE PUSH1 0x20 ADD PUSH1 0x0 KECCAK256 DUP3 DUP2 SLOAD DUP2 LT PUSH2 0x2582 JUMPI PUSH2 0x2582 PUSH2 0x5395 JUMP JUMPDEST PUSH1 0x0 SWAP2 DUP3 MSTORE PUSH1 0x20 SWAP1 SWAP2 KECCAK256 PUSH1 0x7 SWAP1 SWAP2 MUL ADD SLOAD PUSH1 0x1 PUSH1 0x1 PUSH1 0xA0 SHL SUB AND SUB PUSH2 0x266C JUMPI PUSH1 0xC SLOAD PUSH1 0x0 SWAP1 DUP2 MSTORE PUSH1 0x17 PUSH1 0x20 MSTORE PUSH1 0x40 SWAP1 KECCAK256 DUP1 SLOAD DUP3 SWAP1 DUP2 LT PUSH2 0x25C4 JUMPI PUSH2 0x25C4 PUSH2 0x5395 JUMP JUMPDEST PUSH1 0x0 SWAP2 DUP3 MSTORE PUSH1 0x20 SWAP2 DUP3 SWAP1 KECCAK256 PUSH1 0x40 DUP1 MLOAD PUSH1 0xA0 DUP2 ADD DUP3 MSTORE PUSH1 0x7 SWAP4 SWAP1 SWAP4 MUL SWAP1 SWAP2 ADD DUP1 SLOAD PUSH1 0x1 PUSH1 0x1 PUSH1 0xA0 SHL SUB AND DUP4 MSTORE PUSH1 0x1 DUP2 ADD SLOAD SWAP4 DUP4 ADD SWAP4 SWAP1 SWAP4 MSTORE DUP1 MLOAD PUSH1 0x60 DUP2 ADD DUP1 DUP4 MSTORE SWAP3 SWAP4 SWAP3 SWAP2 DUP5 ADD SWAP2 PUSH1 0x2 DUP5 ADD SWAP1 PUSH1 0x3 SWAP1 DUP3 DUP5 JUMPDEST DUP2 SLOAD DUP2 MSTORE PUSH1 0x20 ADD SWAP1 PUSH1 0x1 ADD SWAP1 DUP1 DUP4 GT PUSH2 0x2616 JUMPI POP POP POP SWAP2 DUP4 MSTORE POP POP PUSH1 0x5 DUP3 ADD SLOAD PUSH1 0xFF AND ISZERO ISZERO PUSH1 0x20 DUP3 ADD MSTORE PUSH1 0x6 SWAP1 SWAP2 ADD SLOAD PUSH1 0x40 SWAP1 SWAP2 ADD MSTORE DUP4 MLOAD DUP5 SWAP1 DUP5 SWAP1 DUP2 LT PUSH2 0x2660 JUMPI PUSH2 0x2660 PUSH2 0x5395 JUMP JUMPDEST PUSH1 0x20 MUL PUSH1 0x20 ADD ADD DUP2 SWAP1 MSTORE POP JUMPDEST PUSH2 0x2677 PUSH1 0x1 DUP4 PUSH2 0x4F8C JUMP JUMPDEST SWAP2 POP DUP1 PUSH2 0x2683 DUP2 PUSH2 0x53EF JUMP JUMPDEST SWAP2 POP POP PUSH2 0x2539 JUMP JUMPDEST POP SWAP1 SWAP5 SWAP4 POP POP POP POP JUMP JUMPDEST PUSH1 0x0 SLOAD PUSH1 0x40 MLOAD PUSH32 0xC5958AF900000000000000000000000000000000000000000000000000000000 DUP2 MSTORE PUSH1 0x60 SWAP2 PUSH1 0x1 PUSH1 0x1 PUSH1 0xA0 SHL SUB AND SWAP1 PUSH4 0xC5958AF9 SWAP1 PUSH2 0x26E1 SWAP1 DUP7 SWAP1 DUP7 SWAP1 PUSH1 0x4 ADD PUSH2 0x50F3 JUMP JUMPDEST PUSH1 0x0 PUSH1 0x40 MLOAD DUP1 DUP4 SUB DUP2 DUP7 GAS STATICCALL ISZERO DUP1 ISZERO PUSH2 0x26FE JUMPI RETURNDATASIZE PUSH1 0x0 DUP1 RETURNDATACOPY RETURNDATASIZE PUSH1 0x0 REVERT JUMPDEST POP POP POP POP PUSH1 0x40 MLOAD RETURNDATASIZE PUSH1 0x0 DUP3 RETURNDATACOPY PUSH1 0x1F RETURNDATASIZE SWAP1 DUP2 ADD PUSH1 0x1F NOT AND DUP3 ADD PUSH1 0x40 MSTORE PUSH2 0x198E SWAP2 SWAP1 DUP2 ADD SWAP1 PUSH2 0x575F JUMP JUMPDEST PUSH1 0x15 PUSH1 0x20 MSTORE PUSH1 0x0 SWAP1 DUP2 MSTORE PUSH1 0x40 SWAP1 KECCAK256 DUP1 SLOAD DUP2 SWAP1 PUSH2 0x2741 SWAP1 PUSH2 0x518E JUMP JUMPDEST DUP1 PUSH1 0x1F ADD PUSH1 0x20 DUP1 SWAP2 DIV MUL PUSH1 0x20 ADD PUSH1 0x40 MLOAD SWAP1 DUP2 ADD PUSH1 0x40 MSTORE DUP1 SWAP3 SWAP2 SWAP1 DUP2 DUP2 MSTORE PUSH1 0x20 ADD DUP3 DUP1 SLOAD PUSH2 0x276D SWAP1 PUSH2 0x518E JUMP JUMPDEST DUP1 ISZERO PUSH2 0x27BA JUMPI DUP1 PUSH1 0x1F LT PUSH2 0x278F JUMPI PUSH2 0x100 DUP1 DUP4 SLOAD DIV MUL DUP4 MSTORE SWAP2 PUSH1 0x20 ADD SWAP2 PUSH2 0x27BA JUMP JUMPDEST DUP3 ADD SWAP2 SWAP1 PUSH1 0x0 MSTORE PUSH1 0x20 PUSH1 0x0 KECCAK256 SWAP1 JUMPDEST DUP2 SLOAD DUP2 MSTORE SWAP1 PUSH1 0x1 ADD SWAP1 PUSH1 0x20 ADD DUP1 DUP4 GT PUSH2 0x279D JUMPI DUP3 SWAP1 SUB PUSH1 0x1F AND DUP3 ADD SWAP2 JUMPDEST POP POP POP POP PUSH1 0x1 DUP4 ADD SLOAD PUSH1 0x2 DUP5 ADD SLOAD PUSH1 0x3 DUP6 ADD SLOAD PUSH1 0x4 DUP7 ADD SLOAD PUSH1 0x8 DUP8 ADD SLOAD PUSH1 0x40 DUP1 MLOAD PUSH1 0x60 DUP2 ADD DUP3 MSTORE PUSH1 0x9 DUP11 ADD SLOAD DUP2 MSTORE PUSH1 0xA DUP11 ADD SLOAD PUSH1 0x20 DUP3 ADD MSTORE PUSH1 0xB SWAP1 SWAP10 ADD SLOAD SWAP1 DUP10 ADD MSTORE SWAP6 SWAP7 SWAP4 SWAP6 SWAP3 SWAP5 POP SWAP1 SWAP3 SWAP1 SWAP2 PUSH1 0xFF AND SWAP1 DUP8 JUMP JUMPDEST PUSH2 0x2816 PUSH2 0x405C JUMP JUMPDEST POP PUSH1 0x1 PUSH1 0x1 PUSH1 0xA0 SHL SUB SWAP1 DUP2 AND PUSH1 0x0 SWAP1 DUP2 MSTORE PUSH1 0x13 PUSH1 0x20 SWAP1 DUP2 MSTORE PUSH1 0x40 SWAP2 DUP3 SWAP1 KECCAK256 DUP3 MLOAD PUSH1 0x80 DUP2 ADD DUP5 MSTORE DUP2 SLOAD SWAP1 SWAP5 AND DUP5 MSTORE PUSH1 0x1 DUP2 ADD SLOAD DUP5 DUP4 ADD MSTORE PUSH1 0x2 DUP2 ADD SLOAD DUP5 DUP5 ADD MSTORE DUP3 MLOAD PUSH1 0x60 DUP2 DUP2 ADD DUP6 MSTORE PUSH1 0x3 DUP4 ADD SLOAD DUP3 MSTORE PUSH1 0x4 DUP4 ADD SLOAD SWAP4 DUP3 ADD SWAP4 SWAP1 SWAP4 MSTORE PUSH1 0x5 SWAP1 SWAP2 ADD SLOAD SWAP3 DUP2 ADD SWAP3 SWAP1 SWAP3 MSTORE DUP3 ADD MSTORE SWAP1 JUMP JUMPDEST PUSH1 0x0 DUP1 SLOAD PUSH1 0x40 MLOAD PUSH32 0xCE5E11BF00000000000000000000000000000000000000000000000000000000 DUP2 MSTORE PUSH1 0x1 PUSH1 0x1 PUSH1 0xA0 SHL SUB SWAP1 SWAP2 AND SWAP1 PUSH4 0xCE5E11BF SWAP1 PUSH2 0x28D0 SWAP1 DUP7 SWAP1 DUP7 SWAP1 PUSH1 0x4 ADD PUSH2 0x50F3 JUMP JUMPDEST PUSH1 0x20 PUSH1 0x40 MLOAD DUP1 DUP4 SUB DUP2 DUP7 GAS STATICCALL ISZERO DUP1 ISZERO PUSH2 0x28ED JUMPI RETURNDATASIZE PUSH1 0x0 DUP1 RETURNDATACOPY RETURNDATASIZE PUSH1 0x0 REVERT JUMPDEST POP POP POP POP PUSH1 0x40 MLOAD RETURNDATASIZE PUSH1 0x1F NOT PUSH1 0x1F DUP3 ADD AND DUP3 ADD DUP1 PUSH1 0x40 MSTORE POP DUP2 ADD SWAP1 PUSH2 0x198E SWAP2 SWAP1 PUSH2 0x4E3E JUMP JUMPDEST PUSH1 0x0 DUP1 PUSH1 0x0 JUMPDEST PUSH1 0xC SLOAD PUSH1 0x0 SWAP1 DUP2 MSTORE PUSH1 0x17 PUSH1 0x20 MSTORE PUSH1 0x40 SWAP1 KECCAK256 SLOAD DUP2 LT ISZERO PUSH2 0x2996 JUMPI PUSH1 0xC SLOAD PUSH1 0x0 SWAP1 DUP2 MSTORE PUSH1 0x17 PUSH1 0x20 MSTORE PUSH1 0x40 DUP2 KECCAK256 DUP1 SLOAD DUP4 SWAP1 DUP2 LT PUSH2 0x2953 JUMPI PUSH2 0x2953 PUSH2 0x5395 JUMP JUMPDEST SWAP1 PUSH1 0x0 MSTORE PUSH1 0x20 PUSH1 0x0 KECCAK256 SWAP1 PUSH1 0x7 MUL ADD PUSH1 0x1 ADD SLOAD SWAP1 POP PUSH2 0x2970 DUP2 PUSH2 0xBC0 JUMP JUMPDEST ISZERO PUSH2 0x2983 JUMPI PUSH2 0x2980 PUSH1 0x1 DUP5 PUSH2 0x4F8C JUMP JUMPDEST SWAP3 POP JUMPDEST POP DUP1 PUSH2 0x298E DUP2 PUSH2 0x53EF JUMP JUMPDEST SWAP2 POP POP PUSH2 0x2917 JUMP JUMPDEST POP SWAP2 SWAP1 POP JUMP JUMPDEST PUSH1 0x3 SLOAD PUSH1 0x1 PUSH1 0x1 PUSH1 0xA0 SHL SUB AND CALLER EQ PUSH2 0x29C6 JUMPI PUSH1 0x40 MLOAD PUSH3 0x461BCD PUSH1 0xE5 SHL DUP2 MSTORE PUSH1 0x4 ADD PUSH2 0xF7D SWAP1 PUSH2 0x57CE JUMP JUMPDEST PUSH1 0xC SLOAD PUSH1 0x0 SWAP1 DUP2 MSTORE PUSH1 0x15 PUSH1 0x20 MSTORE PUSH1 0x40 SWAP1 KECCAK256 PUSH1 0x8 ADD SLOAD PUSH1 0xFF AND ISZERO PUSH2 0x29FB JUMPI PUSH1 0x40 MLOAD PUSH3 0x461BCD PUSH1 0xE5 SHL DUP2 MSTORE PUSH1 0x4 ADD PUSH2 0xF7D SWAP1 PUSH2 0x5812 JUMP JUMPDEST PUSH1 0xC SLOAD PUSH1 0x0 SWAP1 DUP2 MSTORE PUSH1 0x15 PUSH1 0x20 MSTORE PUSH1 0x40 SWAP1 KECCAK256 PUSH1 0x3 ADD SLOAD TIMESTAMP LT ISZERO PUSH2 0x2A2F JUMPI PUSH1 0x40 MLOAD PUSH3 0x461BCD PUSH1 0xE5 SHL DUP2 MSTORE PUSH1 0x4 ADD PUSH2 0xF7D SWAP1 PUSH2 0x4FD3 JUMP JUMPDEST PUSH1 0x4 SLOAD CHAINID EQ PUSH2 0x2A50 JUMPI PUSH1 0x40 MLOAD PUSH3 0x461BCD PUSH1 0xE5 SHL DUP2 MSTORE PUSH1 0x4 ADD PUSH2 0xF7D SWAP1 PUSH2 0x5856 JUMP JUMPDEST PUSH1 0x0 PUSH1 0x1E PUSH1 0xE SLOAD CALLER DUP8 PUSH1 0x40 MLOAD PUSH1 0x20 ADD PUSH2 0x2A6B SWAP4 SWAP3 SWAP2 SWAP1 PUSH2 0x588E JUMP JUMPDEST PUSH1 0x40 MLOAD PUSH1 0x20 DUP2 DUP4 SUB SUB DUP2 MSTORE SWAP1 PUSH1 0x40 MSTORE DUP1 MLOAD SWAP1 PUSH1 0x20 ADD KECCAK256 PUSH1 0x0 SHR PUSH2 0x2A8E SWAP2 SWAP1 PUSH2 0x58C5 JUMP JUMPDEST SWAP1 POP PUSH1 0x0 PUSH1 0x1E PUSH1 0xE SLOAD CALLER DUP8 PUSH1 0x40 MLOAD PUSH1 0x20 ADD PUSH2 0x2AAB SWAP4 SWAP3 SWAP2 SWAP1 PUSH2 0x588E JUMP JUMPDEST PUSH1 0x40 MLOAD PUSH1 0x20 DUP2 DUP4 SUB SUB DUP2 MSTORE SWAP1 PUSH1 0x40 MSTORE DUP1 MLOAD SWAP1 PUSH1 0x20 ADD KECCAK256 PUSH1 0x0 SHR PUSH2 0x2ACE SWAP2 SWAP1 PUSH2 0x58C5 JUMP JUMPDEST SWAP1 POP PUSH1 0x0 PUSH1 0x1E PUSH1 0xE SLOAD CALLER DUP8 PUSH1 0x40 MLOAD PUSH1 0x20 ADD PUSH2 0x2AEB SWAP4 SWAP3 SWAP2 SWAP1 PUSH2 0x588E JUMP JUMPDEST PUSH1 0x40 MLOAD PUSH1 0x20 DUP2 DUP4 SUB SUB DUP2 MSTORE SWAP1 PUSH1 0x40 MSTORE DUP1 MLOAD SWAP1 PUSH1 0x20 ADD KECCAK256 PUSH1 0x0 SHR PUSH2 0x2B0E SWAP2 SWAP1 PUSH2 0x58C5 JUMP JUMPDEST PUSH1 0x40 DUP1 MLOAD PUSH1 0x60 DUP2 ADD DUP3 MSTORE DUP6 DUP2 MSTORE PUSH1 0x20 DUP1 DUP3 ADD DUP7 SWAP1 MSTORE DUP2 DUP4 ADD DUP5 SWAP1 MSTORE PUSH1 0xC DUP1 SLOAD PUSH1 0x0 SWAP1 DUP2 MSTORE PUSH1 0x15 SWAP1 SWAP3 MSTORE DUP4 DUP3 KECCAK256 PUSH1 0x8 ADD DUP1 SLOAD PUSH1 0xFF NOT AND PUSH1 0x1 OR SWAP1 SSTORE SLOAD DUP2 MSTORE SWAP2 SWAP1 SWAP2 KECCAK256 SWAP2 SWAP3 POP SWAP1 PUSH2 0x2B62 SWAP1 PUSH1 0x5 ADD DUP3 PUSH1 0x3 PUSH2 0x3F52 JUMP JUMPDEST POP PUSH2 0x1A8E PUSH1 0xC SLOAD DUP3 DUP8 PUSH2 0x3AEA JUMP JUMPDEST PUSH1 0x11 PUSH2 0x2B7C DUP4 DUP3 PUSH2 0x524A JUMP JUMPDEST POP PUSH1 0x12 PUSH2 0x2B89 DUP3 DUP3 PUSH2 0x524A JUMP JUMPDEST POP POP POP JUMP JUMPDEST PUSH1 0x3 SLOAD PUSH1 0x1 PUSH1 0x1 PUSH1 0xA0 SHL SUB AND CALLER EQ PUSH2 0x2BB8 JUMPI PUSH1 0x40 MLOAD PUSH3 0x461BCD PUSH1 0xE5 SHL DUP2 MSTORE PUSH1 0x4 ADD PUSH2 0xF7D SWAP1 PUSH2 0x590D JUMP JUMPDEST PUSH1 0x40 MLOAD SELFBALANCE SWAP1 PUSH1 0x0 SWAP1 CALLER SWAP1 DUP4 SWAP1 PUSH2 0x2BCD SWAP1 PUSH2 0x555E JUMP JUMPDEST PUSH1 0x0 PUSH1 0x40 MLOAD DUP1 DUP4 SUB DUP2 DUP6 DUP8 GAS CALL SWAP3 POP POP POP RETURNDATASIZE DUP1 PUSH1 0x0 DUP2 EQ PUSH2 0x2C0A JUMPI PUSH1 0x40 MLOAD SWAP2 POP PUSH1 0x1F NOT PUSH1 0x3F RETURNDATASIZE ADD AND DUP3 ADD PUSH1 0x40 MSTORE RETURNDATASIZE DUP3 MSTORE RETURNDATASIZE PUSH1 0x0 PUSH1 0x20 DUP5 ADD RETURNDATACOPY PUSH2 0x2C0F JUMP JUMPDEST PUSH1 0x60 SWAP2 POP JUMPDEST POP POP SWAP1 POP DUP1 PUSH2 0x2C30 JUMPI PUSH1 0x40 MLOAD PUSH3 0x461BCD PUSH1 0xE5 SHL DUP2 MSTORE PUSH1 0x4 ADD PUSH2 0xF7D SWAP1 PUSH2 0x5951 JUMP JUMPDEST POP POP JUMP JUMPDEST PUSH1 0x0 DUP1 SLOAD PUSH1 0x40 MLOAD PUSH32 0xE07C548600000000000000000000000000000000000000000000000000000000 DUP2 MSTORE PUSH1 0x1 PUSH1 0x1 PUSH1 0xA0 SHL SUB SWAP1 SWAP2 AND SWAP1 PUSH4 0xE07C5486 SWAP1 PUSH2 0x2C80 SWAP1 DUP7 SWAP1 DUP7 SWAP1 PUSH1 0x4 ADD PUSH2 0x50F3 JUMP JUMPDEST PUSH1 0x20 PUSH1 0x40 MLOAD DUP1 DUP4 SUB DUP2 DUP7 GAS STATICCALL ISZERO DUP1 ISZERO PUSH2 0x2C9D JUMPI RETURNDATASIZE PUSH1 0x0 DUP1 RETURNDATACOPY RETURNDATASIZE PUSH1 0x0 REVERT JUMPDEST POP POP POP POP PUSH1 0x40 MLOAD RETURNDATASIZE PUSH1 0x1F NOT PUSH1 0x1F DUP3 ADD AND DUP3 ADD DUP1 PUSH1 0x40 MSTORE POP DUP2 ADD SWAP1 PUSH2 0x198E SWAP2 SWAP1 PUSH2 0x596C JUMP JUMPDEST PUSH1 0x10 DUP1 SLOAD PUSH2 0x1E6F SWAP1 PUSH2 0x518E JUMP JUMPDEST PUSH1 0x0 DUP1 PUSH1 0x0 PUSH2 0x2CDC DUP6 PUSH2 0x1FA4 JUMP JUMPDEST SWAP1 POP DUP1 PUSH1 0x0 SUB PUSH2 0x2CF3 JUMPI PUSH1 0x0 DUP1 SWAP3 POP SWAP3 POP POP PUSH2 0x1200 JUMP JUMPDEST DUP1 PUSH2 0x2CFD DUP2 PUSH2 0x598D JUMP JUMPDEST SWAP2 POP PUSH1 0x1 SWAP1 POP PUSH1 0x0 DUP1 DUP4 DUP2 PUSH2 0x2D12 DUP11 DUP4 PUSH2 0x2884 JUMP JUMPDEST SWAP1 POP DUP9 DUP2 GT PUSH2 0x2D2D JUMPI PUSH1 0x0 DUP1 SWAP8 POP SWAP8 POP POP POP POP POP POP POP PUSH2 0x1200 JUMP JUMPDEST PUSH2 0x2D37 DUP11 DUP5 PUSH2 0x2884 JUMP JUMPDEST SWAP1 POP DUP9 DUP2 GT ISZERO PUSH2 0x2D46 JUMPI PUSH1 0x0 SWAP5 POP JUMPDEST DUP5 ISZERO PUSH2 0x2DF6 JUMPI PUSH1 0x2 PUSH2 0x2D58 DUP5 DUP5 PUSH2 0x4F8C JUMP JUMPDEST PUSH2 0x2D62 SWAP2 SWAP1 PUSH2 0x4E75 JUMP JUMPDEST SWAP4 POP PUSH2 0x2D6E DUP11 DUP6 PUSH2 0x2884 JUMP JUMPDEST SWAP1 POP DUP9 DUP2 GT ISZERO PUSH2 0x2DAF JUMPI PUSH1 0x0 PUSH2 0x2D89 DUP12 PUSH2 0xA6A PUSH1 0x1 DUP9 PUSH2 0x4E20 JUMP JUMPDEST SWAP1 POP DUP10 DUP2 GT PUSH2 0x2D9B JUMPI PUSH1 0x0 SWAP6 POP PUSH2 0x2DA9 JUMP JUMPDEST PUSH2 0x2DA6 PUSH1 0x1 DUP7 PUSH2 0x4E20 JUMP JUMPDEST SWAP3 POP JUMPDEST POP PUSH2 0x2D46 JUMP JUMPDEST PUSH1 0x0 PUSH2 0x2DC0 DUP12 PUSH2 0xA6A DUP8 PUSH1 0x1 PUSH2 0x4F8C JUMP JUMPDEST SWAP1 POP DUP10 DUP2 GT ISZERO PUSH2 0x2DE3 JUMPI PUSH1 0x0 SWAP6 POP DUP5 PUSH2 0x2DD8 DUP2 PUSH2 0x53EF JUMP JUMPDEST SWAP6 POP POP DUP1 SWAP2 POP PUSH2 0x2DA9 JUMP JUMPDEST PUSH2 0x2DEE DUP6 PUSH1 0x1 PUSH2 0x4F8C JUMP JUMPDEST SWAP4 POP POP PUSH2 0x2D46 JUMP JUMPDEST PUSH2 0x2E00 DUP11 DUP3 PUSH2 0x1901 JUMP JUMPDEST PUSH2 0x2E16 JUMPI PUSH1 0x1 DUP5 SWAP8 POP SWAP8 POP POP POP POP POP POP POP PUSH2 0x1200 JUMP JUMPDEST PUSH2 0x2E20 DUP11 DUP3 PUSH2 0x1901 JUMP JUMPDEST DUP1 ISZERO PUSH2 0x2E2B JUMPI POP DUP6 DUP5 LT JUMPDEST ISZERO PUSH2 0x2E4E JUMPI DUP4 PUSH2 0x2E3A DUP2 PUSH2 0x53EF JUMP JUMPDEST SWAP5 POP POP PUSH2 0x2E47 DUP11 DUP6 PUSH2 0x2884 JUMP JUMPDEST SWAP1 POP PUSH2 0x2E16 JUMP JUMPDEST DUP6 DUP5 EQ DUP1 ISZERO PUSH2 0x2E62 JUMPI POP PUSH2 0x2E62 DUP11 DUP3 PUSH2 0x1901 JUMP JUMPDEST ISZERO PUSH2 0x2E79 JUMPI PUSH1 0x0 DUP1 SWAP8 POP SWAP8 POP POP POP POP POP POP POP PUSH2 0x1200 JUMP JUMPDEST PUSH1 0x1 DUP5 SWAP8 POP SWAP8 POP POP POP POP POP POP POP PUSH2 0x1200 JUMP JUMPDEST PUSH1 0x1 SLOAD PUSH1 0x40 MLOAD PUSH32 0x87A475FD00000000000000000000000000000000000000000000000000000000 DUP2 MSTORE PUSH1 0x0 SWAP2 DUP3 SWAP2 DUP3 SWAP2 DUP3 SWAP2 PUSH1 0x1 PUSH1 0x1 PUSH1 0xA0 SHL SUB SWAP1 SWAP2 AND SWAP1 PUSH4 0x87A475FD SWAP1 PUSH2 0x2EDD SWAP1 DUP9 SWAP1 PUSH1 0x4 ADD PUSH2 0x418E JUMP JUMPDEST PUSH1 0x20 PUSH1 0x40 MLOAD DUP1 DUP4 SUB DUP2 DUP7 GAS STATICCALL ISZERO DUP1 ISZERO PUSH2 0x2EFA JUMPI RETURNDATASIZE PUSH1 0x0 DUP1 RETURNDATACOPY RETURNDATASIZE PUSH1 0x0 REVERT JUMPDEST POP POP POP POP PUSH1 0x40 MLOAD RETURNDATASIZE PUSH1 0x1F NOT PUSH1 0x1F DUP3 ADD AND DUP3 ADD DUP1 PUSH1 0x40 MSTORE POP DUP2 ADD SWAP1 PUSH2 0x2F1E SWAP2 SWAP1 PUSH2 0x4E3E JUMP JUMPDEST SWAP1 POP PUSH1 0x60 PUSH2 0x2F31 DUP3 PUSH2 0x917 TIMESTAMP PUSH1 0x1 PUSH2 0x4F8C JUMP JUMPDEST SWAP5 POP SWAP1 POP PUSH1 0x0 DUP5 SWAP1 SUB PUSH2 0x2F51 JUMPI PUSH1 0x0 DUP1 PUSH2 0x194 SWAP5 POP SWAP5 POP SWAP5 POP POP POP PUSH2 0x2F66 JUMP JUMPDEST PUSH1 0x0 PUSH2 0x2F5C DUP3 PUSH2 0x3B27 JUMP JUMPDEST SWAP6 POP PUSH1 0xC8 SWAP4 POP POP POP POP JUMPDEST SWAP2 SWAP4 SWAP1 SWAP3 POP JUMP JUMPDEST PUSH1 0x60 DUP1 PUSH1 0x0 DUP1 PUSH2 0x2F81 DUP9 PUSH2 0xB49 DUP9 DUP11 PUSH2 0x4E20 JUMP JUMPDEST SWAP2 POP SWAP2 POP DUP2 PUSH2 0x2FD2 JUMPI PUSH1 0x40 DUP1 MLOAD PUSH1 0x0 DUP1 DUP3 MSTORE PUSH1 0x20 DUP3 ADD SWAP1 SWAP3 MSTORE SWAP1 PUSH2 0x2FB5 JUMP JUMPDEST PUSH1 0x60 DUP2 MSTORE PUSH1 0x20 ADD SWAP1 PUSH1 0x1 SWAP1 SUB SWAP1 DUP2 PUSH2 0x2FA0 JUMPI SWAP1 POP JUMPDEST POP PUSH1 0x40 DUP1 MLOAD PUSH1 0x0 DUP2 MSTORE PUSH1 0x20 DUP2 ADD SWAP1 SWAP2 MSTORE SWAP1 SWAP5 POP SWAP3 POP PUSH2 0x3253 SWAP2 POP POP JUMP JUMPDEST PUSH1 0x0 PUSH2 0x2FDE DUP10 DUP10 PUSH2 0x116F JUMP JUMPDEST SWAP1 SWAP4 POP SWAP1 POP DUP3 PUSH2 0x3031 JUMPI PUSH1 0x40 DUP1 MLOAD PUSH1 0x0 DUP1 DUP3 MSTORE PUSH1 0x20 DUP3 ADD SWAP1 SWAP3 MSTORE SWAP1 PUSH2 0x3013 JUMP JUMPDEST PUSH1 0x60 DUP2 MSTORE PUSH1 0x20 ADD SWAP1 PUSH1 0x1 SWAP1 SUB SWAP1 DUP2 PUSH2 0x2FFE JUMPI SWAP1 POP JUMPDEST POP PUSH1 0x40 DUP1 MLOAD PUSH1 0x0 DUP2 MSTORE PUSH1 0x20 DUP2 ADD SWAP1 SWAP2 MSTORE SWAP1 SWAP6 POP SWAP4 POP PUSH2 0x3253 SWAP3 POP POP POP JUMP JUMPDEST PUSH1 0x0 DUP1 PUSH1 0x0 DUP9 PUSH8 0xFFFFFFFFFFFFFFFF DUP2 GT ISZERO PUSH2 0x304F JUMPI PUSH2 0x304F PUSH2 0x419C JUMP JUMPDEST PUSH1 0x40 MLOAD SWAP1 DUP1 DUP3 MSTORE DUP1 PUSH1 0x20 MUL PUSH1 0x20 ADD DUP3 ADD PUSH1 0x40 MSTORE DUP1 ISZERO PUSH2 0x3078 JUMPI DUP2 PUSH1 0x20 ADD PUSH1 0x20 DUP3 MUL DUP1 CALLDATASIZE DUP4 CALLDATACOPY ADD SWAP1 POP JUMPDEST POP SWAP1 POP JUMPDEST DUP9 DUP4 LT DUP1 ISZERO PUSH2 0x309F JUMPI POP DUP5 DUP3 PUSH2 0x3093 DUP7 PUSH1 0x1 PUSH2 0x4F8C JUMP JUMPDEST PUSH2 0x309D SWAP2 SWAP1 PUSH2 0x4E20 JUMP JUMPDEST GT JUMPDEST ISZERO PUSH2 0x3103 JUMPI PUSH1 0x0 PUSH2 0x30B4 DUP14 PUSH2 0xA6A DUP6 DUP9 PUSH2 0x4E20 JUMP JUMPDEST SWAP1 POP PUSH2 0x30C0 DUP14 DUP3 PUSH2 0x1901 JUMP JUMPDEST PUSH2 0x30F0 JUMPI DUP1 DUP3 DUP6 DUP2 MLOAD DUP2 LT PUSH2 0x30D7 JUMPI PUSH2 0x30D7 PUSH2 0x5395 JUMP JUMPDEST PUSH1 0x20 SWAP1 DUP2 MUL SWAP2 SWAP1 SWAP2 ADD ADD MSTORE DUP4 PUSH2 0x30EC DUP2 PUSH2 0x53EF JUMP JUMPDEST SWAP5 POP POP JUMPDEST DUP3 PUSH2 0x30FA DUP2 PUSH2 0x53EF JUMP JUMPDEST SWAP4 POP POP POP PUSH2 0x307C JUMP JUMPDEST PUSH1 0x0 DUP4 PUSH8 0xFFFFFFFFFFFFFFFF DUP2 GT ISZERO PUSH2 0x311E JUMPI PUSH2 0x311E PUSH2 0x419C JUMP JUMPDEST PUSH1 0x40 MLOAD SWAP1 DUP1 DUP3 MSTORE DUP1 PUSH1 0x20 MUL PUSH1 0x20 ADD DUP3 ADD PUSH1 0x40 MSTORE DUP1 ISZERO PUSH2 0x3151 JUMPI DUP2 PUSH1 0x20 ADD JUMPDEST PUSH1 0x60 DUP2 MSTORE PUSH1 0x20 ADD SWAP1 PUSH1 0x1 SWAP1 SUB SWAP1 DUP2 PUSH2 0x313C JUMPI SWAP1 POP JUMPDEST POP SWAP1 POP PUSH1 0x0 DUP5 PUSH8 0xFFFFFFFFFFFFFFFF DUP2 GT ISZERO PUSH2 0x316F JUMPI PUSH2 0x316F PUSH2 0x419C JUMP JUMPDEST PUSH1 0x40 MLOAD SWAP1 DUP1 DUP3 MSTORE DUP1 PUSH1 0x20 MUL PUSH1 0x20 ADD DUP3 ADD PUSH1 0x40 MSTORE DUP1 ISZERO PUSH2 0x3198 JUMPI DUP2 PUSH1 0x20 ADD PUSH1 0x20 DUP3 MUL DUP1 CALLDATASIZE DUP4 CALLDATACOPY ADD SWAP1 POP JUMPDEST POP SWAP1 POP PUSH1 0x0 JUMPDEST DUP6 DUP2 LT ISZERO PUSH2 0x3246 JUMPI DUP4 DUP2 PUSH2 0x31B3 PUSH1 0x1 DUP10 PUSH2 0x4E20 JUMP JUMPDEST PUSH2 0x31BD SWAP2 SWAP1 PUSH2 0x4E20 JUMP JUMPDEST DUP2 MLOAD DUP2 LT PUSH2 0x31CD JUMPI PUSH2 0x31CD PUSH2 0x5395 JUMP JUMPDEST PUSH1 0x20 MUL PUSH1 0x20 ADD ADD MLOAD DUP3 DUP3 DUP2 MLOAD DUP2 LT PUSH2 0x31E7 JUMPI PUSH2 0x31E7 PUSH2 0x5395 JUMP JUMPDEST PUSH1 0x20 MUL PUSH1 0x20 ADD ADD DUP2 DUP2 MSTORE POP POP PUSH2 0x3216 DUP16 DUP4 DUP4 DUP2 MLOAD DUP2 LT PUSH2 0x3209 JUMPI PUSH2 0x3209 PUSH2 0x5395 JUMP JUMPDEST PUSH1 0x20 MUL PUSH1 0x20 ADD ADD MLOAD PUSH2 0x2695 JUMP JUMPDEST DUP4 DUP3 DUP2 MLOAD DUP2 LT PUSH2 0x3228 JUMPI PUSH2 0x3228 PUSH2 0x5395 JUMP JUMPDEST PUSH1 0x20 MUL PUSH1 0x20 ADD ADD DUP2 SWAP1 MSTORE POP DUP1 DUP1 PUSH2 0x323E SWAP1 PUSH2 0x53EF JUMP JUMPDEST SWAP2 POP POP PUSH2 0x319E JUMP JUMPDEST POP SWAP1 SWAP9 POP SWAP7 POP POP POP POP POP POP POP JUMPDEST SWAP5 POP SWAP5 SWAP3 POP POP POP JUMP JUMPDEST PUSH1 0xF DUP1 SLOAD PUSH2 0x1E6F SWAP1 PUSH2 0x518E JUMP JUMPDEST PUSH1 0x0 DUP1 JUMPDEST PUSH1 0x3 DUP2 LT ISZERO PUSH2 0x32C5 JUMPI DUP3 DUP2 PUSH1 0x3 DUP2 LT PUSH2 0x3288 JUMPI PUSH2 0x3288 PUSH2 0x5395 JUMP JUMPDEST PUSH1 0x20 MUL ADD MLOAD DUP5 DUP3 PUSH1 0x3 DUP2 LT PUSH2 0x329F JUMPI PUSH2 0x329F PUSH2 0x5395 JUMP JUMPDEST PUSH1 0x20 MUL ADD MLOAD EQ PUSH2 0x32B3 JUMPI PUSH1 0x0 SWAP2 POP POP PUSH2 0x1991 JUMP JUMPDEST DUP1 PUSH2 0x32BD DUP2 PUSH2 0x53EF JUMP JUMPDEST SWAP2 POP POP PUSH2 0x326D JUMP JUMPDEST POP PUSH1 0x1 SWAP4 SWAP3 POP POP POP JUMP JUMPDEST PUSH1 0x4 SLOAD CHAINID SUB PUSH2 0x3333 JUMPI PUSH1 0x0 DUP4 DUP4 PUSH1 0x40 MLOAD PUSH1 0x20 ADD PUSH2 0x32ED SWAP3 SWAP2 SWAP1 PUSH2 0x59A4 JUMP JUMPDEST PUSH1 0x40 MLOAD PUSH1 0x20 DUP2 DUP4 SUB SUB DUP2 MSTORE SWAP1 PUSH1 0x40 MSTORE SWAP1 POP PUSH1 0x0 PUSH1 0xA SLOAD DUP3 PUSH1 0x40 MLOAD PUSH1 0x20 ADD PUSH2 0x3315 SWAP3 SWAP2 SWAP1 PUSH2 0x55E3 JUMP JUMPDEST PUSH1 0x40 MLOAD PUSH1 0x20 DUP2 DUP4 SUB SUB DUP2 MSTORE SWAP1 PUSH1 0x40 MSTORE SWAP1 POP PUSH2 0x3330 DUP2 DUP5 PUSH2 0x3751 JUMP JUMPDEST POP POP JUMPDEST PUSH1 0x5 SLOAD CHAINID SUB PUSH2 0x2B89 JUMPI PUSH1 0x0 DUP4 DUP4 PUSH1 0x40 MLOAD PUSH1 0x20 ADD PUSH2 0x3351 SWAP3 SWAP2 SWAP1 PUSH2 0x59A4 JUMP JUMPDEST PUSH1 0x40 MLOAD PUSH1 0x20 DUP2 DUP4 SUB SUB DUP2 MSTORE SWAP1 PUSH1 0x40 MSTORE SWAP1 POP PUSH1 0x0 PUSH1 0xA SLOAD DUP3 PUSH1 0x40 MLOAD PUSH1 0x20 ADD PUSH2 0x3379 SWAP3 SWAP2 SWAP1 PUSH2 0x55E3 JUMP JUMPDEST PUSH1 0x40 MLOAD PUSH1 0x20 DUP2 DUP4 SUB SUB DUP2 MSTORE SWAP1 PUSH1 0x40 MSTORE SWAP1 POP PUSH2 0x130A DUP2 DUP5 PUSH2 0x3863 JUMP JUMPDEST PUSH1 0x0 DUP6 DUP6 DUP6 DUP6 PUSH1 0x40 MLOAD PUSH1 0x20 ADD PUSH2 0x33AD SWAP5 SWAP4 SWAP3 SWAP2 SWAP1 PUSH2 0x59BF JUMP JUMPDEST PUSH1 0x40 MLOAD PUSH1 0x20 DUP2 DUP4 SUB SUB DUP2 MSTORE SWAP1 PUSH1 0x40 MSTORE SWAP1 POP PUSH1 0x0 PUSH1 0x8 SLOAD DUP3 PUSH1 0x40 MLOAD PUSH1 0x20 ADD PUSH2 0x33D5 SWAP3 SWAP2 SWAP1 PUSH2 0x55E3 JUMP JUMPDEST PUSH1 0x40 MLOAD PUSH1 0x20 DUP2 DUP4 SUB SUB DUP2 MSTORE SWAP1 PUSH1 0x40 MSTORE SWAP1 POP PUSH1 0x4 SLOAD CHAINID SUB PUSH2 0x33F9 JUMPI PUSH2 0x33F9 DUP2 DUP5 PUSH2 0x3751 JUMP JUMPDEST PUSH1 0x5 SLOAD CHAINID SUB PUSH2 0x1166 JUMPI PUSH2 0x1166 DUP2 DUP5 PUSH2 0x3863 JUMP JUMPDEST PUSH1 0x0 DUP10 DUP10 DUP10 DUP10 DUP10 DUP10 DUP10 DUP10 PUSH1 0x40 MLOAD PUSH1 0x20 ADD PUSH2 0x342D SWAP9 SWAP8 SWAP7 SWAP6 SWAP5 SWAP4 SWAP3 SWAP2 SWAP1 PUSH2 0x5A2F JUMP JUMPDEST PUSH1 0x40 MLOAD PUSH1 0x20 DUP2 DUP4 SUB SUB DUP2 MSTORE SWAP1 PUSH1 0x40 MSTORE SWAP1 POP PUSH1 0x0 PUSH1 0x7 SLOAD DUP3 PUSH1 0x40 MLOAD PUSH1 0x20 ADD PUSH2 0x3455 SWAP3 SWAP2 SWAP1 PUSH2 0x55E3 JUMP JUMPDEST PUSH1 0x40 MLOAD PUSH1 0x20 DUP2 DUP4 SUB SUB DUP2 MSTORE SWAP1 PUSH1 0x40 MSTORE SWAP1 POP PUSH1 0x4 SLOAD CHAINID SUB PUSH2 0x3479 JUMPI PUSH2 0x3479 DUP2 DUP5 PUSH2 0x3751 JUMP JUMPDEST PUSH1 0x5 SLOAD CHAINID SUB PUSH2 0xE3E JUMPI PUSH2 0xE3E DUP2 DUP5 PUSH2 0x3863 JUMP JUMPDEST PUSH1 0x0 DUP1 PUSH2 0x349B DUP4 DUP6 ADD DUP6 PUSH2 0x5AA8 JUMP JUMPDEST SWAP2 POP SWAP2 POP PUSH1 0x6 SLOAD DUP3 SUB PUSH2 0x34DB JUMPI PUSH1 0x0 DUP1 PUSH1 0x0 DUP1 DUP5 DUP1 PUSH1 0x20 ADD SWAP1 MLOAD DUP2 ADD SWAP1 PUSH2 0x34C2 SWAP2 SWAP1 PUSH2 0x5ACA JUMP JUMPDEST SWAP4 POP SWAP4 POP SWAP4 POP SWAP4 POP PUSH2 0x34D6 DUP5 DUP5 DUP5 DUP5 PUSH2 0x3B78 JUMP JUMPDEST POP POP POP POP JUMPDEST PUSH1 0x7 SLOAD DUP3 SUB PUSH2 0x352D JUMPI PUSH1 0x0 DUP1 PUSH1 0x0 DUP1 PUSH1 0x0 DUP1 PUSH1 0x0 DUP1 DUP9 DUP1 PUSH1 0x20 ADD SWAP1 MLOAD DUP2 ADD SWAP1 PUSH2 0x3504 SWAP2 SWAP1 PUSH2 0x5C14 JUMP JUMPDEST SWAP8 POP SWAP8 POP SWAP8 POP SWAP8 POP SWAP8 POP SWAP8 POP SWAP8 POP SWAP8 POP PUSH2 0x3524 DUP9 DUP9 DUP9 DUP9 DUP9 DUP9 DUP9 DUP9 PUSH2 0x3C69 JUMP JUMPDEST POP POP POP POP POP POP POP POP JUMPDEST PUSH1 0x8 SLOAD DUP3 SUB PUSH2 0x3592 JUMPI PUSH1 0x0 DUP1 PUSH1 0x0 DUP1 DUP5 DUP1 PUSH1 0x20 ADD SWAP1 MLOAD DUP2 ADD SWAP1 PUSH2 0x3550 SWAP2 SWAP1 PUSH2 0x5CC9 JUMP JUMPDEST PUSH1 0xC DUP5 SWAP1 SSTORE PUSH1 0x0 DUP5 DUP2 MSTORE PUSH1 0x15 PUSH1 0x20 MSTORE PUSH1 0x40 SWAP1 KECCAK256 PUSH1 0x1 DUP2 ADD DUP6 SWAP1 SSTORE PUSH1 0x4 DUP2 ADD DUP4 SWAP1 SSTORE PUSH1 0x3 DUP2 ADD DUP5 SWAP1 SSTORE SWAP4 SWAP8 POP SWAP2 SWAP6 POP SWAP4 POP SWAP2 POP PUSH2 0x358C DUP3 DUP3 PUSH2 0x524A JUMP JUMPDEST POP POP POP POP POP JUMPDEST PUSH1 0x9 SLOAD DUP3 SUB PUSH2 0x35E7 JUMPI PUSH1 0x0 DUP1 DUP3 DUP1 PUSH1 0x20 ADD SWAP1 MLOAD DUP2 ADD SWAP1 PUSH2 0x35B2 SWAP2 SWAP1 PUSH2 0x5D3C JUMP JUMPDEST PUSH1 0x0 DUP3 DUP2 MSTORE PUSH1 0x15 PUSH1 0x20 MSTORE PUSH1 0x40 SWAP1 KECCAK256 PUSH1 0x8 DUP2 ADD DUP1 SLOAD PUSH1 0xFF NOT AND PUSH1 0x1 OR SWAP1 SSTORE SWAP2 SWAP4 POP SWAP2 POP PUSH2 0x35E3 SWAP1 PUSH1 0x5 ADD DUP3 PUSH1 0x3 PUSH2 0x3F52 JUMP JUMPDEST POP POP POP JUMPDEST PUSH1 0xA SLOAD DUP3 SUB PUSH2 0x3670 JUMPI PUSH1 0x0 DUP1 DUP3 DUP1 PUSH1 0x20 ADD SWAP1 MLOAD DUP2 ADD SWAP1 PUSH2 0x3607 SWAP2 SWAP1 PUSH2 0x5D6F JUMP JUMPDEST PUSH1 0x1 PUSH1 0x1 PUSH1 0xA0 SHL SUB DUP2 AND PUSH1 0x0 SWAP1 DUP2 MSTORE PUSH1 0x13 PUSH1 0x20 MSTORE PUSH1 0x40 DUP2 KECCAK256 PUSH1 0x5 ADD DUP1 SLOAD SWAP4 SWAP6 POP SWAP2 SWAP4 POP DUP5 SWAP3 PUSH2 0x3637 SWAP1 DUP5 SWAP1 PUSH2 0x4F8C JUMP JUMPDEST SWAP1 SWAP2 SSTORE POP POP PUSH1 0x1 PUSH1 0x1 PUSH1 0xA0 SHL SUB DUP2 AND PUSH1 0x0 SWAP1 DUP2 MSTORE PUSH1 0x13 PUSH1 0x20 MSTORE PUSH1 0x40 DUP2 KECCAK256 PUSH1 0x2 ADD DUP1 SLOAD PUSH1 0x1 SWAP3 SWAP1 PUSH2 0x3668 SWAP1 DUP5 SWAP1 PUSH2 0x4F8C JUMP JUMPDEST SWAP1 SWAP2 SSTORE POP POP POP POP JUMPDEST PUSH1 0xB SLOAD DUP3 SUB PUSH2 0x1A8E JUMPI PUSH1 0x0 DUP1 PUSH1 0x0 DUP4 DUP1 PUSH1 0x20 ADD SWAP1 MLOAD DUP2 ADD SWAP1 PUSH2 0x3692 SWAP2 SWAP1 PUSH2 0x5DA2 JUMP JUMPDEST SWAP3 POP SWAP3 POP SWAP3 POP PUSH1 0x4 SLOAD DUP4 SUB PUSH2 0x36D2 JUMPI PUSH1 0x1 PUSH1 0x1 PUSH1 0xA0 SHL SUB DUP2 AND PUSH1 0x0 SWAP1 DUP2 MSTORE PUSH1 0x13 PUSH1 0x20 MSTORE PUSH1 0x40 DUP2 KECCAK256 PUSH1 0x3 ADD DUP1 SLOAD DUP5 SWAP3 SWAP1 PUSH2 0x36CC SWAP1 DUP5 SWAP1 PUSH2 0x4E20 JUMP JUMPDEST SWAP1 SWAP2 SSTORE POP POP JUMPDEST PUSH1 0x5 SLOAD DUP4 SUB PUSH2 0x370C JUMPI PUSH1 0x1 PUSH1 0x1 PUSH1 0xA0 SHL SUB DUP2 AND PUSH1 0x0 SWAP1 DUP2 MSTORE PUSH1 0x13 PUSH1 0x20 MSTORE PUSH1 0x40 DUP2 KECCAK256 PUSH1 0x4 ADD DUP1 SLOAD DUP5 SWAP3 SWAP1 PUSH2 0x3706 SWAP1 DUP5 SWAP1 PUSH2 0x4E20 JUMP JUMPDEST SWAP1 SWAP2 SSTORE POP POP JUMPDEST DUP3 PUSH1 0x3 SUB PUSH2 0xE3E JUMPI PUSH1 0x1 PUSH1 0x1 PUSH1 0xA0 SHL SUB DUP2 AND PUSH1 0x0 SWAP1 DUP2 MSTORE PUSH1 0x13 PUSH1 0x20 MSTORE PUSH1 0x40 DUP2 KECCAK256 PUSH1 0x5 ADD DUP1 SLOAD DUP5 SWAP3 SWAP1 PUSH2 0x373F SWAP1 DUP5 SWAP1 PUSH2 0x4E20 JUMP JUMPDEST SWAP1 SWAP2 SSTORE POP POP POP POP POP POP POP POP POP POP POP POP POP JUMP JUMPDEST PUSH1 0x40 MLOAD PUSH4 0xC93E3BB PUSH1 0xE0 SHL DUP2 MSTORE PUSH1 0x1 PUSH1 0x1 PUSH1 0xA0 SHL SUB PUSH32 0x0 AND SWAP1 PUSH4 0xC93E3BB SWAP1 DUP4 SWAP1 PUSH2 0x37A9 SWAP1 ADDRESS SWAP1 PUSH1 0x10 SWAP1 PUSH1 0x12 SWAP1 DUP10 SWAP1 DUP5 SWAP1 PUSH1 0x4 ADD PUSH2 0x5E62 JUMP JUMPDEST PUSH1 0x0 PUSH1 0x40 MLOAD DUP1 DUP4 SUB DUP2 DUP6 DUP9 DUP1 EXTCODESIZE ISZERO DUP1 ISZERO PUSH2 0x37C2 JUMPI PUSH1 0x0 DUP1 REVERT JUMPDEST POP GAS CALL ISZERO DUP1 ISZERO PUSH2 0x37D6 JUMPI RETURNDATASIZE PUSH1 0x0 DUP1 RETURNDATACOPY RETURNDATASIZE PUSH1 0x0 REVERT JUMPDEST POP POP PUSH1 0x40 MLOAD PUSH4 0x1C92115F PUSH1 0xE0 SHL DUP2 MSTORE PUSH1 0x1 PUSH1 0x1 PUSH1 0xA0 SHL SUB PUSH32 0x0 AND SWAP4 POP PUSH4 0x1C92115F SWAP3 POP PUSH2 0x382D SWAP2 POP PUSH1 0x10 SWAP1 PUSH1 0x12 SWAP1 DUP8 SWAP1 PUSH1 0x4 ADD PUSH2 0x5EB9 JUMP JUMPDEST PUSH1 0x0 PUSH1 0x40 MLOAD DUP1 DUP4 SUB DUP2 PUSH1 0x0 DUP8 DUP1 EXTCODESIZE ISZERO DUP1 ISZERO PUSH2 0x3847 JUMPI PUSH1 0x0 DUP1 REVERT JUMPDEST POP GAS CALL ISZERO DUP1 ISZERO PUSH2 0x385B JUMPI RETURNDATASIZE PUSH1 0x0 DUP1 RETURNDATACOPY RETURNDATASIZE PUSH1 0x0 REVERT JUMPDEST POP POP POP POP POP POP JUMP JUMPDEST PUSH1 0x40 MLOAD PUSH4 0xC93E3BB PUSH1 0xE0 SHL DUP2 MSTORE PUSH1 0x1 PUSH1 0x1 PUSH1 0xA0 SHL SUB PUSH32 0x0 AND SWAP1 PUSH4 0xC93E3BB SWAP1 DUP4 SWAP1 PUSH2 0x38BB SWAP1 ADDRESS SWAP1 PUSH1 0xF SWAP1 PUSH1 0x11 SWAP1 DUP10 SWAP1 DUP5 SWAP1 PUSH1 0x4 ADD PUSH2 0x5E62 JUMP JUMPDEST PUSH1 0x0 PUSH1 0x40 MLOAD DUP1 DUP4 SUB DUP2 DUP6 DUP9 DUP1 EXTCODESIZE ISZERO DUP1 ISZERO PUSH2 0x38D4 JUMPI PUSH1 0x0 DUP1 REVERT JUMPDEST POP GAS CALL ISZERO DUP1 ISZERO PUSH2 0x38E8 JUMPI RETURNDATASIZE PUSH1 0x0 DUP1 RETURNDATACOPY RETURNDATASIZE PUSH1 0x0 REVERT JUMPDEST POP POP PUSH1 0x40 MLOAD PUSH4 0x1C92115F PUSH1 0xE0 SHL DUP2 MSTORE PUSH1 0x1 PUSH1 0x1 PUSH1 0xA0 SHL SUB PUSH32 0x0 AND SWAP4 POP PUSH4 0x1C92115F SWAP3 POP PUSH2 0x382D SWAP2 POP PUSH1 0xF SWAP1 PUSH1 0x11 SWAP1 DUP8 SWAP1 PUSH1 0x4 ADD PUSH2 0x5EB9 JUMP JUMPDEST PUSH1 0x4 SLOAD CHAINID SUB PUSH2 0x3A16 JUMPI DUP3 ISZERO PUSH2 0x3984 JUMPI PUSH1 0x1 PUSH1 0x1 PUSH1 0xA0 SHL SUB DUP3 AND PUSH1 0x0 SWAP1 DUP2 MSTORE PUSH1 0x13 PUSH1 0x20 MSTORE PUSH1 0x40 DUP2 KECCAK256 PUSH1 0x3 ADD DUP1 SLOAD DUP7 SWAP3 SWAP1 PUSH2 0x3979 SWAP1 DUP5 SWAP1 PUSH2 0x4F8C JUMP JUMPDEST SWAP1 SWAP2 SSTORE POP PUSH2 0x39B5 SWAP1 POP JUMP JUMPDEST PUSH1 0x1 PUSH1 0x1 PUSH1 0xA0 SHL SUB DUP3 AND PUSH1 0x0 SWAP1 DUP2 MSTORE PUSH1 0x13 PUSH1 0x20 MSTORE PUSH1 0x40 DUP2 KECCAK256 PUSH1 0x5 ADD DUP1 SLOAD DUP7 SWAP3 SWAP1 PUSH2 0x39AF SWAP1 DUP5 SWAP1 PUSH2 0x4F8C JUMP JUMPDEST SWAP1 SWAP2 SSTORE POP POP JUMPDEST PUSH1 0x0 PUSH1 0x4 SLOAD DUP5 DUP7 DUP6 PUSH1 0x40 MLOAD PUSH1 0x20 ADD PUSH2 0x39D0 SWAP5 SWAP4 SWAP3 SWAP2 SWAP1 PUSH2 0x5EF2 JUMP JUMPDEST PUSH1 0x40 MLOAD PUSH1 0x20 DUP2 DUP4 SUB SUB DUP2 MSTORE SWAP1 PUSH1 0x40 MSTORE SWAP1 POP PUSH1 0x0 PUSH1 0x6 SLOAD DUP3 PUSH1 0x40 MLOAD PUSH1 0x20 ADD PUSH2 0x39F8 SWAP3 SWAP2 SWAP1 PUSH2 0x55E3 JUMP JUMPDEST PUSH1 0x40 MLOAD PUSH1 0x20 DUP2 DUP4 SUB SUB DUP2 MSTORE SWAP1 PUSH1 0x40 MSTORE SWAP1 POP PUSH2 0x3A13 DUP2 DUP5 PUSH2 0x3751 JUMP JUMPDEST POP POP JUMPDEST PUSH1 0x5 SLOAD CHAINID SUB PUSH2 0x1F9E JUMPI DUP3 ISZERO PUSH2 0x3A5B JUMPI PUSH1 0x1 PUSH1 0x1 PUSH1 0xA0 SHL SUB DUP3 AND PUSH1 0x0 SWAP1 DUP2 MSTORE PUSH1 0x13 PUSH1 0x20 MSTORE PUSH1 0x40 DUP2 KECCAK256 PUSH1 0x4 ADD DUP1 SLOAD DUP7 SWAP3 SWAP1 PUSH2 0x3A50 SWAP1 DUP5 SWAP1 PUSH2 0x4F8C JUMP JUMPDEST SWAP1 SWAP2 SSTORE POP PUSH2 0x3A8C SWAP1 POP JUMP JUMPDEST PUSH1 0x1 PUSH1 0x1 PUSH1 0xA0 SHL SUB DUP3 AND PUSH1 0x0 SWAP1 DUP2 MSTORE PUSH1 0x13 PUSH1 0x20 MSTORE PUSH1 0x40 DUP2 KECCAK256 PUSH1 0x5 ADD DUP1 SLOAD DUP7 SWAP3 SWAP1 PUSH2 0x3A86 SWAP1 DUP5 SWAP1 PUSH2 0x4F8C JUMP JUMPDEST SWAP1 SWAP2 SSTORE POP POP JUMPDEST PUSH1 0x0 PUSH1 0x4 SLOAD DUP5 DUP7 DUP6 PUSH1 0x40 MLOAD PUSH1 0x20 ADD PUSH2 0x3AA7 SWAP5 SWAP4 SWAP3 SWAP2 SWAP1 PUSH2 0x5EF2 JUMP JUMPDEST PUSH1 0x40 MLOAD PUSH1 0x20 DUP2 DUP4 SUB SUB DUP2 MSTORE SWAP1 PUSH1 0x40 MSTORE SWAP1 POP PUSH1 0x0 PUSH1 0x6 SLOAD DUP3 PUSH1 0x40 MLOAD PUSH1 0x20 ADD PUSH2 0x3ACF SWAP3 SWAP2 SWAP1 PUSH2 0x55E3 JUMP JUMPDEST PUSH1 0x40 MLOAD PUSH1 0x20 DUP2 DUP4 SUB SUB DUP2 MSTORE SWAP1 PUSH1 0x40 MSTORE SWAP1 POP PUSH2 0x385B DUP2 DUP5 PUSH2 0x3863 JUMP JUMPDEST PUSH1 0x0 DUP4 DUP4 PUSH1 0x40 MLOAD PUSH1 0x20 ADD PUSH2 0x3AFF SWAP3 SWAP2 SWAP1 PUSH2 0x5F27 JUMP JUMPDEST PUSH1 0x40 MLOAD PUSH1 0x20 DUP2 DUP4 SUB SUB DUP2 MSTORE SWAP1 PUSH1 0x40 MSTORE SWAP1 POP PUSH1 0x0 PUSH1 0x9 SLOAD DUP3 PUSH1 0x40 MLOAD PUSH1 0x20 ADD PUSH2 0x1DD5 SWAP3 SWAP2 SWAP1 PUSH2 0x55E3 JUMP JUMPDEST PUSH1 0x0 DUP1 JUMPDEST DUP3 MLOAD DUP2 LT ISZERO PUSH2 0x2996 JUMPI DUP3 DUP2 DUP2 MLOAD DUP2 LT PUSH2 0x3B46 JUMPI PUSH2 0x3B46 PUSH2 0x5395 JUMP JUMPDEST ADD PUSH1 0x20 ADD MLOAD PUSH1 0xF8 SHR PUSH2 0x3B5A DUP4 PUSH2 0x100 PUSH2 0x4F6D JUMP JUMPDEST PUSH2 0x3B64 SWAP2 SWAP1 PUSH2 0x4F8C JUMP JUMPDEST SWAP2 POP DUP1 PUSH2 0x3B70 DUP2 PUSH2 0x53EF JUMP JUMPDEST SWAP2 POP POP PUSH2 0x3B2B JUMP JUMPDEST PUSH1 0x4 SLOAD DUP5 SUB PUSH2 0x3BEE JUMPI DUP3 ISZERO PUSH2 0x3BBD JUMPI PUSH1 0x1 PUSH1 0x1 PUSH1 0xA0 SHL SUB DUP2 AND PUSH1 0x0 SWAP1 DUP2 MSTORE PUSH1 0x13 PUSH1 0x20 MSTORE PUSH1 0x40 DUP2 KECCAK256 PUSH1 0x3 ADD DUP1 SLOAD DUP5 SWAP3 SWAP1 PUSH2 0x3BB2 SWAP1 DUP5 SWAP1 PUSH2 0x4F8C JUMP JUMPDEST SWAP1 SWAP2 SSTORE POP PUSH2 0x3BEE SWAP1 POP JUMP JUMPDEST PUSH1 0x1 PUSH1 0x1 PUSH1 0xA0 SHL SUB DUP2 AND PUSH1 0x0 SWAP1 DUP2 MSTORE PUSH1 0x13 PUSH1 0x20 MSTORE PUSH1 0x40 DUP2 KECCAK256 PUSH1 0x5 ADD DUP1 SLOAD DUP5 SWAP3 SWAP1 PUSH2 0x3BE8 SWAP1 DUP5 SWAP1 PUSH2 0x4F8C JUMP JUMPDEST SWAP1 SWAP2 SSTORE POP POP JUMPDEST PUSH1 0x5 SLOAD DUP5 SUB PUSH2 0x1F9E JUMPI DUP3 ISZERO PUSH2 0x3C33 JUMPI PUSH1 0x1 PUSH1 0x1 PUSH1 0xA0 SHL SUB DUP2 AND PUSH1 0x0 SWAP1 DUP2 MSTORE PUSH1 0x13 PUSH1 0x20 MSTORE PUSH1 0x40 DUP2 KECCAK256 PUSH1 0x4 ADD DUP1 SLOAD DUP5 SWAP3 SWAP1 PUSH2 0x3C28 SWAP1 DUP5 SWAP1 PUSH2 0x4F8C JUMP JUMPDEST SWAP1 SWAP2 SSTORE POP PUSH2 0x1F9E SWAP1 POP JUMP JUMPDEST PUSH1 0x1 PUSH1 0x1 PUSH1 0xA0 SHL SUB DUP2 AND PUSH1 0x0 SWAP1 DUP2 MSTORE PUSH1 0x13 PUSH1 0x20 MSTORE PUSH1 0x40 DUP2 KECCAK256 PUSH1 0x5 ADD DUP1 SLOAD DUP5 SWAP3 SWAP1 PUSH2 0x3C5E SWAP1 DUP5 SWAP1 PUSH2 0x4F8C JUMP JUMPDEST SWAP1 SWAP2 SSTORE POP POP POP POP POP POP JUMP JUMPDEST DUP4 ISZERO PUSH2 0x3D34 JUMPI PUSH1 0x4 SLOAD DUP6 SUB PUSH2 0x3CCF JUMPI PUSH1 0x1 PUSH1 0x1 PUSH1 0xA0 SHL SUB DUP8 AND PUSH1 0x0 SWAP1 DUP2 MSTORE PUSH1 0x13 PUSH1 0x20 MSTORE PUSH1 0x40 DUP2 KECCAK256 PUSH1 0x3 ADD DUP1 SLOAD DUP6 SWAP3 SWAP1 PUSH2 0x3CA3 SWAP1 DUP5 SWAP1 PUSH2 0x4E20 JUMP JUMPDEST SWAP1 SWAP2 SSTORE POP POP PUSH1 0x0 DUP3 DUP2 MSTORE PUSH1 0x15 PUSH1 0x20 MSTORE PUSH1 0x40 DUP2 KECCAK256 PUSH1 0x9 ADD DUP1 SLOAD DUP6 SWAP3 SWAP1 PUSH2 0x3CC9 SWAP1 DUP5 SWAP1 PUSH2 0x4F8C JUMP JUMPDEST SWAP1 SWAP2 SSTORE POP POP JUMPDEST PUSH1 0x5 SLOAD DUP6 SUB PUSH2 0x3D2F JUMPI PUSH1 0x1 PUSH1 0x1 PUSH1 0xA0 SHL SUB DUP8 AND PUSH1 0x0 SWAP1 DUP2 MSTORE PUSH1 0x13 PUSH1 0x20 MSTORE PUSH1 0x40 DUP2 KECCAK256 PUSH1 0x4 ADD DUP1 SLOAD DUP6 SWAP3 SWAP1 PUSH2 0x3D03 SWAP1 DUP5 SWAP1 PUSH2 0x4E20 JUMP JUMPDEST SWAP1 SWAP2 SSTORE POP POP PUSH1 0x0 DUP3 DUP2 MSTORE PUSH1 0x15 PUSH1 0x20 MSTORE PUSH1 0x40 DUP2 KECCAK256 PUSH1 0xA ADD DUP1 SLOAD DUP6 SWAP3 SWAP1 PUSH2 0x3D29 SWAP1 DUP5 SWAP1 PUSH2 0x4F8C JUMP JUMPDEST SWAP1 SWAP2 SSTORE POP POP JUMPDEST PUSH2 0x3D8B JUMP JUMPDEST PUSH1 0x1 PUSH1 0x1 PUSH1 0xA0 SHL SUB DUP8 AND PUSH1 0x0 SWAP1 DUP2 MSTORE PUSH1 0x13 PUSH1 0x20 MSTORE PUSH1 0x40 DUP2 KECCAK256 PUSH1 0x5 ADD DUP1 SLOAD DUP6 SWAP3 SWAP1 PUSH2 0x3D5F SWAP1 DUP5 SWAP1 PUSH2 0x4E20 JUMP JUMPDEST SWAP1 SWAP2 SSTORE POP POP PUSH1 0x0 DUP3 DUP2 MSTORE PUSH1 0x15 PUSH1 0x20 MSTORE PUSH1 0x40 DUP2 KECCAK256 PUSH1 0xB ADD DUP1 SLOAD DUP6 SWAP3 SWAP1 PUSH2 0x3D85 SWAP1 DUP5 SWAP1 PUSH2 0x4F8C JUMP JUMPDEST SWAP1 SWAP2 SSTORE POP POP JUMPDEST PUSH1 0x0 DUP3 DUP2 MSTORE PUSH1 0x15 PUSH1 0x20 MSTORE PUSH1 0x40 DUP2 KECCAK256 PUSH1 0x2 ADD DUP1 SLOAD PUSH1 0x1 SWAP3 SWAP1 PUSH2 0x3DAD SWAP1 DUP5 SWAP1 PUSH2 0x4F8C JUMP JUMPDEST SWAP1 SWAP2 SSTORE POP POP PUSH1 0x40 DUP1 MLOAD PUSH1 0xA0 DUP2 ADD DUP3 MSTORE PUSH1 0x1 PUSH1 0x1 PUSH1 0xA0 SHL SUB DUP10 DUP2 AND DUP3 MSTORE PUSH1 0x20 DUP1 DUP4 ADD DUP13 DUP2 MSTORE DUP4 DUP6 ADD DUP12 DUP2 MSTORE PUSH1 0x0 PUSH1 0x60 DUP7 ADD DUP2 SWAP1 MSTORE PUSH1 0x80 DUP7 ADD DUP13 SWAP1 MSTORE DUP9 DUP2 MSTORE PUSH1 0x14 DUP5 MSTORE DUP7 DUP2 KECCAK256 DUP16 DUP3 MSTORE SWAP1 SWAP4 MSTORE SWAP5 SWAP1 SWAP2 KECCAK256 DUP4 MLOAD DUP2 SLOAD PUSH1 0x1 PUSH1 0x1 PUSH1 0xA0 SHL SUB NOT AND SWAP4 AND SWAP3 SWAP1 SWAP3 OR DUP3 SSTORE MLOAD PUSH1 0x1 DUP3 ADD SSTORE SWAP2 MLOAD SWAP1 SWAP2 SWAP1 PUSH2 0x3E2C SWAP1 PUSH1 0x2 DUP4 ADD SWAP1 PUSH1 0x3 PUSH2 0x3F52 JUMP JUMPDEST POP PUSH1 0x60 DUP3 ADD MLOAD PUSH1 0x5 DUP3 ADD DUP1 SLOAD PUSH1 0xFF NOT AND SWAP2 ISZERO ISZERO SWAP2 SWAP1 SWAP2 OR SWAP1 SSTORE PUSH1 0x80 SWAP1 SWAP2 ADD MLOAD PUSH1 0x6 SWAP1 SWAP2 ADD SSTORE PUSH1 0x1 PUSH1 0x1 PUSH1 0xA0 SHL SUB DUP8 AND PUSH1 0x0 SWAP1 DUP2 MSTORE PUSH1 0x13 PUSH1 0x20 MSTORE PUSH1 0x40 DUP2 KECCAK256 PUSH1 0x1 SWAP1 DUP2 ADD DUP1 SLOAD SWAP2 SWAP3 SWAP1 SWAP2 PUSH2 0x3E7F SWAP1 DUP5 SWAP1 PUSH2 0x4F8C JUMP JUMPDEST SWAP1 SWAP2 SSTORE POP POP PUSH1 0x0 DUP3 DUP2 MSTORE PUSH1 0x17 PUSH1 0x20 SWAP1 DUP2 MSTORE PUSH1 0x40 DUP1 DUP4 KECCAK256 DUP1 SLOAD PUSH1 0x1 DUP1 DUP3 ADD DUP4 SSTORE SWAP2 DUP6 MSTORE SWAP4 DUP4 SWAP1 KECCAK256 DUP6 MLOAD PUSH1 0x7 SWAP1 SWAP6 MUL ADD DUP1 SLOAD PUSH1 0x1 PUSH1 0x1 PUSH1 0xA0 SHL SUB NOT AND PUSH1 0x1 PUSH1 0x1 PUSH1 0xA0 SHL SUB SWAP1 SWAP6 AND SWAP5 SWAP1 SWAP5 OR DUP5 SSTORE SWAP2 DUP5 ADD MLOAD SWAP2 DUP4 ADD SWAP2 SWAP1 SWAP2 SSTORE DUP3 ADD MLOAD DUP3 SWAP2 SWAP1 PUSH2 0x3EEB SWAP1 PUSH1 0x2 DUP4 ADD SWAP1 PUSH1 0x3 PUSH2 0x3F52 JUMP JUMPDEST POP PUSH1 0x60 DUP3 ADD MLOAD PUSH1 0x5 DUP3 ADD DUP1 SLOAD PUSH1 0xFF NOT AND SWAP2 ISZERO ISZERO SWAP2 SWAP1 SWAP2 OR SWAP1 SSTORE PUSH1 0x80 SWAP1 SWAP2 ADD MLOAD PUSH1 0x6 SWAP1 SWAP2 ADD SSTORE PUSH1 0x0 DUP3 DUP2 MSTORE PUSH1 0x16 PUSH1 0x20 SWAP1 DUP2 MSTORE PUSH1 0x40 DUP1 DUP4 KECCAK256 PUSH1 0x1 PUSH1 0x1 PUSH1 0xA0 SHL SUB DUP12 AND DUP5 MSTORE SWAP1 SWAP2 MSTORE DUP2 KECCAK256 DUP1 SLOAD PUSH1 0x1 SWAP3 SWAP1 PUSH2 0x3F43 SWAP1 DUP5 SWAP1 PUSH2 0x4F8C JUMP JUMPDEST SWAP1 SWAP2 SSTORE POP POP POP POP POP POP POP POP POP POP JUMP JUMPDEST DUP3 PUSH1 0x3 DUP2 ADD SWAP3 DUP3 ISZERO PUSH2 0x3F80 JUMPI SWAP2 PUSH1 0x20 MUL DUP3 ADD JUMPDEST DUP3 DUP2 GT ISZERO PUSH2 0x3F80 JUMPI DUP3 MLOAD DUP3 SSTORE SWAP2 PUSH1 0x20 ADD SWAP2 SWAP1 PUSH1 0x1 ADD SWAP1 PUSH2 0x3F65 JUMP JUMPDEST POP PUSH2 0x3F8C SWAP3 SWAP2 POP PUSH2 0x40A9 JUMP JUMPDEST POP SWAP1 JUMP JUMPDEST DUP3 PUSH1 0x3 DUP2 ADD SWAP3 DUP3 ISZERO PUSH2 0x3F80 JUMPI SWAP2 DUP3 ADD JUMPDEST DUP3 DUP2 GT ISZERO PUSH2 0x3F80 JUMPI DUP3 SLOAD DUP3 SSTORE SWAP2 PUSH1 0x1 ADD SWAP2 SWAP1 PUSH1 0x1 ADD SWAP1 PUSH2 0x3FA0 JUMP JUMPDEST PUSH1 0x40 MLOAD DUP1 PUSH2 0x100 ADD PUSH1 0x40 MSTORE DUP1 PUSH1 0x60 DUP2 MSTORE PUSH1 0x20 ADD PUSH1 0x0 DUP2 MSTORE PUSH1 0x20 ADD PUSH1 0x0 DUP2 MSTORE PUSH1 0x20 ADD PUSH1 0x0 DUP2 MSTORE PUSH1 0x20 ADD PUSH1 0x0 DUP2 MSTORE PUSH1 0x20 ADD PUSH2 0x3FF2 PUSH2 0x40BE JUMP JUMPDEST DUP2 MSTORE PUSH1 0x20 ADD PUSH1 0x0 ISZERO ISZERO DUP2 MSTORE PUSH1 0x20 ADD PUSH2 0x4024 PUSH1 0x40 MLOAD DUP1 PUSH1 0x60 ADD PUSH1 0x40 MSTORE DUP1 PUSH1 0x0 DUP2 MSTORE PUSH1 0x20 ADD PUSH1 0x0 DUP2 MSTORE PUSH1 0x20 ADD PUSH1 0x0 DUP2 MSTORE POP SWAP1 JUMP JUMPDEST SWAP1 MSTORE SWAP1 JUMP JUMPDEST PUSH1 0x40 DUP1 MLOAD PUSH1 0xA0 DUP2 ADD DUP3 MSTORE PUSH1 0x0 DUP1 DUP3 MSTORE PUSH1 0x20 DUP3 ADD MSTORE SWAP1 DUP2 ADD PUSH2 0x4048 PUSH2 0x40BE JUMP JUMPDEST DUP2 MSTORE PUSH1 0x0 PUSH1 0x20 DUP3 ADD DUP2 SWAP1 MSTORE PUSH1 0x40 SWAP1 SWAP2 ADD MSTORE SWAP1 JUMP JUMPDEST PUSH1 0x40 MLOAD DUP1 PUSH1 0x80 ADD PUSH1 0x40 MSTORE DUP1 PUSH1 0x0 PUSH1 0x1 PUSH1 0x1 PUSH1 0xA0 SHL SUB AND DUP2 MSTORE PUSH1 0x20 ADD PUSH1 0x0 DUP2 MSTORE PUSH1 0x20 ADD PUSH1 0x0 DUP2 MSTORE PUSH1 0x20 ADD PUSH2 0x4024 PUSH1 0x40 MLOAD DUP1 PUSH1 0x60 ADD PUSH1 0x40 MSTORE DUP1 PUSH1 0x0 DUP2 MSTORE PUSH1 0x20 ADD PUSH1 0x0 DUP2 MSTORE PUSH1 0x20 ADD PUSH1 0x0 DUP2 MSTORE POP SWAP1 JUMP JUMPDEST JUMPDEST DUP1 DUP3 GT ISZERO PUSH2 0x3F8C JUMPI PUSH1 0x0 DUP2 SSTORE PUSH1 0x1 ADD PUSH2 0x40AA JUMP JUMPDEST PUSH1 0x40 MLOAD DUP1 PUSH1 0x60 ADD PUSH1 0x40 MSTORE DUP1 PUSH1 0x3 SWAP1 PUSH1 0x20 DUP3 MUL DUP1 CALLDATASIZE DUP4 CALLDATACOPY POP SWAP2 SWAP3 SWAP2 POP POP JUMP JUMPDEST DUP1 JUMPDEST DUP2 EQ PUSH2 0x40E9 JUMPI PUSH1 0x0 DUP1 REVERT JUMPDEST POP JUMP JUMPDEST DUP1 CALLDATALOAD PUSH2 0x1991 DUP2 PUSH2 0x40DC JUMP JUMPDEST PUSH1 0x0 PUSH1 0x20 DUP3 DUP5 SUB SLT ISZERO PUSH2 0x410C JUMPI PUSH2 0x410C PUSH1 0x0 DUP1 REVERT JUMPDEST PUSH1 0x0 PUSH2 0x4118 DUP5 DUP5 PUSH2 0x40EC JUMP JUMPDEST SWAP5 SWAP4 POP POP POP POP JUMP JUMPDEST DUP1 ISZERO ISZERO JUMPDEST DUP3 MSTORE POP POP JUMP JUMPDEST PUSH1 0x20 DUP2 ADD PUSH2 0x1991 DUP3 DUP5 PUSH2 0x4120 JUMP JUMPDEST PUSH1 0x0 PUSH2 0x1991 PUSH1 0x1 PUSH1 0x1 PUSH1 0xA0 SHL SUB DUP4 AND PUSH2 0x414F JUMP JUMPDEST SWAP1 JUMP JUMPDEST PUSH1 0x1 PUSH1 0x1 PUSH1 0xA0 SHL SUB AND SWAP1 JUMP JUMPDEST PUSH1 0x0 PUSH2 0x1991 DUP3 PUSH2 0x4138 JUMP JUMPDEST PUSH1 0x0 PUSH2 0x1991 DUP3 PUSH2 0x415B JUMP JUMPDEST PUSH2 0x4124 DUP2 PUSH2 0x4166 JUMP JUMPDEST PUSH1 0x20 DUP2 ADD PUSH2 0x1991 DUP3 DUP5 PUSH2 0x4171 JUMP JUMPDEST DUP1 PUSH2 0x4124 JUMP JUMPDEST PUSH1 0x20 DUP2 ADD PUSH2 0x1991 DUP3 DUP5 PUSH2 0x4188 JUMP JUMPDEST PUSH4 0x4E487B71 PUSH1 0xE0 SHL PUSH1 0x0 MSTORE PUSH1 0x41 PUSH1 0x4 MSTORE PUSH1 0x24 PUSH1 0x0 REVERT JUMPDEST PUSH1 0x1F NOT PUSH1 0x1F DUP4 ADD AND DUP2 ADD DUP2 DUP2 LT PUSH8 0xFFFFFFFFFFFFFFFF DUP3 GT OR ISZERO PUSH2 0x41D8 JUMPI PUSH2 0x41D8 PUSH2 0x419C JUMP JUMPDEST PUSH1 0x40 MSTORE POP POP JUMP JUMPDEST PUSH1 0x0 PUSH2 0x41EA PUSH1 0x40 MLOAD SWAP1 JUMP JUMPDEST SWAP1 POP PUSH2 0x41F6 DUP3 DUP3 PUSH2 0x41B2 JUMP JUMPDEST SWAP2 SWAP1 POP JUMP JUMPDEST PUSH1 0x0 PUSH8 0xFFFFFFFFFFFFFFFF DUP3 GT ISZERO PUSH2 0x4215 JUMPI PUSH2 0x4215 PUSH2 0x419C JUMP JUMPDEST PUSH1 0x1F NOT PUSH1 0x1F DUP4 ADD AND PUSH1 0x20 ADD SWAP3 SWAP2 POP POP JUMP JUMPDEST DUP3 DUP2 DUP4 CALLDATACOPY POP PUSH1 0x0 SWAP2 ADD MSTORE JUMP JUMPDEST PUSH1 0x0 PUSH2 0x4245 PUSH2 0x4240 DUP5 PUSH2 0x41FB JUMP JUMPDEST PUSH2 0x41DF JUMP JUMPDEST SWAP1 POP DUP3 DUP2 MSTORE PUSH1 0x20 DUP2 ADD DUP5 DUP5 DUP5 ADD GT ISZERO PUSH2 0x4260 JUMPI PUSH2 0x4260 PUSH1 0x0 DUP1 REVERT JUMPDEST PUSH2 0x426B DUP5 DUP3 DUP6 PUSH2 0x4226 JUMP JUMPDEST POP SWAP4 SWAP3 POP POP POP JUMP JUMPDEST PUSH1 0x0 DUP3 PUSH1 0x1F DUP4 ADD SLT PUSH2 0x4287 JUMPI PUSH2 0x4287 PUSH1 0x0 DUP1 REVERT JUMPDEST DUP2 CALLDATALOAD PUSH2 0x4118 DUP5 DUP3 PUSH1 0x20 DUP7 ADD PUSH2 0x4232 JUMP JUMPDEST PUSH1 0x0 PUSH1 0x20 DUP3 DUP5 SUB SLT ISZERO PUSH2 0x42AC JUMPI PUSH2 0x42AC PUSH1 0x0 DUP1 REVERT JUMPDEST DUP2 CALLDATALOAD PUSH8 0xFFFFFFFFFFFFFFFF DUP2 GT ISZERO PUSH2 0x42C6 JUMPI PUSH2 0x42C6 PUSH1 0x0 DUP1 REVERT JUMPDEST PUSH2 0x4118 DUP5 DUP3 DUP6 ADD PUSH2 0x4273 JUMP JUMPDEST PUSH1 0x0 PUSH1 0x1 PUSH1 0x1 PUSH1 0xA0 SHL SUB DUP3 AND PUSH2 0x1991 JUMP JUMPDEST PUSH2 0x40DE DUP2 PUSH2 0x42D2 JUMP JUMPDEST DUP1 CALLDATALOAD PUSH2 0x1991 DUP2 PUSH2 0x42E3 JUMP JUMPDEST PUSH1 0x0 PUSH1 0x20 DUP3 DUP5 SUB SLT ISZERO PUSH2 0x430C JUMPI PUSH2 0x430C PUSH1 0x0 DUP1 REVERT JUMPDEST PUSH1 0x0 PUSH2 0x4118 DUP5 DUP5 PUSH2 0x42EC JUMP JUMPDEST PUSH1 0x0 DUP1 DUP4 PUSH1 0x1F DUP5 ADD SLT PUSH2 0x432D JUMPI PUSH2 0x432D PUSH1 0x0 DUP1 REVERT JUMPDEST POP DUP2 CALLDATALOAD PUSH8 0xFFFFFFFFFFFFFFFF DUP2 GT ISZERO PUSH2 0x4348 JUMPI PUSH2 0x4348 PUSH1 0x0 DUP1 REVERT JUMPDEST PUSH1 0x20 DUP4 ADD SWAP2 POP DUP4 PUSH1 0x1 DUP3 MUL DUP4 ADD GT ISZERO PUSH2 0x1200 JUMPI PUSH2 0x1200 PUSH1 0x0 DUP1 REVERT JUMPDEST PUSH1 0x0 DUP1 PUSH1 0x0 DUP1 PUSH1 0x0 DUP1 PUSH1 0x0 DUP1 PUSH1 0x0 DUP1 PUSH1 0xC0 DUP12 DUP14 SUB SLT ISZERO PUSH2 0x4385 JUMPI PUSH2 0x4385 PUSH1 0x0 DUP1 REVERT JUMPDEST PUSH1 0x0 PUSH2 0x4391 DUP14 DUP14 PUSH2 0x40EC JUMP JUMPDEST SWAP11 POP POP PUSH1 0x20 DUP12 ADD CALLDATALOAD PUSH8 0xFFFFFFFFFFFFFFFF DUP2 GT ISZERO PUSH2 0x43B1 JUMPI PUSH2 0x43B1 PUSH1 0x0 DUP1 REVERT JUMPDEST PUSH2 0x43BD DUP14 DUP3 DUP15 ADD PUSH2 0x4318 JUMP JUMPDEST SWAP10 POP SWAP10 POP POP PUSH1 0x40 DUP12 ADD CALLDATALOAD PUSH8 0xFFFFFFFFFFFFFFFF DUP2 GT ISZERO PUSH2 0x43DF JUMPI PUSH2 0x43DF PUSH1 0x0 DUP1 REVERT JUMPDEST PUSH2 0x43EB DUP14 DUP3 DUP15 ADD PUSH2 0x4318 JUMP JUMPDEST SWAP8 POP SWAP8 POP POP PUSH1 0x60 DUP12 ADD CALLDATALOAD PUSH8 0xFFFFFFFFFFFFFFFF DUP2 GT ISZERO PUSH2 0x440D JUMPI PUSH2 0x440D PUSH1 0x0 DUP1 REVERT JUMPDEST PUSH2 0x4419 DUP14 DUP3 DUP15 ADD PUSH2 0x4318 JUMP JUMPDEST SWAP6 POP SWAP6 POP POP PUSH1 0x80 DUP12 ADD CALLDATALOAD PUSH8 0xFFFFFFFFFFFFFFFF DUP2 GT ISZERO PUSH2 0x443B JUMPI PUSH2 0x443B PUSH1 0x0 DUP1 REVERT JUMPDEST PUSH2 0x4447 DUP14 DUP3 DUP15 ADD PUSH2 0x4318 JUMP JUMPDEST SWAP4 POP SWAP4 POP POP PUSH1 0xA0 PUSH2 0x445A DUP14 DUP3 DUP15 ADD PUSH2 0x40EC JUMP JUMPDEST SWAP2 POP POP SWAP3 SWAP6 SWAP9 SWAP12 SWAP2 SWAP5 SWAP8 SWAP11 POP SWAP3 SWAP6 SWAP9 POP JUMP JUMPDEST PUSH1 0x0 DUP1 PUSH1 0x40 DUP4 DUP6 SUB SLT ISZERO PUSH2 0x4482 JUMPI PUSH2 0x4482 PUSH1 0x0 DUP1 REVERT JUMPDEST PUSH1 0x0 PUSH2 0x448E DUP6 DUP6 PUSH2 0x40EC JUMP JUMPDEST SWAP3 POP POP PUSH1 0x20 PUSH2 0x449F DUP6 DUP3 DUP7 ADD PUSH2 0x40EC JUMP JUMPDEST SWAP2 POP POP SWAP3 POP SWAP3 SWAP1 POP JUMP JUMPDEST PUSH1 0x40 DUP2 ADD PUSH2 0x44B7 DUP3 DUP6 PUSH2 0x4120 JUMP JUMPDEST PUSH2 0x44C4 PUSH1 0x20 DUP4 ADD DUP5 PUSH2 0x4188 JUMP JUMPDEST SWAP4 SWAP3 POP POP POP JUMP JUMPDEST PUSH1 0x0 PUSH8 0xFFFFFFFFFFFFFFFF DUP3 GT ISZERO PUSH2 0x44E5 JUMPI PUSH2 0x44E5 PUSH2 0x419C JUMP JUMPDEST POP PUSH1 0x20 MUL SWAP1 JUMP JUMPDEST PUSH1 0x0 PUSH2 0x44FA PUSH2 0x4240 DUP5 PUSH2 0x44CB JUMP JUMPDEST SWAP1 POP DUP1 PUSH1 0x20 DUP5 MUL DUP4 ADD DUP6 DUP2 GT ISZERO PUSH2 0x4513 JUMPI PUSH2 0x4513 PUSH1 0x0 DUP1 REVERT JUMPDEST DUP4 JUMPDEST DUP2 DUP2 LT ISZERO PUSH2 0x4537 JUMPI DUP1 PUSH2 0x4528 DUP9 DUP3 PUSH2 0x40EC JUMP JUMPDEST DUP5 MSTORE POP PUSH1 0x20 SWAP3 DUP4 ADD SWAP3 ADD PUSH2 0x4515 JUMP JUMPDEST POP POP POP SWAP4 SWAP3 POP POP POP JUMP JUMPDEST PUSH1 0x0 DUP3 PUSH1 0x1F DUP4 ADD SLT PUSH2 0x4555 JUMPI PUSH2 0x4555 PUSH1 0x0 DUP1 REVERT JUMPDEST PUSH1 0x3 PUSH2 0x4118 DUP5 DUP3 DUP6 PUSH2 0x44EC JUMP JUMPDEST PUSH1 0x0 DUP1 PUSH1 0x0 DUP1 PUSH1 0x0 PUSH1 0xE0 DUP7 DUP9 SUB SLT ISZERO PUSH2 0x457D JUMPI PUSH2 0x457D PUSH1 0x0 DUP1 REVERT JUMPDEST PUSH1 0x0 PUSH2 0x4589 DUP9 DUP9 PUSH2 0x40EC JUMP JUMPDEST SWAP6 POP POP PUSH1 0x20 PUSH2 0x459A DUP9 DUP3 DUP10 ADD PUSH2 0x40EC JUMP JUMPDEST SWAP5 POP POP PUSH1 0x40 DUP7 ADD CALLDATALOAD PUSH8 0xFFFFFFFFFFFFFFFF DUP2 GT ISZERO PUSH2 0x45BA JUMPI PUSH2 0x45BA PUSH1 0x0 DUP1 REVERT JUMPDEST PUSH2 0x45C6 DUP9 DUP3 DUP10 ADD PUSH2 0x4273 JUMP JUMPDEST SWAP4 POP POP PUSH1 0x60 PUSH2 0x45D7 DUP9 DUP3 DUP10 ADD PUSH2 0x40EC JUMP JUMPDEST SWAP3 POP POP PUSH1 0x80 PUSH2 0x45E8 DUP9 DUP3 DUP10 ADD PUSH2 0x4541 JUMP JUMPDEST SWAP2 POP POP SWAP3 SWAP6 POP SWAP3 SWAP6 SWAP1 SWAP4 POP JUMP JUMPDEST DUP1 ISZERO ISZERO PUSH2 0x40DE JUMP JUMPDEST DUP1 CALLDATALOAD PUSH2 0x1991 DUP2 PUSH2 0x45F5 JUMP JUMPDEST PUSH1 0x0 DUP1 PUSH1 0x0 PUSH1 0xA0 DUP5 DUP7 SUB SLT ISZERO PUSH2 0x4620 JUMPI PUSH2 0x4620 PUSH1 0x0 DUP1 REVERT JUMPDEST PUSH1 0x0 PUSH2 0x462C DUP7 DUP7 PUSH2 0x4541 JUMP JUMPDEST SWAP4 POP POP PUSH1 0x60 PUSH2 0x463D DUP7 DUP3 DUP8 ADD PUSH2 0x45FD JUMP JUMPDEST SWAP3 POP POP PUSH1 0x80 PUSH2 0x464E DUP7 DUP3 DUP8 ADD PUSH2 0x40EC JUMP JUMPDEST SWAP2 POP POP SWAP3 POP SWAP3 POP SWAP3 JUMP JUMPDEST PUSH1 0x0 DUP1 PUSH1 0x0 DUP1 PUSH1 0x0 DUP1 PUSH1 0x0 PUSH1 0x80 DUP9 DUP11 SUB SLT ISZERO PUSH2 0x4676 JUMPI PUSH2 0x4676 PUSH1 0x0 DUP1 REVERT JUMPDEST PUSH1 0x0 PUSH2 0x4682 DUP11 DUP11 PUSH2 0x40EC JUMP JUMPDEST SWAP8 POP POP PUSH1 0x20 DUP9 ADD CALLDATALOAD PUSH8 0xFFFFFFFFFFFFFFFF DUP2 GT ISZERO PUSH2 0x46A2 JUMPI PUSH2 0x46A2 PUSH1 0x0 DUP1 REVERT JUMPDEST PUSH2 0x46AE DUP11 DUP3 DUP12 ADD PUSH2 0x4318 JUMP JUMPDEST SWAP7 POP SWAP7 POP POP PUSH1 0x40 DUP9 ADD CALLDATALOAD PUSH8 0xFFFFFFFFFFFFFFFF DUP2 GT ISZERO PUSH2 0x46D0 JUMPI PUSH2 0x46D0 PUSH1 0x0 DUP1 REVERT JUMPDEST PUSH2 0x46DC DUP11 DUP3 DUP12 ADD PUSH2 0x4318 JUMP JUMPDEST SWAP5 POP SWAP5 POP POP PUSH1 0x60 DUP9 ADD CALLDATALOAD PUSH8 0xFFFFFFFFFFFFFFFF DUP2 GT ISZERO PUSH2 0x46FE JUMPI PUSH2 0x46FE PUSH1 0x0 DUP1 REVERT JUMPDEST PUSH2 0x470A DUP11 DUP3 DUP12 ADD PUSH2 0x4318 JUMP JUMPDEST SWAP3 POP SWAP3 POP POP SWAP3 SWAP6 SWAP9 SWAP2 SWAP5 SWAP8 POP SWAP3 SWAP6 POP JUMP JUMPDEST PUSH2 0x4124 DUP2 PUSH2 0x42D2 JUMP JUMPDEST PUSH1 0x80 DUP2 ADD PUSH2 0x4732 DUP3 DUP8 PUSH2 0x471B JUMP JUMPDEST PUSH2 0x473F PUSH1 0x20 DUP4 ADD DUP7 PUSH2 0x4188 JUMP JUMPDEST PUSH2 0x474C PUSH1 0x40 DUP4 ADD DUP6 PUSH2 0x4120 JUMP JUMPDEST PUSH2 0xC61 PUSH1 0x60 DUP4 ADD DUP5 PUSH2 0x4188 JUMP JUMPDEST PUSH1 0x0 JUMPDEST DUP4 DUP2 LT ISZERO PUSH2 0x4774 JUMPI DUP2 DUP2 ADD MLOAD DUP4 DUP3 ADD MSTORE PUSH1 0x20 ADD PUSH2 0x475C JUMP JUMPDEST POP POP PUSH1 0x0 SWAP2 ADD MSTORE JUMP JUMPDEST PUSH1 0x0 PUSH2 0x4787 DUP3 MLOAD SWAP1 JUMP JUMPDEST DUP1 DUP5 MSTORE PUSH1 0x20 DUP5 ADD SWAP4 POP PUSH2 0x479E DUP2 DUP6 PUSH1 0x20 DUP7 ADD PUSH2 0x4759 JUMP JUMPDEST PUSH1 0x1F NOT PUSH1 0x1F DUP3 ADD AND JUMPDEST SWAP1 SWAP4 ADD SWAP4 SWAP3 POP POP POP JUMP JUMPDEST PUSH1 0x40 DUP1 DUP3 MSTORE DUP2 ADD PUSH2 0x47C2 DUP2 DUP6 PUSH2 0x477D JUMP JUMPDEST SWAP1 POP PUSH2 0x44C4 PUSH1 0x20 DUP4 ADD DUP5 PUSH2 0x4188 JUMP JUMPDEST PUSH1 0x0 DUP1 PUSH1 0x0 PUSH1 0x60 DUP5 DUP7 SUB SLT ISZERO PUSH2 0x47E9 JUMPI PUSH2 0x47E9 PUSH1 0x0 DUP1 REVERT JUMPDEST PUSH1 0x0 PUSH2 0x47F5 DUP7 DUP7 PUSH2 0x40EC JUMP JUMPDEST SWAP4 POP POP PUSH1 0x20 PUSH2 0x4806 DUP7 DUP3 DUP8 ADD PUSH2 0x40EC JUMP JUMPDEST SWAP3 POP POP PUSH1 0x40 PUSH2 0x464E DUP7 DUP3 DUP8 ADD PUSH2 0x40EC JUMP JUMPDEST PUSH1 0x20 DUP1 DUP3 MSTORE DUP2 ADD PUSH2 0x198E DUP2 DUP5 PUSH2 0x477D JUMP JUMPDEST PUSH1 0x0 DUP1 PUSH1 0x0 PUSH1 0x60 DUP5 DUP7 SUB SLT ISZERO PUSH2 0x4840 JUMPI PUSH2 0x4840 PUSH1 0x0 DUP1 REVERT JUMPDEST PUSH1 0x0 PUSH2 0x484C DUP7 DUP7 PUSH2 0x40EC JUMP JUMPDEST SWAP4 POP POP PUSH1 0x20 PUSH2 0x4806 DUP7 DUP3 DUP8 ADD PUSH2 0x45FD JUMP JUMPDEST DUP1 MLOAD PUSH1 0x60 DUP4 ADD SWAP1 PUSH2 0x486E DUP5 DUP3 PUSH2 0x4188 JUMP JUMPDEST POP PUSH1 0x20 DUP3 ADD MLOAD PUSH2 0x4881 PUSH1 0x20 DUP6 ADD DUP3 PUSH2 0x4188 JUMP JUMPDEST POP PUSH1 0x40 DUP3 ADD MLOAD PUSH2 0x1F9E PUSH1 0x40 DUP6 ADD DUP3 PUSH2 0x4188 JUMP JUMPDEST PUSH1 0xC0 DUP2 ADD PUSH2 0x48A2 DUP3 DUP8 PUSH2 0x471B JUMP JUMPDEST PUSH2 0x48AF PUSH1 0x20 DUP4 ADD DUP7 PUSH2 0x4188 JUMP JUMPDEST PUSH2 0x48BC PUSH1 0x40 DUP4 ADD DUP6 PUSH2 0x4188 JUMP JUMPDEST PUSH2 0xC61 PUSH1 0x60 DUP4 ADD DUP5 PUSH2 0x485D JUMP JUMPDEST PUSH1 0x20 DUP2 ADD PUSH2 0x1991 DUP3 DUP5 PUSH2 0x471B JUMP JUMPDEST PUSH1 0x0 PUSH2 0x48E3 DUP4 DUP4 PUSH2 0x4188 JUMP JUMPDEST POP POP PUSH1 0x20 ADD SWAP1 JUMP JUMPDEST PUSH1 0x3 DUP2 DUP1 PUSH1 0x0 JUMPDEST DUP4 DUP2 LT ISZERO PUSH2 0x385B JUMPI DUP2 MLOAD PUSH2 0x4906 DUP8 DUP3 PUSH2 0x48D7 JUMP JUMPDEST SWAP7 POP PUSH1 0x20 DUP4 ADD SWAP3 POP POP PUSH1 0x1 ADD PUSH2 0x48F2 JUMP JUMPDEST DUP1 MLOAD PUSH2 0x180 DUP1 DUP5 MSTORE PUSH1 0x0 SWAP2 SWAP1 DUP5 ADD SWAP1 PUSH2 0x4930 DUP3 DUP3 PUSH2 0x477D JUMP JUMPDEST SWAP2 POP POP PUSH1 0x20 DUP4 ADD MLOAD PUSH2 0x4945 PUSH1 0x20 DUP7 ADD DUP3 PUSH2 0x4188 JUMP JUMPDEST POP PUSH1 0x40 DUP4 ADD MLOAD PUSH2 0x4958 PUSH1 0x40 DUP7 ADD DUP3 PUSH2 0x4188 JUMP JUMPDEST POP PUSH1 0x60 DUP4 ADD MLOAD PUSH2 0x496B PUSH1 0x60 DUP7 ADD DUP3 PUSH2 0x4188 JUMP JUMPDEST POP PUSH1 0x80 DUP4 ADD MLOAD PUSH2 0x497E PUSH1 0x80 DUP7 ADD DUP3 PUSH2 0x4188 JUMP JUMPDEST POP PUSH1 0xA0 DUP4 ADD MLOAD PUSH2 0x4991 PUSH1 0xA0 DUP7 ADD DUP3 PUSH2 0x48EB JUMP JUMPDEST POP PUSH1 0xC0 DUP4 ADD MLOAD PUSH2 0x49A5 PUSH2 0x100 DUP7 ADD DUP3 PUSH2 0x4120 JUMP JUMPDEST POP PUSH1 0xE0 DUP4 ADD MLOAD PUSH2 0x426B PUSH2 0x120 DUP7 ADD DUP3 PUSH2 0x485D JUMP JUMPDEST PUSH1 0x20 DUP1 DUP3 MSTORE DUP2 ADD PUSH2 0x198E DUP2 DUP5 PUSH2 0x4917 JUMP JUMPDEST PUSH1 0x0 DUP1 PUSH1 0x40 DUP4 DUP6 SUB SLT ISZERO PUSH2 0x49E0 JUMPI PUSH2 0x49E0 PUSH1 0x0 DUP1 REVERT JUMPDEST PUSH1 0x0 PUSH2 0x49EC DUP6 DUP6 PUSH2 0x40EC JUMP JUMPDEST SWAP3 POP POP PUSH1 0x20 PUSH2 0x449F DUP6 DUP3 DUP7 ADD PUSH2 0x42EC JUMP JUMPDEST DUP1 MLOAD PUSH1 0xE0 DUP4 ADD SWAP1 PUSH2 0x4A0E DUP5 DUP3 PUSH2 0x471B JUMP JUMPDEST POP PUSH1 0x20 DUP3 ADD MLOAD PUSH2 0x4A21 PUSH1 0x20 DUP6 ADD DUP3 PUSH2 0x4188 JUMP JUMPDEST POP PUSH1 0x40 DUP3 ADD MLOAD PUSH2 0x4A34 PUSH1 0x40 DUP6 ADD DUP3 PUSH2 0x48EB JUMP JUMPDEST POP PUSH1 0x60 DUP3 ADD MLOAD PUSH2 0x4A47 PUSH1 0xA0 DUP6 ADD DUP3 PUSH2 0x4120 JUMP JUMPDEST POP PUSH1 0x80 DUP3 ADD MLOAD PUSH2 0x1F9E PUSH1 0xC0 DUP6 ADD DUP3 PUSH2 0x4188 JUMP JUMPDEST PUSH1 0x0 PUSH2 0x4A66 DUP4 DUP4 PUSH2 0x49FD JUMP JUMPDEST POP POP PUSH1 0xE0 ADD SWAP1 JUMP JUMPDEST PUSH1 0x0 PUSH2 0x4A78 DUP3 MLOAD SWAP1 JUMP JUMPDEST DUP1 DUP5 MSTORE PUSH1 0x20 SWAP4 DUP5 ADD SWAP4 DUP4 ADD DUP1 PUSH1 0x0 JUMPDEST DUP4 DUP2 LT ISZERO PUSH2 0x4AAC JUMPI DUP2 MLOAD PUSH2 0x4A9B DUP9 DUP3 PUSH2 0x4A5A JUMP JUMPDEST SWAP8 POP PUSH1 0x20 DUP4 ADD SWAP3 POP POP PUSH1 0x1 ADD PUSH2 0x4A87 JUMP JUMPDEST POP SWAP5 SWAP6 SWAP5 POP POP POP POP POP JUMP JUMPDEST PUSH1 0x20 DUP1 DUP3 MSTORE DUP2 ADD PUSH2 0x198E DUP2 DUP5 PUSH2 0x4A6E JUMP JUMPDEST PUSH2 0x120 DUP1 DUP3 MSTORE DUP2 ADD PUSH2 0x4ADA DUP2 DUP11 PUSH2 0x477D JUMP JUMPDEST SWAP1 POP PUSH2 0x4AE9 PUSH1 0x20 DUP4 ADD DUP10 PUSH2 0x4188 JUMP JUMPDEST PUSH2 0x4AF6 PUSH1 0x40 DUP4 ADD DUP9 PUSH2 0x4188 JUMP JUMPDEST PUSH2 0x4B03 PUSH1 0x60 DUP4 ADD DUP8 PUSH2 0x4188 JUMP JUMPDEST PUSH2 0x4B10 PUSH1 0x80 DUP4 ADD DUP7 PUSH2 0x4188 JUMP JUMPDEST PUSH2 0x4B1D PUSH1 0xA0 DUP4 ADD DUP6 PUSH2 0x4120 JUMP JUMPDEST PUSH2 0x4B2A PUSH1 0xC0 DUP4 ADD DUP5 PUSH2 0x485D JUMP JUMPDEST SWAP9 SWAP8 POP POP POP POP POP POP POP POP JUMP JUMPDEST DUP1 MLOAD PUSH1 0xC0 DUP4 ADD SWAP1 PUSH2 0x4B47 DUP5 DUP3 PUSH2 0x471B JUMP JUMPDEST POP PUSH1 0x20 DUP3 ADD MLOAD PUSH2 0x4B5A PUSH1 0x20 DUP6 ADD DUP3 PUSH2 0x4188 JUMP JUMPDEST POP PUSH1 0x40 DUP3 ADD MLOAD PUSH2 0x4B6D PUSH1 0x40 DUP6 ADD DUP3 PUSH2 0x4188 JUMP JUMPDEST POP PUSH1 0x60 DUP3 ADD MLOAD PUSH2 0x1F9E PUSH1 0x60 DUP6 ADD DUP3 PUSH2 0x485D JUMP JUMPDEST PUSH1 0xC0 DUP2 ADD PUSH2 0x1991 DUP3 DUP5 PUSH2 0x4B36 JUMP JUMPDEST PUSH1 0x0 DUP1 PUSH1 0x0 DUP1 PUSH1 0x80 DUP6 DUP8 SUB SLT ISZERO PUSH2 0x4BA7 JUMPI PUSH2 0x4BA7 PUSH1 0x0 DUP1 REVERT JUMPDEST PUSH1 0x0 PUSH2 0x4BB3 DUP8 DUP8 PUSH2 0x40EC JUMP JUMPDEST SWAP5 POP POP PUSH1 0x20 PUSH2 0x4BC4 DUP8 DUP3 DUP9 ADD PUSH2 0x40EC JUMP JUMPDEST SWAP4 POP POP PUSH1 0x40 PUSH2 0x4BD5 DUP8 DUP3 DUP9 ADD PUSH2 0x40EC JUMP JUMPDEST SWAP3 POP POP PUSH1 0x60 PUSH2 0x4BE6 DUP8 DUP3 DUP9 ADD PUSH2 0x40EC JUMP JUMPDEST SWAP2 POP POP SWAP3 SWAP6 SWAP2 SWAP5 POP SWAP3 POP JUMP JUMPDEST PUSH1 0x0 DUP1 PUSH1 0x40 DUP4 DUP6 SUB SLT ISZERO PUSH2 0x4C08 JUMPI PUSH2 0x4C08 PUSH1 0x0 DUP1 REVERT JUMPDEST DUP3 CALLDATALOAD PUSH8 0xFFFFFFFFFFFFFFFF DUP2 GT ISZERO PUSH2 0x4C22 JUMPI PUSH2 0x4C22 PUSH1 0x0 DUP1 REVERT JUMPDEST PUSH2 0x4C2E DUP6 DUP3 DUP7 ADD PUSH2 0x4273 JUMP JUMPDEST SWAP3 POP POP PUSH1 0x20 DUP4 ADD CALLDATALOAD PUSH8 0xFFFFFFFFFFFFFFFF DUP2 GT ISZERO PUSH2 0x4C4E JUMPI PUSH2 0x4C4E PUSH1 0x0 DUP1 REVERT JUMPDEST PUSH2 0x449F DUP6 DUP3 DUP7 ADD PUSH2 0x4273 JUMP JUMPDEST PUSH1 0x60 DUP2 ADD PUSH2 0x4C68 DUP3 DUP7 PUSH2 0x4188 JUMP JUMPDEST PUSH2 0x4C75 PUSH1 0x20 DUP4 ADD DUP6 PUSH2 0x4188 JUMP JUMPDEST PUSH2 0x4118 PUSH1 0x40 DUP4 ADD DUP5 PUSH2 0x4188 JUMP JUMPDEST PUSH1 0x0 PUSH2 0x198E DUP4 DUP4 PUSH2 0x477D JUMP JUMPDEST PUSH1 0x0 PUSH2 0x4C98 DUP3 MLOAD SWAP1 JUMP JUMPDEST DUP1 DUP5 MSTORE PUSH1 0x20 DUP5 ADD SWAP4 POP DUP4 PUSH1 0x20 DUP3 MUL DUP6 ADD PUSH2 0x4CB2 DUP6 PUSH1 0x20 ADD SWAP1 JUMP JUMPDEST DUP1 PUSH1 0x0 JUMPDEST DUP6 DUP2 LT ISZERO PUSH2 0x4CE7 JUMPI DUP5 DUP5 SUB DUP10 MSTORE DUP2 MLOAD PUSH2 0x4CCF DUP6 DUP3 PUSH2 0x4C82 JUMP JUMPDEST SWAP5 POP PUSH1 0x20 DUP4 ADD PUSH1 0x20 SWAP11 SWAP1 SWAP11 ADD SWAP10 SWAP3 POP POP PUSH1 0x1 ADD PUSH2 0x4CB6 JUMP JUMPDEST POP SWAP2 SWAP8 SWAP7 POP POP POP POP POP POP POP JUMP JUMPDEST PUSH1 0x0 PUSH2 0x4CFE DUP3 MLOAD SWAP1 JUMP JUMPDEST DUP1 DUP5 MSTORE PUSH1 0x20 SWAP4 DUP5 ADD SWAP4 DUP4 ADD DUP1 PUSH1 0x0 JUMPDEST DUP4 DUP2 LT ISZERO PUSH2 0x4AAC JUMPI DUP2 MLOAD PUSH2 0x4D21 DUP9 DUP3 PUSH2 0x48D7 JUMP JUMPDEST SWAP8 POP PUSH1 0x20 DUP4 ADD SWAP3 POP POP PUSH1 0x1 ADD PUSH2 0x4D0D JUMP JUMPDEST PUSH1 0x40 DUP1 DUP3 MSTORE DUP2 ADD PUSH2 0x4D43 DUP2 DUP6 PUSH2 0x4C8E JUMP JUMPDEST SWAP1 POP DUP2 DUP2 SUB PUSH1 0x20 DUP4 ADD MSTORE PUSH2 0x4118 DUP2 DUP5 PUSH2 0x4CF4 JUMP JUMPDEST PUSH1 0x3 DUP2 MSTORE PUSH1 0x0 PUSH1 0x20 DUP3 ADD PUSH32 0x7573640000000000000000000000000000000000000000000000000000000000 DUP2 MSTORE SWAP2 POP JUMPDEST POP PUSH1 0x20 ADD SWAP1 JUMP JUMPDEST PUSH1 0x40 DUP1 DUP3 MSTORE DUP2 ADD PUSH2 0x4D9F DUP2 DUP5 PUSH2 0x477D JUMP JUMPDEST SWAP1 POP DUP2 DUP2 SUB PUSH1 0x20 DUP4 ADD MSTORE PUSH2 0x198E DUP2 PUSH2 0x4D57 JUMP JUMPDEST PUSH1 0x9 DUP2 MSTORE PUSH1 0x0 PUSH1 0x20 DUP3 ADD PUSH32 0x53706F7450726963650000000000000000000000000000000000000000000000 DUP2 MSTORE SWAP2 POP PUSH2 0x4D87 JUMP JUMPDEST PUSH1 0x40 DUP1 DUP3 MSTORE DUP2 ADD PUSH2 0x4DF6 DUP2 PUSH2 0x4DB2 JUMP JUMPDEST SWAP1 POP DUP2 DUP2 SUB PUSH1 0x20 DUP4 ADD MSTORE PUSH2 0x198E DUP2 DUP5 PUSH2 0x477D JUMP JUMPDEST PUSH4 0x4E487B71 PUSH1 0xE0 SHL PUSH1 0x0 MSTORE PUSH1 0x11 PUSH1 0x4 MSTORE PUSH1 0x24 PUSH1 0x0 REVERT JUMPDEST DUP2 DUP2 SUB DUP2 DUP2 GT ISZERO PUSH2 0x1991 JUMPI PUSH2 0x1991 PUSH2 0x4E0A JUMP JUMPDEST DUP1 MLOAD PUSH2 0x1991 DUP2 PUSH2 0x40DC JUMP JUMPDEST PUSH1 0x0 PUSH1 0x20 DUP3 DUP5 SUB SLT ISZERO PUSH2 0x4E53 JUMPI PUSH2 0x4E53 PUSH1 0x0 DUP1 REVERT JUMPDEST PUSH1 0x0 PUSH2 0x4118 DUP5 DUP5 PUSH2 0x4E33 JUMP JUMPDEST PUSH4 0x4E487B71 PUSH1 0xE0 SHL PUSH1 0x0 MSTORE PUSH1 0x12 PUSH1 0x4 MSTORE PUSH1 0x24 PUSH1 0x0 REVERT JUMPDEST PUSH1 0x0 DUP3 PUSH2 0x4E84 JUMPI PUSH2 0x4E84 PUSH2 0x4E5F JUMP JUMPDEST POP DIV SWAP1 JUMP JUMPDEST PUSH1 0x0 PUSH2 0x4E96 DUP4 DUP6 DUP5 PUSH2 0x4226 JUMP JUMPDEST POP POP ADD SWAP1 JUMP JUMPDEST PUSH1 0x0 PUSH2 0x4118 DUP3 DUP5 DUP7 PUSH2 0x4E89 JUMP JUMPDEST DUP2 DUP4 MSTORE PUSH1 0x0 PUSH1 0x20 DUP5 ADD SWAP4 POP PUSH2 0x4EBF DUP4 DUP6 DUP5 PUSH2 0x4226 JUMP JUMPDEST PUSH1 0x1F NOT PUSH1 0x1F DUP5 ADD AND PUSH2 0x47A7 JUMP JUMPDEST PUSH1 0xC0 DUP2 ADD PUSH2 0x4EDA DUP3 DUP13 PUSH2 0x4188 JUMP JUMPDEST DUP2 DUP2 SUB PUSH1 0x20 DUP4 ADD MSTORE PUSH2 0x4EED DUP2 DUP11 DUP13 PUSH2 0x4EA9 JUMP JUMPDEST SWAP1 POP DUP2 DUP2 SUB PUSH1 0x40 DUP4 ADD MSTORE PUSH2 0x4F02 DUP2 DUP9 DUP11 PUSH2 0x4EA9 JUMP JUMPDEST SWAP1 POP PUSH2 0x4F11 PUSH1 0x60 DUP4 ADD DUP8 PUSH2 0x4188 JUMP JUMPDEST DUP2 DUP2 SUB PUSH1 0x80 DUP4 ADD MSTORE PUSH2 0x4F24 DUP2 DUP6 DUP8 PUSH2 0x4EA9 JUMP JUMPDEST SWAP1 POP PUSH2 0x4F33 PUSH1 0xA0 DUP4 ADD DUP5 PUSH2 0x4188 JUMP JUMPDEST SWAP11 SWAP10 POP POP POP POP POP POP POP POP POP POP JUMP JUMPDEST DUP1 MLOAD PUSH2 0x1991 DUP2 PUSH2 0x45F5 JUMP JUMPDEST PUSH1 0x0 PUSH1 0x20 DUP3 DUP5 SUB SLT ISZERO PUSH2 0x4F61 JUMPI PUSH2 0x4F61 PUSH1 0x0 DUP1 REVERT JUMPDEST PUSH1 0x0 PUSH2 0x4118 DUP5 DUP5 PUSH2 0x4F41 JUMP JUMPDEST DUP2 DUP2 MUL DUP1 DUP3 ISZERO DUP4 DUP3 DIV DUP6 EQ OR PUSH2 0x4F85 JUMPI PUSH2 0x4F85 PUSH2 0x4E0A JUMP JUMPDEST POP SWAP3 SWAP2 POP POP JUMP JUMPDEST DUP1 DUP3 ADD DUP1 DUP3 GT ISZERO PUSH2 0x1991 JUMPI PUSH2 0x1991 PUSH2 0x4E0A JUMP JUMPDEST PUSH1 0x8 DUP2 MSTORE PUSH1 0x0 PUSH1 0x20 DUP3 ADD PUSH32 0x526F756E64204F6E000000000000000000000000000000000000000000000000 DUP2 MSTORE SWAP2 POP PUSH2 0x4D87 JUMP JUMPDEST PUSH1 0x20 DUP1 DUP3 MSTORE DUP2 ADD PUSH2 0x1991 DUP2 PUSH2 0x4F9F JUMP JUMPDEST PUSH1 0xE DUP2 MSTORE PUSH1 0x0 PUSH1 0x20 DUP3 ADD PUSH32 0x21204F726967696E20436861696E000000000000000000000000000000000000 DUP2 MSTORE SWAP2 POP PUSH2 0x4D87 JUMP JUMPDEST PUSH1 0x20 DUP1 DUP3 MSTORE DUP2 ADD PUSH2 0x1991 DUP2 PUSH2 0x4FE3 JUMP JUMPDEST PUSH1 0xE DUP2 MSTORE PUSH1 0x0 PUSH1 0x20 DUP3 ADD PUSH32 0x21205469636B6574204F776E6572000000000000000000000000000000000000 DUP2 MSTORE SWAP2 POP PUSH2 0x4D87 JUMP JUMPDEST PUSH1 0x20 DUP1 DUP3 MSTORE DUP2 ADD PUSH2 0x1991 DUP2 PUSH2 0x5027 JUMP JUMPDEST PUSH1 0x7 DUP2 MSTORE PUSH1 0x0 PUSH1 0x20 DUP3 ADD PUSH32 0x436C61696D656400000000000000000000000000000000000000000000000000 DUP2 MSTORE SWAP2 POP PUSH2 0x4D87 JUMP JUMPDEST PUSH1 0x20 DUP1 DUP3 MSTORE DUP2 ADD PUSH2 0x1991 DUP2 PUSH2 0x506B JUMP JUMPDEST PUSH1 0x8 DUP2 MSTORE PUSH1 0x0 PUSH1 0x20 DUP3 ADD PUSH32 0x212057696E6E6572000000000000000000000000000000000000000000000000 DUP2 MSTORE SWAP2 POP PUSH2 0x4D87 JUMP JUMPDEST PUSH1 0x20 DUP1 DUP3 MSTORE DUP2 ADD PUSH2 0x1991 DUP2 PUSH2 0x50AF JUMP JUMPDEST PUSH1 0x40 DUP2 ADD PUSH2 0x44B7 DUP3 DUP6 PUSH2 0x4188 JUMP JUMPDEST PUSH1 0x0 DUP1 PUSH1 0x40 DUP4 DUP6 SUB SLT ISZERO PUSH2 0x5117 JUMPI PUSH2 0x5117 PUSH1 0x0 DUP1 REVERT JUMPDEST PUSH1 0x0 PUSH2 0x5123 DUP6 DUP6 PUSH2 0x4F41 JUMP JUMPDEST SWAP3 POP POP PUSH1 0x20 PUSH2 0x449F DUP6 DUP3 DUP7 ADD PUSH2 0x4E33 JUMP JUMPDEST PUSH1 0xF DUP2 MSTORE PUSH1 0x0 PUSH1 0x20 DUP3 ADD PUSH32 0x215370656369616C2043616C6C65720000000000000000000000000000000000 DUP2 MSTORE SWAP2 POP PUSH2 0x4D87 JUMP JUMPDEST PUSH1 0x20 DUP1 DUP3 MSTORE DUP2 ADD PUSH2 0x1991 DUP2 PUSH2 0x5134 JUMP JUMPDEST PUSH4 0x4E487B71 PUSH1 0xE0 SHL PUSH1 0x0 MSTORE PUSH1 0x22 PUSH1 0x4 MSTORE PUSH1 0x24 PUSH1 0x0 REVERT JUMPDEST PUSH1 0x2 DUP2 DIV PUSH1 0x1 DUP3 AND DUP1 PUSH2 0x51A2 JUMPI PUSH1 0x7F DUP3 AND SWAP2 POP JUMPDEST PUSH1 0x20 DUP3 LT DUP2 SUB PUSH2 0x2996 JUMPI PUSH2 0x2996 PUSH2 0x5178 JUMP JUMPDEST PUSH1 0x0 PUSH2 0x1991 PUSH2 0x414C DUP4 DUP2 JUMP JUMPDEST PUSH2 0x51C9 DUP4 PUSH2 0x51B4 JUMP JUMPDEST DUP2 SLOAD PUSH1 0x8 DUP5 MUL DUP3 DUP2 SHL PUSH1 0x0 NOT SWAP1 SWAP2 SHL SWAP1 DUP2 AND SWAP1 NOT SWAP1 SWAP2 AND OR DUP3 SSTORE POP POP POP POP JUMP JUMPDEST PUSH1 0x0 PUSH2 0x2B89 DUP2 DUP5 DUP5 PUSH2 0x51C0 JUMP JUMPDEST DUP2 DUP2 LT ISZERO PUSH2 0x2C30 JUMPI PUSH2 0x5209 PUSH1 0x0 DUP3 PUSH2 0x51E9 JUMP JUMPDEST PUSH1 0x1 ADD PUSH2 0x51F6 JUMP JUMPDEST PUSH1 0x1F DUP3 GT ISZERO PUSH2 0x2B89 JUMPI PUSH1 0x0 DUP2 DUP2 MSTORE PUSH1 0x20 SWAP1 KECCAK256 PUSH1 0x20 PUSH1 0x1F DUP6 ADD DIV DUP2 ADD PUSH1 0x20 DUP6 LT ISZERO PUSH2 0x5238 JUMPI POP DUP1 JUMPDEST PUSH2 0x130A PUSH1 0x20 PUSH1 0x1F DUP7 ADD DIV DUP4 ADD DUP3 PUSH2 0x51F6 JUMP JUMPDEST DUP2 MLOAD PUSH8 0xFFFFFFFFFFFFFFFF DUP2 GT ISZERO PUSH2 0x5264 JUMPI PUSH2 0x5264 PUSH2 0x419C JUMP JUMPDEST PUSH2 0x526E DUP3 SLOAD PUSH2 0x518E JUMP JUMPDEST PUSH2 0x5279 DUP3 DUP3 DUP6 PUSH2 0x5211 JUMP JUMPDEST PUSH1 0x20 PUSH1 0x1F DUP4 GT PUSH1 0x1 DUP2 EQ PUSH2 0x52AD JUMPI PUSH1 0x0 DUP5 ISZERO PUSH2 0x5295 JUMPI POP DUP6 DUP3 ADD MLOAD JUMPDEST PUSH1 0x0 NOT PUSH1 0x8 DUP7 MUL SHR NOT DUP2 AND PUSH1 0x2 DUP7 MUL OR DUP7 SSTORE POP PUSH2 0x385B JUMP JUMPDEST PUSH1 0x0 DUP6 DUP2 MSTORE PUSH1 0x20 DUP2 KECCAK256 PUSH1 0x1F NOT DUP7 AND SWAP2 JUMPDEST DUP3 DUP2 LT ISZERO PUSH2 0x52DD JUMPI DUP9 DUP6 ADD MLOAD DUP3 SSTORE PUSH1 0x20 SWAP5 DUP6 ADD SWAP5 PUSH1 0x1 SWAP1 SWAP3 ADD SWAP2 ADD PUSH2 0x52BD JUMP JUMPDEST DUP7 DUP4 LT ISZERO PUSH2 0x52F9 JUMPI DUP5 DUP10 ADD MLOAD PUSH1 0x0 NOT PUSH1 0x1F DUP10 AND PUSH1 0x8 MUL SHR NOT AND DUP3 SSTORE JUMPDEST PUSH1 0x1 PUSH1 0x2 DUP9 MUL ADD DUP9 SSTORE POP POP POP POP POP POP POP POP POP JUMP JUMPDEST PUSH1 0xD DUP2 MSTORE PUSH1 0x0 PUSH1 0x20 DUP3 ADD PUSH32 0x526F756E64205061737365642100000000000000000000000000000000000000 DUP2 MSTORE SWAP2 POP PUSH2 0x4D87 JUMP JUMPDEST PUSH1 0x20 DUP1 DUP3 MSTORE DUP2 ADD PUSH2 0x1991 DUP2 PUSH2 0x530D JUMP JUMPDEST PUSH1 0xC DUP2 MSTORE PUSH1 0x0 PUSH1 0x20 DUP3 ADD PUSH32 0x456E74727920436C6F7365640000000000000000000000000000000000000000 DUP2 MSTORE SWAP2 POP PUSH2 0x4D87 JUMP JUMPDEST PUSH1 0x20 DUP1 DUP3 MSTORE DUP2 ADD PUSH2 0x1991 DUP2 PUSH2 0x5351 JUMP JUMPDEST PUSH4 0x4E487B71 PUSH1 0xE0 SHL PUSH1 0x0 MSTORE PUSH1 0x32 PUSH1 0x4 MSTORE PUSH1 0x24 PUSH1 0x0 REVERT JUMPDEST PUSH1 0x8 DUP2 MSTORE PUSH1 0x0 PUSH1 0x20 DUP3 ADD PUSH32 0x4E756D203E203330000000000000000000000000000000000000000000000000 DUP2 MSTORE SWAP2 POP PUSH2 0x4D87 JUMP JUMPDEST PUSH1 0x20 DUP1 DUP3 MSTORE DUP2 ADD PUSH2 0x1991 DUP2 PUSH2 0x53AB JUMP JUMPDEST PUSH1 0x0 PUSH1 0x0 NOT DUP3 SUB PUSH2 0x5402 JUMPI PUSH2 0x5402 PUSH2 0x4E0A JUMP JUMPDEST POP PUSH1 0x1 ADD SWAP1 JUMP JUMPDEST PUSH1 0x7 DUP2 MSTORE PUSH1 0x0 PUSH1 0x20 DUP3 ADD PUSH32 0x4C6F772042616C00000000000000000000000000000000000000000000000000 DUP2 MSTORE SWAP2 POP PUSH2 0x4D87 JUMP JUMPDEST PUSH1 0x20 DUP1 DUP3 MSTORE DUP2 ADD PUSH2 0x1991 DUP2 PUSH2 0x5409 JUMP JUMPDEST PUSH1 0x1B DUP2 MSTORE PUSH1 0x0 PUSH1 0x20 DUP3 ADD PUSH32 0x496E73756666696369656E742057616C6C65742042616C616E63650000000000 DUP2 MSTORE SWAP2 POP PUSH2 0x4D87 JUMP JUMPDEST PUSH1 0x20 DUP1 DUP3 MSTORE DUP2 ADD PUSH2 0x1991 DUP2 PUSH2 0x544D JUMP JUMPDEST PUSH1 0xB DUP2 MSTORE PUSH1 0x0 PUSH1 0x20 DUP3 ADD PUSH32 0x4D6178205469636B657473000000000000000000000000000000000000000000 DUP2 MSTORE SWAP2 POP PUSH2 0x4D87 JUMP JUMPDEST PUSH1 0x20 DUP1 DUP3 MSTORE DUP2 ADD PUSH2 0x1991 DUP2 PUSH2 0x5491 JUMP JUMPDEST PUSH1 0x80 DUP2 ADD PUSH2 0x54E3 DUP3 DUP10 PUSH2 0x4188 JUMP JUMPDEST DUP2 DUP2 SUB PUSH1 0x20 DUP4 ADD MSTORE PUSH2 0x54F6 DUP2 DUP8 DUP10 PUSH2 0x4EA9 JUMP JUMPDEST SWAP1 POP DUP2 DUP2 SUB PUSH1 0x40 DUP4 ADD MSTORE PUSH2 0x550B DUP2 DUP6 DUP8 PUSH2 0x4EA9 JUMP JUMPDEST SWAP1 POP PUSH2 0xD0C PUSH1 0x60 DUP4 ADD DUP5 PUSH2 0x4188 JUMP JUMPDEST PUSH1 0x14 DUP2 MSTORE PUSH1 0x0 PUSH1 0x20 DUP3 ADD PUSH32 0x696E73756666696369656E742062616C616E6365000000000000000000000000 DUP2 MSTORE SWAP2 POP PUSH2 0x4D87 JUMP JUMPDEST PUSH1 0x20 DUP1 DUP3 MSTORE DUP2 ADD PUSH2 0x1991 DUP2 PUSH2 0x551A JUMP JUMPDEST PUSH1 0x0 PUSH2 0x1991 DUP3 PUSH2 0x414C JUMP JUMPDEST PUSH1 0x3 DUP2 MSTORE PUSH1 0x0 PUSH1 0x20 DUP3 ADD PUSH32 0x216F6B0000000000000000000000000000000000000000000000000000000000 DUP2 MSTORE SWAP2 POP PUSH2 0x4D87 JUMP JUMPDEST PUSH1 0x20 DUP1 DUP3 MSTORE DUP2 ADD PUSH2 0x1991 DUP2 PUSH2 0x5569 JUMP JUMPDEST PUSH1 0x40 DUP2 ADD PUSH2 0x44B7 DUP3 DUP6 PUSH2 0x471B JUMP JUMPDEST PUSH1 0x60 DUP2 ADD PUSH2 0x55C9 DUP3 DUP7 PUSH2 0x4188 JUMP JUMPDEST PUSH2 0x55D6 PUSH1 0x20 DUP4 ADD DUP6 PUSH2 0x4188 JUMP JUMPDEST PUSH2 0x4118 PUSH1 0x40 DUP4 ADD DUP5 PUSH2 0x471B JUMP JUMPDEST PUSH1 0x40 DUP2 ADD PUSH2 0x55F1 DUP3 DUP6 PUSH2 0x4188 JUMP JUMPDEST DUP2 DUP2 SUB PUSH1 0x20 DUP4 ADD MSTORE PUSH2 0x4118 DUP2 DUP5 PUSH2 0x477D JUMP JUMPDEST PUSH1 0x60 DUP2 ADD PUSH2 0x5611 DUP3 DUP7 PUSH2 0x471B JUMP JUMPDEST PUSH2 0x4C75 PUSH1 0x20 DUP4 ADD DUP6 PUSH2 0x471B JUMP JUMPDEST PUSH1 0xE DUP2 MSTORE PUSH1 0x0 PUSH1 0x20 DUP3 ADD PUSH32 0x5469636B657420436C61696D6564000000000000000000000000000000000000 DUP2 MSTORE SWAP2 POP PUSH2 0x4D87 JUMP JUMPDEST PUSH1 0x20 DUP1 DUP3 MSTORE DUP2 ADD PUSH2 0x1991 DUP2 PUSH2 0x561E JUMP JUMPDEST PUSH1 0x6 DUP2 MSTORE PUSH1 0x0 PUSH1 0x20 DUP3 ADD PUSH32 0x57696E6E65720000000000000000000000000000000000000000000000000000 DUP2 MSTORE SWAP2 POP PUSH2 0x4D87 JUMP JUMPDEST PUSH1 0x20 DUP1 DUP3 MSTORE DUP2 ADD PUSH2 0x1991 DUP2 PUSH2 0x5662 JUMP JUMPDEST PUSH1 0x0 PUSH2 0x56B4 PUSH2 0x4240 DUP5 PUSH2 0x41FB JUMP JUMPDEST SWAP1 POP DUP3 DUP2 MSTORE PUSH1 0x20 DUP2 ADD DUP5 DUP5 DUP5 ADD GT ISZERO PUSH2 0x56CF JUMPI PUSH2 0x56CF PUSH1 0x0 DUP1 REVERT JUMPDEST PUSH2 0x426B DUP5 DUP3 DUP6 PUSH2 0x4759 JUMP JUMPDEST PUSH1 0x0 DUP3 PUSH1 0x1F DUP4 ADD SLT PUSH2 0x56EE JUMPI PUSH2 0x56EE PUSH1 0x0 DUP1 REVERT JUMPDEST DUP2 MLOAD PUSH2 0x4118 DUP5 DUP3 PUSH1 0x20 DUP7 ADD PUSH2 0x56A6 JUMP JUMPDEST PUSH1 0x0 DUP1 PUSH1 0x0 PUSH1 0x60 DUP5 DUP7 SUB SLT ISZERO PUSH2 0x5716 JUMPI PUSH2 0x5716 PUSH1 0x0 DUP1 REVERT JUMPDEST PUSH1 0x0 PUSH2 0x5722 DUP7 DUP7 PUSH2 0x4F41 JUMP JUMPDEST SWAP4 POP POP PUSH1 0x20 DUP5 ADD MLOAD PUSH8 0xFFFFFFFFFFFFFFFF DUP2 GT ISZERO PUSH2 0x5742 JUMPI PUSH2 0x5742 PUSH1 0x0 DUP1 REVERT JUMPDEST PUSH2 0x574E DUP7 DUP3 DUP8 ADD PUSH2 0x56DA JUMP JUMPDEST SWAP3 POP POP PUSH1 0x40 PUSH2 0x464E DUP7 DUP3 DUP8 ADD PUSH2 0x4E33 JUMP JUMPDEST PUSH1 0x0 PUSH1 0x20 DUP3 DUP5 SUB SLT ISZERO PUSH2 0x5774 JUMPI PUSH2 0x5774 PUSH1 0x0 DUP1 REVERT JUMPDEST DUP2 MLOAD PUSH8 0xFFFFFFFFFFFFFFFF DUP2 GT ISZERO PUSH2 0x578E JUMPI PUSH2 0x578E PUSH1 0x0 DUP1 REVERT JUMPDEST PUSH2 0x4118 DUP5 DUP3 DUP6 ADD PUSH2 0x56DA JUMP JUMPDEST PUSH1 0x6 DUP2 MSTORE PUSH1 0x0 PUSH1 0x20 DUP3 ADD PUSH32 0x2141646D696E0000000000000000000000000000000000000000000000000000 DUP2 MSTORE SWAP2 POP PUSH2 0x4D87 JUMP JUMPDEST PUSH1 0x20 DUP1 DUP3 MSTORE DUP2 ADD PUSH2 0x1991 DUP2 PUSH2 0x579A JUMP JUMPDEST PUSH1 0x9 DUP2 MSTORE PUSH1 0x0 PUSH1 0x20 DUP3 ADD PUSH32 0x416E6E6F756E6365640000000000000000000000000000000000000000000000 DUP2 MSTORE SWAP2 POP PUSH2 0x4D87 JUMP JUMPDEST PUSH1 0x20 DUP1 DUP3 MSTORE DUP2 ADD PUSH2 0x1991 DUP2 PUSH2 0x57DE JUMP JUMPDEST PUSH1 0x4 DUP2 MSTORE PUSH1 0x0 PUSH1 0x20 DUP3 ADD PUSH32 0x2146564D00000000000000000000000000000000000000000000000000000000 DUP2 MSTORE SWAP2 POP PUSH2 0x4D87 JUMP JUMPDEST PUSH1 0x20 DUP1 DUP3 MSTORE DUP2 ADD PUSH2 0x1991 DUP2 PUSH2 0x5822 JUMP JUMPDEST PUSH1 0x0 PUSH2 0x1991 DUP3 PUSH1 0x60 SHL SWAP1 JUMP JUMPDEST PUSH1 0x0 PUSH2 0x1991 DUP3 PUSH2 0x5866 JUMP JUMPDEST PUSH2 0x4124 PUSH2 0x5889 DUP3 PUSH2 0x42D2 JUMP JUMPDEST PUSH2 0x5872 JUMP JUMPDEST PUSH1 0x0 PUSH2 0x589A DUP3 DUP7 PUSH2 0x4188 JUMP JUMPDEST PUSH1 0x20 DUP3 ADD SWAP2 POP PUSH2 0x58AA DUP3 DUP6 PUSH2 0x587D JUMP JUMPDEST PUSH1 0x14 DUP3 ADD SWAP2 POP PUSH2 0x58BA DUP3 DUP5 PUSH2 0x4188 JUMP JUMPDEST POP PUSH1 0x20 ADD SWAP4 SWAP3 POP POP POP JUMP JUMPDEST PUSH1 0x0 DUP3 PUSH2 0x58D4 JUMPI PUSH2 0x58D4 PUSH2 0x4E5F JUMP JUMPDEST POP MOD SWAP1 JUMP JUMPDEST PUSH1 0x9 DUP2 MSTORE PUSH1 0x0 PUSH1 0x20 DUP3 ADD PUSH32 0x216465706C6F7965720000000000000000000000000000000000000000000000 DUP2 MSTORE SWAP2 POP PUSH2 0x4D87 JUMP JUMPDEST PUSH1 0x20 DUP1 DUP3 MSTORE DUP2 ADD PUSH2 0x1991 DUP2 PUSH2 0x58D9 JUMP JUMPDEST PUSH1 0xB DUP2 MSTORE PUSH1 0x0 PUSH1 0x20 DUP3 ADD PUSH32 0x217375636365737366756C000000000000000000000000000000000000000000 DUP2 MSTORE SWAP2 POP PUSH2 0x4D87 JUMP JUMPDEST PUSH1 0x20 DUP1 DUP3 MSTORE DUP2 ADD PUSH2 0x1991 DUP2 PUSH2 0x591D JUMP JUMPDEST DUP1 MLOAD PUSH2 0x1991 DUP2 PUSH2 0x42E3 JUMP JUMPDEST PUSH1 0x0 PUSH1 0x20 DUP3 DUP5 SUB SLT ISZERO PUSH2 0x5981 JUMPI PUSH2 0x5981 PUSH1 0x0 DUP1 REVERT JUMPDEST PUSH1 0x0 PUSH2 0x4118 DUP5 DUP5 PUSH2 0x5961 JUMP JUMPDEST PUSH1 0x0 DUP2 PUSH2 0x599C JUMPI PUSH2 0x599C PUSH2 0x4E0A JUMP JUMPDEST POP PUSH1 0x0 NOT ADD SWAP1 JUMP JUMPDEST PUSH1 0x40 DUP2 ADD PUSH2 0x59B2 DUP3 DUP6 PUSH2 0x4188 JUMP JUMPDEST PUSH2 0x44C4 PUSH1 0x20 DUP4 ADD DUP5 PUSH2 0x471B JUMP JUMPDEST PUSH1 0x80 DUP2 ADD PUSH2 0x59CD DUP3 DUP8 PUSH2 0x4188 JUMP JUMPDEST PUSH2 0x59DA PUSH1 0x20 DUP4 ADD DUP7 PUSH2 0x4188 JUMP JUMPDEST PUSH2 0x59E7 PUSH1 0x40 DUP4 ADD DUP6 PUSH2 0x4188 JUMP JUMPDEST DUP2 DUP2 SUB PUSH1 0x60 DUP4 ADD MSTORE PUSH2 0x59F9 DUP2 DUP5 PUSH2 0x477D JUMP JUMPDEST SWAP7 SWAP6 POP POP POP POP POP POP JUMP JUMPDEST PUSH1 0x3 DUP2 DUP1 PUSH1 0x0 JUMPDEST DUP4 DUP2 LT ISZERO PUSH2 0x385B JUMPI DUP2 MLOAD PUSH2 0x5A1E DUP8 DUP3 PUSH2 0x48D7 JUMP JUMPDEST SWAP7 POP PUSH1 0x20 DUP4 ADD SWAP3 POP POP PUSH1 0x1 ADD PUSH2 0x5A0A JUMP JUMPDEST PUSH2 0x200 DUP2 ADD PUSH2 0x5A3E DUP3 DUP12 PUSH2 0x4188 JUMP JUMPDEST PUSH2 0x5A4B PUSH1 0x20 DUP4 ADD DUP11 PUSH2 0x471B JUMP JUMPDEST PUSH2 0x5A58 PUSH1 0x40 DUP4 ADD DUP10 PUSH2 0x5A03 JUMP JUMPDEST PUSH2 0x5A65 PUSH1 0xA0 DUP4 ADD DUP9 PUSH2 0x4188 JUMP JUMPDEST PUSH2 0x5A72 PUSH1 0xC0 DUP4 ADD DUP8 PUSH2 0x4120 JUMP JUMPDEST PUSH2 0x5A7F PUSH1 0xE0 DUP4 ADD DUP7 PUSH2 0x4188 JUMP JUMPDEST PUSH2 0x5A8D PUSH2 0x100 DUP4 ADD DUP6 PUSH2 0x4188 JUMP JUMPDEST PUSH2 0x5A9B PUSH2 0x120 DUP4 ADD DUP5 PUSH2 0x49FD JUMP JUMPDEST SWAP10 SWAP9 POP POP POP POP POP POP POP POP POP JUMP JUMPDEST PUSH1 0x0 DUP1 PUSH1 0x40 DUP4 DUP6 SUB SLT ISZERO PUSH2 0x5ABE JUMPI PUSH2 0x5ABE PUSH1 0x0 DUP1 REVERT JUMPDEST PUSH1 0x0 PUSH2 0x4C2E DUP6 DUP6 PUSH2 0x40EC JUMP JUMPDEST PUSH1 0x0 DUP1 PUSH1 0x0 DUP1 PUSH1 0x80 DUP6 DUP8 SUB SLT ISZERO PUSH2 0x5AE3 JUMPI PUSH2 0x5AE3 PUSH1 0x0 DUP1 REVERT JUMPDEST PUSH1 0x0 PUSH2 0x5AEF DUP8 DUP8 PUSH2 0x4E33 JUMP JUMPDEST SWAP5 POP POP PUSH1 0x20 PUSH2 0x5B00 DUP8 DUP3 DUP9 ADD PUSH2 0x4F41 JUMP JUMPDEST SWAP4 POP POP PUSH1 0x40 PUSH2 0x5B11 DUP8 DUP3 DUP9 ADD PUSH2 0x4E33 JUMP JUMPDEST SWAP3 POP POP PUSH1 0x60 PUSH2 0x4BE6 DUP8 DUP3 DUP9 ADD PUSH2 0x5961 JUMP JUMPDEST PUSH1 0x0 PUSH2 0x5B30 PUSH2 0x4240 DUP5 PUSH2 0x44CB JUMP JUMPDEST SWAP1 POP DUP1 PUSH1 0x20 DUP5 MUL DUP4 ADD DUP6 DUP2 GT ISZERO PUSH2 0x5B49 JUMPI PUSH2 0x5B49 PUSH1 0x0 DUP1 REVERT JUMPDEST DUP4 JUMPDEST DUP2 DUP2 LT ISZERO PUSH2 0x4537 JUMPI DUP1 PUSH2 0x5B5E DUP9 DUP3 PUSH2 0x4E33 JUMP JUMPDEST DUP5 MSTORE POP PUSH1 0x20 SWAP3 DUP4 ADD SWAP3 ADD PUSH2 0x5B4B JUMP JUMPDEST PUSH1 0x0 DUP3 PUSH1 0x1F DUP4 ADD SLT PUSH2 0x5B81 JUMPI PUSH2 0x5B81 PUSH1 0x0 DUP1 REVERT JUMPDEST PUSH1 0x3 PUSH2 0x4118 DUP5 DUP3 DUP6 PUSH2 0x5B22 JUMP JUMPDEST PUSH1 0x0 PUSH1 0xE0 DUP3 DUP5 SUB SLT ISZERO PUSH2 0x5BA3 JUMPI PUSH2 0x5BA3 PUSH1 0x0 DUP1 REVERT JUMPDEST PUSH2 0x5BAD PUSH1 0xA0 PUSH2 0x41DF JUMP JUMPDEST SWAP1 POP PUSH1 0x0 PUSH2 0x5BBB DUP5 DUP5 PUSH2 0x5961 JUMP JUMPDEST DUP3 MSTORE POP PUSH1 0x20 PUSH2 0x5BCC DUP5 DUP5 DUP4 ADD PUSH2 0x4E33 JUMP JUMPDEST PUSH1 0x20 DUP4 ADD MSTORE POP PUSH1 0x40 PUSH2 0x5BE0 DUP5 DUP3 DUP6 ADD PUSH2 0x5B6D JUMP JUMPDEST PUSH1 0x40 DUP4 ADD MSTORE POP PUSH1 0xA0 PUSH2 0x5BF4 DUP5 DUP3 DUP6 ADD PUSH2 0x4F41 JUMP JUMPDEST PUSH1 0x60 DUP4 ADD MSTORE POP PUSH1 0xC0 PUSH2 0x5C08 DUP5 DUP3 DUP6 ADD PUSH2 0x4E33 JUMP JUMPDEST PUSH1 0x80 DUP4 ADD MSTORE POP SWAP3 SWAP2 POP POP JUMP JUMPDEST PUSH1 0x0 DUP1 PUSH1 0x0 DUP1 PUSH1 0x0 DUP1 PUSH1 0x0 DUP1 PUSH2 0x200 DUP10 DUP12 SUB SLT ISZERO PUSH2 0x5C34 JUMPI PUSH2 0x5C34 PUSH1 0x0 DUP1 REVERT JUMPDEST PUSH1 0x0 PUSH2 0x5C40 DUP12 DUP12 PUSH2 0x4E33 JUMP JUMPDEST SWAP9 POP POP PUSH1 0x20 PUSH2 0x5C51 DUP12 DUP3 DUP13 ADD PUSH2 0x5961 JUMP JUMPDEST SWAP8 POP POP PUSH1 0x40 PUSH2 0x5C62 DUP12 DUP3 DUP13 ADD PUSH2 0x5B6D JUMP JUMPDEST SWAP7 POP POP PUSH1 0xA0 PUSH2 0x5C73 DUP12 DUP3 DUP13 ADD PUSH2 0x4E33 JUMP JUMPDEST SWAP6 POP POP PUSH1 0xC0 PUSH2 0x5C84 DUP12 DUP3 DUP13 ADD PUSH2 0x4F41 JUMP JUMPDEST SWAP5 POP POP PUSH1 0xE0 PUSH2 0x5C95 DUP12 DUP3 DUP13 ADD PUSH2 0x4E33 JUMP JUMPDEST SWAP4 POP POP PUSH2 0x100 PUSH2 0x5CA7 DUP12 DUP3 DUP13 ADD PUSH2 0x4E33 JUMP JUMPDEST SWAP3 POP POP PUSH2 0x120 PUSH2 0x5CB9 DUP12 DUP3 DUP13 ADD PUSH2 0x5B8E JUMP JUMPDEST SWAP2 POP POP SWAP3 SWAP6 SWAP9 POP SWAP3 SWAP6 SWAP9 SWAP1 SWAP4 SWAP7 POP JUMP JUMPDEST PUSH1 0x0 DUP1 PUSH1 0x0 DUP1 PUSH1 0x80 DUP6 DUP8 SUB SLT ISZERO PUSH2 0x5CE2 JUMPI PUSH2 0x5CE2 PUSH1 0x0 DUP1 REVERT JUMPDEST PUSH1 0x0 PUSH2 0x5CEE DUP8 DUP8 PUSH2 0x4E33 JUMP JUMPDEST SWAP5 POP POP PUSH1 0x20 PUSH2 0x5CFF DUP8 DUP3 DUP9 ADD PUSH2 0x4E33 JUMP JUMPDEST SWAP4 POP POP PUSH1 0x40 PUSH2 0x5D10 DUP8 DUP3 DUP9 ADD PUSH2 0x4E33 JUMP JUMPDEST SWAP3 POP POP PUSH1 0x60 DUP6 ADD MLOAD PUSH8 0xFFFFFFFFFFFFFFFF DUP2 GT ISZERO PUSH2 0x5D30 JUMPI PUSH2 0x5D30 PUSH1 0x0 DUP1 REVERT JUMPDEST PUSH2 0x4BE6 DUP8 DUP3 DUP9 ADD PUSH2 0x56DA JUMP JUMPDEST PUSH1 0x0 DUP1 PUSH1 0x80 DUP4 DUP6 SUB SLT ISZERO PUSH2 0x5D52 JUMPI PUSH2 0x5D52 PUSH1 0x0 DUP1 REVERT JUMPDEST PUSH1 0x0 PUSH2 0x5D5E DUP6 DUP6 PUSH2 0x4E33 JUMP JUMPDEST SWAP3 POP POP PUSH1 0x20 PUSH2 0x449F DUP6 DUP3 DUP7 ADD PUSH2 0x5B6D JUMP JUMPDEST PUSH1 0x0 DUP1 PUSH1 0x40 DUP4 DUP6 SUB SLT ISZERO PUSH2 0x5D85 JUMPI PUSH2 0x5D85 PUSH1 0x0 DUP1 REVERT JUMPDEST PUSH1 0x0 PUSH2 0x5D91 DUP6 DUP6 PUSH2 0x4E33 JUMP JUMPDEST SWAP3 POP POP PUSH1 0x20 PUSH2 0x449F DUP6 DUP3 DUP7 ADD PUSH2 0x5961 JUMP JUMPDEST PUSH1 0x0 DUP1 PUSH1 0x0 PUSH1 0x60 DUP5 DUP7 SUB SLT ISZERO PUSH2 0x5DBA JUMPI PUSH2 0x5DBA PUSH1 0x0 DUP1 REVERT JUMPDEST PUSH1 0x0 PUSH2 0x5DC6 DUP7 DUP7 PUSH2 0x4E33 JUMP JUMPDEST SWAP4 POP POP PUSH1 0x20 PUSH2 0x5DD7 DUP7 DUP3 DUP8 ADD PUSH2 0x4E33 JUMP JUMPDEST SWAP3 POP POP PUSH1 0x40 PUSH2 0x464E DUP7 DUP3 DUP8 ADD PUSH2 0x5961 JUMP JUMPDEST PUSH1 0x0 DUP2 SLOAD PUSH2 0x5DF5 DUP2 PUSH2 0x518E JUMP JUMPDEST DUP1 DUP6 MSTORE PUSH1 0x20 DUP6 ADD SWAP5 POP PUSH1 0x1 DUP3 AND DUP1 ISZERO PUSH2 0x5E15 JUMPI PUSH1 0x1 DUP2 EQ PUSH2 0x5E2B JUMPI PUSH2 0x5E59 JUMP JUMPDEST PUSH1 0xFF NOT DUP4 AND DUP7 MSTORE PUSH1 0x20 DUP3 ISZERO ISZERO MUL DUP7 ADD SWAP4 POP PUSH2 0x5E59 JUMP JUMPDEST PUSH1 0x0 DUP6 DUP2 MSTORE PUSH1 0x20 SWAP1 KECCAK256 PUSH1 0x0 JUMPDEST DUP4 DUP2 LT ISZERO PUSH2 0x5E53 JUMPI DUP2 SLOAD DUP9 DUP3 ADD MSTORE PUSH1 0x1 SWAP1 SWAP2 ADD SWAP1 PUSH1 0x20 ADD PUSH2 0x5E37 JUMP JUMPDEST DUP8 ADD SWAP5 POP POP JUMPDEST POP POP POP SWAP3 SWAP2 POP POP JUMP JUMPDEST PUSH1 0xA0 DUP2 ADD PUSH2 0x5E70 DUP3 DUP9 PUSH2 0x471B JUMP JUMPDEST DUP2 DUP2 SUB PUSH1 0x20 DUP4 ADD MSTORE PUSH2 0x5E82 DUP2 DUP8 PUSH2 0x5DE8 JUMP JUMPDEST SWAP1 POP DUP2 DUP2 SUB PUSH1 0x40 DUP4 ADD MSTORE PUSH2 0x5E96 DUP2 DUP7 PUSH2 0x5DE8 JUMP JUMPDEST SWAP1 POP DUP2 DUP2 SUB PUSH1 0x60 DUP4 ADD MSTORE PUSH2 0x5EAA DUP2 DUP6 PUSH2 0x477D JUMP JUMPDEST SWAP1 POP PUSH2 0x59F9 PUSH1 0x80 DUP4 ADD DUP5 PUSH2 0x471B JUMP JUMPDEST PUSH1 0x60 DUP1 DUP3 MSTORE DUP2 ADD PUSH2 0x5ECA DUP2 DUP7 PUSH2 0x5DE8 JUMP JUMPDEST SWAP1 POP DUP2 DUP2 SUB PUSH1 0x20 DUP4 ADD MSTORE PUSH2 0x5EDE DUP2 DUP6 PUSH2 0x5DE8 JUMP JUMPDEST SWAP1 POP DUP2 DUP2 SUB PUSH1 0x40 DUP4 ADD MSTORE PUSH2 0xC61 DUP2 DUP5 PUSH2 0x477D JUMP JUMPDEST PUSH1 0x80 DUP2 ADD PUSH2 0x5F00 DUP3 DUP8 PUSH2 0x4188 JUMP JUMPDEST PUSH2 0x5F0D PUSH1 0x20 DUP4 ADD DUP7 PUSH2 0x4120 JUMP JUMPDEST PUSH2 0x5F1A PUSH1 0x40 DUP4 ADD DUP6 PUSH2 0x4188 JUMP JUMPDEST PUSH2 0xC61 PUSH1 0x60 DUP4 ADD DUP5 PUSH2 0x471B JUMP JUMPDEST PUSH1 0x80 DUP2 ADD PUSH2 0x5F35 DUP3 DUP6 PUSH2 0x4188 JUMP JUMPDEST PUSH2 0x44C4 PUSH1 0x20 DUP4 ADD DUP5 PUSH2 0x5A03 JUMP INVALID LOG2 PUSH5 0x6970667358 0x22 SLT KECCAK256 ADD CALLVALUE DUP6 0x4B REVERT OR PUSH20 0x84AA422BA95C3F3C1DA3830B77CD189B3D3C9FED DUP1 CREATE2 SWAP2 SWAP12 DUP5 PUSH5 0x736F6C6343 STOP ADDMOD GT STOP CALLER "},"gasEstimates":{"creation":{"codeDepositCost":"4888000","executionCost":"infinite","totalCost":"infinite"},"external":{"FILECOIN_CHAIN_ID()":"2461","MAX_TICKET_PER_ROUND()":"2486","POLYGON_CHAIN_ID()":"2463","PREDICTABLE_VALUE()":"2484","buyTicket(uint256[3],bool,uint256)":"infinite","buyTicketPath()":"2483","claimRefund(uint256,uint256)":"infinite","claimWinnings(uint256,uint256)":"infinite","claimWinningsPath()":"2484","currentRound()":"2462","deployer()":"infinite","execute(bytes32,string,string,bytes)":"infinite","executeWithToken(bytes32,string,string,bytes,string,uint256)":"infinite","filecoinChain()":"infinite","filecoinDestinationAddr()":"infinite","gasService()":"infinite","gateway()":"infinite","getAssetPriceUsd(string)":"infinite","getCurrentRoundDetails()":"infinite","getCurrentTimeStamp()":"359","getDataAfter(bytes32,uint256)":"infinite","getDataBefore(bytes32,uint256)":"infinite","getIndexForDataAfter(bytes32,uint256)":"infinite","getIndexForDataBefore(bytes32,uint256)":"infinite","getMultipleValuesBefore(bytes32,uint256,uint256,uint256)":"infinite","getNewValueCountbyQueryId(bytes32)":"infinite","getReporterByTimestamp(bytes32,uint256)":"infinite","getRoundPoolBalanceUsd()":"infinite","getTicketsPurchasedPerRound(address)":"infinite","getTimestampbyQueryIdandIndex(bytes32,uint256)":"infinite","getTotalWinners()":"infinite","getUserDetails(address)":"infinite","getUserTicketsForCurrentRound(address)":"infinite","idMappingContract()":"infinite","isInDispute(bytes32,uint256)":"infinite","isWinner(uint256)":"infinite","krabzTokenAddress()":"infinite","newRoundPath()":"2441","polygonChain()":"infinite","polygonDestinationAddr()":"infinite","retrieveData(bytes32,uint256)":"infinite","roundIdToRoundDetails_(uint256)":"infinite","roundIdToTicketList_(uint256,uint256)":"infinite","roundToticketId_(uint256,uint256)":"infinite","setIdMappingContract(address)":"infinite","setRandomWinnersPath()":"2506","setRoundWinners(uint256,uint256,uint256,uint256)":"infinite","startNewRound(uint256,uint256,string,uint256,uint256[3])":"infinite","tellor()":"infinite","ticketsPurchasedPerRound_(uint256,address)":"infinite","topUpWalletBalance(uint256,bool,uint256)":"infinite","topUpWalletPath()":"2505","updateDestinationAddresses(string,string)":"infinite","userDetails_(address)":"infinite","valueFor(bytes32)":"infinite","withdrawFromWallet(uint256,uint256,uint256)":"infinite","withdrawFromWalletPath()":"2485","withdrawNativeAsset()":"2563"},"internal":{"_checkEquality(uint256[3] memory,uint256[3] memory)":"infinite","_execute(string calldata,string calldata,bytes calldata)":"infinite","_handleBuyTicketCrossChain(uint256,address,uint256[3] memory,uint256,bool,uint256,uint256,struct MrKrabz.Ticket memory,uint256)":"infinite","_handleBuyTicketexecutionPath(uint256,address,uint256[3] memory,uint256,bool,uint256,uint256,struct MrKrabz.Ticket memory)":"infinite","_handleClaimWinningsCrossChain(uint256,address,uint256)":"infinite","_handleSetRandomWinnersCrossChain(uint256,uint256[3] memory,uint256)":"infinite","_handleStartNewRoundCrossChain(uint256,uint256,uint256,string memory,uint256)":"infinite","_handleTopUpWalletBalanceCrossChain(uint256,bool,address,uint256)":"infinite","_handleTopupWalletExecutionPath(uint256,bool,uint256,address)":"28684","_sendPayloadFromFilecoin(bytes memory,uint256)":"infinite","_sendPayloadFromPolygon(bytes memory,uint256)":"infinite"}},"methodIdentifiers":{"FILECOIN_CHAIN_ID()":"ad898f5b","MAX_TICKET_PER_ROUND()":"15397a57","POLYGON_CHAIN_ID()":"20eb5632","PREDICTABLE_VALUE()":"4c21b369","buyTicket(uint256[3],bool,uint256)":"44e4e0f9","buyTicketPath()":"aebd823a","claimRefund(uint256,uint256)":"8527d58f","claimWinnings(uint256,uint256)":"286db5c2","claimWinningsPath()":"92093527","currentRound()":"8a19c8bc","deployer()":"d5f39488","execute(bytes32,string,string,bytes)":"49160658","executeWithToken(bytes32,string,string,bytes,string,uint256)":"1a98b2e0","filecoinChain()":"ff5c04ce","filecoinDestinationAddr()":"70ef05db","gasService()":"6a22d8cc","gateway()":"116191b6","getAssetPriceUsd(string)":"18409201","getCurrentRoundDetails()":"9bb6eb70","getCurrentTimeStamp()":"7e5e219c","getDataAfter(bytes32,uint256)":"64ee3c6d","getDataBefore(bytes32,uint256)":"a792765f","getIndexForDataAfter(bytes32,uint256)":"f66f49c3","getIndexForDataBefore(bytes32,uint256)":"29449085","getMultipleValuesBefore(bytes32,uint256,uint256,uint256)":"fcd4a546","getNewValueCountbyQueryId(bytes32)":"77b03e0d","getReporterByTimestamp(bytes32,uint256)":"e07c5486","getRoundPoolBalanceUsd()":"276f4872","getTicketsPurchasedPerRound(address)":"acb8b0c7","getTimestampbyQueryIdandIndex(bytes32,uint256)":"ce5e11bf","getTotalWinners()":"ceeca984","getUserDetails(address)":"cc3d967b","getUserTicketsForCurrentRound(address)":"a8c44b23","idMappingContract()":"2af8aae0","isInDispute(bytes32,uint256)":"44e87f91","isWinner(uint256)":"0e392288","krabzTokenAddress()":"795688ca","newRoundPath()":"16f961b7","polygonChain()":"e59fef7c","polygonDestinationAddr()":"80c1442b","retrieveData(bytes32,uint256)":"c5958af9","roundIdToRoundDetails_(uint256)":"cb288e8e","roundIdToTicketList_(uint256,uint256)":"6abc4367","roundToticketId_(uint256,uint256)":"491f3437","setIdMappingContract(address)":"193b505b","setRandomWinnersPath()":"6bfee4ea","setRoundWinners(uint256,uint256,uint256,uint256)":"d1813b33","startNewRound(uint256,uint256,string,uint256,uint256[3])":"383fc78d","tellor()":"1959ad5b","ticketsPurchasedPerRound_(uint256,address)":"a0876f49","topUpWalletBalance(uint256,bool,uint256)":"74cdb711","topUpWalletPath()":"b5f597f3","updateDestinationAddresses(string,string)":"d98c3c65","userDetails_(address)":"77f37283","valueFor(bytes32)":"f78eea83","withdrawFromWallet(uint256,uint256,uint256)":"6a8054c1","withdrawFromWalletPath()":"469a397b","withdrawNativeAsset()":"de7c756e"}},"storageLayout":{"storage":[{"astId":4130,"contract":"contracts/MrKrabz.sol:MrKrabz","label":"tellor","offset":0,"slot":"0","type":"t_contract(ITellor)5871"},{"astId":4133,"contract":"contracts/MrKrabz.sol:MrKrabz","label":"idMappingContract","offset":0,"slot":"1","type":"t_contract(IMappingContract)4876"},{"astId":1675,"contract":"contracts/MrKrabz.sol:MrKrabz","label":"krabzTokenAddress","offset":0,"slot":"2","type":"t_address"},{"astId":1677,"contract":"contracts/MrKrabz.sol:MrKrabz","label":"deployer","offset":0,"slot":"3","type":"t_address"},{"astId":1680,"contract":"contracts/MrKrabz.sol:MrKrabz","label":"FILECOIN_CHAIN_ID","offset":0,"slot":"4","type":"t_uint256"},{"astId":1683,"contract":"contracts/MrKrabz.sol:MrKrabz","label":"POLYGON_CHAIN_ID","offset":0,"slot":"5","type":"t_uint256"},{"astId":1686,"contract":"contracts/MrKrabz.sol:MrKrabz","label":"topUpWalletPath","offset":0,"slot":"6","type":"t_uint256"},{"astId":1689,"contract":"contracts/MrKrabz.sol:MrKrabz","label":"buyTicketPath","offset":0,"slot":"7","type":"t_uint256"},{"astId":1692,"contract":"contracts/MrKrabz.sol:MrKrabz","label":"newRoundPath","offset":0,"slot":"8","type":"t_uint256"},{"astId":1695,"contract":"contracts/MrKrabz.sol:MrKrabz","label":"setRandomWinnersPath","offset":0,"slot":"9","type":"t_uint256"},{"astId":1698,"contract":"contracts/MrKrabz.sol:MrKrabz","label":"claimWinningsPath","offset":0,"slot":"10","type":"t_uint256"},{"astId":1701,"contract":"contracts/MrKrabz.sol:MrKrabz","label":"withdrawFromWalletPath","offset":0,"slot":"11","type":"t_uint256"},{"astId":1703,"contract":"contracts/MrKrabz.sol:MrKrabz","label":"currentRound","offset":0,"slot":"12","type":"t_uint256"},{"astId":1706,"contract":"contracts/MrKrabz.sol:MrKrabz","label":"MAX_TICKET_PER_ROUND","offset":0,"slot":"13","type":"t_uint256"},{"astId":1709,"contract":"contracts/MrKrabz.sol:MrKrabz","label":"PREDICTABLE_VALUE","offset":0,"slot":"14","type":"t_uint256"},{"astId":1712,"contract":"contracts/MrKrabz.sol:MrKrabz","label":"filecoinChain","offset":0,"slot":"15","type":"t_string_storage"},{"astId":1715,"contract":"contracts/MrKrabz.sol:MrKrabz","label":"polygonChain","offset":0,"slot":"16","type":"t_string_storage"},{"astId":1717,"contract":"contracts/MrKrabz.sol:MrKrabz","label":"filecoinDestinationAddr","offset":0,"slot":"17","type":"t_string_storage"},{"astId":1719,"contract":"contracts/MrKrabz.sol:MrKrabz","label":"polygonDestinationAddr","offset":0,"slot":"18","type":"t_string_storage"},{"astId":1724,"contract":"contracts/MrKrabz.sol:MrKrabz","label":"userDetails_","offset":0,"slot":"19","type":"t_mapping(t_address,t_struct(User)1673_storage)"},{"astId":1731,"contract":"contracts/MrKrabz.sol:MrKrabz","label":"roundToticketId_","offset":0,"slot":"20","type":"t_mapping(t_uint256,t_mapping(t_uint256,t_struct(Ticket)1643_storage))"},{"astId":1736,"contract":"contracts/MrKrabz.sol:MrKrabz","label":"roundIdToRoundDetails_","offset":0,"slot":"21","type":"t_mapping(t_uint256,t_struct(Round)1663_storage)"},{"astId":1742,"contract":"contracts/MrKrabz.sol:MrKrabz","label":"ticketsPurchasedPerRound_","offset":0,"slot":"22","type":"t_mapping(t_uint256,t_mapping(t_address,t_uint256))"},{"astId":1748,"contract":"contracts/MrKrabz.sol:MrKrabz","label":"roundIdToTicketList_","offset":0,"slot":"23","type":"t_mapping(t_uint256,t_array(t_struct(Ticket)1643_storage)dyn_storage)"}],"types":{"t_address":{"encoding":"inplace","label":"address","numberOfBytes":"20"},"t_array(t_struct(Ticket)1643_storage)dyn_storage":{"base":"t_struct(Ticket)1643_storage","encoding":"dynamic_array","label":"struct MrKrabz.Ticket[]","numberOfBytes":"32"},"t_array(t_uint256)3_storage":{"base":"t_uint256","encoding":"inplace","label":"uint256[3]","numberOfBytes":"96"},"t_bool":{"encoding":"inplace","label":"bool","numberOfBytes":"1"},"t_contract(IMappingContract)4876":{"encoding":"inplace","label":"contract IMappingContract","numberOfBytes":"20"},"t_contract(ITellor)5871":{"encoding":"inplace","label":"contract ITellor","numberOfBytes":"20"},"t_mapping(t_address,t_struct(User)1673_storage)":{"encoding":"mapping","key":"t_address","label":"mapping(address => struct MrKrabz.User)","numberOfBytes":"32","value":"t_struct(User)1673_storage"},"t_mapping(t_address,t_uint256)":{"encoding":"mapping","key":"t_address","label":"mapping(address => uint256)","numberOfBytes":"32","value":"t_uint256"},"t_mapping(t_uint256,t_array(t_struct(Ticket)1643_storage)dyn_storage)":{"encoding":"mapping","key":"t_uint256","label":"mapping(uint256 => struct MrKrabz.Ticket[])","numberOfBytes":"32","value":"t_array(t_struct(Ticket)1643_storage)dyn_storage"},"t_mapping(t_uint256,t_mapping(t_address,t_uint256))":{"encoding":"mapping","key":"t_uint256","label":"mapping(uint256 => mapping(address => uint256))","numberOfBytes":"32","value":"t_mapping(t_address,t_uint256)"},"t_mapping(t_uint256,t_mapping(t_uint256,t_struct(Ticket)1643_storage))":{"encoding":"mapping","key":"t_uint256","label":"mapping(uint256 => mapping(uint256 => struct MrKrabz.Ticket))","numberOfBytes":"32","value":"t_mapping(t_uint256,t_struct(Ticket)1643_storage)"},"t_mapping(t_uint256,t_struct(Round)1663_storage)":{"encoding":"mapping","key":"t_uint256","label":"mapping(uint256 => struct MrKrabz.Round)","numberOfBytes":"32","value":"t_struct(Round)1663_storage"},"t_mapping(t_uint256,t_struct(Ticket)1643_storage)":{"encoding":"mapping","key":"t_uint256","label":"mapping(uint256 => struct MrKrabz.Ticket)","numberOfBytes":"32","value":"t_struct(Ticket)1643_storage"},"t_string_storage":{"encoding":"bytes","label":"string","numberOfBytes":"32"},"t_struct(CrossChainBalance)1630_storage":{"encoding":"inplace","label":"struct MrKrabz.CrossChainBalance","members":[{"astId":1625,"contract":"contracts/MrKrabz.sol:MrKrabz","label":"fil","offset":0,"slot":"0","type":"t_uint256"},{"astId":1627,"contract":"contracts/MrKrabz.sol:MrKrabz","label":"matic","offset":0,"slot":"1","type":"t_uint256"},{"astId":1629,"contract":"contracts/MrKrabz.sol:MrKrabz","label":"krabz","offset":0,"slot":"2","type":"t_uint256"}],"numberOfBytes":"96"},"t_struct(Round)1663_storage":{"encoding":"inplace","label":"struct MrKrabz.Round","members":[{"astId":1645,"contract":"contracts/MrKrabz.sol:MrKrabz","label":"roundName","offset":0,"slot":"0","type":"t_string_storage"},{"astId":1647,"contract":"contracts/MrKrabz.sol:MrKrabz","label":"roundId","offset":0,"slot":"1","type":"t_uint256"},{"astId":1649,"contract":"contracts/MrKrabz.sol:MrKrabz","label":"ticketsPurchased","offset":0,"slot":"2","type":"t_uint256"},{"astId":1651,"contract":"contracts/MrKrabz.sol:MrKrabz","label":"roundEndTime","offset":0,"slot":"3","type":"t_uint256"},{"astId":1653,"contract":"contracts/MrKrabz.sol:MrKrabz","label":"ticketPrice","offset":0,"slot":"4","type":"t_uint256"},{"astId":1657,"contract":"contracts/MrKrabz.sol:MrKrabz","label":"roundWinningNumbers","offset":0,"slot":"5","type":"t_array(t_uint256)3_storage"},{"astId":1659,"contract":"contracts/MrKrabz.sol:MrKrabz","label":"roundState","offset":0,"slot":"8","type":"t_bool"},{"astId":1662,"contract":"contracts/MrKrabz.sol:MrKrabz","label":"balance","offset":0,"slot":"9","type":"t_struct(CrossChainBalance)1630_storage"}],"numberOfBytes":"384"},"t_struct(Ticket)1643_storage":{"encoding":"inplace","label":"struct MrKrabz.Ticket","members":[{"astId":1632,"contract":"contracts/MrKrabz.sol:MrKrabz","label":"owner","offset":0,"slot":"0","type":"t_address"},{"astId":1634,"contract":"contracts/MrKrabz.sol:MrKrabz","label":"ID","offset":0,"slot":"1","type":"t_uint256"},{"astId":1638,"contract":"contracts/MrKrabz.sol:MrKrabz","label":"selectedNumbers","offset":0,"slot":"2","type":"t_array(t_uint256)3_storage"},{"astId":1640,"contract":"contracts/MrKrabz.sol:MrKrabz","label":"withdrawn","offset":0,"slot":"5","type":"t_bool"},{"astId":1642,"contract":"contracts/MrKrabz.sol:MrKrabz","label":"originChain","offset":0,"slot":"6","type":"t_uint256"}],"numberOfBytes":"224"},"t_struct(User)1673_storage":{"encoding":"inplace","label":"struct MrKrabz.User","members":[{"astId":1665,"contract":"contracts/MrKrabz.sol:MrKrabz","label":"user","offset":0,"slot":"0","type":"t_address"},{"astId":1667,"contract":"contracts/MrKrabz.sol:MrKrabz","label":"totalTicketsPurchased","offset":0,"slot":"1","type":"t_uint256"},{"astId":1669,"contract":"contracts/MrKrabz.sol:MrKrabz","label":"totalWinnings","offset":0,"slot":"2","type":"t_uint256"},{"astId":1672,"contract":"contracts/MrKrabz.sol:MrKrabz","label":"balance","offset":0,"slot":"3","type":"t_struct(CrossChainBalance)1630_storage"}],"numberOfBytes":"192"},"t_uint256":{"encoding":"inplace","label":"uint256","numberOfBytes":"32"}}},"userdoc":{"kind":"user","methods":{},"version":1}}}}