{
  "_format": "hh-sol-artifact-1",
  "contractName": "AxelarExecutable",
  "sourceName": "@axelar-network/axelar-gmp-sdk-solidity/contracts/executable/AxelarExecutable.sol",
  "abi": [
    {
      "inputs": [
        {
          "internalType": "address",
          "name": "gateway_",
          "type": "address"
        }
      ],
      "stateMutability": "nonpayable",
      "type": "constructor"
    },
    {
      "inputs": [],
      "name": "InvalidAddress",
      "type": "error"
    },
    {
      "inputs": [],
      "name": "NotApprovedByGateway",
      "type": "error"
    },
    {
      "inputs": [
        {
          "internalType": "bytes32",
          "name": "commandId",
          "type": "bytes32"
        },
        {
          "internalType": "string",
          "name": "sourceChain",
          "type": "string"
        },
        {
          "internalType": "string",
          "name": "sourceAddress",
          "type": "string"
        },
        {
          "internalType": "bytes",
          "name": "payload",
          "type": "bytes"
        }
      ],
      "name": "execute",
      "outputs": [],
      "stateMutability": "nonpayable",
      "type": "function"
    },
    {
      "inputs": [
        {
          "internalType": "bytes32",
          "name": "commandId",
          "type": "bytes32"
        },
        {
          "internalType": "string",
          "name": "sourceChain",
          "type": "string"
        },
        {
          "internalType": "string",
          "name": "sourceAddress",
          "type": "string"
        },
        {
          "internalType": "bytes",
          "name": "payload",
          "type": "bytes"
        },
        {
          "internalType": "string",
          "name": "tokenSymbol",
          "type": "string"
        },
        {
          "internalType": "uint256",
          "name": "amount",
          "type": "uint256"
        }
      ],
      "name": "executeWithToken",
      "outputs": [],
      "stateMutability": "nonpayable",
      "type": "function"
    },
    {
      "inputs": [],
      "name": "gateway",
      "outputs": [
        {
          "internalType": "contract IAxelarGateway",
          "name": "",
          "type": "address"
        }
      ],
      "stateMutability": "view",
      "type": "function"
    }
  ],
  "bytecode": "0x60a060405234801561001057600080fd5b506040516107b93803806107b983398101604081905261002f9161009c565b6001600160a01b0381166100565760405163e6c4247b60e01b815260040160405180910390fd5b6001600160a01b03166080526100c5565b60006001600160a01b0382165b92915050565b61008381610067565b811461008e57600080fd5b50565b80516100748161007a565b6000602082840312156100b1576100b1600080fd5b60006100bd8484610091565b949350505050565b6080516106cc6100ed60003960008181604b01528181610102015261020b01526106cc6000f3fe608060405234801561001057600080fd5b50600436106100415760003560e01c8063116191b6146100465780631a98b2e0146100835780634916065814610098575b600080fd5b61006d7f000000000000000000000000000000000000000000000000000000000000000081565b60405161007a91906102f9565b60405180910390f35b610096610091366004610374565b6100ab565b005b6100966100a636600461047d565b6101b4565b600085856040516100bd92919061055f565b6040519081900381207f1876eed9000000000000000000000000000000000000000000000000000000008252915073ffffffffffffffffffffffffffffffffffffffff7f00000000000000000000000000000000000000000000000000000000000000001690631876eed990610147908e908e908e908e908e9089908d908d908d9060040161059d565b6020604051808303816000875af1158015610166573d6000803e3d6000fd5b505050506040513d601f19601f8201168201806040525081019061018a9190610625565b6101a757604051631403112d60e21b815260040160405180910390fd5b5050505050505050505050565b600082826040516101c692919061055f565b6040519081900381207f5f6970c3000000000000000000000000000000000000000000000000000000008252915073ffffffffffffffffffffffffffffffffffffffff7f00000000000000000000000000000000000000000000000000000000000000001690635f6970c39061024a908b908b908b908b908b908990600401610646565b6020604051808303816000875af1158015610269573d6000803e3d6000fd5b505050506040513d601f19601f8201168201806040525081019061028d9190610625565b6102aa57604051631403112d60e21b815260040160405180910390fd5b5050505050505050565b600073ffffffffffffffffffffffffffffffffffffffff82165b92915050565b60006102ce826102b4565b60006102ce826102d4565b6102f3816102df565b82525050565b602081016102ce82846102ea565b805b811461031457600080fd5b50565b80356102ce81610307565b60008083601f84011261033757610337600080fd5b50813567ffffffffffffffff81111561035257610352600080fd5b60208301915083600182028301111561036d5761036d600080fd5b9250929050565b60008060008060008060008060008060c08b8d03121561039657610396600080fd5b60006103a28d8d610317565b9a505060208b013567ffffffffffffffff8111156103c2576103c2600080fd5b6103ce8d828e01610322565b995099505060408b013567ffffffffffffffff8111156103f0576103f0600080fd5b6103fc8d828e01610322565b975097505060608b013567ffffffffffffffff81111561041e5761041e600080fd5b61042a8d828e01610322565b955095505060808b013567ffffffffffffffff81111561044c5761044c600080fd5b6104588d828e01610322565b935093505060a061046b8d828e01610317565b9150509295989b9194979a5092959850565b60008060008060008060006080888a03121561049b5761049b600080fd5b60006104a78a8a610317565b975050602088013567ffffffffffffffff8111156104c7576104c7600080fd5b6104d38a828b01610322565b9650965050604088013567ffffffffffffffff8111156104f5576104f5600080fd5b6105018a828b01610322565b9450945050606088013567ffffffffffffffff81111561052357610523600080fd5b61052f8a828b01610322565b925092505092959891949750929550565b82818337506000910152565b6000610559838584610540565b50500190565b600061056c82848661054c565b949350505050565b806102f3565b8183526000602084019350610590838584610540565b5050601f01601f19160190565b60c081016105ab828c610574565b81810360208301526105be818a8c61057a565b905081810360408301526105d381888a61057a565b90506105e26060830187610574565b81810360808301526105f581858761057a565b905061060460a0830184610574565b9a9950505050505050505050565b801515610309565b80516102ce81610612565b60006020828403121561063a5761063a600080fd5b600061056c848461061a565b608081016106548289610574565b818103602083015261066781878961057a565b9050818103604083015261067c81858761057a565b905061068b6060830184610574565b97965050505050505056fea2646970667358221220f1cc047bd3bf04a248db0497c99d3b9a48a0b3308032fb2a67b5d19e942b68d664736f6c63430008110033",
  "linkReferences": {},
  "deployedLinkReferences": {}
}