{
  "_format": "hh-sol-artifact-1",
  "contractName": "UsingTellor",
  "sourceName": "usingtellor/contracts/UsingTellor.sol",
  "abi": [
    {
      "inputs": [
        {
          "internalType": "address payable",
          "name": "_tellor",
          "type": "address"
        }
      ],
      "stateMutability": "nonpayable",
      "type": "constructor"
    },
    {
      "inputs": [
        {
          "internalType": "bytes32",
          "name": "_queryId",
          "type": "bytes32"
        },
        {
          "internalType": "uint256",
          "name": "_timestamp",
          "type": "uint256"
        }
      ],
      "name": "getDataAfter",
      "outputs": [
        {
          "internalType": "bytes",
          "name": "_value",
          "type": "bytes"
        },
        {
          "internalType": "uint256",
          "name": "_timestampRetrieved",
          "type": "uint256"
        }
      ],
      "stateMutability": "view",
      "type": "function"
    },
    {
      "inputs": [
        {
          "internalType": "bytes32",
          "name": "_queryId",
          "type": "bytes32"
        },
        {
          "internalType": "uint256",
          "name": "_timestamp",
          "type": "uint256"
        }
      ],
      "name": "getDataBefore",
      "outputs": [
        {
          "internalType": "bytes",
          "name": "_value",
          "type": "bytes"
        },
        {
          "internalType": "uint256",
          "name": "_timestampRetrieved",
          "type": "uint256"
        }
      ],
      "stateMutability": "view",
      "type": "function"
    },
    {
      "inputs": [
        {
          "internalType": "bytes32",
          "name": "_queryId",
          "type": "bytes32"
        },
        {
          "internalType": "uint256",
          "name": "_timestamp",
          "type": "uint256"
        }
      ],
      "name": "getIndexForDataAfter",
      "outputs": [
        {
          "internalType": "bool",
          "name": "_found",
          "type": "bool"
        },
        {
          "internalType": "uint256",
          "name": "_index",
          "type": "uint256"
        }
      ],
      "stateMutability": "view",
      "type": "function"
    },
    {
      "inputs": [
        {
          "internalType": "bytes32",
          "name": "_queryId",
          "type": "bytes32"
        },
        {
          "internalType": "uint256",
          "name": "_timestamp",
          "type": "uint256"
        }
      ],
      "name": "getIndexForDataBefore",
      "outputs": [
        {
          "internalType": "bool",
          "name": "_found",
          "type": "bool"
        },
        {
          "internalType": "uint256",
          "name": "_index",
          "type": "uint256"
        }
      ],
      "stateMutability": "view",
      "type": "function"
    },
    {
      "inputs": [
        {
          "internalType": "bytes32",
          "name": "_queryId",
          "type": "bytes32"
        },
        {
          "internalType": "uint256",
          "name": "_timestamp",
          "type": "uint256"
        },
        {
          "internalType": "uint256",
          "name": "_maxAge",
          "type": "uint256"
        },
        {
          "internalType": "uint256",
          "name": "_maxCount",
          "type": "uint256"
        }
      ],
      "name": "getMultipleValuesBefore",
      "outputs": [
        {
          "internalType": "bytes[]",
          "name": "_values",
          "type": "bytes[]"
        },
        {
          "internalType": "uint256[]",
          "name": "_timestamps",
          "type": "uint256[]"
        }
      ],
      "stateMutability": "view",
      "type": "function"
    },
    {
      "inputs": [
        {
          "internalType": "bytes32",
          "name": "_queryId",
          "type": "bytes32"
        }
      ],
      "name": "getNewValueCountbyQueryId",
      "outputs": [
        {
          "internalType": "uint256",
          "name": "",
          "type": "uint256"
        }
      ],
      "stateMutability": "view",
      "type": "function"
    },
    {
      "inputs": [
        {
          "internalType": "bytes32",
          "name": "_queryId",
          "type": "bytes32"
        },
        {
          "internalType": "uint256",
          "name": "_timestamp",
          "type": "uint256"
        }
      ],
      "name": "getReporterByTimestamp",
      "outputs": [
        {
          "internalType": "address",
          "name": "",
          "type": "address"
        }
      ],
      "stateMutability": "view",
      "type": "function"
    },
    {
      "inputs": [
        {
          "internalType": "bytes32",
          "name": "_queryId",
          "type": "bytes32"
        },
        {
          "internalType": "uint256",
          "name": "_index",
          "type": "uint256"
        }
      ],
      "name": "getTimestampbyQueryIdandIndex",
      "outputs": [
        {
          "internalType": "uint256",
          "name": "",
          "type": "uint256"
        }
      ],
      "stateMutability": "view",
      "type": "function"
    },
    {
      "inputs": [],
      "name": "idMappingContract",
      "outputs": [
        {
          "internalType": "contract IMappingContract",
          "name": "",
          "type": "address"
        }
      ],
      "stateMutability": "view",
      "type": "function"
    },
    {
      "inputs": [
        {
          "internalType": "bytes32",
          "name": "_queryId",
          "type": "bytes32"
        },
        {
          "internalType": "uint256",
          "name": "_timestamp",
          "type": "uint256"
        }
      ],
      "name": "isInDispute",
      "outputs": [
        {
          "internalType": "bool",
          "name": "",
          "type": "bool"
        }
      ],
      "stateMutability": "view",
      "type": "function"
    },
    {
      "inputs": [
        {
          "internalType": "bytes32",
          "name": "_queryId",
          "type": "bytes32"
        },
        {
          "internalType": "uint256",
          "name": "_timestamp",
          "type": "uint256"
        }
      ],
      "name": "retrieveData",
      "outputs": [
        {
          "internalType": "bytes",
          "name": "",
          "type": "bytes"
        }
      ],
      "stateMutability": "view",
      "type": "function"
    },
    {
      "inputs": [
        {
          "internalType": "address",
          "name": "_addy",
          "type": "address"
        }
      ],
      "name": "setIdMappingContract",
      "outputs": [],
      "stateMutability": "nonpayable",
      "type": "function"
    },
    {
      "inputs": [],
      "name": "tellor",
      "outputs": [
        {
          "internalType": "contract ITellor",
          "name": "",
          "type": "address"
        }
      ],
      "stateMutability": "view",
      "type": "function"
    },
    {
      "inputs": [
        {
          "internalType": "bytes32",
          "name": "_id",
          "type": "bytes32"
        }
      ],
      "name": "valueFor",
      "outputs": [
        {
          "internalType": "int256",
          "name": "_value",
          "type": "int256"
        },
        {
          "internalType": "uint256",
          "name": "_timestamp",
          "type": "uint256"
        },
        {
          "internalType": "uint256",
          "name": "_statusCode",
          "type": "uint256"
        }
      ],
      "stateMutability": "view",
      "type": "function"
    }
  ],
  "bytecode": "0x60806040523480156200001157600080fd5b50604051620014ac380380620014ac833981016040819052620000349162000094565b600080546001600160a01b0319166001600160a01b0392909216919091179055620000c1565b60006001600160a01b0382165b92915050565b62000078816200005a565b81146200008457600080fd5b50565b805162000067816200006d565b600060208284031215620000ab57620000ab600080fd5b6000620000b9848462000087565b949350505050565b6113db80620000d16000396000f3fe608060405234801561001057600080fd5b50600436106100ea5760003560e01c8063a792765f1161008c578063e07c548611610066578063e07c548614610208578063f66f49c314610228578063f78eea831461023b578063fcd4a5461461025d57600080fd5b8063a792765f146101c2578063c5958af9146101d5578063ce5e11bf146101f557600080fd5b80632af8aae0116100c85780632af8aae01461014e57806344e87f911461016157806364ee3c6d1461018157806377b03e0d146101a257600080fd5b8063193b505b146100ef5780631959ad5b14610104578063294490851461012d575b600080fd5b6101026100fd366004610d42565b61027e565b005b600054610117906001600160a01b031681565b6040516101249190610d90565b60405180910390f35b61014061013b366004610daf565b6102ce565b604051610124929190610dfa565b600154610117906001600160a01b031681565b61017461016f366004610daf565b610366565b6040516101249190610e1c565b61019461018f366004610daf565b6103fc565b604051610124929190610e80565b6101b56101b0366004610ea0565b610455565b6040516101249190610ec1565b6101946101d0366004610daf565b6104e0565b6101e86101e3366004610daf565b61057f565b6040516101249190610ecf565b6101b5610203366004610daf565b610610565b61021b610216366004610daf565b61069d565b6040516101249190610ee9565b610140610236366004610daf565b61072a565b61024e610249366004610ea0565b6108e7565b60405161012493929190610ef7565b61027061026b366004610f1f565b6109c9565b604051610124929190611052565b6001546001600160a01b03161561029457600080fd5b600180547fffffffffffffffffffffffff0000000000000000000000000000000000000000166001600160a01b0392909216919091179055565b600080546040517f2944908500000000000000000000000000000000000000000000000000000000815282916001600160a01b03169063294490859061031a9087908790600401611077565b6040805180830381865afa158015610336573d6000803e3d6000fd5b505050506040513d601f19601f8201168201806040525081019061035a91906110a3565b915091505b9250929050565b600080546040517f44e87f910000000000000000000000000000000000000000000000000000000081526001600160a01b03909116906344e87f91906103b29086908690600401611077565b602060405180830381865afa1580156103cf573d6000803e3d6000fd5b505050506040513d601f19601f820116820180604052508101906103f391906110d6565b90505b92915050565b6060600080600061040d868661072a565b9150915081610434576000604051806020016040528060008152509093509350505061035f565b61043e8682610610565b925061044a868461057f565b935050509250929050565b600080546040517f77b03e0d0000000000000000000000000000000000000000000000000000000081526001600160a01b03909116906377b03e0d9061049f908590600401610ec1565b602060405180830381865afa1580156104bc573d6000803e3d6000fd5b505050506040513d601f19601f820116820180604052508101906103f691906110f7565b600080546040517fa792765f000000000000000000000000000000000000000000000000000000008152606092916001600160a01b03169063a792765f9061052e9087908790600401611077565b600060405180830381865afa15801561054b573d6000803e3d6000fd5b505050506040513d6000823e601f3d908101601f191682016040526105739190810190611207565b90969095509350505050565b6000546040517fc5958af90000000000000000000000000000000000000000000000000000000081526060916001600160a01b03169063c5958af9906105cb9086908690600401611077565b600060405180830381865afa1580156105e8573d6000803e3d6000fd5b505050506040513d6000823e601f3d908101601f191682016040526103f39190810190611272565b600080546040517fce5e11bf0000000000000000000000000000000000000000000000000000000081526001600160a01b039091169063ce5e11bf9061065c9086908690600401611077565b602060405180830381865afa158015610679573d6000803e3d6000fd5b505050506040513d601f19601f820116820180604052508101906103f391906110f7565b600080546040517fe07c54860000000000000000000000000000000000000000000000000000000081526001600160a01b039091169063e07c5486906106e99086908690600401611077565b602060405180830381865afa158015610706573d6000803e3d6000fd5b505050506040513d601f19601f820116820180604052508101906103f391906112b8565b600080600061073885610455565b90508060000361074f57600080925092505061035f565b80610759816112ef565b915060019050600080838161076e8a83610610565b9050888111610789576000809750975050505050505061035f565b6107938a84610610565b9050888111156107a257600094505b84156108525760026107b48484611306565b6107be919061132f565b93506107ca8a85610610565b90508881111561080b5760006107e58b610203600188611343565b90508981116107f75760009550610805565b610802600186611343565b92505b506107a2565b600061081c8b610203876001611306565b90508981111561083f57600095508461083481611356565b955050809150610805565b61084a856001611306565b9350506107a2565b61085c8a82610366565b610872576001849750975050505050505061035f565b61087c8a82610366565b801561088757508584105b156108aa578361089681611356565b9450506108a38a85610610565b9050610872565b85841480156108be57506108be8a82610366565b156108d5576000809750975050505050505061035f565b6001849750975050505050505061035f565b6001546040517f87a475fd0000000000000000000000000000000000000000000000000000000081526000918291829182916001600160a01b03909116906387a475fd90610939908890600401610ec1565b602060405180830381865afa158015610956573d6000803e3d6000fd5b505050506040513d601f19601f8201168201806040525081019061097a91906110f7565b9050606061098d826101d0426001611306565b9450905060008490036109ad5760008061019494509450945050506109c2565b60006109b882610cb8565b955060c893505050505b9193909250565b6060806000806109dd88610236888a611343565b9150915081610a2e576040805160008082526020820190925290610a11565b60608152602001906001900390816109fc5790505b506040805160008152602081019091529094509250610caf915050565b6000610a3a89896102ce565b909350905082610a8d576040805160008082526020820190925290610a6f565b6060815260200190600190039081610a5a5790505b506040805160008152602081019091529095509350610caf92505050565b60008060008867ffffffffffffffff811115610aab57610aab611118565b604051908082528060200260200182016040528015610ad4578160200160208202803683370190505b5090505b8883108015610afb57508482610aef866001611306565b610af99190611343565b115b15610b5f576000610b108d6102038588611343565b9050610b1c8d82610366565b610b4c5780828581518110610b3357610b33611370565b602090810291909101015283610b4881611356565b9450505b82610b5681611356565b93505050610ad8565b60008367ffffffffffffffff811115610b7a57610b7a611118565b604051908082528060200260200182016040528015610bad57816020015b6060815260200190600190039081610b985790505b50905060008467ffffffffffffffff811115610bcb57610bcb611118565b604051908082528060200260200182016040528015610bf4578160200160208202803683370190505b50905060005b85811015610ca2578381610c0f600189611343565b610c199190611343565b81518110610c2957610c29611370565b6020026020010151828281518110610c4357610c43611370565b602002602001018181525050610c728f838381518110610c6557610c65611370565b602002602001015161057f565b838281518110610c8457610c84611370565b60200260200101819052508080610c9a90611356565b915050610bfa565b5090985096505050505050505b94509492505050565b6000805b8251811015610d0957828181518110610cd757610cd7611370565b016020015160f81c610ceb83610100611386565b610cf59190611306565b915080610d0181611356565b915050610cbc565b50919050565b60006001600160a01b0382166103f6565b610d2981610d0f565b8114610d3457600080fd5b50565b80356103f681610d20565b600060208284031215610d5757610d57600080fd5b6000610d638484610d37565b949350505050565b60006103f682610d0f565b60006103f682610d6b565b610d8a81610d76565b82525050565b602081016103f68284610d81565b80610d29565b80356103f681610d9e565b60008060408385031215610dc557610dc5600080fd5b6000610dd18585610da4565b9250506020610de285828601610da4565b9150509250929050565b801515610d8a565b80610d8a565b60408101610e088285610dec565b610e156020830184610df4565b9392505050565b602081016103f68284610dec565b60005b83811015610e45578181015183820152602001610e2d565b50506000910152565b6000610e58825190565b808452602084019350610e6f818560208601610e2a565b601f01601f19169290920192915050565b60408082528101610e918185610e4e565b9050610e156020830184610df4565b600060208284031215610eb557610eb5600080fd5b6000610d638484610da4565b602081016103f68284610df4565b602080825281016103f38184610e4e565b610d8a81610d0f565b602081016103f68284610ee0565b60608101610f058286610df4565b610f126020830185610df4565b610d636040830184610df4565b60008060008060808587031215610f3857610f38600080fd5b6000610f448787610da4565b9450506020610f5587828801610da4565b9350506040610f6687828801610da4565b9250506060610f7787828801610da4565b91505092959194509250565b60006103f38383610e4e565b6000610f99825190565b80845260208401935083602082028501610fb38560200190565b8060005b85811015610fe85784840389528151610fd08582610f83565b94506020830160209a909a0199925050600101610fb7565b5091979650505050505050565b60006110018383610df4565b505060200190565b6000611013825190565b80845260209384019383018060005b838110156110475781516110368882610ff5565b975060208301925050600101611022565b509495945050505050565b604080825281016110638185610f8f565b90508181036020830152610d638184611009565b60408101610e088285610df4565b801515610d29565b80516103f681611085565b80516103f681610d9e565b600080604083850312156110b9576110b9600080fd5b60006110c5858561108d565b9250506020610de285828601611098565b6000602082840312156110eb576110eb600080fd5b6000610d63848461108d565b60006020828403121561110c5761110c600080fd5b6000610d638484611098565b634e487b7160e01b600052604160045260246000fd5b601f19601f830116810181811067ffffffffffffffff8211171561115457611154611118565b6040525050565b600061116660405190565b9050611172828261112e565b919050565b600067ffffffffffffffff82111561119157611191611118565b601f19601f83011660200192915050565b60006111b56111b084611177565b61115b565b9050828152602081018484840111156111d0576111d0600080fd5b6111db848285610e2a565b509392505050565b600082601f8301126111f7576111f7600080fd5b8151610d638482602086016111a2565b60008060006060848603121561121f5761121f600080fd5b600061122b868661108d565b935050602084015167ffffffffffffffff81111561124b5761124b600080fd5b611257868287016111e3565b925050604061126886828701611098565b9150509250925092565b60006020828403121561128757611287600080fd5b815167ffffffffffffffff8111156112a1576112a1600080fd5b610d63848285016111e3565b80516103f681610d20565b6000602082840312156112cd576112cd600080fd5b6000610d6384846112ad565b634e487b7160e01b600052601160045260246000fd5b6000816112fe576112fe6112d9565b506000190190565b808201808211156103f6576103f66112d9565b634e487b7160e01b600052601260045260246000fd5b60008261133e5761133e611319565b500490565b818103818111156103f6576103f66112d9565b60006000198203611369576113696112d9565b5060010190565b634e487b7160e01b600052603260045260246000fd5b81810280821583820485141761139e5761139e6112d9565b509291505056fea2646970667358221220ec7b11a143f92eaa58e5b2a168b84efd50531d7139b1e3c72770fdfccced859364736f6c63430008110033",
  "linkReferences": {},
  "deployedLinkReferences": {}
}