{
  "address": "0xAC90cdbBb9AD436bDcF9693706dd900702105E55",
  "abi": [
    {
      "inputs": [],
      "stateMutability": "nonpayable",
      "type": "constructor"
    },
    {
      "anonymous": false,
      "inputs": [
        {
          "indexed": true,
          "internalType": "address",
          "name": "owner",
          "type": "address"
        },
        {
          "indexed": true,
          "internalType": "address",
          "name": "spender",
          "type": "address"
        },
        {
          "indexed": false,
          "internalType": "uint256",
          "name": "value",
          "type": "uint256"
        }
      ],
      "name": "Approval",
      "type": "event"
    },
    {
      "anonymous": false,
      "inputs": [
        {
          "indexed": true,
          "internalType": "address",
          "name": "from",
          "type": "address"
        },
        {
          "indexed": true,
          "internalType": "address",
          "name": "to",
          "type": "address"
        },
        {
          "indexed": false,
          "internalType": "uint256",
          "name": "value",
          "type": "uint256"
        }
      ],
      "name": "Transfer",
      "type": "event"
    },
    {
      "inputs": [
        {
          "internalType": "address",
          "name": "owner",
          "type": "address"
        },
        {
          "internalType": "address",
          "name": "spender",
          "type": "address"
        }
      ],
      "name": "allowance",
      "outputs": [
        {
          "internalType": "uint256",
          "name": "",
          "type": "uint256"
        }
      ],
      "stateMutability": "view",
      "type": "function"
    },
    {
      "inputs": [
        {
          "internalType": "address",
          "name": "spender",
          "type": "address"
        },
        {
          "internalType": "uint256",
          "name": "amount",
          "type": "uint256"
        }
      ],
      "name": "approve",
      "outputs": [
        {
          "internalType": "bool",
          "name": "",
          "type": "bool"
        }
      ],
      "stateMutability": "nonpayable",
      "type": "function"
    },
    {
      "inputs": [
        {
          "internalType": "address",
          "name": "account",
          "type": "address"
        }
      ],
      "name": "balanceOf",
      "outputs": [
        {
          "internalType": "uint256",
          "name": "",
          "type": "uint256"
        }
      ],
      "stateMutability": "view",
      "type": "function"
    },
    {
      "inputs": [],
      "name": "decimals",
      "outputs": [
        {
          "internalType": "uint8",
          "name": "",
          "type": "uint8"
        }
      ],
      "stateMutability": "view",
      "type": "function"
    },
    {
      "inputs": [
        {
          "internalType": "address",
          "name": "spender",
          "type": "address"
        },
        {
          "internalType": "uint256",
          "name": "subtractedValue",
          "type": "uint256"
        }
      ],
      "name": "decreaseAllowance",
      "outputs": [
        {
          "internalType": "bool",
          "name": "",
          "type": "bool"
        }
      ],
      "stateMutability": "nonpayable",
      "type": "function"
    },
    {
      "inputs": [
        {
          "internalType": "address",
          "name": "spender",
          "type": "address"
        },
        {
          "internalType": "uint256",
          "name": "addedValue",
          "type": "uint256"
        }
      ],
      "name": "increaseAllowance",
      "outputs": [
        {
          "internalType": "bool",
          "name": "",
          "type": "bool"
        }
      ],
      "stateMutability": "nonpayable",
      "type": "function"
    },
    {
      "inputs": [
        {
          "internalType": "address",
          "name": "_to",
          "type": "address"
        },
        {
          "internalType": "uint256",
          "name": "_amonut",
          "type": "uint256"
        }
      ],
      "name": "mintKrabz",
      "outputs": [],
      "stateMutability": "nonpayable",
      "type": "function"
    },
    {
      "inputs": [],
      "name": "name",
      "outputs": [
        {
          "internalType": "string",
          "name": "",
          "type": "string"
        }
      ],
      "stateMutability": "view",
      "type": "function"
    },
    {
      "inputs": [],
      "name": "symbol",
      "outputs": [
        {
          "internalType": "string",
          "name": "",
          "type": "string"
        }
      ],
      "stateMutability": "view",
      "type": "function"
    },
    {
      "inputs": [],
      "name": "totalSupply",
      "outputs": [
        {
          "internalType": "uint256",
          "name": "",
          "type": "uint256"
        }
      ],
      "stateMutability": "view",
      "type": "function"
    },
    {
      "inputs": [
        {
          "internalType": "address",
          "name": "to",
          "type": "address"
        },
        {
          "internalType": "uint256",
          "name": "amount",
          "type": "uint256"
        }
      ],
      "name": "transfer",
      "outputs": [
        {
          "internalType": "bool",
          "name": "",
          "type": "bool"
        }
      ],
      "stateMutability": "nonpayable",
      "type": "function"
    },
    {
      "inputs": [
        {
          "internalType": "address",
          "name": "from",
          "type": "address"
        },
        {
          "internalType": "address",
          "name": "to",
          "type": "address"
        },
        {
          "internalType": "uint256",
          "name": "amount",
          "type": "uint256"
        }
      ],
      "name": "transferFrom",
      "outputs": [
        {
          "internalType": "bool",
          "name": "",
          "type": "bool"
        }
      ],
      "stateMutability": "nonpayable",
      "type": "function"
    }
  ],
  "transactionHash": "0x2bd93ec96174e59fc70682db8be7fd11e7ffc23fde08c22b048a49e0c2e1bde2",
  "args": [],
  "numDeployments": 2,
  "solcInputHash": "72f596c6d88da0d3bba026eeeadc316f",
  "bytecode": "0x60806040523480156200001157600080fd5b506040518060400160405280600581526020016425b930b13d60d91b8152506040518060400160405280600381526020016225a92160e91b81525081600390816200005d91906200018e565b5060046200006c82826200018e565b5050506200025e565b634e487b7160e01b600052604160045260246000fd5b634e487b7160e01b600052602260045260246000fd5b600281046001821680620000b657607f821691505b602082108103620000cb57620000cb6200008b565b50919050565b6000620000e2620000df8381565b90565b92915050565b620000f383620000d1565b81546008840282811b60001990911b908116901990911617825550505050565b600062000122818484620000e8565b505050565b8181101562000146576200013d60008262000113565b60010162000127565b5050565b601f82111562000122576000818152602090206020601f85010481016020851015620001735750805b620001876020601f86010483018262000127565b5050505050565b81516001600160401b03811115620001aa57620001aa62000075565b620001b68254620000a1565b620001c38282856200014a565b6020601f831160018114620001fa5760008415620001e15750858201515b600019600886021c198116600286021786555062000256565b600085815260208120601f198616915b828110156200022c57888501518255602094850194600190920191016200020a565b86831015620002495784890151600019601f89166008021c191682555b6001600288020188555050505b505050505050565b610bbe806200026e6000396000f3fe608060405234801561001057600080fd5b50600436106100d45760003560e01c806370a0823111610081578063a457c2d71161005b578063a457c2d7146101a3578063a9059cbb146101b6578063dd62ed3e146101c957600080fd5b806370a082311461015d578063937313301461018657806395d89b411461019b57600080fd5b806323b872dd116100b257806323b872dd14610128578063313ce5671461013b578063395093511461014a57600080fd5b806306fdde03146100d9578063095ea7b3146100f757806318160ddd14610117575b600080fd5b6100e1610202565b6040516100ee919061068b565b60405180910390f35b61010a6101053660046106e7565b610294565b6040516100ee919061072e565b6002545b6040516100ee9190610742565b61010a610136366004610750565b6102ae565b60126040516100ee91906107a9565b61010a6101583660046106e7565b6102d2565b61011b61016b3660046107b7565b6001600160a01b031660009081526020819052604090205490565b6101996101943660046106e7565b610311565b005b6100e161031f565b61010a6101b13660046106e7565b61032e565b61010a6101c43660046106e7565b61038b565b61011b6101d73660046107e0565b6001600160a01b03918216600090815260016020908152604080832093909416825291909152205490565b60606003805461021190610829565b80601f016020809104026020016040519081016040528092919081815260200182805461023d90610829565b801561028a5780601f1061025f5761010080835404028352916020019161028a565b820191906000526020600020905b81548152906001019060200180831161026d57829003601f168201915b5050505050905090565b6000336102a2818585610399565b60019150505b92915050565b6000336102bc85828561044d565b6102c78585856104af565b506001949350505050565b3360008181526001602090815260408083206001600160a01b03871684529091528120549091906102a2908290869061030c90879061086b565b610399565b61031b828261059f565b5050565b60606004805461021190610829565b3360008181526001602090815260408083206001600160a01b03871684529091528120549091908381101561037e5760405162461bcd60e51b8152600401610375906108db565b60405180910390fd5b6102c78286868403610399565b6000336102a28185856104af565b6001600160a01b0383166103bf5760405162461bcd60e51b815260040161037590610945565b6001600160a01b0382166103e55760405162461bcd60e51b8152600401610375906109af565b6001600160a01b0380841660008181526001602090815260408083209487168084529490915290819020849055517f8c5be1e5ebec7d5bd14f71427d1e84f3dd0314c0f7b2291e5b200ac8c7c3b92590610440908590610742565b60405180910390a3505050565b6001600160a01b0383811660009081526001602090815260408083209386168352929052205460001981146104a9578181101561049c5760405162461bcd60e51b8152600401610375906109f6565b6104a98484848403610399565b50505050565b6001600160a01b0383166104d55760405162461bcd60e51b815260040161037590610a60565b6001600160a01b0382166104fb5760405162461bcd60e51b815260040161037590610aca565b6001600160a01b038316600090815260208190526040902054818110156105345760405162461bcd60e51b815260040161037590610b34565b6001600160a01b0380851660008181526020819052604080822086860390559286168082529083902080548601905591517fddf252ad1be2c89b69c2b068fc378daa952ba7f163c4a11628f55a4df523b3ef90610592908690610742565b60405180910390a36104a9565b6001600160a01b0382166105c55760405162461bcd60e51b815260040161037590610b78565b80600260008282546105d7919061086b565b90915550506001600160a01b038216600081815260208190526040808220805485019055517fddf252ad1be2c89b69c2b068fc378daa952ba7f163c4a11628f55a4df523b3ef90610629908590610742565b60405180910390a35050565b60005b83811015610650578181015183820152602001610638565b50506000910152565b6000610663825190565b80845260208401935061067a818560208601610635565b601f01601f19169290920192915050565b6020808252810161069c8184610659565b9392505050565b60006001600160a01b0382166102a8565b6106bd816106a3565b81146106c857600080fd5b50565b80356102a8816106b4565b806106bd565b80356102a8816106d6565b600080604083850312156106fd576106fd600080fd5b600061070985856106cb565b925050602061071a858286016106dc565b9150509250929050565b8015155b82525050565b602081016102a88284610724565b80610728565b602081016102a8828461073c565b60008060006060848603121561076857610768600080fd5b600061077486866106cb565b9350506020610785868287016106cb565b9250506040610796868287016106dc565b9150509250925092565b60ff8116610728565b602081016102a882846107a0565b6000602082840312156107cc576107cc600080fd5b60006107d884846106cb565b949350505050565b600080604083850312156107f6576107f6600080fd5b600061080285856106cb565b925050602061071a858286016106cb565b634e487b7160e01b600052602260045260246000fd5b60028104600182168061083d57607f821691505b60208210810361084f5761084f610813565b50919050565b634e487b7160e01b600052601160045260246000fd5b808201808211156102a8576102a8610855565b602581526000602082017f45524332303a2064656372656173656420616c6c6f77616e63652062656c6f7781527f207a65726f000000000000000000000000000000000000000000000000000000602082015291505b5060400190565b602080825281016102a88161087e565b602481526000602082017f45524332303a20617070726f76652066726f6d20746865207a65726f2061646481527f7265737300000000000000000000000000000000000000000000000000000000602082015291506108d4565b602080825281016102a8816108eb565b602281526000602082017f45524332303a20617070726f766520746f20746865207a65726f20616464726581527f7373000000000000000000000000000000000000000000000000000000000000602082015291506108d4565b602080825281016102a881610955565b601d81526000602082017f45524332303a20696e73756666696369656e7420616c6c6f77616e6365000000815291505b5060200190565b602080825281016102a8816109bf565b602581526000602082017f45524332303a207472616e736665722066726f6d20746865207a65726f20616481527f6472657373000000000000000000000000000000000000000000000000000000602082015291506108d4565b602080825281016102a881610a06565b602381526000602082017f45524332303a207472616e7366657220746f20746865207a65726f206164647281527f6573730000000000000000000000000000000000000000000000000000000000602082015291506108d4565b602080825281016102a881610a70565b602681526000602082017f45524332303a207472616e7366657220616d6f756e742065786365656473206281527f616c616e63650000000000000000000000000000000000000000000000000000602082015291506108d4565b602080825281016102a881610ada565b601f81526000602082017f45524332303a206d696e7420746f20746865207a65726f206164647265737300815291506109ef565b602080825281016102a881610b4456fea2646970667358221220c46877c45fa09a9e0918a9c43dbe635ff3bc0503667c09e28eb3356e4a610a5a64736f6c63430008110033",
  "devdoc": {
    "kind": "dev",
    "methods": {
      "allowance(address,address)": {
        "details": "See {IERC20-allowance}."
      },
      "approve(address,uint256)": {
        "details": "See {IERC20-approve}. NOTE: If `amount` is the maximum `uint256`, the allowance is not updated on `transferFrom`. This is semantically equivalent to an infinite approval. Requirements: - `spender` cannot be the zero address."
      },
      "balanceOf(address)": {
        "details": "See {IERC20-balanceOf}."
      },
      "decimals()": {
        "details": "Returns the number of decimals used to get its user representation. For example, if `decimals` equals `2`, a balance of `505` tokens should be displayed to a user as `5.05` (`505 / 10 ** 2`). Tokens usually opt for a value of 18, imitating the relationship between Ether and Wei. This is the value {ERC20} uses, unless this function is overridden; NOTE: This information is only used for _display_ purposes: it in no way affects any of the arithmetic of the contract, including {IERC20-balanceOf} and {IERC20-transfer}."
      },
      "decreaseAllowance(address,uint256)": {
        "details": "Atomically decreases the allowance granted to `spender` by the caller. This is an alternative to {approve} that can be used as a mitigation for problems described in {IERC20-approve}. Emits an {Approval} event indicating the updated allowance. Requirements: - `spender` cannot be the zero address. - `spender` must have allowance for the caller of at least `subtractedValue`."
      },
      "increaseAllowance(address,uint256)": {
        "details": "Atomically increases the allowance granted to `spender` by the caller. This is an alternative to {approve} that can be used as a mitigation for problems described in {IERC20-approve}. Emits an {Approval} event indicating the updated allowance. Requirements: - `spender` cannot be the zero address."
      },
      "name()": {
        "details": "Returns the name of the token."
      },
      "symbol()": {
        "details": "Returns the symbol of the token, usually a shorter version of the name."
      },
      "totalSupply()": {
        "details": "See {IERC20-totalSupply}."
      },
      "transfer(address,uint256)": {
        "details": "See {IERC20-transfer}. Requirements: - `to` cannot be the zero address. - the caller must have a balance of at least `amount`."
      },
      "transferFrom(address,address,uint256)": {
        "details": "See {IERC20-transferFrom}. Emits an {Approval} event indicating the updated allowance. This is not required by the EIP. See the note at the beginning of {ERC20}. NOTE: Does not update the allowance if the current allowance is the maximum `uint256`. Requirements: - `from` and `to` cannot be the zero address. - `from` must have a balance of at least `amount`. - the caller must have allowance for ``from``'s tokens of at least `amount`."
      }
    },
    "version": 1
  },
  "userdoc": {
    "kind": "user",
    "methods": {},
    "version": 1
  },
  "storageLayout": {
    "storage": [
      {
        "astId": 881,
        "contract": "contracts/KrabzToken.sol:KrabzToken",
        "label": "_balances",
        "offset": 0,
        "slot": "0",
        "type": "t_mapping(t_address,t_uint256)"
      },
      {
        "astId": 887,
        "contract": "contracts/KrabzToken.sol:KrabzToken",
        "label": "_allowances",
        "offset": 0,
        "slot": "1",
        "type": "t_mapping(t_address,t_mapping(t_address,t_uint256))"
      },
      {
        "astId": 889,
        "contract": "contracts/KrabzToken.sol:KrabzToken",
        "label": "_totalSupply",
        "offset": 0,
        "slot": "2",
        "type": "t_uint256"
      },
      {
        "astId": 891,
        "contract": "contracts/KrabzToken.sol:KrabzToken",
        "label": "_name",
        "offset": 0,
        "slot": "3",
        "type": "t_string_storage"
      },
      {
        "astId": 893,
        "contract": "contracts/KrabzToken.sol:KrabzToken",
        "label": "_symbol",
        "offset": 0,
        "slot": "4",
        "type": "t_string_storage"
      }
    ],
    "types": {
      "t_address": {
        "encoding": "inplace",
        "label": "address",
        "numberOfBytes": "20"
      },
      "t_mapping(t_address,t_mapping(t_address,t_uint256))": {
        "encoding": "mapping",
        "key": "t_address",
        "label": "mapping(address => mapping(address => uint256))",
        "numberOfBytes": "32",
        "value": "t_mapping(t_address,t_uint256)"
      },
      "t_mapping(t_address,t_uint256)": {
        "encoding": "mapping",
        "key": "t_address",
        "label": "mapping(address => uint256)",
        "numberOfBytes": "32",
        "value": "t_uint256"
      },
      "t_string_storage": {
        "encoding": "bytes",
        "label": "string",
        "numberOfBytes": "32"
      },
      "t_uint256": {
        "encoding": "inplace",
        "label": "uint256",
        "numberOfBytes": "32"
      }
    }
  }
}